{"abi":[{"type":"function","name":"getStorageAt","inputs":[{"name":"offset","type":"uint256","internalType":"uint256"},{"name":"length","type":"uint256","internalType":"uint256"}],"outputs":[{"name":"","type":"bytes","internalType":"bytes"}],"stateMutability":"view"},{"type":"function","name":"simulateAndRevert","inputs":[{"name":"targetContract","type":"address","internalType":"address"},{"name":"calldataPayload","type":"bytes","internalType":"bytes"}],"outputs":[],"stateMutability":"nonpayable"}],"bytecode":{"object":"0x6080604052348015600e575f5ffd5b5061033e8061001c5f395ff3fe608060405234801561000f575f5ffd5b5060043610610034575f3560e01c80635624b25b14610038578063b4faba0914610061575b5f5ffd5b61004b610046366004610111565b610076565b6040516100589190610131565b60405180910390f35b61007461006f3660046101b1565b6100f2565b005b60605f6100848360206102cc565b67ffffffffffffffff81111561009c5761009c610184565b6040519080825280601f01601f1916602001820160405280156100c6576020820181803683370190505b5090505f5b838110156100e857848101546020808302840101526001016100cb565b5090505b92915050565b5f5f825160208401855af4805f52503d6020523d5f60403e60403d015ffd5b5f5f60408385031215610122575f5ffd5b50508035926020909101359150565b602081525f82518060208401528060208501604085015e5f6040828501015260407fffffffffffffffffffffffffffffffffffffffffffffffffffffffffffffffe0601f83011684010191505092915050565b7f4e487b71000000000000000000000000000000000000000000000000000000005f52604160045260245ffd5b5f5f604083850312156101c2575f5ffd5b823573ffffffffffffffffffffffffffffffffffffffff811681146101e5575f5ffd5b9150602083013567ffffffffffffffff811115610200575f5ffd5b8301601f81018513610210575f5ffd5b803567ffffffffffffffff81111561022a5761022a610184565b6040517fffffffffffffffffffffffffffffffffffffffffffffffffffffffffffffffe0603f7fffffffffffffffffffffffffffffffffffffffffffffffffffffffffffffffe0601f8501160116810181811067ffffffffffffffff8211171561029657610296610184565b6040528181528282016020018710156102ad575f5ffd5b816020840160208301375f602083830101528093505050509250929050565b80820281158282048414176100ec577f4e487b71000000000000000000000000000000000000000000000000000000005f52601160045260245ffdfea264697066735822122043c6460218a055b4dd900ba3d0ae79779d4d80f238b26dcbf4c2057dbcc7be4264736f6c634300081e0033","linkReferences":{}},"methodIdentifiers":{"getStorageAt(uint256,uint256)":"5624b25b","simulateAndRevert(address,bytes)":"b4faba09"},"id":57}