{"abi":[{"type":"function","name":"getPermitCreateClaimDigest","inputs":[{"name":"controllerRegistry","type":"IBullaControllerRegistry","internalType":"contract IBullaControllerRegistry"},{"name":"user","type":"address","internalType":"address"},{"name":"controller","type":"address","internalType":"address"},{"name":"approvalType","type":"CreateClaimApprovalType","internalType":"enum CreateClaimApprovalType"},{"name":"approvalCount","type":"uint64","internalType":"uint64"},{"name":"isBindingAllowed","type":"bool","internalType":"bool"},{"name":"nonce","type":"uint64","internalType":"uint64"}],"outputs":[{"name":"","type":"bytes32","internalType":"bytes32"}],"stateMutability":"view"},{"type":"function","name":"getPermitCreateClaimMessage","inputs":[{"name":"controllerRegistry","type":"IBullaControllerRegistry","internalType":"contract IBullaControllerRegistry"},{"name":"controller","type":"address","internalType":"address"},{"name":"approvalType","type":"CreateClaimApprovalType","internalType":"enum CreateClaimApprovalType"},{"name":"approvalCount","type":"uint64","internalType":"uint64"},{"name":"isBindingAllowed","type":"bool","internalType":"bool"}],"outputs":[{"name":"","type":"string","internalType":"string"}],"stateMutability":"view"},{"type":"event","name":"CreateClaimApproved","inputs":[{"name":"user","type":"address","indexed":true,"internalType":"address"},{"name":"controller","type":"address","indexed":true,"internalType":"address"},{"name":"approvalType","type":"uint8","indexed":true,"internalType":"enum CreateClaimApprovalType"},{"name":"approvalCount","type":"uint256","indexed":false,"internalType":"uint256"},{"name":"isBindingAllowed","type":"bool","indexed":false,"internalType":"bool"},{"name":"nonce","type":"uint256","indexed":false,"internalType":"uint256"}],"anonymous":false},{"type":"error","name":"InvalidApproval","inputs":[]},{"type":"error","name":"InvalidSignature","inputs":[]},{"type":"error","name":"StringsInsufficientHexLength","inputs":[{"name":"value","type":"uint256","internalType":"uint256"},{"name":"length","type":"uint256","internalType":"uint256"}]}],"bytecode":{"object":"0x611911610034600b8282823980515f1a607314602857634e487b7160e01b5f525f60045260245ffd5b305f52607381538281f3fe7300000000000000000000000000000000000000003014608060405260043610610055575f3560e01c80634bec051c14610059578063b0a531a914610082578063b2f4bc39146100a3578063f9205695146100c4575b5f5ffd5b61006c610067366004610fe5565b6100e3565b6040516100799190611096565b60405180910390f35b6100956100903660046110a8565b61041e565b604051908152602001610079565b8180156100ae575f5ffd5b506100c26100bd36600461112f565b610491565b005b8180156100cf575f5ffd5b506100c26100de366004611219565b6105a1565b60605f8367ffffffffffffffff16116101e8576040517fda84f08100000000000000000000000000000000000000000000000000000000815273ffffffffffffffffffffffffffffffffffffffff868116600483015287169063da84f081906024015f60405180830381865afa15801561015f573d5f5f3e3d5ffd5b505050506040513d5f823e601f3d9081017fffffffffffffffffffffffffffffffffffffffffffffffffffffffffffffffe01682016040526101a491908101906112d0565b6101c38673ffffffffffffffffffffffffffffffffffffffff16610880565b6040516020016101d49291906113d7565b604051602081830303815290604052610414565b6040517fda84f08100000000000000000000000000000000000000000000000000000000815273ffffffffffffffffffffffffffffffffffffffff868116600483015287169063da84f081906024015f60405180830381865afa158015610251573d5f5f3e3d5ffd5b505050506040513d5f823e601f3d9081017fffffffffffffffffffffffffffffffffffffffffffffffffffffffffffffffe016820160405261029691908101906112d0565b6102b58673ffffffffffffffffffffffffffffffffffffffff16610880565b7fffffffffffffffffffffffffffffffffffffffffffffffff000000000000000167ffffffffffffffff8616016102fa5760405180602001604052805f81525061032d565b61030d8567ffffffffffffffff166108a9565b60405160200161031d91906114b3565b6040516020818303038152906040525b6001876003811115610341576103416114eb565b0361035a5760405180602001604052805f8152506103f1565b8461039a576040518060400160405280600181526020017f2e000000000000000000000000000000000000000000000000000000000000008152506103d1565b6040518060400160405280601681526020017f207468617420492063616e6e6f742072656a6563742e000000000000000000008152505b6040516020016103e19190611518565b6040516020818303038152906040525b604051602001610404949392919061156f565b6040516020818303038152906040525b9695505050505050565b5f6040518060c00160405280609881526020016118446098913980519060200120878761044e8b8a8a8a8a6100e3565b805160209182012060405161046e959493928b918b918b918b910161168b565b604051602081830303815290604052805190602001209050979650505050505050565b89546a0100000000000000000000900467ffffffffffffffff165f896104bc8c8b8b8b8b8b8961041e565b6040517f190100000000000000000000000000000000000000000000000000000000000060208201526022810192909252604282015260620160405160208183030381529060405280519060200120905061054d898286868080601f0160208091040260200160405190810160405280939291908181526020018383808284375f9201919091525061096592505050565b610583576040517f8baa579f00000000000000000000000000000000000000000000000000000000815260040160405180910390fd5b6105938c8c8c8c8c8c8c8c6105a1565b505050505050505050505050565b87546a0100000000000000000000900467ffffffffffffffff165f8460038111156105ce576105ce6114eb565b03610694575f8367ffffffffffffffff1611806105e85750815b1561061f576040517f1f3e0de800000000000000000000000000000000000000000000000000000000815260040160405180910390fd5b88546a0100000000000000000000900467ffffffffffffffff1689600a61064583611752565b825467ffffffffffffffff9182166101009390930a92830291909202199091161790555088547fffffffffffffffffffffffffffffffffffffffffffff000000000000000000001689556107e9565b8267ffffffffffffffff165f036106d7576040517f1f3e0de800000000000000000000000000000000000000000000000000000000815260040160405180910390fd5b88546a0100000000000000000000900467ffffffffffffffff1689600a6106fd83611752565b825467ffffffffffffffff91821661010093840a90810292021916179091558a548415157fffffffffffffffffffffffffffffffffffffffffffffffffffffffffffffff00821681178d558793508c927fffffffffffffffffffffffffffffffffffffffffffffffffffffffffffff00ff9091167fffffffffffffffffffffffffffffffffffffffffffffffffffffffffffff000090921691909117908360038111156107ac576107ac6114eb565b021790555088547fffffffffffffffffffffffffffffffffffffffffffff0000000000000000ffff166201000067ffffffffffffffff8516021789555b8360038111156107fb576107fb6114eb565b89546040805167ffffffffffffffff878116825286151560208301526a0100000000000000000000909304909216828201525173ffffffffffffffffffffffffffffffffffffffff88811692908a16917f41133cb9ff74fcb4b207e90c7d8629aa505d6145e4c491b7806f45731fd2a2ce9181900360600190a4505050505050505050565b60606108a373ffffffffffffffffffffffffffffffffffffffff831660146109ff565b92915050565b60605f6108b583610c23565b60010190505f8167ffffffffffffffff8111156108d4576108d46112a3565b6040519080825280601f01601f1916602001820160405280156108fe576020820181803683370190505b5090508181016020015b7fffffffffffffffffffffffffffffffffffffffffffffffffffffffffffffffff017f3031323334353637383961626364656600000000000000000000000000000000600a86061a8153600a850494508461090857509392505050565b5f8373ffffffffffffffffffffffffffffffffffffffff163b5f036109ea575f5f6109908585610d04565b5090925090505f8160038111156109a9576109a96114eb565b1480156109e157508573ffffffffffffffffffffffffffffffffffffffff168273ffffffffffffffffffffffffffffffffffffffff16145b925050506109f8565b6109f5848484610d4d565b90505b9392505050565b6060825f610a0e84600261177e565b610a19906002611795565b67ffffffffffffffff811115610a3157610a316112a3565b6040519080825280601f01601f191660200182016040528015610a5b576020820181803683370190505b5090507f3000000000000000000000000000000000000000000000000000000000000000815f81518110610a9157610a916117a8565b60200101907effffffffffffffffffffffffffffffffffffffffffffffffffffffffffffff191690815f1a9053507f780000000000000000000000000000000000000000000000000000000000000081600181518110610af357610af36117a8565b60200101907effffffffffffffffffffffffffffffffffffffffffffffffffffffffffffff191690815f1a9053505f610b2d85600261177e565b610b38906001611795565b90505b6001811115610bd4577f303132333435363738396162636465660000000000000000000000000000000083600f1660108110610b7957610b796117a8565b1a60f81b828281518110610b8f57610b8f6117a8565b60200101907effffffffffffffffffffffffffffffffffffffffffffffffffffffffffffff191690815f1a90535060049290921c91610bcd816117d5565b9050610b3b565b508115610c1b576040517fe22e27eb000000000000000000000000000000000000000000000000000000008152600481018690526024810185905260440160405180910390fd5b949350505050565b5f807a184f03e93ff9f4daa797ed6e38ed64bf6a1f0100000000000000008310610c6b577a184f03e93ff9f4daa797ed6e38ed64bf6a1f010000000000000000830492506040015b6d04ee2d6d415b85acef81000000008310610c97576d04ee2d6d415b85acef8100000000830492506020015b662386f26fc100008310610cb557662386f26fc10000830492506010015b6305f5e1008310610ccd576305f5e100830492506008015b6127108310610ce157612710830492506004015b60648310610cf3576064830492506002015b600a83106108a35760010192915050565b5f5f5f8351604103610d3b576020840151604085015160608601515f1a610d2d88828585610e95565b955095509550505050610d46565b505081515f91506002905b9250925092565b5f5f5f8573ffffffffffffffffffffffffffffffffffffffff168585604051602401610d7a929190611809565b604080517fffffffffffffffffffffffffffffffffffffffffffffffffffffffffffffffe08184030181529181526020820180517bffffffffffffffffffffffffffffffffffffffffffffffffffffffff167f1626ba7e0000000000000000000000000000000000000000000000000000000017905251610dfb9190611821565b5f60405180830381855afa9150503d805f8114610e33576040519150601f19603f3d011682016040523d82523d5f602084013e610e38565b606091505b5091509150818015610e4c57506020815110155b8015610414575080517f1626ba7e0000000000000000000000000000000000000000000000000000000090610e8a908301602090810190840161182c565b149695505050505050565b5f80807f7fffffffffffffffffffffffffffffff5d576e7357a4501ddfe92f46681b20a0841115610ece57505f91506003905082610f7e565b604080515f808252602082018084528a905260ff891692820192909252606081018790526080810186905260019060a0016020604051602081039080840390855afa158015610f1f573d5f5f3e3d5ffd5b50506040517fffffffffffffffffffffffffffffffffffffffffffffffffffffffffffffffe0015191505073ffffffffffffffffffffffffffffffffffffffff8116610f7557505f925060019150829050610f7e565b92505f91508190505b9450945094915050565b73ffffffffffffffffffffffffffffffffffffffff81168114610fa9575f5ffd5b50565b803560048110610fba575f5ffd5b919050565b803567ffffffffffffffff81168114610fba575f5ffd5b80358015158114610fba575f5ffd5b5f5f5f5f5f60a08688031215610ff9575f5ffd5b853561100481610f88565b9450602086013561101481610f88565b935061102260408701610fac565b925061103060608701610fbf565b915061103e60808701610fd6565b90509295509295909350565b5f81518084528060208401602086015e5f6020828601015260207fffffffffffffffffffffffffffffffffffffffffffffffffffffffffffffffe0601f83011685010191505092915050565b602081525f6109f8602083018461104a565b5f5f5f5f5f5f5f60e0888a0312156110be575f5ffd5b87356110c981610f88565b965060208801356110d981610f88565b955060408801356110e981610f88565b94506110f760608901610fac565b935061110560808901610fbf565b925061111360a08901610fd6565b915061112160c08901610fbf565b905092959891949750929550565b5f5f5f5f5f5f5f5f5f5f6101208b8d031215611149575f5ffd5b8a35995060208b013561115b81610f88565b985060408b0135975060608b013561117281610f88565b965060808b013561118281610f88565b955061119060a08c01610fac565b945061119e60c08c01610fbf565b93506111ac60e08c01610fd6565b92506101008b013567ffffffffffffffff8111156111c8575f5ffd5b8b01601f81018d136111d8575f5ffd5b803567ffffffffffffffff8111156111ee575f5ffd5b8d60208284010111156111ff575f5ffd5b60208201935080925050509295989b9194979a5092959850565b5f5f5f5f5f5f5f5f610100898b031215611231575f5ffd5b88359750602089013561124381610f88565b965060408901359550606089013561125a81610f88565b9450608089013561126a81610f88565b935061127860a08a01610fac565b925061128660c08a01610fbf565b915061129460e08a01610fd6565b90509295985092959890939650565b7f4e487b71000000000000000000000000000000000000000000000000000000005f52604160045260245ffd5b5f602082840312156112e0575f5ffd5b815167ffffffffffffffff8111156112f6575f5ffd5b8201601f81018413611306575f5ffd5b805167ffffffffffffffff811115611320576113206112a3565b6040517fffffffffffffffffffffffffffffffffffffffffffffffffffffffffffffffe0603f7fffffffffffffffffffffffffffffffffffffffffffffffffffffffffffffffe0601f8501160116810181811067ffffffffffffffff8211171561138c5761138c6112a3565b6040528181528282016020018610156113a3575f5ffd5b8160208401602083015e5f91810160200191909152949350505050565b5f81518060208401855e5f93019283525090919050565b7f49207265766f6b6520617070726f76616c20666f722074686520666f6c6c6f7781527f696e6720636f6e74726163743a2000000000000000000000000000000000000060208201525f61142e602e8301856113c0565b7f2028000000000000000000000000000000000000000000000000000000000000815261145e60028201856113c0565b7f292000000000000000000000000000000000000000000000000000000000000081527f746f2063726561746520636c61696d73206f6e206d7920626568616c662e0000600282015260200195945050505050565b5f6114be82846113c0565b7f200000000000000000000000000000000000000000000000000000000000000081526001019392505050565b7f4e487b71000000000000000000000000000000000000000000000000000000005f52602160045260245ffd5b7f20492061636b6e6f776c656467652074686174207468697320636f6e7472616381527f74206d617920696e64656274206d65206f6e20636c61696d730000000000000060208201525f6109f860398301846113c0565b7f4920617070726f76652074686520666f6c6c6f77696e6720636f6e747261637481527f3a2000000000000000000000000000000000000000000000000000000000000060208201525f6115c660228301876113c0565b7f202800000000000000000000000000000000000000000000000000000000000081526115f660028201876113c0565b90507f292000000000000000000000000000000000000000000000000000000000000081527f746f206372656174652000000000000000000000000000000000000000000000600282015261164e600c8201866113c0565b90507f636c61696d73206f6e206d7920626568616c662e000000000000000000000000815261168060148201856113c0565b979650505050505050565b88815273ffffffffffffffffffffffffffffffffffffffff888116602083015287166040820152606081018690526101008101600486106116f3577f4e487b71000000000000000000000000000000000000000000000000000000005f52602160045260245ffd5b608082019590955267ffffffffffffffff93841660a082015291151560c083015290911660e090910152949350505050565b7f4e487b71000000000000000000000000000000000000000000000000000000005f52601160045260245ffd5b5f67ffffffffffffffff821667ffffffffffffffff810361177557611775611725565b60010192915050565b80820281158282048414176108a3576108a3611725565b808201808211156108a3576108a3611725565b7f4e487b71000000000000000000000000000000000000000000000000000000005f52603260045260245ffd5b5f816117e3576117e3611725565b507fffffffffffffffffffffffffffffffffffffffffffffffffffffffffffffffff0190565b828152604060208201525f610c1b604083018461104a565b5f6109f882846113c0565b5f6020828403121561183c575f5ffd5b505191905056fe417070726f7665437265617465436c61696d457874656e73696f6e286164647265737320757365722c6164647265737320636f6e74726f6c6c65722c737472696e67206d6573736167652c75696e743820617070726f76616c547970652c75696e7432353620617070726f76616c436f756e742c626f6f6c20697342696e64696e67416c6c6f7765642c75696e74323536206e6f6e636529a26469706673582212206c9292fd5f8ed7384196f028a4c5bd562412228011fa24c4098d6909be33b2b664736f6c634300081e0033","linkReferences":{}},"methodIdentifiers":{"approveCreateClaim(Approvals storage,IBullaControllerRegistry,bytes32,address,address,CreateClaimApprovalType,uint64,bool)":"f9205695","getPermitCreateClaimDigest(IBullaControllerRegistry,address,address,CreateClaimApprovalType,uint64,bool,uint64)":"b0a531a9","getPermitCreateClaimMessage(IBullaControllerRegistry,address,CreateClaimApprovalType,uint64,bool)":"4bec051c","permitCreateClaim(Approvals storage,IBullaControllerRegistry,bytes32,address,address,CreateClaimApprovalType,uint64,bool,bytes)":"b2f4bc39"},"id":105}