{"abi":[{"type":"constructor","inputs":[{"name":"bullaClaim","type":"address","internalType":"address"},{"name":"_owner","type":"address","internalType":"address"},{"name":"_protocolFeeBPS","type":"uint16","internalType":"uint16"},{"name":"_processingFeeBPS","type":"uint16","internalType":"uint16"}],"stateMutability":"nonpayable"},{"type":"function","name":"_bullaClaim","inputs":[],"outputs":[{"name":"","type":"address","internalType":"contract IBullaClaimV2"}],"stateMutability":"view"},{"type":"function","name":"acceptLoan","inputs":[{"name":"offerId","type":"uint256","internalType":"uint256"}],"outputs":[{"name":"","type":"uint256","internalType":"uint256"}],"stateMutability":"payable"},{"type":"function","name":"acceptLoanWithReceiver","inputs":[{"name":"offerId","type":"uint256","internalType":"uint256"},{"name":"receiver","type":"address","internalType":"address"}],"outputs":[{"name":"","type":"uint256","internalType":"uint256"}],"stateMutability":"payable"},{"type":"function","name":"addToCallbackWhitelist","inputs":[{"name":"callbackContract","type":"address","internalType":"address"},{"name":"selector","type":"bytes4","internalType":"bytes4"}],"outputs":[],"stateMutability":"nonpayable"},{"type":"function","name":"addToFeeTokenWhitelist","inputs":[{"name":"token","type":"address","internalType":"address"}],"outputs":[],"stateMutability":"nonpayable"},{"type":"function","name":"admin","inputs":[],"outputs":[{"name":"","type":"address","internalType":"address"}],"stateMutability":"view"},{"type":"function","name":"approve","inputs":[{"name":"to","type":"address","internalType":"address"},{"name":"tokenId","type":"uint256","internalType":"uint256"}],"outputs":[],"stateMutability":"nonpayable"},{"type":"function","name":"balanceOf","inputs":[{"name":"owner","type":"address","internalType":"address"}],"outputs":[{"name":"","type":"uint256","internalType":"uint256"}],"stateMutability":"view"},{"type":"function","name":"callbackWhitelist","inputs":[{"name":"","type":"address","internalType":"address"},{"name":"","type":"bytes4","internalType":"bytes4"}],"outputs":[{"name":"","type":"bool","internalType":"bool"}],"stateMutability":"view"},{"type":"function","name":"getApproved","inputs":[{"name":"tokenId","type":"uint256","internalType":"uint256"}],"outputs":[{"name":"","type":"address","internalType":"address"}],"stateMutability":"view"},{"type":"function","name":"getLoan","inputs":[{"name":"claimId","type":"uint256","internalType":"uint256"}],"outputs":[{"name":"","type":"tuple","internalType":"struct Loan","components":[{"name":"claimAmount","type":"uint256","internalType":"uint256"},{"name":"paidAmount","type":"uint256","internalType":"uint256"},{"name":"status","type":"uint8","internalType":"enum Status"},{"name":"binding","type":"uint8","internalType":"enum ClaimBinding"},{"name":"debtor","type":"address","internalType":"address"},{"name":"creditor","type":"address","internalType":"address"},{"name":"token","type":"address","internalType":"address"},{"name":"controller","type":"address","internalType":"address"},{"name":"dueBy","type":"uint256","internalType":"uint256"},{"name":"acceptedAt","type":"uint256","internalType":"uint256"},{"name":"interestConfig","type":"tuple","internalType":"struct InterestConfig","components":[{"name":"interestRateBps","type":"uint16","internalType":"uint16"},{"name":"numberOfPeriodsPerYear","type":"uint16","internalType":"uint16"}]},{"name":"interestComputationState","type":"tuple","internalType":"struct InterestComputationState","components":[{"name":"accruedInterest","type":"uint256","internalType":"uint256"},{"name":"latestPeriodNumber","type":"uint256","internalType":"uint256"},{"name":"protocolFeeBps","type":"uint16","internalType":"uint16"},{"name":"totalGrossInterestPaid","type":"uint256","internalType":"uint256"}]}]}],"stateMutability":"view"},{"type":"function","name":"getLoanOffer","inputs":[{"name":"offerId","type":"uint256","internalType":"uint256"}],"outputs":[{"name":"","type":"tuple","internalType":"struct LoanOffer","components":[{"name":"params","type":"tuple","internalType":"struct LoanRequestParams","components":[{"name":"termLength","type":"uint256","internalType":"uint256"},{"name":"interestConfig","type":"tuple","internalType":"struct InterestConfig","components":[{"name":"interestRateBps","type":"uint16","internalType":"uint16"},{"name":"numberOfPeriodsPerYear","type":"uint16","internalType":"uint16"}]},{"name":"loanAmount","type":"uint256","internalType":"uint256"},{"name":"creditor","type":"address","internalType":"address"},{"name":"debtor","type":"address","internalType":"address"},{"name":"description","type":"string","internalType":"string"},{"name":"token","type":"address","internalType":"address"},{"name":"impairmentGracePeriod","type":"uint256","internalType":"uint256"},{"name":"expiresAt","type":"uint256","internalType":"uint256"},{"name":"callbackContract","type":"address","internalType":"address"},{"name":"callbackSelector","type":"bytes4","internalType":"bytes4"}]},{"name":"requestedByCreditor","type":"bool","internalType":"bool"}]}],"stateMutability":"view"},{"type":"function","name":"getLoanOfferMetadata","inputs":[{"name":"offerId","type":"uint256","internalType":"uint256"}],"outputs":[{"name":"","type":"tuple","internalType":"struct ClaimMetadata","components":[{"name":"tokenURI","type":"string","internalType":"string"},{"name":"attachmentURI","type":"string","internalType":"string"}]}],"stateMutability":"view"},{"type":"function","name":"getTotalAmountDue","inputs":[{"name":"claimId","type":"uint256","internalType":"uint256"}],"outputs":[{"name":"remainingPrincipal","type":"uint256","internalType":"uint256"},{"name":"grossInterest","type":"uint256","internalType":"uint256"}],"stateMutability":"view"},{"type":"function","name":"impairLoan","inputs":[{"name":"claimId","type":"uint256","internalType":"uint256"}],"outputs":[],"stateMutability":"nonpayable"},{"type":"function","name":"isApprovedForAll","inputs":[{"name":"owner","type":"address","internalType":"address"},{"name":"operator","type":"address","internalType":"address"}],"outputs":[{"name":"","type":"bool","internalType":"bool"}],"stateMutability":"view"},{"type":"function","name":"isCallbackWhitelisted","inputs":[{"name":"callbackContract","type":"address","internalType":"address"},{"name":"selector","type":"bytes4","internalType":"bytes4"}],"outputs":[{"name":"","type":"bool","internalType":"bool"}],"stateMutability":"view"},{"type":"function","name":"loanOfferCount","inputs":[],"outputs":[{"name":"","type":"uint256","internalType":"uint256"}],"stateMutability":"view"},{"type":"function","name":"markLoanAsPaid","inputs":[{"name":"claimId","type":"uint256","internalType":"uint256"}],"outputs":[],"stateMutability":"nonpayable"},{"type":"function","name":"offerLoan","inputs":[{"name":"offer","type":"tuple","internalType":"struct LoanRequestParams","components":[{"name":"termLength","type":"uint256","internalType":"uint256"},{"name":"interestConfig","type":"tuple","internalType":"struct InterestConfig","components":[{"name":"interestRateBps","type":"uint16","internalType":"uint16"},{"name":"numberOfPeriodsPerYear","type":"uint16","internalType":"uint16"}]},{"name":"loanAmount","type":"uint256","internalType":"uint256"},{"name":"creditor","type":"address","internalType":"address"},{"name":"debtor","type":"address","internalType":"address"},{"name":"description","type":"string","internalType":"string"},{"name":"token","type":"address","internalType":"address"},{"name":"impairmentGracePeriod","type":"uint256","internalType":"uint256"},{"name":"expiresAt","type":"uint256","internalType":"uint256"},{"name":"callbackContract","type":"address","internalType":"address"},{"name":"callbackSelector","type":"bytes4","internalType":"bytes4"}]}],"outputs":[{"name":"","type":"uint256","internalType":"uint256"}],"stateMutability":"nonpayable"},{"type":"function","name":"offerLoanWithMetadata","inputs":[{"name":"offer","type":"tuple","internalType":"struct LoanRequestParams","components":[{"name":"termLength","type":"uint256","internalType":"uint256"},{"name":"interestConfig","type":"tuple","internalType":"struct InterestConfig","components":[{"name":"interestRateBps","type":"uint16","internalType":"uint16"},{"name":"numberOfPeriodsPerYear","type":"uint16","internalType":"uint16"}]},{"name":"loanAmount","type":"uint256","internalType":"uint256"},{"name":"creditor","type":"address","internalType":"address"},{"name":"debtor","type":"address","internalType":"address"},{"name":"description","type":"string","internalType":"string"},{"name":"token","type":"address","internalType":"address"},{"name":"impairmentGracePeriod","type":"uint256","internalType":"uint256"},{"name":"expiresAt","type":"uint256","internalType":"uint256"},{"name":"callbackContract","type":"address","internalType":"address"},{"name":"callbackSelector","type":"bytes4","internalType":"bytes4"}]},{"name":"metadata","type":"tuple","internalType":"struct ClaimMetadata","components":[{"name":"tokenURI","type":"string","internalType":"string"},{"name":"attachmentURI","type":"string","internalType":"string"}]}],"outputs":[{"name":"","type":"uint256","internalType":"uint256"}],"stateMutability":"nonpayable"},{"type":"function","name":"owner","inputs":[],"outputs":[{"name":"","type":"address","internalType":"address"}],"stateMutability":"view"},{"type":"function","name":"ownerOf","inputs":[{"name":"tokenId","type":"uint256","internalType":"uint256"}],"outputs":[{"name":"","type":"address","internalType":"address"}],"stateMutability":"view"},{"type":"function","name":"payLoan","inputs":[{"name":"claimId","type":"uint256","internalType":"uint256"},{"name":"paymentAmount","type":"uint256","internalType":"uint256"}],"outputs":[],"stateMutability":"nonpayable"},{"type":"function","name":"processingFeeBPS","inputs":[],"outputs":[{"name":"","type":"uint16","internalType":"uint16"}],"stateMutability":"view"},{"type":"function","name":"protocolFeeBPS","inputs":[],"outputs":[{"name":"","type":"uint16","internalType":"uint16"}],"stateMutability":"view"},{"type":"function","name":"protocolFeeTokenWhitelist","inputs":[{"name":"","type":"address","internalType":"address"}],"outputs":[{"name":"","type":"bool","internalType":"bool"}],"stateMutability":"view"},{"type":"function","name":"protocolFeesByToken","inputs":[{"name":"","type":"address","internalType":"address"}],"outputs":[{"name":"","type":"uint256","internalType":"uint256"}],"stateMutability":"view"},{"type":"function","name":"rejectLoanOffer","inputs":[{"name":"offerId","type":"uint256","internalType":"uint256"}],"outputs":[],"stateMutability":"nonpayable"},{"type":"function","name":"removeFromCallbackWhitelist","inputs":[{"name":"callbackContract","type":"address","internalType":"address"},{"name":"selector","type":"bytes4","internalType":"bytes4"}],"outputs":[],"stateMutability":"nonpayable"},{"type":"function","name":"removeFromFeeTokenWhitelist","inputs":[{"name":"token","type":"address","internalType":"address"}],"outputs":[],"stateMutability":"nonpayable"},{"type":"function","name":"renounceOwnership","inputs":[],"outputs":[],"stateMutability":"nonpayable"},{"type":"function","name":"safeTransferFrom","inputs":[{"name":"from","type":"address","internalType":"address"},{"name":"to","type":"address","internalType":"address"},{"name":"tokenId","type":"uint256","internalType":"uint256"}],"outputs":[],"stateMutability":"nonpayable"},{"type":"function","name":"safeTransferFrom","inputs":[{"name":"from","type":"address","internalType":"address"},{"name":"to","type":"address","internalType":"address"},{"name":"tokenId","type":"uint256","internalType":"uint256"},{"name":"data","type":"bytes","internalType":"bytes"}],"outputs":[],"stateMutability":"nonpayable"},{"type":"function","name":"setApprovalForAll","inputs":[{"name":"operator","type":"address","internalType":"address"},{"name":"approved","type":"bool","internalType":"bool"}],"outputs":[],"stateMutability":"nonpayable"},{"type":"function","name":"setPaidLoanCallback","inputs":[{"name":"loanId","type":"uint256","internalType":"uint256"},{"name":"callbackContract","type":"address","internalType":"address"},{"name":"callbackSelector","type":"bytes4","internalType":"bytes4"}],"outputs":[],"stateMutability":"nonpayable"},{"type":"function","name":"setProcessingFee","inputs":[{"name":"_processingFeeBPS","type":"uint16","internalType":"uint16"}],"outputs":[],"stateMutability":"nonpayable"},{"type":"function","name":"setProtocolFee","inputs":[{"name":"_protocolFeeBPS","type":"uint16","internalType":"uint16"}],"outputs":[],"stateMutability":"nonpayable"},{"type":"function","name":"supportsInterface","inputs":[{"name":"interfaceId","type":"bytes4","internalType":"bytes4"}],"outputs":[{"name":"","type":"bool","internalType":"bool"}],"stateMutability":"view"},{"type":"function","name":"transferFrom","inputs":[{"name":"from","type":"address","internalType":"address"},{"name":"to","type":"address","internalType":"address"},{"name":"tokenId","type":"uint256","internalType":"uint256"}],"outputs":[],"stateMutability":"nonpayable"},{"type":"function","name":"transferOwnership","inputs":[{"name":"newOwner","type":"address","internalType":"address"}],"outputs":[],"stateMutability":"nonpayable"},{"type":"function","name":"whitelistedProtocolFeeTokens","inputs":[{"name":"","type":"uint256","internalType":"uint256"}],"outputs":[{"name":"","type":"address","internalType":"address"}],"stateMutability":"view"},{"type":"function","name":"withdrawAllFees","inputs":[],"outputs":[],"stateMutability":"nonpayable"},{"type":"event","name":"Approval","inputs":[{"name":"owner","type":"address","indexed":true,"internalType":"address"},{"name":"approved","type":"address","indexed":true,"internalType":"address"},{"name":"tokenId","type":"uint256","indexed":true,"internalType":"uint256"}],"anonymous":false},{"type":"event","name":"ApprovalForAll","inputs":[{"name":"owner","type":"address","indexed":true,"internalType":"address"},{"name":"operator","type":"address","indexed":true,"internalType":"address"},{"name":"approved","type":"bool","indexed":false,"internalType":"bool"}],"anonymous":false},{"type":"event","name":"CallbackRemovedFromWhitelist","inputs":[{"name":"callbackContract","type":"address","indexed":true,"internalType":"address"},{"name":"selector","type":"bytes4","indexed":true,"internalType":"bytes4"}],"anonymous":false},{"type":"event","name":"CallbackWhitelisted","inputs":[{"name":"callbackContract","type":"address","indexed":true,"internalType":"address"},{"name":"selector","type":"bytes4","indexed":true,"internalType":"bytes4"}],"anonymous":false},{"type":"event","name":"FeeWithdrawn","inputs":[{"name":"admin","type":"address","indexed":true,"internalType":"address"},{"name":"token","type":"address","indexed":true,"internalType":"address"},{"name":"amount","type":"uint256","indexed":false,"internalType":"uint256"}],"anonymous":false},{"type":"event","name":"LoanOfferAccepted","inputs":[{"name":"offerId","type":"uint256","indexed":true,"internalType":"uint256"},{"name":"claimId","type":"uint256","indexed":true,"internalType":"uint256"},{"name":"receiver","type":"address","indexed":true,"internalType":"address"},{"name":"fee","type":"uint256","indexed":false,"internalType":"uint256"},{"name":"processingFee","type":"uint256","indexed":false,"internalType":"uint256"},{"name":"metadata","type":"tuple","indexed":false,"internalType":"struct ClaimMetadata","components":[{"name":"tokenURI","type":"string","internalType":"string"},{"name":"attachmentURI","type":"string","internalType":"string"}]}],"anonymous":false},{"type":"event","name":"LoanOfferRejected","inputs":[{"name":"offerId","type":"uint256","indexed":true,"internalType":"uint256"},{"name":"rejectedBy","type":"address","indexed":true,"internalType":"address"}],"anonymous":false},{"type":"event","name":"LoanOffered","inputs":[{"name":"offerId","type":"uint256","indexed":true,"internalType":"uint256"},{"name":"offeredBy","type":"address","indexed":true,"internalType":"address"},{"name":"loanOffer","type":"tuple","indexed":false,"internalType":"struct LoanRequestParams","components":[{"name":"termLength","type":"uint256","internalType":"uint256"},{"name":"interestConfig","type":"tuple","internalType":"struct InterestConfig","components":[{"name":"interestRateBps","type":"uint16","internalType":"uint16"},{"name":"numberOfPeriodsPerYear","type":"uint16","internalType":"uint16"}]},{"name":"loanAmount","type":"uint256","internalType":"uint256"},{"name":"creditor","type":"address","internalType":"address"},{"name":"debtor","type":"address","internalType":"address"},{"name":"description","type":"string","internalType":"string"},{"name":"token","type":"address","internalType":"address"},{"name":"impairmentGracePeriod","type":"uint256","internalType":"uint256"},{"name":"expiresAt","type":"uint256","internalType":"uint256"},{"name":"callbackContract","type":"address","internalType":"address"},{"name":"callbackSelector","type":"bytes4","internalType":"bytes4"}]},{"name":"metadata","type":"tuple","indexed":false,"internalType":"struct ClaimMetadata","components":[{"name":"tokenURI","type":"string","internalType":"string"},{"name":"attachmentURI","type":"string","internalType":"string"}]}],"anonymous":false},{"type":"event","name":"LoanPayment","inputs":[{"name":"claimId","type":"uint256","indexed":true,"internalType":"uint256"},{"name":"grossInterestPaid","type":"uint256","indexed":false,"internalType":"uint256"},{"name":"principalPaid","type":"uint256","indexed":false,"internalType":"uint256"},{"name":"protocolFee","type":"uint256","indexed":false,"internalType":"uint256"}],"anonymous":false},{"type":"event","name":"OwnershipTransferred","inputs":[{"name":"previousOwner","type":"address","indexed":true,"internalType":"address"},{"name":"newOwner","type":"address","indexed":true,"internalType":"address"}],"anonymous":false},{"type":"event","name":"ProcessingFeeUpdated","inputs":[{"name":"oldFee","type":"uint16","indexed":false,"internalType":"uint16"},{"name":"newFee","type":"uint16","indexed":false,"internalType":"uint16"}],"anonymous":false},{"type":"event","name":"ProtocolFeeUpdated","inputs":[{"name":"oldFee","type":"uint16","indexed":false,"internalType":"uint16"},{"name":"newFee","type":"uint16","indexed":false,"internalType":"uint16"}],"anonymous":false},{"type":"event","name":"TokenAddedToFeesWhitelist","inputs":[{"name":"token","type":"address","indexed":true,"internalType":"address"}],"anonymous":false},{"type":"event","name":"TokenRemovedFromFeesWhitelist","inputs":[{"name":"token","type":"address","indexed":true,"internalType":"address"}],"anonymous":false},{"type":"event","name":"Transfer","inputs":[{"name":"from","type":"address","indexed":true,"internalType":"address"},{"name":"to","type":"address","indexed":true,"internalType":"address"},{"name":"tokenId","type":"uint256","indexed":true,"internalType":"uint256"}],"anonymous":false},{"type":"error","name":"CallbackFailed","inputs":[{"name":"data","type":"bytes","internalType":"bytes"}]},{"type":"error","name":"CallbackNotWhitelisted","inputs":[]},{"type":"error","name":"IncorrectFee","inputs":[]},{"type":"error","name":"InvalidGracePeriod","inputs":[]},{"type":"error","name":"InvalidProtocolFee","inputs":[]},{"type":"error","name":"InvalidTermLength","inputs":[]},{"type":"error","name":"LoanOfferExpired","inputs":[]},{"type":"error","name":"LoanOfferNotFound","inputs":[]},{"type":"error","name":"NativeTokenNotSupported","inputs":[]},{"type":"error","name":"NotController","inputs":[{"name":"sender","type":"address","internalType":"address"}]},{"type":"error","name":"NotCreditor","inputs":[]},{"type":"error","name":"NotCreditorOrDebtor","inputs":[]},{"type":"error","name":"NotDebtor","inputs":[]},{"type":"error","name":"OwnableInvalidOwner","inputs":[{"name":"owner","type":"address","internalType":"address"}]},{"type":"error","name":"OwnableUnauthorizedAccount","inputs":[{"name":"account","type":"address","internalType":"address"}]}],"bytecode":{"object":"0x60a060405234801561000f575f5ffd5b506040516161e33803806161e383398101604081905261002e916101af565b6001600160a01b038085166080528390811661006357604051631e4fbdf760e01b81525f600482015260240160405180910390fd5b61006c81610134565b5061271061ffff8316111561009457604051631752ff0760e31b815260040160405180910390fd5b61271061ffff821611156100bb57604051631752ff0760e31b815260040160405180910390fd5b6002805461ffff838116620100000263ffffffff1990921690851617179055604080516060810182525f818301818152825282516020818101909452908152918101919091528051600a9081906101129082610298565b50602082015160018201906101279082610298565b5090505050505050610352565b5f80546001600160a01b038381166001600160a01b0319831681178455604051919092169283917f8be0079c531659141344cd1fd0a4f28419497f9722a3daafe3b4186f6b6457e09190a35050565b80516001600160a01b0381168114610199575f5ffd5b919050565b805161ffff81168114610199575f5ffd5b5f5f5f5f608085870312156101c2575f5ffd5b6101cb85610183565b93506101d960208601610183565b92506101e76040860161019e565b91506101f56060860161019e565b905092959194509250565b634e487b7160e01b5f52604160045260245ffd5b600181811c9082168061022857607f821691505b60208210810361024657634e487b7160e01b5f52602260045260245ffd5b50919050565b601f82111561029357805f5260205f20601f840160051c810160208510156102715750805b601f840160051c820191505b81811015610290575f815560010161027d565b50505b505050565b81516001600160401b038111156102b1576102b1610200565b6102c5816102bf8454610214565b8461024c565b6020601f8211600181146102f7575f83156102e05750848201515b5f19600385901b1c1916600184901b178455610290565b5f84815260208120601f198516915b828110156103265787850151825560209485019460019092019101610306565b508482101561034357868401515f19600387901b60f8161c191681555b50505050600190811b01905550565b608051615dca6104195f395f818161042901528181610a0101528181610ab101528181610b9201528181610c4101528181610d2a01528181610f21015281816117db0152818161189f01528181611b4801528181611bd301528181611eb301528181611f770152818161216b015281816123100152818161255101528181612726015281816127f201528181612c1f01528181612cbb01528181612dc40152818161375c01528181613883015281816139ac01528181613fa301526140660152615dca5ff3fe6080604052600436106102cc575f3560e01c8063715018a61161017b578063af236af4116100d1578063e4467f3511610087578063f2fde38b11610062578063f2fde38b146108ad578063f851a44014610675578063fce5f608146108cc575f5ffd5b8063e4467f3514610850578063e985e9c51461086f578063ea7d616b1461088e575f5ffd5b8063b9108c03116100b7578063b9108c03146107f2578063d4251f9e14610805578063db4e089914610824575f5ffd5b8063af236af4146107bf578063b88d4fde146107d3575f5ffd5b806396daa32211610131578063a5cc6a7f1161010c578063a5cc6a7f14610709578063a64d6beb14610737578063adfbe22f146107ac575f5ffd5b806396daa3221461069e578063a15c24f3146106cb578063a22cb465146106ea575f5ffd5b80638804614611610161578063880461461461063757806389306e61146106565780638da5cb5b14610675575f5ffd5b8063715018a6146106045780638245999514610618575f5ffd5b806339737e071161023057806352331cf8116101e6578063631f1a3c116101c1578063631f1a3c1461059a5780636352211e146105c657806370a08231146105e5575f5ffd5b806352331cf81461053d5780636208d89c1461055c578063623fb7ce1461057b575f5ffd5b80634be18e94116102165780634be18e94146104d3578063504006ca146104f2578063520eb0761461051e575f5ffd5b806339737e071461048957806342842e0e146104b4575f5ffd5b80631bc7cd3d116102855780632b538af51161026b5780632b538af5146104185780632d1982ff1461044b578063307a80881461046a575f5ffd5b80631bc7cd3d146103c557806323b872dd146103f9575f5ffd5b8063081812fc116102b5578063081812fc1461033d578063095ea7b314610381578063150a6422146103a2575f5ffd5b806301ffc9a7146102d057806304dbf91314610304575b5f5ffd5b3480156102db575f5ffd5b506102ef6102ea366004614af4565b6108ec565b60405190151581526020015b60405180910390f35b34801561030f575f5ffd5b506102ef61031e366004614b3b565b600660209081525f928352604080842090915290825290205460ff1681565b348015610348575f5ffd5b5061035c610357366004614b72565b6109d0565b60405173ffffffffffffffffffffffffffffffffffffffff90911681526020016102fb565b34801561038c575f5ffd5b506103a061039b366004614b89565b610a80565b005b3480156103ad575f5ffd5b506103b760015481565b6040519081526020016102fb565b3480156103d0575f5ffd5b506103e46103df366004614b72565b610bef565b604080519283526020830191909152016102fb565b348015610404575f5ffd5b506103a0610413366004614bb3565b610c10565b348015610423575f5ffd5b5061035c7f000000000000000000000000000000000000000000000000000000000000000081565b348015610456575f5ffd5b506103b7610465366004614c08565b610d89565b348015610475575f5ffd5b506103a0610484366004614b3b565b610da3565b348015610494575f5ffd5b506103b76104a3366004614c68565b60046020525f908152604090205481565b3480156104bf575f5ffd5b506103a06104ce366004614bb3565b610e99565b3480156104de575f5ffd5b5061035c6104ed366004614b72565b610eb3565b3480156104fd575f5ffd5b5061051161050c366004614b72565b610ee8565b6040516102fb9190614cd4565b348015610529575f5ffd5b506103a0610538366004614b3b565b611242565b348015610548575f5ffd5b506103a0610557366004614e35565b6112ed565b348015610567575f5ffd5b506103a0610576366004614b72565b6113b4565b348015610586575f5ffd5b506103a0610595366004614b72565b6117aa565b3480156105a5575f5ffd5b506105b96105b4366004614b72565b611910565b6040516102fb9190614e9c565b3480156105d1575f5ffd5b5061035c6105e0366004614b72565b611b17565b3480156105f0575f5ffd5b506103b76105ff366004614c68565b611b8c565b34801561060f575f5ffd5b506103a0611c3e565b348015610623575f5ffd5b506103a0610632366004614c68565b611c51565b348015610642575f5ffd5b506103a0610651366004614b72565b611e82565b348015610661575f5ffd5b506103a0610670366004614fd2565b611fbb565b348015610680575f5ffd5b505f5473ffffffffffffffffffffffffffffffffffffffff1661035c565b3480156106a9575f5ffd5b506002546106b89061ffff1681565b60405161ffff90911681526020016102fb565b3480156106d6575f5ffd5b506103b76106e5366004614ff2565b6123ce565b3480156106f5575f5ffd5b506103a0610704366004615031565b612504565b348015610714575f5ffd5b506102ef610723366004614c68565b60056020525f908152604090205460ff1681565b348015610742575f5ffd5b506102ef610751366004614b3b565b73ffffffffffffffffffffffffffffffffffffffff82165f9081526006602090815260408083207fffffffff000000000000000000000000000000000000000000000000000000008516845290915290205460ff1692915050565b6103b76107ba366004614b72565b612592565b3480156107ca575f5ffd5b506103a061259e565b3480156107de575f5ffd5b506103a06107ed36600461516c565b6126f5565b6103b76108003660046151e7565b612864565b348015610810575f5ffd5b506103a061081f366004614c68565b612870565b34801561082f575f5ffd5b5061084361083e366004614b72565b61298f565b6040516102fb9190615240565b34801561085b575f5ffd5b506103a061086a366004614e35565b612b1b565b34801561087a575f5ffd5b506102ef610889366004615252565b612bd0565b348015610899575f5ffd5b506103a06108a836600461527e565b612c8a565b3480156108b8575f5ffd5b506103a06108c7366004614c68565b612df3565b3480156108d7575f5ffd5b506002546106b89062010000900461ffff1681565b5f7fffffffff0000000000000000000000000000000000000000000000000000000082167fb51e2f0400000000000000000000000000000000000000000000000000000000148061097e57507f80ac58cd000000000000000000000000000000000000000000000000000000007fffffffff000000000000000000000000000000000000000000000000000000008316145b806109ca57507f01ffc9a7000000000000000000000000000000000000000000000000000000007fffffffff000000000000000000000000000000000000000000000000000000008316145b92915050565b6040517f081812fc000000000000000000000000000000000000000000000000000000008152600481018290525f907f000000000000000000000000000000000000000000000000000000000000000073ffffffffffffffffffffffffffffffffffffffff169063081812fc906024015b602060405180830381865afa158015610a5c573d5f5f3e3d5ffd5b505050506040513d601f19601f820116820180604052508101906109ca91906152c8565b6040517f5aef2447000000000000000000000000000000000000000000000000000000008152600481018290525f907f000000000000000000000000000000000000000000000000000000000000000073ffffffffffffffffffffffffffffffffffffffff1690635aef24479060240161016060405180830381865afa158015610b0c573d5f5f3e3d5ffd5b505050506040513d601f19601f82011682018060405250810190610b3091906152ff565b9050610b40816101000151612e58565b6040517f52ec852900000000000000000000000000000000000000000000000000000000815233600482015273ffffffffffffffffffffffffffffffffffffffff8481166024830152604482018490527f000000000000000000000000000000000000000000000000000000000000000016906352ec8529906064015f604051808303815f87803b158015610bd3575f5ffd5b505af1158015610be5573d5f5f3e3d5ffd5b505050505b505050565b5f5f5f610bfb84610ee8565b9050610c0681612ea9565b9250925050915091565b6040517f5aef2447000000000000000000000000000000000000000000000000000000008152600481018290525f907f000000000000000000000000000000000000000000000000000000000000000073ffffffffffffffffffffffffffffffffffffffff1690635aef24479060240161016060405180830381865afa158015610c9c573d5f5f3e3d5ffd5b505050506040513d601f19601f82011682018060405250810190610cc091906152ff565b9050610cd0816101000151612e58565b6040517faf9fe4de00000000000000000000000000000000000000000000000000000000815233600482015273ffffffffffffffffffffffffffffffffffffffff85811660248301528481166044830152606482018490527f0000000000000000000000000000000000000000000000000000000000000000169063af9fe4de906084015b5f604051808303815f87803b158015610d6c575f5ffd5b505af1158015610d7e573d5f5f3e3d5ffd5b505050505b50505050565b5f610d9c83610d97846153de565b612ecd565b9392505050565b610dab6131d0565b73ffffffffffffffffffffffffffffffffffffffff82161580610dee57507fffffffff000000000000000000000000000000000000000000000000000000008116155b610e955773ffffffffffffffffffffffffffffffffffffffff82165f8181526006602090815260408083207fffffffff000000000000000000000000000000000000000000000000000000008616808552925280832080547fffffffffffffffffffffffffffffffffffffffffffffffffffffffffffffff00166001179055519092917f177c467a5dec0610cb3afa435a1f7efa9cd39bf81ff2273f06ae7668a00e310b91a35b5050565b610bea83838360405180602001604052805f8152506126f5565b60038181548110610ec2575f80fd5b5f9182526020909120015473ffffffffffffffffffffffffffffffffffffffff16905081565b610ef06148c6565b6040517f5aef2447000000000000000000000000000000000000000000000000000000008152600481018390525f907f000000000000000000000000000000000000000000000000000000000000000073ffffffffffffffffffffffffffffffffffffffff1690635aef24479060240161016060405180830381865afa158015610f7c573d5f5f3e3d5ffd5b505050506040513d601f19601f82011682018060405250810190610fa091906152ff565b9050610fb0816101000151612e58565b5f8381526008602090815260408083208151608080820184528254825283518085018552600184015461ffff8082168352620100009091048116828801528387019190915284519182018552600284015482526003840154958201959095526004830154909416848401526005820154606080860191909152928101939093526006015460ff1615159082015290826101200151600581111561105557611055614c83565b148061107757506001826101200151600581111561107557611075614c83565b145b8061109857506005826101200151600581111561109657611096614c83565b145b1561113c5773__$4bbbaa6d90f42a60403c514cce5191a63a$__63ff7f44438360200151845f01516110ca9190615479565b835f0151846020015185604001516040518563ffffffff1660e01b81526004016110f7949392919061548c565b608060405180830381865af4158015611112573d5f5f3e3d5ffd5b505050506040513d601f19601f8201168201806040525081019061113691906154e1565b60408201525b604051806101800160405280835f0151815260200183602001518152602001836101200151600581111561117257611172614c83565b8152602001836101400151600281111561118e5761118e614c83565b81526020018360a0015173ffffffffffffffffffffffffffffffffffffffff1681526020018360c0015173ffffffffffffffffffffffffffffffffffffffff1681526020018360e0015173ffffffffffffffffffffffffffffffffffffffff16815260200183610100015173ffffffffffffffffffffffffffffffffffffffff16815260200183604001518152602001825f0151815260200182602001518152602001826040015181525092505050919050565b61124a6131d0565b73ffffffffffffffffffffffffffffffffffffffff82165f8181526006602090815260408083207fffffffff000000000000000000000000000000000000000000000000000000008616808552925280832080547fffffffffffffffffffffffffffffffffffffffffffffffffffffffffffffff00169055519092917f36112db5f88f36037ce600104320a87f5636f34183686bbc76a66ec5588fccc991a35050565b6112f56131d0565b61271061ffff82161115611335576040517fba97f83800000000000000000000000000000000000000000000000000000000815260040160405180910390fd5b6002805461ffff838116620100008181027fffffffffffffffffffffffffffffffffffffffffffffffffffffffff0000ffff85161790945560408051949093049091168084526020840191909152917f94d513c10ff5e8f0454d36f41da1d81583ca73420fcfff120599b4b73cdf1e6d91015b60405180910390a15050565b5f81815260076020908152604080832081516101a08101835281548184019081528351808501909452600183015461ffff8082168652620100009091041694840194909452606081019290925260028101546080830152600381015473ffffffffffffffffffffffffffffffffffffffff90811660a084015260048201541660c083015260058101805492939192849291849160e0850191906114569061554d565b80601f01602080910402602001604051908101604052809291908181526020018280546114829061554d565b80156114cd5780601f106114a4576101008083540402835291602001916114cd565b820191905f5260205f20905b8154815290600101906020018083116114b057829003601f168201915b5050509183525050600682015473ffffffffffffffffffffffffffffffffffffffff908116602080840191909152600784015460408401526008840154606080850191909152600990940154808316608085015274010000000000000000000000000000000000000000900460e01b7fffffffff000000000000000000000000000000000000000000000000000000001660a090930192909252928452600a949094015460ff1615159290930191909152825190910151919250166115be576040517f1d044d6100000000000000000000000000000000000000000000000000000000815260040160405180910390fd5b80516060015173ffffffffffffffffffffffffffffffffffffffff163314801590611604575080516080015173ffffffffffffffffffffffffffffffffffffffff163314155b1561163b576040517f5d6db4c200000000000000000000000000000000000000000000000000000000815260040160405180910390fd5b5f8281526007602052604081208181556001810180547fffffffffffffffffffffffffffffffffffffffffffffffffffffffff00000000169055600281018290556003810180547fffffffffffffffffffffffff000000000000000000000000000000000000000090811690915560048201805490911690559081816116c460058301826149cf565b506006810180547fffffffffffffffffffffffff00000000000000000000000000000000000000001690555f6007820181905560088201819055600991820180547fffffffffffffffff000000000000000000000000000000000000000000000000169055600a9390930180547fffffffffffffffffffffffffffffffffffffffffffffffffffffffffffffff0016905584835260205250604081209061176b82826149cf565b611778600183015f6149cf565b5050604051339083907f5c6eae33ff1cd222fb8964d3a9cb61f3c59d868bb587b0ad1f131fb6d99328ad905f90a35050565b6040517f5aef2447000000000000000000000000000000000000000000000000000000008152600481018290525f907f000000000000000000000000000000000000000000000000000000000000000073ffffffffffffffffffffffffffffffffffffffff1690635aef24479060240161016060405180830381865afa158015611836573d5f5f3e3d5ffd5b505050506040513d601f19601f8201168201806040525081019061185a91906152ff565b905061186a816101000151612e58565b6040517f3081ed8a000000000000000000000000000000000000000000000000000000008152336004820152602481018390527f000000000000000000000000000000000000000000000000000000000000000073ffffffffffffffffffffffffffffffffffffffff1690633081ed8a906044015b5f604051808303815f87803b1580156118f6575f5ffd5b505af1158015611908573d5f5f3e3d5ffd5b505050505050565b611918614a06565b6001548210611953576040517f1d044d6100000000000000000000000000000000000000000000000000000000815260040160405180910390fd5b5f8281526007602090815260409182902082516101a08101845281548185019081528451808601909552600183015461ffff8082168752620100009091041693850193909352606081019390935260028101546080840152600381015473ffffffffffffffffffffffffffffffffffffffff90811660a085015260048201541660c0840152600581018054919284929091849160e0850191906119f59061554d565b80601f0160208091040260200160405190810160405280929190818152602001828054611a219061554d565b8015611a6c5780601f10611a4357610100808354040283529160200191611a6c565b820191905f5260205f20905b815481529060010190602001808311611a4f57829003601f168201915b5050509183525050600682015473ffffffffffffffffffffffffffffffffffffffff9081166020808401919091526007840154604084015260088401546060840152600990930154908116608083015274010000000000000000000000000000000000000000900460e01b7fffffffff000000000000000000000000000000000000000000000000000000001660a090910152908252600a929092015460ff16151591015292915050565b6040517f6352211e000000000000000000000000000000000000000000000000000000008152600481018290525f907f000000000000000000000000000000000000000000000000000000000000000073ffffffffffffffffffffffffffffffffffffffff1690636352211e90602401610a41565b6040517f70a0823100000000000000000000000000000000000000000000000000000000815273ffffffffffffffffffffffffffffffffffffffff82811660048301525f917f0000000000000000000000000000000000000000000000000000000000000000909116906370a0823190602401602060405180830381865afa158015611c1a573d5f5f3e3d5ffd5b505050506040513d601f19601f820116820180604052508101906109ca9190615598565b611c466131d0565b611c4f5f613222565b565b611c596131d0565b73ffffffffffffffffffffffffffffffffffffffff81165f9081526005602052604090205460ff1615611e3f5773ffffffffffffffffffffffffffffffffffffffff81165f90815260056020526040812080547fffffffffffffffffffffffffffffffffffffffffffffffffffffffffffffff001690555b600354811015611e3d578173ffffffffffffffffffffffffffffffffffffffff1660038281548110611d0557611d056155af565b5f9182526020909120015473ffffffffffffffffffffffffffffffffffffffff1603611e355760038054611d3b90600190615479565b81548110611d4b57611d4b6155af565b5f918252602090912001546003805473ffffffffffffffffffffffffffffffffffffffff9092169183908110611d8357611d836155af565b905f5260205f20015f6101000a81548173ffffffffffffffffffffffffffffffffffffffff021916908373ffffffffffffffffffffffffffffffffffffffff1602179055506003805480611dd957611dd96155dc565b5f8281526020902081017fffffffffffffffffffffffffffffffffffffffffffffffffffffffffffffffff90810180547fffffffffffffffffffffffff0000000000000000000000000000000000000000169055019055611e3d565b600101611cd1565b505b60405173ffffffffffffffffffffffffffffffffffffffff8216907fceeec53cbb10af8d416c74d15b37f2c8761d65af488132f6de71b01176ad2334905f90a250565b6040517f5aef2447000000000000000000000000000000000000000000000000000000008152600481018290525f907f000000000000000000000000000000000000000000000000000000000000000073ffffffffffffffffffffffffffffffffffffffff1690635aef24479060240161016060405180830381865afa158015611f0e573d5f5f3e3d5ffd5b505050506040513d601f19601f82011682018060405250810190611f3291906152ff565b9050611f42816101000151612e58565b6040517f2a982aeb000000000000000000000000000000000000000000000000000000008152336004820152602481018390527f000000000000000000000000000000000000000000000000000000000000000073ffffffffffffffffffffffffffffffffffffffff1690632a982aeb906044016118df565b5f611fc583610ee8565b90505f5f611fd283612ea9565b915091505f611fe18583613296565b90505f611ff7611ff18388615479565b85613296565b90506040518060800160405280838761016001515f01516120189190615479565b81526020018661016001516020015181526020018661016001516040015161ffff16815260200183876101600151606001516120549190615609565b90525f8881526008602090815260409182902083516002820155908301516003820155908201516004820180547fffffffffffffffffffffffffffffffffffffffffffffffffffffffffffff00001661ffff9092169190911790556060909101516005909101556120c58183615609565b5f888152600860205260408120600601549197509060ff16806120e6575082155b61210b57612106838761014001515f0151886101600151604001516132a5565b61210d565b5f5b90505f61211a8285615479565b90505f6121278483615609565b90505f84156121ec576040517e8c1075000000000000000000000000000000000000000000000000000000008152336004820152602481018c9052604481018690527f000000000000000000000000000000000000000000000000000000000000000073ffffffffffffffffffffffffffffffffffffffff1690628c1075906064016020604051808303815f875af11580156121c5573d5f5f3e3d5ffd5b505050506040513d601f19601f820116820180604052508101906121e9919061561c565b90505b89156122965783156122365760c089015173ffffffffffffffffffffffffffffffffffffffff165f9081526004602052604081208054869290612230908490615609565b90915550505b60c089015161225d9073ffffffffffffffffffffffffffffffffffffffff1633308d6132ca565b8115612296576122968960a00151838b60c0015173ffffffffffffffffffffffffffffffffffffffff166133859092919063ffffffff16565b60408051878152602081018790529081018590528b907f06283ce23ea8ff00b2f5df7b85dc1a077d69a207b3b48ecdaf73bf2189dd2e0f9060600160405180910390a280156123c1576040517fd6700bef000000000000000000000000000000000000000000000000000000008152600481018c90525f907f000000000000000000000000000000000000000000000000000000000000000073ffffffffffffffffffffffffffffffffffffffff169063d6700bef906024016040805180830381865afa158015612369573d5f5f3e3d5ffd5b505050506040513d601f19601f8201168201806040525081019061238d9190615637565b805190915073ffffffffffffffffffffffffffffffffffffffff16156123bf576123bf815f015182602001518e61343a565b505b5050505050505050505050565b5f6109ca82600a6040518060400160405290815f820180546123ef9061554d565b80601f016020809104026020016040519081016040528092919081815260200182805461241b9061554d565b80156124665780601f1061243d57610100808354040283529160200191612466565b820191905f5260205f20905b81548152906001019060200180831161244957829003601f168201915b5050505050815260200160018201805461247f9061554d565b80601f01602080910402602001604051908101604052809291908181526020018280546124ab9061554d565b80156124f65780601f106124cd576101008083540402835291602001916124f6565b820191905f5260205f20905b8154815290600101906020018083116124d957829003601f168201915b505050505081525050612ecd565b6040517fa22cb46500000000000000000000000000000000000000000000000000000000815273ffffffffffffffffffffffffffffffffffffffff838116600483015282151560248301527f0000000000000000000000000000000000000000000000000000000000000000169063a22cb465906044015f604051808303815f87803b1580156118f6575f5ffd5b5f6109ca33835f613551565b6125a66131d0565b5f5b6003548110156126f2575f600382815481106125c6576125c66155af565b5f91825260208083209091015473ffffffffffffffffffffffffffffffffffffffff16808352600490915260409091205490915080156126e85773ffffffffffffffffffffffffffffffffffffffff82165f908152600460205260408120556126646126465f5473ffffffffffffffffffffffffffffffffffffffff1690565b73ffffffffffffffffffffffffffffffffffffffff84169083613385565b8173ffffffffffffffffffffffffffffffffffffffff166126995f5473ffffffffffffffffffffffffffffffffffffffff1690565b73ffffffffffffffffffffffffffffffffffffffff167eed5939179dc194223f0edd1517ecee2210b22da7f82c8e4b1795e93b9f06aa836040516126df91815260200190565b60405180910390a35b50506001016125a8565b50565b6040517f5aef2447000000000000000000000000000000000000000000000000000000008152600481018390525f907f000000000000000000000000000000000000000000000000000000000000000073ffffffffffffffffffffffffffffffffffffffff1690635aef24479060240161016060405180830381865afa158015612781573d5f5f3e3d5ffd5b505050506040513d601f19601f820116820180604052508101906127a591906152ff565b90506127b5816101000151612e58565b6040517ffcf391e000000000000000000000000000000000000000000000000000000000815273ffffffffffffffffffffffffffffffffffffffff7f0000000000000000000000000000000000000000000000000000000000000000169063fcf391e09061282f9033908990899089908990600401615678565b5f604051808303815f87803b158015612846575f5ffd5b505af1158015612858573d5f5f3e3d5ffd5b505050505b5050505050565b5f610d9c338484613551565b6128786131d0565b73ffffffffffffffffffffffffffffffffffffffff81165f9081526005602052604090205460ff1661294c5773ffffffffffffffffffffffffffffffffffffffff81165f81815260056020526040812080547fffffffffffffffffffffffffffffffffffffffffffffffffffffffffffffff001660019081179091556003805491820181559091527fc2575a0e9e593c00f959f8c92f12db2869c3395a3b0502d05e2516446f71f85b0180547fffffffffffffffffffffffff00000000000000000000000000000000000000001690911790555b60405173ffffffffffffffffffffffffffffffffffffffff8216907f8ac7e85f445e8ee1c850abbfcd9da63ccb7b527c076290946108a7c280247096905f90a250565b604080518082019091526060808252602082015260015482106129de576040517f1d044d6100000000000000000000000000000000000000000000000000000000815260040160405180910390fd5b5f82815260096020526040908190208151808301909252805482908290612a049061554d565b80601f0160208091040260200160405190810160405280929190818152602001828054612a309061554d565b8015612a7b5780601f10612a5257610100808354040283529160200191612a7b565b820191905f5260205f20905b815481529060010190602001808311612a5e57829003601f168201915b50505050508152602001600182018054612a949061554d565b80601f0160208091040260200160405190810160405280929190818152602001828054612ac09061554d565b8015612b0b5780601f10612ae257610100808354040283529160200191612b0b565b820191905f5260205f20905b815481529060010190602001808311612aee57829003601f168201915b5050505050815250509050919050565b612b236131d0565b61271061ffff82161115612b63576040517fba97f83800000000000000000000000000000000000000000000000000000000815260040160405180910390fd5b6002805461ffff8381167fffffffffffffffffffffffffffffffffffffffffffffffffffffffffffff000083168117909355604080519190921680825260208201939093527f26bc4a9b6ef30ec448ec7094c0f1002b0c6b8363d6a56be88ce399f1ac3d92f991016113a8565b6040517fe985e9c500000000000000000000000000000000000000000000000000000000815273ffffffffffffffffffffffffffffffffffffffff838116600483015282811660248301525f917f00000000000000000000000000000000000000000000000000000000000000009091169063e985e9c590604401602060405180830381865afa158015612c66573d5f5f3e3d5ffd5b505050506040513d601f19601f82011682018060405250810190610d9c919061561c565b6040517f5aef2447000000000000000000000000000000000000000000000000000000008152600481018490525f907f000000000000000000000000000000000000000000000000000000000000000073ffffffffffffffffffffffffffffffffffffffff1690635aef24479060240161016060405180830381865afa158015612d16573d5f5f3e3d5ffd5b505050506040513d601f19601f82011682018060405250810190612d3a91906152ff565b9050612d4a816101000151612e58565b6040517fe9c1d0c00000000000000000000000000000000000000000000000000000000081523360048201526024810185905273ffffffffffffffffffffffffffffffffffffffff84811660448301527fffffffff00000000000000000000000000000000000000000000000000000000841660648301527f0000000000000000000000000000000000000000000000000000000000000000169063e9c1d0c090608401610d55565b612dfb6131d0565b73ffffffffffffffffffffffffffffffffffffffff8116612e4f576040517f1e4fbdf70000000000000000000000000000000000000000000000000000000081525f60048201526024015b60405180910390fd5b6126f281613222565b73ffffffffffffffffffffffffffffffffffffffff811630146126f2576040517f66719b7a000000000000000000000000000000000000000000000000000000008152336004820152602401612e46565b5f5f8260200151835f0151612ebe9190615479565b61016090930151519293915050565b5f80612edf60a0850160808601614c68565b73ffffffffffffffffffffffffffffffffffffffff163373ffffffffffffffffffffffffffffffffffffffff16149050612f1984826143a8565b600180545f9182612f29836156ef565b919050559050604051806040016040528086612f4490615766565b81528315156020918201525f83815260078252604090819020835180518255808401518051600184018054929096015161ffff90811662010000027fffffffffffffffffffffffffffffffffffffffffffffffffffffffff0000000090931691161717909355908201516002820155606082015160038201805473ffffffffffffffffffffffffffffffffffffffff9283167fffffffffffffffffffffffff000000000000000000000000000000000000000091821617909155608084015160048401805491909316911617905560a08201519091908290600582019061302b9082615883565b5060c082015160068201805473ffffffffffffffffffffffffffffffffffffffff9283167fffffffffffffffffffffffff000000000000000000000000000000000000000090911617905560e08084015160078401556101008401516008840155610120840151600990930180546101409095015190911c74010000000000000000000000000000000000000000027fffffffffffffffff000000000000000000000000000000000000000000000000909416929091169190911791909117905560209190910151600a90910180549115157fffffffffffffffffffffffffffffffffffffffffffffffffffffffffffffff0090921691909117905583515115158061313b57505f846020015151115b15613177575f8181526009602052604090208451859190819061315e9082615883565b50602082015160018201906131739082615883565b5050505b3373ffffffffffffffffffffffffffffffffffffffff16817fa94a87c6a478ee9e74c583560db13c9b623c84cf97e82551f872fcd1a4800ffc87876040516131c0929190615a76565b60405180910390a3949350505050565b5f5473ffffffffffffffffffffffffffffffffffffffff163314611c4f576040517f118cdaa7000000000000000000000000000000000000000000000000000000008152336004820152602401612e46565b5f805473ffffffffffffffffffffffffffffffffffffffff8381167fffffffffffffffffffffffff0000000000000000000000000000000000000000831681178455604051919092169283917f8be0079c531659141344cd1fd0a4f28419497f9722a3daafe3b4186f6b6457e09190a35050565b5f828218828410028218610d9c565b5f6132c28461ffff84166132b98587615bc6565b61ffff166146b7565b949350505050565b5f6040517f23b872dd00000000000000000000000000000000000000000000000000000000815284600482015283602482015282604482015260205f6064835f8a5af13d15601f3d1160015f51141617169150508061285d576040517f08c379a000000000000000000000000000000000000000000000000000000000815260206004820152601460248201527f5452414e534645525f46524f4d5f4641494c45440000000000000000000000006044820152606401612e46565b5f6040517fa9059cbb00000000000000000000000000000000000000000000000000000000815283600482015282602482015260205f6044835f895af13d15601f3d1160015f511416171691505080610d83576040517f08c379a000000000000000000000000000000000000000000000000000000000815260206004820152600f60248201527f5452414e534645525f4641494c454400000000000000000000000000000000006044820152606401612e46565b5f828260405160240161344f91815260200190565b604051602081830303815290604052907bffffffffffffffffffffffffffffffffffffffffffffffffffffffff19166020820180517bffffffffffffffffffffffffffffffffffffffffffffffffffffffff838183161783525050505090505f5f8573ffffffffffffffffffffffffffffffffffffffff16836040516134d59190615be0565b5f604051808303815f865af19150503d805f811461350e576040519150601f19603f3d011682016040523d82523d5f602084013e613513565b606091505b50915091508161190857806040517f30b9b6dd000000000000000000000000000000000000000000000000000000008152600401612e469190615bf6565b5f82815260076020908152604080832081516101a08101835281548184019081528351808501909452600183015461ffff8082168652620100009091041694840194909452606081019290925260028101546080830152600381015473ffffffffffffffffffffffffffffffffffffffff90811660a084015260048201541660c0830152600581018054859484929091849160e08501916135f19061554d565b80601f016020809104026020016040519081016040528092919081815260200182805461361d9061554d565b80156136685780601f1061363f57610100808354040283529160200191613668565b820191905f5260205f20905b81548152906001019060200180831161364b57829003601f168201915b5050509183525050600682015473ffffffffffffffffffffffffffffffffffffffff908116602080840191909152600784015460408401526008840154606080850191909152600990940154808316608085015274010000000000000000000000000000000000000000900460e01b7fffffffff000000000000000000000000000000000000000000000000000000001660a090930192909252928452600a949094015460ff161515929093019190915282519091015191925016613759576040517f1d044d6100000000000000000000000000000000000000000000000000000000815260040160405180910390fd5b5f7f000000000000000000000000000000000000000000000000000000000000000073ffffffffffffffffffffffffffffffffffffffff166301a2cae86040518163ffffffff1660e01b8152600401602060405180830381865afa1580156137c3573d5f5f3e3d5ffd5b505050506040513d601f19601f820116820180604052508101906137e791906152c8565b8251608001516040517fbabcc53900000000000000000000000000000000000000000000000000000000815273ffffffffffffffffffffffffffffffffffffffff918216600482015291169063babcc53990602401602060405180830381865afa158015613857573d5f5f3e3d5ffd5b505050506040513d601f19601f8201168201806040525081019061387b919061561c565b806139a257507f000000000000000000000000000000000000000000000000000000000000000073ffffffffffffffffffffffffffffffffffffffff166301a2cae86040518163ffffffff1660e01b8152600401602060405180830381865afa1580156138ea573d5f5f3e3d5ffd5b505050506040513d601f19601f8201168201806040525081019061390e91906152c8565b8251606001516040517fbabcc53900000000000000000000000000000000000000000000000000000000815273ffffffffffffffffffffffffffffffffffffffff918216600482015291169063babcc53990602401602060405180830381865afa15801561397e573d5f5f3e3d5ffd5b505050506040513d601f19601f820116820180604052508101906139a2919061561c565b90505f81613a3c577f000000000000000000000000000000000000000000000000000000000000000073ffffffffffffffffffffffffffffffffffffffff16638204c6276040518163ffffffff1660e01b8152600401602060405180830381865afa158015613a13573d5f5f3e3d5ffd5b505050506040513d601f19601f82011682018060405250810190613a379190615598565b613a3e565b5f5b9050803414613a79576040517fcd3cb2bb00000000000000000000000000000000000000000000000000000000815260040160405180910390fd5b8251610100015115801590613a9357508251610100015142115b15613aca576040517f076802fc00000000000000000000000000000000000000000000000000000000815260040160405180910390fd5b826020015115613b305782516080015173ffffffffffffffffffffffffffffffffffffffff888116911614613b2b576040517f2e15fb7c00000000000000000000000000000000000000000000000000000000815260040160405180910390fd5b613bd5565b82516060015173ffffffffffffffffffffffffffffffffffffffff888116911614613b87576040517fe16e54be00000000000000000000000000000000000000000000000000000000815260040160405180910390fd5b73ffffffffffffffffffffffffffffffffffffffff851615613bd5576040517f2e15fb7c00000000000000000000000000000000000000000000000000000000815260040160405180910390fd5b5f73ffffffffffffffffffffffffffffffffffffffff8616613bfc57835160800151613bfe565b855b90505f60095f8981526020019081526020015f206040518060400160405290815f82018054613c2c9061554d565b80601f0160208091040260200160405190810160405280929190818152602001828054613c589061554d565b8015613ca35780601f10613c7a57610100808354040283529160200191613ca3565b820191905f5260205f20905b815481529060010190602001808311613c8657829003601f168201915b50505050508152602001600182018054613cbc9061554d565b80601f0160208091040260200160405190810160405280929190818152602001828054613ce89061554d565b8015613d335780601f10613d0a57610100808354040283529160200191613d33565b820191905f5260205f20905b815481529060010190602001808311613d1657829003601f168201915b505050919092525050505f8981526007602052604081208181556001810180547fffffffffffffffffffffffffffffffffffffffffffffffffffffffff00000000169055600281018290556003810180547fffffffffffffffffffffffff000000000000000000000000000000000000000090811690915560048201805490911690559192508181613dc860058301826149cf565b506006810180547fffffffffffffffffffffffff00000000000000000000000000000000000000001690555f6007820181905560088201819055600991820180547fffffffffffffffff000000000000000000000000000000000000000000000000169055600a9390930180547fffffffffffffffffffffffffffffffffffffffffffffffffffffffffffffff001690558a8352602052506040812090613e6f82826149cf565b613e7c600183015f6149cf565b50505f604051806101000160405280875f01516060015173ffffffffffffffffffffffffffffffffffffffff168152602001875f01516080015173ffffffffffffffffffffffffffffffffffffffff168152602001875f0151604001518152602001875f015160a001518152602001875f015160c0015173ffffffffffffffffffffffffffffffffffffffff168152602001600280811115613f2057613f20614c83565b8152875151602090910190613f359042615609565b8152875160e001516020909101528251519091505f90151580613f5c57505f836020015151115b15614023578651608001516040517e4b382900000000000000000000000000000000000000000000000000000000815273ffffffffffffffffffffffffffffffffffffffff7f00000000000000000000000000000000000000000000000000000000000000001691624b3829918891613fdb9187908990600401615cc3565b60206040518083038185885af1158015613ff7573d5f5f3e3d5ffd5b50505050506040513d601f19601f8201168201806040525081019061401c9190615598565b90506140e1565b8651608001516040517f1461f12600000000000000000000000000000000000000000000000000000000815273ffffffffffffffffffffffffffffffffffffffff7f00000000000000000000000000000000000000000000000000000000000000001691631461f12691889161409d918790600401615d0d565b60206040518083038185885af11580156140b9573d5f5f3e3d5ffd5b50505050506040513d601f19601f820116820180604052508101906140de9190615598565b90505b6040518060800160405280428152602001885f015160200151815260200160405180608001604052805f81526020015f8152602001896141275760025461ffff16614129565b5f5b61ffff90811682525f60209283018190529284528a15159382019390935284825260088152604080832085518155858301518051600183018054928601519188167fffffffffffffffffffffffffffffffffffffffffffffffffffffffff000000009093169290921762010000918816820217909155868301518051600280850191909155948101516003840155808401516004840180547fffffffffffffffffffffffffffffffffffffffffffffffffffffffffffff000016918916919091179055606090810151600584015590960151600690910180547fffffffffffffffffffffffffffffffffffffffffffffffffffffffffffffff00169115159190911790558b5101519054919361424593919204166127106146b7565b90505f81895f01516040015161425b9190615479565b905081156142a257885160c0015173ffffffffffffffffffffffffffffffffffffffff165f908152600460205260408120805484929061429c908490615609565b90915550505b88516060810151604082015160c0909201516142d99273ffffffffffffffffffffffffffffffffffffffff909116919030906132ca565b801561430657885160c001516143069073ffffffffffffffffffffffffffffffffffffffff168783613385565b8851610120015173ffffffffffffffffffffffffffffffffffffffff16156143435788516101208101516101409091015161434391908e86614767565b8573ffffffffffffffffffffffffffffffffffffffff16838d7f2a82588a72d442d0ca15bc61c1abab1812c42c9eab1d127cb645dd934fa9136e8a868a60405161438f93929190615d3b565b60405180910390a450909b9a5050505050505050505050565b801580156143f157506143c160c0830160a08401614c68565b73ffffffffffffffffffffffffffffffffffffffff163373ffffffffffffffffffffffffffffffffffffffff1614155b15614428576040517f5d6db4c200000000000000000000000000000000000000000000000000000000815260040160405180910390fd5b81355f03614462576040517fd88194e100000000000000000000000000000000000000000000000000000000815260040160405180910390fd5b5f614474610100840160e08501614c68565b73ffffffffffffffffffffffffffffffffffffffff16036144c1576040517fb10b947e00000000000000000000000000000000000000000000000000000000815260040160405180910390fd5b64ffffffffff6101008301351115614505576040517fd7c43e0f00000000000000000000000000000000000000000000000000000000815260040160405180910390fd5b5f82610120013511801561451d575081610120013542115b15614554576040517f076802fc00000000000000000000000000000000000000000000000000000000815260040160405180910390fd5b5f61456761016084016101408501614c68565b73ffffffffffffffffffffffffffffffffffffffff161461463c5760065f61459761016085016101408601614c68565b73ffffffffffffffffffffffffffffffffffffffff16815260208101919091526040015f908120906145d161018085016101608601614af4565b7fffffffff0000000000000000000000000000000000000000000000000000000016815260208101919091526040015f205460ff1661463c576040517f8e792a0500000000000000000000000000000000000000000000000000000000815260040160405180910390fd5b6040517f9d6c6ae700000000000000000000000000000000000000000000000000000000815273__$4bbbaa6d90f42a60403c514cce5191a63a$__90639d6c6ae79061468f906020860190600401615d59565b5f6040518083038186803b1580156146a5575f5ffd5b505af4158015611908573d5f5f3e3d5ffd5b5f5f5f6146c4868661487a565b91509150815f036146e8578381816146de576146de615d67565b0492505050610d9c565b8184116146ff576146ff60038515026011186148b5565b5f848688095f868103871696879004966002600389028118808a02820302808a02820302808a02820302808a02820302808a02820302808a02909103029181900381900460010185841190960395909502919093039390930492909217029150509392505050565b6040805160248101849052604480820184905282518083039091018152606490910182526020810180517bffffffffffffffffffffffffffffffffffffffffffffffffffffffff167fffffffff00000000000000000000000000000000000000000000000000000000871617905290515f90819073ffffffffffffffffffffffffffffffffffffffff8816906147fe908590615be0565b5f604051808303815f865af19150503d805f8114614837576040519150601f19603f3d011682016040523d82523d5f602084013e61483c565b606091505b509150915081610be557806040517f30b9b6dd000000000000000000000000000000000000000000000000000000008152600401612e469190615bf6565b5f807fffffffffffffffffffffffffffffffffffffffffffffffffffffffffffffffff83850993909202808410938190039390930393915050565b634e487b715f52806020526024601cfd5b6040518061018001604052805f81526020015f81526020015f60058111156148f0576148f0614c83565b81526020015f81526020015f73ffffffffffffffffffffffffffffffffffffffff1681526020015f73ffffffffffffffffffffffffffffffffffffffff1681526020015f73ffffffffffffffffffffffffffffffffffffffff1681526020015f73ffffffffffffffffffffffffffffffffffffffff1681526020015f81526020015f815260200161499a60405180604001604052805f61ffff1681526020015f61ffff1681525090565b81526020016149ca60405180608001604052805f81526020015f81526020015f61ffff1681526020015f81525090565b905290565b5080546149db9061554d565b5f825580601f106149ea575050565b601f0160209004905f5260205f20908101906126f29190614a25565b6040518060400160405280614a19614a3d565b81525f60209091015290565b5b80821115614a39575f8155600101614a26565b5090565b6040518061016001604052805f8152602001614a7260405180604001604052805f61ffff1681526020015f61ffff1681525090565b81525f60208201819052604082018190526060808301829052608083015260a0820181905260c0820181905260e0820181905261010082018190526101209091015290565b7fffffffff00000000000000000000000000000000000000000000000000000000811681146126f2575f5ffd5b8035614aef81614ab7565b919050565b5f60208284031215614b04575f5ffd5b8135610d9c81614ab7565b73ffffffffffffffffffffffffffffffffffffffff811681146126f2575f5ffd5b8035614aef81614b0f565b5f5f60408385031215614b4c575f5ffd5b8235614b5781614b0f565b91506020830135614b6781614ab7565b809150509250929050565b5f60208284031215614b82575f5ffd5b5035919050565b5f5f60408385031215614b9a575f5ffd5b8235614ba581614b0f565b946020939093013593505050565b5f5f5f60608486031215614bc5575f5ffd5b8335614bd081614b0f565b92506020840135614be081614b0f565b929592945050506040919091013590565b5f6101808284031215614c02575f5ffd5b50919050565b5f5f60408385031215614c19575f5ffd5b823567ffffffffffffffff811115614c2f575f5ffd5b614c3b85828601614bf1565b925050602083013567ffffffffffffffff811115614c57575f5ffd5b830160408186031215614b67575f5ffd5b5f60208284031215614c78575f5ffd5b8135610d9c81614b0f565b7f4e487b71000000000000000000000000000000000000000000000000000000005f52602160045260245ffd5b60068110614cc057614cc0614c83565b9052565b60038110614cc057614cc0614c83565b5f6102008201905082518252602083015160208301526040830151614cfc6040840182614cb0565b506060830151614d0f6060840182614cc4565b506080830151614d37608084018273ffffffffffffffffffffffffffffffffffffffff169052565b5060a0830151614d5f60a084018273ffffffffffffffffffffffffffffffffffffffff169052565b5060c0830151614d8760c084018273ffffffffffffffffffffffffffffffffffffffff169052565b5060e0830151614daf60e084018273ffffffffffffffffffffffffffffffffffffffff169052565b50610100830151610100830152610120830151610120830152610140830151614ded610140840182805161ffff908116835260209182015116910152565b506101609290920151805161018083015260208101516101a0830152604081015161ffff166101c0830152606001516101e09091015290565b61ffff811681146126f2575f5ffd5b5f60208284031215614e45575f5ffd5b8135610d9c81614e26565b5f81518084528060208401602086015e5f6020828601015260207fffffffffffffffffffffffffffffffffffffffffffffffffffffffffffffffe0601f83011685010191505092915050565b602081525f825160406020840152805160608401526020810151614ed46080850182805161ffff908116835260209182015116910152565b50604081015160c0840152606081015173ffffffffffffffffffffffffffffffffffffffff90811660e085015260808201511661010084015260a0810151610180610120850152614f296101e0850182614e50565b905060c0820151614f5361014086018273ffffffffffffffffffffffffffffffffffffffff169052565b5060e082015161016085015261010082015161018085015261012082015173ffffffffffffffffffffffffffffffffffffffff166101a0850152610140909101517fffffffff00000000000000000000000000000000000000000000000000000000166101c08401526020840151801515604085015290949350505050565b5f5f60408385031215614fe3575f5ffd5b50508035926020909101359150565b5f60208284031215615002575f5ffd5b813567ffffffffffffffff811115615018575f5ffd5b6132c284828501614bf1565b80151581146126f2575f5ffd5b5f5f60408385031215615042575f5ffd5b823561504d81614b0f565b91506020830135614b6781615024565b7f4e487b71000000000000000000000000000000000000000000000000000000005f52604160045260245ffd5b604051610160810167ffffffffffffffff811182821017156150ae576150ae61505d565b60405290565b6040805190810167ffffffffffffffff811182821017156150ae576150ae61505d565b5f5f67ffffffffffffffff8411156150f1576150f161505d565b506040517fffffffffffffffffffffffffffffffffffffffffffffffffffffffffffffffe0601f85018116603f0116810181811067ffffffffffffffff8211171561513e5761513e61505d565b604052838152905080828401851015615155575f5ffd5b838360208301375f60208583010152509392505050565b5f5f5f5f6080858703121561517f575f5ffd5b843561518a81614b0f565b9350602085013561519a81614b0f565b925060408501359150606085013567ffffffffffffffff8111156151bc575f5ffd5b8501601f810187136151cc575f5ffd5b6151db878235602084016150d7565b91505092959194509250565b5f5f604083850312156151f8575f5ffd5b823591506020830135614b6781614b0f565b5f81516040845261521e6040850182614e50565b9050602083015184820360208601526152378282614e50565b95945050505050565b602081525f610d9c602083018461520a565b5f5f60408385031215615263575f5ffd5b823561526e81614b0f565b91506020830135614b6781614b0f565b5f5f5f60608486031215615290575f5ffd5b8335925060208401356152a281614b0f565b915060408401356152b281614ab7565b809150509250925092565b8051614aef81614b0f565b5f602082840312156152d8575f5ffd5b8151610d9c81614b0f565b805160068110614aef575f5ffd5b805160038110614aef575f5ffd5b5f610160828403128015615311575f5ffd5b5061531a61508a565b82518152602080840151908201526040808401519082015260608084015190820152615348608084016152bd565b608082015261535960a084016152bd565b60a082015261536a60c084016152bd565b60c082015261537b60e084016152bd565b60e082015261538d61010084016152bd565b6101008201526153a061012084016152e3565b6101208201526153b361014084016152f1565b6101408201529392505050565b5f82601f8301126153cf575f5ffd5b610d9c838335602085016150d7565b5f604082360312156153ee575f5ffd5b6153f66150b4565b823567ffffffffffffffff81111561540c575f5ffd5b615418368286016153c0565b825250602083013567ffffffffffffffff811115615434575f5ffd5b615440368286016153c0565b60208301525092915050565b7f4e487b71000000000000000000000000000000000000000000000000000000005f52601160045260245ffd5b818103818111156109ca576109ca61544c565b8481526020808201859052835161ffff908116604084015290840151166060820152610100810182516080830152602083015160a0830152604083015161ffff1660c0830152606083015160e0830152615237565b5f60808284031280156154f2575f5ffd5b506040516080810167ffffffffffffffff811182821017156155165761551661505d565b6040908152835182526020808501519083015283015161553581614e26565b60408201526060928301519281019290925250919050565b600181811c9082168061556157607f821691505b602082108103614c02577f4e487b71000000000000000000000000000000000000000000000000000000005f52602260045260245ffd5b5f602082840312156155a8575f5ffd5b5051919050565b7f4e487b71000000000000000000000000000000000000000000000000000000005f52603260045260245ffd5b7f4e487b71000000000000000000000000000000000000000000000000000000005f52603160045260245ffd5b808201808211156109ca576109ca61544c565b5f6020828403121561562c575f5ffd5b8151610d9c81615024565b5f6040828403128015615648575f5ffd5b506156516150b4565b825161565c81614b0f565b8152602083015161566c81614ab7565b60208201529392505050565b73ffffffffffffffffffffffffffffffffffffffff8616815273ffffffffffffffffffffffffffffffffffffffff8516602082015273ffffffffffffffffffffffffffffffffffffffff8416604082015282606082015260a060808201525f6156e460a0830184614e50565b979650505050505050565b5f7fffffffffffffffffffffffffffffffffffffffffffffffffffffffffffffffff820361571f5761571f61544c565b5060010190565b5f60408284031215615736575f5ffd5b61573e6150b4565b9050813561574b81614e26565b8152602082013561575b81614e26565b602082015292915050565b5f6101808236031215615777575f5ffd5b61577f61508a565b823581526157903660208501615726565b6020820152606083013560408201526157ab60808401614b30565b60608201526157bc60a08401614b30565b608082015260c083013567ffffffffffffffff8111156157da575f5ffd5b6157e6368286016153c0565b60a0830152506157f860e08401614b30565b60c08201526101008381013560e0830152610120840135908201526158206101408401614b30565b6101208201526158336101608401614ae4565b61014082015292915050565b601f821115610bea57805f5260205f20601f840160051c810160208510156158645750805b601f840160051c820191505b8181101561285d575f8155600101615870565b815167ffffffffffffffff81111561589d5761589d61505d565b6158b1816158ab845461554d565b8461583f565b6020601f821160018114615902575f83156158cc5750848201515b7fffffffffffffffffffffffffffffffffffffffffffffffffffffffffffffffff600385901b1c1916600184901b17845561285d565b5f848152602081207fffffffffffffffffffffffffffffffffffffffffffffffffffffffffffffffe08516915b8281101561594f578785015182556020948501946001909201910161592f565b508482101561598b57868401517fffffffffffffffffffffffffffffffffffffffffffffffffffffffffffffffff600387901b60f8161c191681555b50505050600190811b01905550565b80356159a581614e26565b61ffff16825260208101356159b981614e26565b61ffff81166020840152505050565b5f5f83357fffffffffffffffffffffffffffffffffffffffffffffffffffffffffffffffe18436030181126159fb575f5ffd5b830160208101925035905067ffffffffffffffff811115615a1a575f5ffd5b803603821315615a28575f5ffd5b9250929050565b81835281816020850137505f602082840101525f60207fffffffffffffffffffffffffffffffffffffffffffffffffffffffffffffffe0601f840116840101905092915050565b60408082528335908201525f615a92606083016020860161599a565b606084013560a0830152615aa860808501614b30565b73ffffffffffffffffffffffffffffffffffffffff1660c0830152615acf60a08501614b30565b73ffffffffffffffffffffffffffffffffffffffff1660e0830152615af760c08501856159c8565b610180610100850152615b0f6101c085018284615a2f565b915050615b1e60e08601614b30565b73ffffffffffffffffffffffffffffffffffffffff81166101208501525061010085013561014084810191909152610120860135610160850152615b63908601614b30565b73ffffffffffffffffffffffffffffffffffffffff16610180840152615b8c6101608601614ae4565b7fffffffff00000000000000000000000000000000000000000000000000000000166101a08401528281036020840152615237818561520a565b61ffff81811683821601908111156109ca576109ca61544c565b5f82518060208501845e5f920191825250919050565b602081525f610d9c6020830184614e50565b73ffffffffffffffffffffffffffffffffffffffff815116825273ffffffffffffffffffffffffffffffffffffffff6020820151166020830152604081015160408301525f60608201516101006060850152615c68610100850182614e50565b90506080830151615c91608086018273ffffffffffffffffffffffffffffffffffffffff169052565b5060a0830151615ca460a0860182614cc4565b5060c083015160c085015260e083015160e08501528091505092915050565b73ffffffffffffffffffffffffffffffffffffffff84168152606060208201525f615cf16060830185615c08565b8281036040840152615d03818561520a565b9695505050505050565b73ffffffffffffffffffffffffffffffffffffffff83168152604060208201525f6132c26040830184615c08565b838152826020820152606060408201525f615237606083018461520a565b604081016109ca828461599a565b7f4e487b71000000000000000000000000000000000000000000000000000000005f52601260045260245ffdfea26469706673582212200f787fe5d4af9f528c0f529a3ef5eafd75f5d73d155af4d7f282e811d5e125ee64736f6c634300081e0033","linkReferences":{"src/libraries/CompoundInterestLib.sol":{"CompoundInterestLib":[{"start":5304,"length":20},{"start":19069,"length":20}]}}},"methodIdentifiers":{"_bullaClaim()":"2b538af5","acceptLoan(uint256)":"adfbe22f","acceptLoanWithReceiver(uint256,address)":"b9108c03","addToCallbackWhitelist(address,bytes4)":"307a8088","addToFeeTokenWhitelist(address)":"d4251f9e","admin()":"f851a440","approve(address,uint256)":"095ea7b3","balanceOf(address)":"70a08231","callbackWhitelist(address,bytes4)":"04dbf913","getApproved(uint256)":"081812fc","getLoan(uint256)":"504006ca","getLoanOffer(uint256)":"631f1a3c","getLoanOfferMetadata(uint256)":"db4e0899","getTotalAmountDue(uint256)":"1bc7cd3d","impairLoan(uint256)":"623fb7ce","isApprovedForAll(address,address)":"e985e9c5","isCallbackWhitelisted(address,bytes4)":"a64d6beb","loanOfferCount()":"150a6422","markLoanAsPaid(uint256)":"88046146","offerLoan((uint256,(uint16,uint16),uint256,address,address,string,address,uint256,uint256,address,bytes4))":"a15c24f3","offerLoanWithMetadata((uint256,(uint16,uint16),uint256,address,address,string,address,uint256,uint256,address,bytes4),(string,string))":"2d1982ff","owner()":"8da5cb5b","ownerOf(uint256)":"6352211e","payLoan(uint256,uint256)":"89306e61","processingFeeBPS()":"fce5f608","protocolFeeBPS()":"96daa322","protocolFeeTokenWhitelist(address)":"a5cc6a7f","protocolFeesByToken(address)":"39737e07","rejectLoanOffer(uint256)":"6208d89c","removeFromCallbackWhitelist(address,bytes4)":"520eb076","removeFromFeeTokenWhitelist(address)":"82459995","renounceOwnership()":"715018a6","safeTransferFrom(address,address,uint256)":"42842e0e","safeTransferFrom(address,address,uint256,bytes)":"b88d4fde","setApprovalForAll(address,bool)":"a22cb465","setPaidLoanCallback(uint256,address,bytes4)":"ea7d616b","setProcessingFee(uint16)":"52331cf8","setProtocolFee(uint16)":"e4467f35","supportsInterface(bytes4)":"01ffc9a7","transferFrom(address,address,uint256)":"23b872dd","transferOwnership(address)":"f2fde38b","whitelistedProtocolFeeTokens(uint256)":"4be18e94","withdrawAllFees()":"af236af4"},"id":50}