{"abi":[{"type":"constructor","inputs":[{"name":"bullaClaim","type":"address","internalType":"address"},{"name":"_owner","type":"address","internalType":"address"},{"name":"_protocolFeeBPS","type":"uint16","internalType":"uint16"},{"name":"_processingFeeBPS","type":"uint16","internalType":"uint16"}],"stateMutability":"nonpayable"},{"type":"function","name":"_bullaClaim","inputs":[],"outputs":[{"name":"","type":"address","internalType":"contract IBullaClaimV2"}],"stateMutability":"view"},{"type":"function","name":"acceptLoan","inputs":[{"name":"offerId","type":"uint256","internalType":"uint256"}],"outputs":[{"name":"","type":"uint256","internalType":"uint256"}],"stateMutability":"payable"},{"type":"function","name":"acceptLoanWithReceiver","inputs":[{"name":"offerId","type":"uint256","internalType":"uint256"},{"name":"receiver","type":"address","internalType":"address"}],"outputs":[{"name":"","type":"uint256","internalType":"uint256"}],"stateMutability":"payable"},{"type":"function","name":"addToCallbackWhitelist","inputs":[{"name":"callbackContract","type":"address","internalType":"address"},{"name":"selector","type":"bytes4","internalType":"bytes4"}],"outputs":[],"stateMutability":"nonpayable"},{"type":"function","name":"addToFeeTokenWhitelist","inputs":[{"name":"token","type":"address","internalType":"address"}],"outputs":[],"stateMutability":"nonpayable"},{"type":"function","name":"admin","inputs":[],"outputs":[{"name":"","type":"address","internalType":"address"}],"stateMutability":"view"},{"type":"function","name":"approve","inputs":[{"name":"to","type":"address","internalType":"address"},{"name":"tokenId","type":"uint256","internalType":"uint256"}],"outputs":[],"stateMutability":"nonpayable"},{"type":"function","name":"balanceOf","inputs":[{"name":"owner","type":"address","internalType":"address"}],"outputs":[{"name":"","type":"uint256","internalType":"uint256"}],"stateMutability":"view"},{"type":"function","name":"callbackWhitelist","inputs":[{"name":"","type":"address","internalType":"address"},{"name":"","type":"bytes4","internalType":"bytes4"}],"outputs":[{"name":"","type":"bool","internalType":"bool"}],"stateMutability":"view"},{"type":"function","name":"getApproved","inputs":[{"name":"tokenId","type":"uint256","internalType":"uint256"}],"outputs":[{"name":"","type":"address","internalType":"address"}],"stateMutability":"view"},{"type":"function","name":"getLoan","inputs":[{"name":"claimId","type":"uint256","internalType":"uint256"}],"outputs":[{"name":"","type":"tuple","internalType":"struct Loan","components":[{"name":"claimAmount","type":"uint256","internalType":"uint256"},{"name":"paidAmount","type":"uint256","internalType":"uint256"},{"name":"status","type":"uint8","internalType":"enum Status"},{"name":"binding","type":"uint8","internalType":"enum ClaimBinding"},{"name":"debtor","type":"address","internalType":"address"},{"name":"creditor","type":"address","internalType":"address"},{"name":"token","type":"address","internalType":"address"},{"name":"controller","type":"address","internalType":"address"},{"name":"dueBy","type":"uint256","internalType":"uint256"},{"name":"acceptedAt","type":"uint256","internalType":"uint256"},{"name":"interestConfig","type":"tuple","internalType":"struct InterestConfig","components":[{"name":"interestRateBps","type":"uint16","internalType":"uint16"},{"name":"numberOfPeriodsPerYear","type":"uint16","internalType":"uint16"}]},{"name":"interestComputationState","type":"tuple","internalType":"struct InterestComputationState","components":[{"name":"accruedInterest","type":"uint256","internalType":"uint256"},{"name":"latestPeriodNumber","type":"uint256","internalType":"uint256"},{"name":"protocolFeeBps","type":"uint16","internalType":"uint16"},{"name":"totalGrossInterestPaid","type":"uint256","internalType":"uint256"}]}]}],"stateMutability":"view"},{"type":"function","name":"getLoanOffer","inputs":[{"name":"offerId","type":"uint256","internalType":"uint256"}],"outputs":[{"name":"","type":"tuple","internalType":"struct LoanOffer","components":[{"name":"params","type":"tuple","internalType":"struct LoanRequestParams","components":[{"name":"termLength","type":"uint256","internalType":"uint256"},{"name":"interestConfig","type":"tuple","internalType":"struct InterestConfig","components":[{"name":"interestRateBps","type":"uint16","internalType":"uint16"},{"name":"numberOfPeriodsPerYear","type":"uint16","internalType":"uint16"}]},{"name":"loanAmount","type":"uint256","internalType":"uint256"},{"name":"creditor","type":"address","internalType":"address"},{"name":"debtor","type":"address","internalType":"address"},{"name":"description","type":"string","internalType":"string"},{"name":"token","type":"address","internalType":"address"},{"name":"impairmentGracePeriod","type":"uint256","internalType":"uint256"},{"name":"expiresAt","type":"uint256","internalType":"uint256"},{"name":"callbackContract","type":"address","internalType":"address"},{"name":"callbackSelector","type":"bytes4","internalType":"bytes4"}]},{"name":"requestedByCreditor","type":"bool","internalType":"bool"}]}],"stateMutability":"view"},{"type":"function","name":"getLoanOfferMetadata","inputs":[{"name":"offerId","type":"uint256","internalType":"uint256"}],"outputs":[{"name":"","type":"tuple","internalType":"struct ClaimMetadata","components":[{"name":"tokenURI","type":"string","internalType":"string"},{"name":"attachmentURI","type":"string","internalType":"string"}]}],"stateMutability":"view"},{"type":"function","name":"getTotalAmountDue","inputs":[{"name":"claimId","type":"uint256","internalType":"uint256"}],"outputs":[{"name":"remainingPrincipal","type":"uint256","internalType":"uint256"},{"name":"grossInterest","type":"uint256","internalType":"uint256"}],"stateMutability":"view"},{"type":"function","name":"impairLoan","inputs":[{"name":"claimId","type":"uint256","internalType":"uint256"}],"outputs":[],"stateMutability":"nonpayable"},{"type":"function","name":"isApprovedForAll","inputs":[{"name":"owner","type":"address","internalType":"address"},{"name":"operator","type":"address","internalType":"address"}],"outputs":[{"name":"","type":"bool","internalType":"bool"}],"stateMutability":"view"},{"type":"function","name":"isCallbackWhitelisted","inputs":[{"name":"callbackContract","type":"address","internalType":"address"},{"name":"selector","type":"bytes4","internalType":"bytes4"}],"outputs":[{"name":"","type":"bool","internalType":"bool"}],"stateMutability":"view"},{"type":"function","name":"loanOfferCount","inputs":[],"outputs":[{"name":"","type":"uint256","internalType":"uint256"}],"stateMutability":"view"},{"type":"function","name":"markLoanAsPaid","inputs":[{"name":"claimId","type":"uint256","internalType":"uint256"}],"outputs":[],"stateMutability":"nonpayable"},{"type":"function","name":"offerLoan","inputs":[{"name":"offer","type":"tuple","internalType":"struct LoanRequestParams","components":[{"name":"termLength","type":"uint256","internalType":"uint256"},{"name":"interestConfig","type":"tuple","internalType":"struct InterestConfig","components":[{"name":"interestRateBps","type":"uint16","internalType":"uint16"},{"name":"numberOfPeriodsPerYear","type":"uint16","internalType":"uint16"}]},{"name":"loanAmount","type":"uint256","internalType":"uint256"},{"name":"creditor","type":"address","internalType":"address"},{"name":"debtor","type":"address","internalType":"address"},{"name":"description","type":"string","internalType":"string"},{"name":"token","type":"address","internalType":"address"},{"name":"impairmentGracePeriod","type":"uint256","internalType":"uint256"},{"name":"expiresAt","type":"uint256","internalType":"uint256"},{"name":"callbackContract","type":"address","internalType":"address"},{"name":"callbackSelector","type":"bytes4","internalType":"bytes4"}]}],"outputs":[{"name":"","type":"uint256","internalType":"uint256"}],"stateMutability":"nonpayable"},{"type":"function","name":"offerLoanWithMetadata","inputs":[{"name":"offer","type":"tuple","internalType":"struct LoanRequestParams","components":[{"name":"termLength","type":"uint256","internalType":"uint256"},{"name":"interestConfig","type":"tuple","internalType":"struct InterestConfig","components":[{"name":"interestRateBps","type":"uint16","internalType":"uint16"},{"name":"numberOfPeriodsPerYear","type":"uint16","internalType":"uint16"}]},{"name":"loanAmount","type":"uint256","internalType":"uint256"},{"name":"creditor","type":"address","internalType":"address"},{"name":"debtor","type":"address","internalType":"address"},{"name":"description","type":"string","internalType":"string"},{"name":"token","type":"address","internalType":"address"},{"name":"impairmentGracePeriod","type":"uint256","internalType":"uint256"},{"name":"expiresAt","type":"uint256","internalType":"uint256"},{"name":"callbackContract","type":"address","internalType":"address"},{"name":"callbackSelector","type":"bytes4","internalType":"bytes4"}]},{"name":"metadata","type":"tuple","internalType":"struct ClaimMetadata","components":[{"name":"tokenURI","type":"string","internalType":"string"},{"name":"attachmentURI","type":"string","internalType":"string"}]}],"outputs":[{"name":"","type":"uint256","internalType":"uint256"}],"stateMutability":"nonpayable"},{"type":"function","name":"owner","inputs":[],"outputs":[{"name":"","type":"address","internalType":"address"}],"stateMutability":"view"},{"type":"function","name":"ownerOf","inputs":[{"name":"tokenId","type":"uint256","internalType":"uint256"}],"outputs":[{"name":"","type":"address","internalType":"address"}],"stateMutability":"view"},{"type":"function","name":"payLoan","inputs":[{"name":"claimId","type":"uint256","internalType":"uint256"},{"name":"paymentAmount","type":"uint256","internalType":"uint256"}],"outputs":[],"stateMutability":"nonpayable"},{"type":"function","name":"processingFeeBPS","inputs":[],"outputs":[{"name":"","type":"uint16","internalType":"uint16"}],"stateMutability":"view"},{"type":"function","name":"protocolFeeBPS","inputs":[],"outputs":[{"name":"","type":"uint16","internalType":"uint16"}],"stateMutability":"view"},{"type":"function","name":"protocolFeeTokenWhitelist","inputs":[{"name":"","type":"address","internalType":"address"}],"outputs":[{"name":"","type":"bool","internalType":"bool"}],"stateMutability":"view"},{"type":"function","name":"protocolFeesByToken","inputs":[{"name":"","type":"address","internalType":"address"}],"outputs":[{"name":"","type":"uint256","internalType":"uint256"}],"stateMutability":"view"},{"type":"function","name":"rejectLoanOffer","inputs":[{"name":"offerId","type":"uint256","internalType":"uint256"}],"outputs":[],"stateMutability":"nonpayable"},{"type":"function","name":"removeFromCallbackWhitelist","inputs":[{"name":"callbackContract","type":"address","internalType":"address"},{"name":"selector","type":"bytes4","internalType":"bytes4"}],"outputs":[],"stateMutability":"nonpayable"},{"type":"function","name":"removeFromFeeTokenWhitelist","inputs":[{"name":"token","type":"address","internalType":"address"}],"outputs":[],"stateMutability":"nonpayable"},{"type":"function","name":"renounceOwnership","inputs":[],"outputs":[],"stateMutability":"nonpayable"},{"type":"function","name":"safeTransferFrom","inputs":[{"name":"from","type":"address","internalType":"address"},{"name":"to","type":"address","internalType":"address"},{"name":"tokenId","type":"uint256","internalType":"uint256"}],"outputs":[],"stateMutability":"nonpayable"},{"type":"function","name":"safeTransferFrom","inputs":[{"name":"from","type":"address","internalType":"address"},{"name":"to","type":"address","internalType":"address"},{"name":"tokenId","type":"uint256","internalType":"uint256"},{"name":"data","type":"bytes","internalType":"bytes"}],"outputs":[],"stateMutability":"nonpayable"},{"type":"function","name":"setApprovalForAll","inputs":[{"name":"operator","type":"address","internalType":"address"},{"name":"approved","type":"bool","internalType":"bool"}],"outputs":[],"stateMutability":"nonpayable"},{"type":"function","name":"setProcessingFee","inputs":[{"name":"_processingFeeBPS","type":"uint16","internalType":"uint16"}],"outputs":[],"stateMutability":"nonpayable"},{"type":"function","name":"setProtocolFee","inputs":[{"name":"_protocolFeeBPS","type":"uint16","internalType":"uint16"}],"outputs":[],"stateMutability":"nonpayable"},{"type":"function","name":"supportsInterface","inputs":[{"name":"interfaceId","type":"bytes4","internalType":"bytes4"}],"outputs":[{"name":"","type":"bool","internalType":"bool"}],"stateMutability":"view"},{"type":"function","name":"transferFrom","inputs":[{"name":"from","type":"address","internalType":"address"},{"name":"to","type":"address","internalType":"address"},{"name":"tokenId","type":"uint256","internalType":"uint256"}],"outputs":[],"stateMutability":"nonpayable"},{"type":"function","name":"transferOwnership","inputs":[{"name":"newOwner","type":"address","internalType":"address"}],"outputs":[],"stateMutability":"nonpayable"},{"type":"function","name":"whitelistedProtocolFeeTokens","inputs":[{"name":"","type":"uint256","internalType":"uint256"}],"outputs":[{"name":"","type":"address","internalType":"address"}],"stateMutability":"view"},{"type":"function","name":"withdrawAllFees","inputs":[],"outputs":[],"stateMutability":"nonpayable"},{"type":"event","name":"Approval","inputs":[{"name":"owner","type":"address","indexed":true,"internalType":"address"},{"name":"approved","type":"address","indexed":true,"internalType":"address"},{"name":"tokenId","type":"uint256","indexed":true,"internalType":"uint256"}],"anonymous":false},{"type":"event","name":"ApprovalForAll","inputs":[{"name":"owner","type":"address","indexed":true,"internalType":"address"},{"name":"operator","type":"address","indexed":true,"internalType":"address"},{"name":"approved","type":"bool","indexed":false,"internalType":"bool"}],"anonymous":false},{"type":"event","name":"CallbackRemovedFromWhitelist","inputs":[{"name":"callbackContract","type":"address","indexed":true,"internalType":"address"},{"name":"selector","type":"bytes4","indexed":true,"internalType":"bytes4"}],"anonymous":false},{"type":"event","name":"CallbackWhitelisted","inputs":[{"name":"callbackContract","type":"address","indexed":true,"internalType":"address"},{"name":"selector","type":"bytes4","indexed":true,"internalType":"bytes4"}],"anonymous":false},{"type":"event","name":"FeeWithdrawn","inputs":[{"name":"admin","type":"address","indexed":true,"internalType":"address"},{"name":"token","type":"address","indexed":true,"internalType":"address"},{"name":"amount","type":"uint256","indexed":false,"internalType":"uint256"}],"anonymous":false},{"type":"event","name":"LoanOfferAccepted","inputs":[{"name":"offerId","type":"uint256","indexed":true,"internalType":"uint256"},{"name":"claimId","type":"uint256","indexed":true,"internalType":"uint256"},{"name":"receiver","type":"address","indexed":true,"internalType":"address"},{"name":"fee","type":"uint256","indexed":false,"internalType":"uint256"},{"name":"processingFee","type":"uint256","indexed":false,"internalType":"uint256"},{"name":"metadata","type":"tuple","indexed":false,"internalType":"struct ClaimMetadata","components":[{"name":"tokenURI","type":"string","internalType":"string"},{"name":"attachmentURI","type":"string","internalType":"string"}]}],"anonymous":false},{"type":"event","name":"LoanOfferRejected","inputs":[{"name":"offerId","type":"uint256","indexed":true,"internalType":"uint256"},{"name":"rejectedBy","type":"address","indexed":true,"internalType":"address"}],"anonymous":false},{"type":"event","name":"LoanOffered","inputs":[{"name":"offerId","type":"uint256","indexed":true,"internalType":"uint256"},{"name":"offeredBy","type":"address","indexed":true,"internalType":"address"},{"name":"loanOffer","type":"tuple","indexed":false,"internalType":"struct LoanRequestParams","components":[{"name":"termLength","type":"uint256","internalType":"uint256"},{"name":"interestConfig","type":"tuple","internalType":"struct InterestConfig","components":[{"name":"interestRateBps","type":"uint16","internalType":"uint16"},{"name":"numberOfPeriodsPerYear","type":"uint16","internalType":"uint16"}]},{"name":"loanAmount","type":"uint256","internalType":"uint256"},{"name":"creditor","type":"address","internalType":"address"},{"name":"debtor","type":"address","internalType":"address"},{"name":"description","type":"string","internalType":"string"},{"name":"token","type":"address","internalType":"address"},{"name":"impairmentGracePeriod","type":"uint256","internalType":"uint256"},{"name":"expiresAt","type":"uint256","internalType":"uint256"},{"name":"callbackContract","type":"address","internalType":"address"},{"name":"callbackSelector","type":"bytes4","internalType":"bytes4"}]},{"name":"metadata","type":"tuple","indexed":false,"internalType":"struct ClaimMetadata","components":[{"name":"tokenURI","type":"string","internalType":"string"},{"name":"attachmentURI","type":"string","internalType":"string"}]}],"anonymous":false},{"type":"event","name":"LoanPayment","inputs":[{"name":"claimId","type":"uint256","indexed":true,"internalType":"uint256"},{"name":"grossInterestPaid","type":"uint256","indexed":false,"internalType":"uint256"},{"name":"principalPaid","type":"uint256","indexed":false,"internalType":"uint256"},{"name":"protocolFee","type":"uint256","indexed":false,"internalType":"uint256"}],"anonymous":false},{"type":"event","name":"OwnershipTransferred","inputs":[{"name":"previousOwner","type":"address","indexed":true,"internalType":"address"},{"name":"newOwner","type":"address","indexed":true,"internalType":"address"}],"anonymous":false},{"type":"event","name":"ProcessingFeeUpdated","inputs":[{"name":"oldFee","type":"uint16","indexed":false,"internalType":"uint16"},{"name":"newFee","type":"uint16","indexed":false,"internalType":"uint16"}],"anonymous":false},{"type":"event","name":"ProtocolFeeUpdated","inputs":[{"name":"oldFee","type":"uint16","indexed":false,"internalType":"uint16"},{"name":"newFee","type":"uint16","indexed":false,"internalType":"uint16"}],"anonymous":false},{"type":"event","name":"TokenAddedToFeesWhitelist","inputs":[{"name":"token","type":"address","indexed":true,"internalType":"address"}],"anonymous":false},{"type":"event","name":"TokenRemovedFromFeesWhitelist","inputs":[{"name":"token","type":"address","indexed":true,"internalType":"address"}],"anonymous":false},{"type":"event","name":"Transfer","inputs":[{"name":"from","type":"address","indexed":true,"internalType":"address"},{"name":"to","type":"address","indexed":true,"internalType":"address"},{"name":"tokenId","type":"uint256","indexed":true,"internalType":"uint256"}],"anonymous":false},{"type":"error","name":"CallbackFailed","inputs":[{"name":"data","type":"bytes","internalType":"bytes"}]},{"type":"error","name":"CallbackNotWhitelisted","inputs":[]},{"type":"error","name":"IncorrectFee","inputs":[]},{"type":"error","name":"InvalidGracePeriod","inputs":[]},{"type":"error","name":"InvalidProtocolFee","inputs":[]},{"type":"error","name":"InvalidTermLength","inputs":[]},{"type":"error","name":"LoanOfferExpired","inputs":[]},{"type":"error","name":"LoanOfferNotFound","inputs":[]},{"type":"error","name":"NativeTokenNotSupported","inputs":[]},{"type":"error","name":"NotController","inputs":[{"name":"sender","type":"address","internalType":"address"}]},{"type":"error","name":"NotCreditor","inputs":[]},{"type":"error","name":"NotCreditorOrDebtor","inputs":[]},{"type":"error","name":"NotDebtor","inputs":[]},{"type":"error","name":"OwnableInvalidOwner","inputs":[{"name":"owner","type":"address","internalType":"address"}]},{"type":"error","name":"OwnableUnauthorizedAccount","inputs":[{"name":"account","type":"address","internalType":"address"}]}],"bytecode":{"object":"0x60a060405234801561000f575f5ffd5b50604051615da0380380615da083398101604081905261002e916101af565b6001600160a01b038085166080528390811661006357604051631e4fbdf760e01b81525f600482015260240160405180910390fd5b61006c81610134565b5061271061ffff8316111561009457604051631752ff0760e31b815260040160405180910390fd5b61271061ffff821611156100bb57604051631752ff0760e31b815260040160405180910390fd5b6002805461ffff838116620100000263ffffffff1990921690851617179055604080516060810182525f818301818152825282516020818101909452908152918101919091528051600a9081906101129082610298565b50602082015160018201906101279082610298565b5090505050505050610352565b5f80546001600160a01b038381166001600160a01b0319831681178455604051919092169283917f8be0079c531659141344cd1fd0a4f28419497f9722a3daafe3b4186f6b6457e09190a35050565b80516001600160a01b0381168114610199575f5ffd5b919050565b805161ffff81168114610199575f5ffd5b5f5f5f5f608085870312156101c2575f5ffd5b6101cb85610183565b93506101d960208601610183565b92506101e76040860161019e565b91506101f56060860161019e565b905092959194509250565b634e487b7160e01b5f52604160045260245ffd5b600181811c9082168061022857607f821691505b60208210810361024657634e487b7160e01b5f52602260045260245ffd5b50919050565b601f82111561029357805f5260205f20601f840160051c810160208510156102715750805b601f840160051c820191505b81811015610290575f815560010161027d565b50505b505050565b81516001600160401b038111156102b1576102b1610200565b6102c5816102bf8454610214565b8461024c565b6020601f8211600181146102f7575f83156102e05750848201515b5f19600385901b1c1916600184901b178455610290565b5f84815260208120601f198516915b828110156103265787850151825560209485019460019092019101610306565b508482101561034357868401515f19600387901b60f8161c191681555b50505050600190811b01905550565b60805161599c6104045f395f818161041e015281816109d701528181610a8701528181610b6801528181610c1701528181610d0001528181610ef6015281816117b00152818161187401528181611b1d01528181611ba801528181611e8801528181611f4c0152818161213f01528181612427015281816125fc015281816126c801528181612af5015281816133b2015281816134d90152818161360201528181613bf90152613cbc015261599c5ff3fe6080604052600436106102c1575f3560e01c8063715018a611610170578063adfbe22f116100d1578063db4e089911610087578063f2fde38b11610062578063f2fde38b14610883578063f851a4401461066a578063fce5f608146108a2575f5ffd5b8063db4e089914610819578063e4467f3514610845578063e985e9c514610864575f5ffd5b8063b88d4fde116100b7578063b88d4fde146107c8578063b9108c03146107e7578063d4251f9e146107fa575f5ffd5b8063adfbe22f146107a1578063af236af4146107b4575f5ffd5b806396daa32211610126578063a22cb4651161010c578063a22cb465146106df578063a5cc6a7f146106fe578063a64d6beb1461072c575f5ffd5b806396daa32214610693578063a15c24f3146106c0575f5ffd5b80638804614611610156578063880461461461062c57806389306e611461064b5780638da5cb5b1461066a575f5ffd5b8063715018a6146105f9578063824599951461060d575f5ffd5b806339737e071161022557806352331cf8116101db578063631f1a3c116101b6578063631f1a3c1461058f5780636352211e146105bb57806370a08231146105da575f5ffd5b806352331cf8146105325780636208d89c14610551578063623fb7ce14610570575f5ffd5b80634be18e941161020b5780634be18e94146104c8578063504006ca146104e7578063520eb07614610513575f5ffd5b806339737e071461047e57806342842e0e146104a9575f5ffd5b80631bc7cd3d1161027a5780632b538af5116102605780632b538af51461040d5780632d1982ff14610440578063307a80881461045f575f5ffd5b80631bc7cd3d146103ba57806323b872dd146103ee575f5ffd5b8063081812fc116102aa578063081812fc14610332578063095ea7b314610376578063150a642214610397575f5ffd5b806301ffc9a7146102c557806304dbf913146102f9575b5f5ffd5b3480156102d0575f5ffd5b506102e46102df366004614741565b6108c2565b60405190151581526020015b60405180910390f35b348015610304575f5ffd5b506102e4610313366004614786565b600660209081525f928352604080842090915290825290205460ff1681565b34801561033d575f5ffd5b5061035161034c3660046147b9565b6109a6565b60405173ffffffffffffffffffffffffffffffffffffffff90911681526020016102f0565b348015610381575f5ffd5b506103956103903660046147d0565b610a56565b005b3480156103a2575f5ffd5b506103ac60015481565b6040519081526020016102f0565b3480156103c5575f5ffd5b506103d96103d43660046147b9565b610bc5565b604080519283526020830191909152016102f0565b3480156103f9575f5ffd5b506103956104083660046147fa565b610be6565b348015610418575f5ffd5b506103517f000000000000000000000000000000000000000000000000000000000000000081565b34801561044b575f5ffd5b506103ac61045a36600461484f565b610d5e565b34801561046a575f5ffd5b50610395610479366004614786565b610d78565b348015610489575f5ffd5b506103ac6104983660046148ba565b60046020525f908152604090205481565b3480156104b4575f5ffd5b506103956104c33660046147fa565b610e6e565b3480156104d3575f5ffd5b506103516104e23660046147b9565b610e88565b3480156104f2575f5ffd5b506105066105013660046147b9565b610ebd565b6040516102f09190614926565b34801561051e575f5ffd5b5061039561052d366004614786565b611217565b34801561053d575f5ffd5b5061039561054c366004614a87565b6112c2565b34801561055c575f5ffd5b5061039561056b3660046147b9565b611389565b34801561057b575f5ffd5b5061039561058a3660046147b9565b61177f565b34801561059a575f5ffd5b506105ae6105a93660046147b9565b6118e5565b6040516102f09190614aee565b3480156105c6575f5ffd5b506103516105d53660046147b9565b611aec565b3480156105e5575f5ffd5b506103ac6105f43660046148ba565b611b61565b348015610604575f5ffd5b50610395611c13565b348015610618575f5ffd5b506103956106273660046148ba565b611c26565b348015610637575f5ffd5b506103956106463660046147b9565b611e57565b348015610656575f5ffd5b50610395610665366004614c24565b611f90565b348015610675575f5ffd5b505f5473ffffffffffffffffffffffffffffffffffffffff16610351565b34801561069e575f5ffd5b506002546106ad9061ffff1681565b60405161ffff90911681526020016102f0565b3480156106cb575f5ffd5b506103ac6106da366004614c44565b6122a4565b3480156106ea575f5ffd5b506103956106f9366004614c83565b6123da565b348015610709575f5ffd5b506102e46107183660046148ba565b60056020525f908152604090205460ff1681565b348015610737575f5ffd5b506102e4610746366004614786565b73ffffffffffffffffffffffffffffffffffffffff82165f9081526006602090815260408083207fffffffff000000000000000000000000000000000000000000000000000000008516845290915290205460ff1692915050565b6103ac6107af3660046147b9565b612468565b3480156107bf575f5ffd5b50610395612474565b3480156107d3575f5ffd5b506103956107e2366004614dbe565b6125cb565b6103ac6107f5366004614e39565b61273a565b348015610805575f5ffd5b506103956108143660046148ba565b612746565b348015610824575f5ffd5b506108386108333660046147b9565b612865565b6040516102f09190614e92565b348015610850575f5ffd5b5061039561085f366004614a87565b6129f1565b34801561086f575f5ffd5b506102e461087e366004614ea4565b612aa6565b34801561088e575f5ffd5b5061039561089d3660046148ba565b612b60565b3480156108ad575f5ffd5b506002546106ad9062010000900461ffff1681565b5f7fffffffff0000000000000000000000000000000000000000000000000000000082167f5f634e6f00000000000000000000000000000000000000000000000000000000148061095457507f80ac58cd000000000000000000000000000000000000000000000000000000007fffffffff000000000000000000000000000000000000000000000000000000008316145b806109a057507f01ffc9a7000000000000000000000000000000000000000000000000000000007fffffffff000000000000000000000000000000000000000000000000000000008316145b92915050565b6040517f081812fc000000000000000000000000000000000000000000000000000000008152600481018290525f907f000000000000000000000000000000000000000000000000000000000000000073ffffffffffffffffffffffffffffffffffffffff169063081812fc906024015b602060405180830381865afa158015610a32573d5f5f3e3d5ffd5b505050506040513d601f19601f820116820180604052508101906109a09190614edb565b6040517f5aef2447000000000000000000000000000000000000000000000000000000008152600481018290525f907f000000000000000000000000000000000000000000000000000000000000000073ffffffffffffffffffffffffffffffffffffffff1690635aef24479060240161016060405180830381865afa158015610ae2573d5f5f3e3d5ffd5b505050506040513d601f19601f82011682018060405250810190610b069190614f12565b9050610b16816101000151612bc5565b6040517f52ec852900000000000000000000000000000000000000000000000000000000815233600482015273ffffffffffffffffffffffffffffffffffffffff8481166024830152604482018490527f000000000000000000000000000000000000000000000000000000000000000016906352ec8529906064015f604051808303815f87803b158015610ba9575f5ffd5b505af1158015610bbb573d5f5f3e3d5ffd5b505050505b505050565b5f5f5f610bd184610ebd565b9050610bdc81612c16565b9250925050915091565b6040517f5aef2447000000000000000000000000000000000000000000000000000000008152600481018290525f907f000000000000000000000000000000000000000000000000000000000000000073ffffffffffffffffffffffffffffffffffffffff1690635aef24479060240161016060405180830381865afa158015610c72573d5f5f3e3d5ffd5b505050506040513d601f19601f82011682018060405250810190610c969190614f12565b9050610ca6816101000151612bc5565b6040517faf9fe4de00000000000000000000000000000000000000000000000000000000815233600482015273ffffffffffffffffffffffffffffffffffffffff85811660248301528481166044830152606482018490527f0000000000000000000000000000000000000000000000000000000000000000169063af9fe4de906084015f604051808303815f87803b158015610d41575f5ffd5b505af1158015610d53573d5f5f3e3d5ffd5b505050505b50505050565b5f610d7183610d6c84614ff1565b612c3a565b9392505050565b610d80612f3d565b73ffffffffffffffffffffffffffffffffffffffff82161580610dc357507fffffffff000000000000000000000000000000000000000000000000000000008116155b610e6a5773ffffffffffffffffffffffffffffffffffffffff82165f8181526006602090815260408083207fffffffff000000000000000000000000000000000000000000000000000000008616808552925280832080547fffffffffffffffffffffffffffffffffffffffffffffffffffffffffffffff00166001179055519092917f177c467a5dec0610cb3afa435a1f7efa9cd39bf81ff2273f06ae7668a00e310b91a35b5050565b610bc083838360405180602001604052805f8152506125cb565b60038181548110610e97575f80fd5b5f9182526020909120015473ffffffffffffffffffffffffffffffffffffffff16905081565b610ec561451c565b6040517f5aef2447000000000000000000000000000000000000000000000000000000008152600481018390525f907f000000000000000000000000000000000000000000000000000000000000000073ffffffffffffffffffffffffffffffffffffffff1690635aef24479060240161016060405180830381865afa158015610f51573d5f5f3e3d5ffd5b505050506040513d601f19601f82011682018060405250810190610f759190614f12565b9050610f85816101000151612bc5565b5f8381526008602090815260408083208151608080820184528254825283518085018552600184015461ffff8082168352620100009091048116828801528387019190915284519182018552600284015482526003840154958201959095526004830154909416848401526005820154606080860191909152928101939093526006015460ff1615159082015290826101200151600581111561102a5761102a6148d5565b148061104c57506001826101200151600581111561104a5761104a6148d5565b145b8061106d57506005826101200151600581111561106b5761106b6148d5565b145b156111115773__$4bbbaa6d90f42a60403c514cce5191a63a$__63ff7f44438360200151845f015161109f919061508c565b835f0151846020015185604001516040518563ffffffff1660e01b81526004016110cc949392919061509f565b608060405180830381865af41580156110e7573d5f5f3e3d5ffd5b505050506040513d601f19601f8201168201806040525081019061110b91906150f4565b60408201525b604051806101800160405280835f01518152602001836020015181526020018361012001516005811115611147576111476148d5565b81526020018361014001516002811115611163576111636148d5565b81526020018360a0015173ffffffffffffffffffffffffffffffffffffffff1681526020018360c0015173ffffffffffffffffffffffffffffffffffffffff1681526020018360e0015173ffffffffffffffffffffffffffffffffffffffff16815260200183610100015173ffffffffffffffffffffffffffffffffffffffff16815260200183604001518152602001825f0151815260200182602001518152602001826040015181525092505050919050565b61121f612f3d565b73ffffffffffffffffffffffffffffffffffffffff82165f8181526006602090815260408083207fffffffff000000000000000000000000000000000000000000000000000000008616808552925280832080547fffffffffffffffffffffffffffffffffffffffffffffffffffffffffffffff00169055519092917f36112db5f88f36037ce600104320a87f5636f34183686bbc76a66ec5588fccc991a35050565b6112ca612f3d565b61271061ffff8216111561130a576040517fba97f83800000000000000000000000000000000000000000000000000000000815260040160405180910390fd5b6002805461ffff838116620100008181027fffffffffffffffffffffffffffffffffffffffffffffffffffffffff0000ffff85161790945560408051949093049091168084526020840191909152917f94d513c10ff5e8f0454d36f41da1d81583ca73420fcfff120599b4b73cdf1e6d91015b60405180910390a15050565b5f81815260076020908152604080832081516101a08101835281548184019081528351808501909452600183015461ffff8082168652620100009091041694840194909452606081019290925260028101546080830152600381015473ffffffffffffffffffffffffffffffffffffffff90811660a084015260048201541660c083015260058101805492939192849291849160e08501919061142b90615160565b80601f016020809104026020016040519081016040528092919081815260200182805461145790615160565b80156114a25780601f10611479576101008083540402835291602001916114a2565b820191905f5260205f20905b81548152906001019060200180831161148557829003601f168201915b5050509183525050600682015473ffffffffffffffffffffffffffffffffffffffff908116602080840191909152600784015460408401526008840154606080850191909152600990940154808316608085015274010000000000000000000000000000000000000000900460e01b7fffffffff000000000000000000000000000000000000000000000000000000001660a090930192909252928452600a949094015460ff161515929093019190915282519091015191925016611593576040517f1d044d6100000000000000000000000000000000000000000000000000000000815260040160405180910390fd5b80516060015173ffffffffffffffffffffffffffffffffffffffff1633148015906115d9575080516080015173ffffffffffffffffffffffffffffffffffffffff163314155b15611610576040517f5d6db4c200000000000000000000000000000000000000000000000000000000815260040160405180910390fd5b5f8281526007602052604081208181556001810180547fffffffffffffffffffffffffffffffffffffffffffffffffffffffff00000000169055600281018290556003810180547fffffffffffffffffffffffff000000000000000000000000000000000000000090811690915560048201805490911690559081816116996005830182614625565b506006810180547fffffffffffffffffffffffff00000000000000000000000000000000000000001690555f6007820181905560088201819055600991820180547fffffffffffffffff000000000000000000000000000000000000000000000000169055600a9390930180547fffffffffffffffffffffffffffffffffffffffffffffffffffffffffffffff001690558483526020525060408120906117408282614625565b61174d600183015f614625565b5050604051339083907f5c6eae33ff1cd222fb8964d3a9cb61f3c59d868bb587b0ad1f131fb6d99328ad905f90a35050565b6040517f5aef2447000000000000000000000000000000000000000000000000000000008152600481018290525f907f000000000000000000000000000000000000000000000000000000000000000073ffffffffffffffffffffffffffffffffffffffff1690635aef24479060240161016060405180830381865afa15801561180b573d5f5f3e3d5ffd5b505050506040513d601f19601f8201168201806040525081019061182f9190614f12565b905061183f816101000151612bc5565b6040517f3081ed8a000000000000000000000000000000000000000000000000000000008152336004820152602481018390527f000000000000000000000000000000000000000000000000000000000000000073ffffffffffffffffffffffffffffffffffffffff1690633081ed8a906044015b5f604051808303815f87803b1580156118cb575f5ffd5b505af11580156118dd573d5f5f3e3d5ffd5b505050505050565b6118ed61465c565b6001548210611928576040517f1d044d6100000000000000000000000000000000000000000000000000000000815260040160405180910390fd5b5f8281526007602090815260409182902082516101a08101845281548185019081528451808601909552600183015461ffff8082168752620100009091041693850193909352606081019390935260028101546080840152600381015473ffffffffffffffffffffffffffffffffffffffff90811660a085015260048201541660c0840152600581018054919284929091849160e0850191906119ca90615160565b80601f01602080910402602001604051908101604052809291908181526020018280546119f690615160565b8015611a415780601f10611a1857610100808354040283529160200191611a41565b820191905f5260205f20905b815481529060010190602001808311611a2457829003601f168201915b5050509183525050600682015473ffffffffffffffffffffffffffffffffffffffff9081166020808401919091526007840154604084015260088401546060840152600990930154908116608083015274010000000000000000000000000000000000000000900460e01b7fffffffff000000000000000000000000000000000000000000000000000000001660a090910152908252600a929092015460ff16151591015292915050565b6040517f6352211e000000000000000000000000000000000000000000000000000000008152600481018290525f907f000000000000000000000000000000000000000000000000000000000000000073ffffffffffffffffffffffffffffffffffffffff1690636352211e90602401610a17565b6040517f70a0823100000000000000000000000000000000000000000000000000000000815273ffffffffffffffffffffffffffffffffffffffff82811660048301525f917f0000000000000000000000000000000000000000000000000000000000000000909116906370a0823190602401602060405180830381865afa158015611bef573d5f5f3e3d5ffd5b505050506040513d601f19601f820116820180604052508101906109a091906151ab565b611c1b612f3d565b611c245f612f8f565b565b611c2e612f3d565b73ffffffffffffffffffffffffffffffffffffffff81165f9081526005602052604090205460ff1615611e145773ffffffffffffffffffffffffffffffffffffffff81165f90815260056020526040812080547fffffffffffffffffffffffffffffffffffffffffffffffffffffffffffffff001690555b600354811015611e12578173ffffffffffffffffffffffffffffffffffffffff1660038281548110611cda57611cda6151c2565b5f9182526020909120015473ffffffffffffffffffffffffffffffffffffffff1603611e0a5760038054611d109060019061508c565b81548110611d2057611d206151c2565b5f918252602090912001546003805473ffffffffffffffffffffffffffffffffffffffff9092169183908110611d5857611d586151c2565b905f5260205f20015f6101000a81548173ffffffffffffffffffffffffffffffffffffffff021916908373ffffffffffffffffffffffffffffffffffffffff1602179055506003805480611dae57611dae6151ef565b5f8281526020902081017fffffffffffffffffffffffffffffffffffffffffffffffffffffffffffffffff90810180547fffffffffffffffffffffffff0000000000000000000000000000000000000000169055019055611e12565b600101611ca6565b505b60405173ffffffffffffffffffffffffffffffffffffffff8216907fceeec53cbb10af8d416c74d15b37f2c8761d65af488132f6de71b01176ad2334905f90a250565b6040517f5aef2447000000000000000000000000000000000000000000000000000000008152600481018290525f907f000000000000000000000000000000000000000000000000000000000000000073ffffffffffffffffffffffffffffffffffffffff1690635aef24479060240161016060405180830381865afa158015611ee3573d5f5f3e3d5ffd5b505050506040513d601f19601f82011682018060405250810190611f079190614f12565b9050611f17816101000151612bc5565b6040517f2a982aeb000000000000000000000000000000000000000000000000000000008152336004820152602481018390527f000000000000000000000000000000000000000000000000000000000000000073ffffffffffffffffffffffffffffffffffffffff1690632a982aeb906044016118b4565b5f611f9a83610ebd565b90505f5f611fa783612c16565b915091505f611fb68583613003565b90505f611fcc611fc6838861508c565b85613003565b90506040518060800160405280838761016001515f0151611fed919061508c565b81526020018661016001516020015181526020018661016001516040015161ffff1681526020018387610160015160600151612029919061521c565b90525f8881526008602090815260409182902083516002820155908301516003820155908201516004820180547fffffffffffffffffffffffffffffffffffffffffffffffffffffffffffff00001661ffff90921691909117905560609091015160059091015561209a818361521c565b5f888152600860205260408120600601549197509060ff16806120bb575082155b6120e0576120db838761014001515f015188610160015160400151613012565b6120e2565b5f5b90505f6120ef828561508c565b90505f6120fc848361521c565b905083156121ab576040517e8c1075000000000000000000000000000000000000000000000000000000008152336004820152602481018b9052604481018590527f000000000000000000000000000000000000000000000000000000000000000073ffffffffffffffffffffffffffffffffffffffff1690628c1075906064015f604051808303815f87803b158015612194575f5ffd5b505af11580156121a6573d5f5f3e3d5ffd5b505050505b88156122555782156121f55760c088015173ffffffffffffffffffffffffffffffffffffffff165f90815260046020526040812080548592906121ef90849061521c565b90915550505b60c088015161221c9073ffffffffffffffffffffffffffffffffffffffff1633308c613037565b8015612255576122558860a00151828a60c0015173ffffffffffffffffffffffffffffffffffffffff166130f29092919063ffffffff16565b60408051868152602081018690529081018490528a907f06283ce23ea8ff00b2f5df7b85dc1a077d69a207b3b48ecdaf73bf2189dd2e0f9060600160405180910390a250505050505050505050565b5f6109a082600a6040518060400160405290815f820180546122c590615160565b80601f01602080910402602001604051908101604052809291908181526020018280546122f190615160565b801561233c5780601f106123135761010080835404028352916020019161233c565b820191905f5260205f20905b81548152906001019060200180831161231f57829003601f168201915b5050505050815260200160018201805461235590615160565b80601f016020809104026020016040519081016040528092919081815260200182805461238190615160565b80156123cc5780601f106123a3576101008083540402835291602001916123cc565b820191905f5260205f20905b8154815290600101906020018083116123af57829003601f168201915b505050505081525050612c3a565b6040517fa22cb46500000000000000000000000000000000000000000000000000000000815273ffffffffffffffffffffffffffffffffffffffff838116600483015282151560248301527f0000000000000000000000000000000000000000000000000000000000000000169063a22cb465906044015f604051808303815f87803b1580156118cb575f5ffd5b5f6109a033835f6131a7565b61247c612f3d565b5f5b6003548110156125c8575f6003828154811061249c5761249c6151c2565b5f91825260208083209091015473ffffffffffffffffffffffffffffffffffffffff16808352600490915260409091205490915080156125be5773ffffffffffffffffffffffffffffffffffffffff82165f9081526004602052604081205561253a61251c5f5473ffffffffffffffffffffffffffffffffffffffff1690565b73ffffffffffffffffffffffffffffffffffffffff841690836130f2565b8173ffffffffffffffffffffffffffffffffffffffff1661256f5f5473ffffffffffffffffffffffffffffffffffffffff1690565b73ffffffffffffffffffffffffffffffffffffffff167eed5939179dc194223f0edd1517ecee2210b22da7f82c8e4b1795e93b9f06aa836040516125b591815260200190565b60405180910390a35b505060010161247e565b50565b6040517f5aef2447000000000000000000000000000000000000000000000000000000008152600481018390525f907f000000000000000000000000000000000000000000000000000000000000000073ffffffffffffffffffffffffffffffffffffffff1690635aef24479060240161016060405180830381865afa158015612657573d5f5f3e3d5ffd5b505050506040513d601f19601f8201168201806040525081019061267b9190614f12565b905061268b816101000151612bc5565b6040517ffcf391e000000000000000000000000000000000000000000000000000000000815273ffffffffffffffffffffffffffffffffffffffff7f0000000000000000000000000000000000000000000000000000000000000000169063fcf391e090612705903390899089908990899060040161522f565b5f604051808303815f87803b15801561271c575f5ffd5b505af115801561272e573d5f5f3e3d5ffd5b505050505b5050505050565b5f610d713384846131a7565b61274e612f3d565b73ffffffffffffffffffffffffffffffffffffffff81165f9081526005602052604090205460ff166128225773ffffffffffffffffffffffffffffffffffffffff81165f81815260056020526040812080547fffffffffffffffffffffffffffffffffffffffffffffffffffffffffffffff001660019081179091556003805491820181559091527fc2575a0e9e593c00f959f8c92f12db2869c3395a3b0502d05e2516446f71f85b0180547fffffffffffffffffffffffff00000000000000000000000000000000000000001690911790555b60405173ffffffffffffffffffffffffffffffffffffffff8216907f8ac7e85f445e8ee1c850abbfcd9da63ccb7b527c076290946108a7c280247096905f90a250565b604080518082019091526060808252602082015260015482106128b4576040517f1d044d6100000000000000000000000000000000000000000000000000000000815260040160405180910390fd5b5f828152600960205260409081902081518083019092528054829082906128da90615160565b80601f016020809104026020016040519081016040528092919081815260200182805461290690615160565b80156129515780601f1061292857610100808354040283529160200191612951565b820191905f5260205f20905b81548152906001019060200180831161293457829003601f168201915b5050505050815260200160018201805461296a90615160565b80601f016020809104026020016040519081016040528092919081815260200182805461299690615160565b80156129e15780601f106129b8576101008083540402835291602001916129e1565b820191905f5260205f20905b8154815290600101906020018083116129c457829003601f168201915b5050505050815250509050919050565b6129f9612f3d565b61271061ffff82161115612a39576040517fba97f83800000000000000000000000000000000000000000000000000000000815260040160405180910390fd5b6002805461ffff8381167fffffffffffffffffffffffffffffffffffffffffffffffffffffffffffff000083168117909355604080519190921680825260208201939093527f26bc4a9b6ef30ec448ec7094c0f1002b0c6b8363d6a56be88ce399f1ac3d92f9910161137d565b6040517fe985e9c500000000000000000000000000000000000000000000000000000000815273ffffffffffffffffffffffffffffffffffffffff838116600483015282811660248301525f917f00000000000000000000000000000000000000000000000000000000000000009091169063e985e9c590604401602060405180830381865afa158015612b3c573d5f5f3e3d5ffd5b505050506040513d601f19601f82011682018060405250810190610d7191906152a6565b612b68612f3d565b73ffffffffffffffffffffffffffffffffffffffff8116612bbc576040517f1e4fbdf70000000000000000000000000000000000000000000000000000000081525f60048201526024015b60405180910390fd5b6125c881612f8f565b73ffffffffffffffffffffffffffffffffffffffff811630146125c8576040517f66719b7a000000000000000000000000000000000000000000000000000000008152336004820152602401612bb3565b5f5f8260200151835f0151612c2b919061508c565b61016090930151519293915050565b5f80612c4c60a08501608086016148ba565b73ffffffffffffffffffffffffffffffffffffffff163373ffffffffffffffffffffffffffffffffffffffff16149050612c868482613ffe565b600180545f9182612c96836152c1565b919050559050604051806040016040528086612cb190615338565b81528315156020918201525f83815260078252604090819020835180518255808401518051600184018054929096015161ffff90811662010000027fffffffffffffffffffffffffffffffffffffffffffffffffffffffff0000000090931691161717909355908201516002820155606082015160038201805473ffffffffffffffffffffffffffffffffffffffff9283167fffffffffffffffffffffffff000000000000000000000000000000000000000091821617909155608084015160048401805491909316911617905560a082015190919082906005820190612d989082615455565b5060c082015160068201805473ffffffffffffffffffffffffffffffffffffffff9283167fffffffffffffffffffffffff000000000000000000000000000000000000000090911617905560e08084015160078401556101008401516008840155610120840151600990930180546101409095015190911c74010000000000000000000000000000000000000000027fffffffffffffffff000000000000000000000000000000000000000000000000909416929091169190911791909117905560209190910151600a90910180549115157fffffffffffffffffffffffffffffffffffffffffffffffffffffffffffffff00909216919091179055835151151580612ea857505f846020015151115b15612ee4575f81815260096020526040902084518591908190612ecb9082615455565b5060208201516001820190612ee09082615455565b5050505b3373ffffffffffffffffffffffffffffffffffffffff16817fa94a87c6a478ee9e74c583560db13c9b623c84cf97e82551f872fcd1a4800ffc8787604051612f2d929190615648565b60405180910390a3949350505050565b5f5473ffffffffffffffffffffffffffffffffffffffff163314611c24576040517f118cdaa7000000000000000000000000000000000000000000000000000000008152336004820152602401612bb3565b5f805473ffffffffffffffffffffffffffffffffffffffff8381167fffffffffffffffffffffffff0000000000000000000000000000000000000000831681178455604051919092169283917f8be0079c531659141344cd1fd0a4f28419497f9722a3daafe3b4186f6b6457e09190a35050565b5f828218828410028218610d71565b5f61302f8461ffff84166130268587615798565b61ffff1661430d565b949350505050565b5f6040517f23b872dd00000000000000000000000000000000000000000000000000000000815284600482015283602482015282604482015260205f6064835f8a5af13d15601f3d1160015f511416171691505080612733576040517f08c379a000000000000000000000000000000000000000000000000000000000815260206004820152601460248201527f5452414e534645525f46524f4d5f4641494c45440000000000000000000000006044820152606401612bb3565b5f6040517fa9059cbb00000000000000000000000000000000000000000000000000000000815283600482015282602482015260205f6044835f895af13d15601f3d1160015f511416171691505080610d58576040517f08c379a000000000000000000000000000000000000000000000000000000000815260206004820152600f60248201527f5452414e534645525f4641494c454400000000000000000000000000000000006044820152606401612bb3565b5f82815260076020908152604080832081516101a08101835281548184019081528351808501909452600183015461ffff8082168652620100009091041694840194909452606081019290925260028101546080830152600381015473ffffffffffffffffffffffffffffffffffffffff90811660a084015260048201541660c0830152600581018054859484929091849160e085019161324790615160565b80601f016020809104026020016040519081016040528092919081815260200182805461327390615160565b80156132be5780601f10613295576101008083540402835291602001916132be565b820191905f5260205f20905b8154815290600101906020018083116132a157829003601f168201915b5050509183525050600682015473ffffffffffffffffffffffffffffffffffffffff908116602080840191909152600784015460408401526008840154606080850191909152600990940154808316608085015274010000000000000000000000000000000000000000900460e01b7fffffffff000000000000000000000000000000000000000000000000000000001660a090930192909252928452600a949094015460ff1615159290930191909152825190910151919250166133af576040517f1d044d6100000000000000000000000000000000000000000000000000000000815260040160405180910390fd5b5f7f000000000000000000000000000000000000000000000000000000000000000073ffffffffffffffffffffffffffffffffffffffff166301a2cae86040518163ffffffff1660e01b8152600401602060405180830381865afa158015613419573d5f5f3e3d5ffd5b505050506040513d601f19601f8201168201806040525081019061343d9190614edb565b8251608001516040517fbabcc53900000000000000000000000000000000000000000000000000000000815273ffffffffffffffffffffffffffffffffffffffff918216600482015291169063babcc53990602401602060405180830381865afa1580156134ad573d5f5f3e3d5ffd5b505050506040513d601f19601f820116820180604052508101906134d191906152a6565b806135f857507f000000000000000000000000000000000000000000000000000000000000000073ffffffffffffffffffffffffffffffffffffffff166301a2cae86040518163ffffffff1660e01b8152600401602060405180830381865afa158015613540573d5f5f3e3d5ffd5b505050506040513d601f19601f820116820180604052508101906135649190614edb565b8251606001516040517fbabcc53900000000000000000000000000000000000000000000000000000000815273ffffffffffffffffffffffffffffffffffffffff918216600482015291169063babcc53990602401602060405180830381865afa1580156135d4573d5f5f3e3d5ffd5b505050506040513d601f19601f820116820180604052508101906135f891906152a6565b90505f81613692577f000000000000000000000000000000000000000000000000000000000000000073ffffffffffffffffffffffffffffffffffffffff16638204c6276040518163ffffffff1660e01b8152600401602060405180830381865afa158015613669573d5f5f3e3d5ffd5b505050506040513d601f19601f8201168201806040525081019061368d91906151ab565b613694565b5f5b90508034146136cf576040517fcd3cb2bb00000000000000000000000000000000000000000000000000000000815260040160405180910390fd5b82516101000151158015906136e957508251610100015142115b15613720576040517f076802fc00000000000000000000000000000000000000000000000000000000815260040160405180910390fd5b8260200151156137865782516080015173ffffffffffffffffffffffffffffffffffffffff888116911614613781576040517f2e15fb7c00000000000000000000000000000000000000000000000000000000815260040160405180910390fd5b61382b565b82516060015173ffffffffffffffffffffffffffffffffffffffff8881169116146137dd576040517fe16e54be00000000000000000000000000000000000000000000000000000000815260040160405180910390fd5b73ffffffffffffffffffffffffffffffffffffffff85161561382b576040517f2e15fb7c00000000000000000000000000000000000000000000000000000000815260040160405180910390fd5b5f73ffffffffffffffffffffffffffffffffffffffff861661385257835160800151613854565b855b90505f60095f8981526020019081526020015f206040518060400160405290815f8201805461388290615160565b80601f01602080910402602001604051908101604052809291908181526020018280546138ae90615160565b80156138f95780601f106138d0576101008083540402835291602001916138f9565b820191905f5260205f20905b8154815290600101906020018083116138dc57829003601f168201915b5050505050815260200160018201805461391290615160565b80601f016020809104026020016040519081016040528092919081815260200182805461393e90615160565b80156139895780601f1061396057610100808354040283529160200191613989565b820191905f5260205f20905b81548152906001019060200180831161396c57829003601f168201915b505050919092525050505f8981526007602052604081208181556001810180547fffffffffffffffffffffffffffffffffffffffffffffffffffffffff00000000169055600281018290556003810180547fffffffffffffffffffffffff000000000000000000000000000000000000000090811690915560048201805490911690559192508181613a1e6005830182614625565b506006810180547fffffffffffffffffffffffff00000000000000000000000000000000000000001690555f6007820181905560088201819055600991820180547fffffffffffffffff000000000000000000000000000000000000000000000000169055600a9390930180547fffffffffffffffffffffffffffffffffffffffffffffffffffffffffffffff001690558a8352602052506040812090613ac58282614625565b613ad2600183015f614625565b50505f604051806101000160405280875f01516060015173ffffffffffffffffffffffffffffffffffffffff168152602001875f01516080015173ffffffffffffffffffffffffffffffffffffffff168152602001875f0151604001518152602001875f015160a001518152602001875f015160c0015173ffffffffffffffffffffffffffffffffffffffff168152602001600280811115613b7657613b766148d5565b8152875151602090910190613b8b904261521c565b8152875160e001516020909101528251519091505f90151580613bb257505f836020015151115b15613c79578651608001516040517e4b382900000000000000000000000000000000000000000000000000000000815273ffffffffffffffffffffffffffffffffffffffff7f00000000000000000000000000000000000000000000000000000000000000001691624b3829918891613c31918790899060040161586d565b60206040518083038185885af1158015613c4d573d5f5f3e3d5ffd5b50505050506040513d601f19601f82011682018060405250810190613c7291906151ab565b9050613d37565b8651608001516040517f1461f12600000000000000000000000000000000000000000000000000000000815273ffffffffffffffffffffffffffffffffffffffff7f00000000000000000000000000000000000000000000000000000000000000001691631461f126918891613cf39187906004016158b7565b60206040518083038185885af1158015613d0f573d5f5f3e3d5ffd5b50505050506040513d601f19601f82011682018060405250810190613d3491906151ab565b90505b6040518060800160405280428152602001885f015160200151815260200160405180608001604052805f81526020015f815260200189613d7d5760025461ffff16613d7f565b5f5b61ffff90811682525f60209283018190529284528a15159382019390935284825260088152604080832085518155858301518051600183018054928601519188167fffffffffffffffffffffffffffffffffffffffffffffffffffffffff000000009093169290921762010000918816820217909155868301518051600280850191909155948101516003840155808401516004840180547fffffffffffffffffffffffffffffffffffffffffffffffffffffffffffff000016918916919091179055606090810151600584015590960151600690910180547fffffffffffffffffffffffffffffffffffffffffffffffffffffffffffffff00169115159190911790558b51015190549193613e9b939192041661271061430d565b90505f81895f015160400151613eb1919061508c565b90508115613ef857885160c0015173ffffffffffffffffffffffffffffffffffffffff165f9081526004602052604081208054849290613ef290849061521c565b90915550505b88516060810151604082015160c090920151613f2f9273ffffffffffffffffffffffffffffffffffffffff90911691903090613037565b8015613f5c57885160c00151613f5c9073ffffffffffffffffffffffffffffffffffffffff1687836130f2565b8851610120015173ffffffffffffffffffffffffffffffffffffffff1615613f9957885161012081015161014090910151613f9991908e866143bd565b8573ffffffffffffffffffffffffffffffffffffffff16838d7f2a82588a72d442d0ca15bc61c1abab1812c42c9eab1d127cb645dd934fa9136e8a868a604051613fe5939291906158e5565b60405180910390a450909b9a5050505050505050505050565b80158015614047575061401760c0830160a084016148ba565b73ffffffffffffffffffffffffffffffffffffffff163373ffffffffffffffffffffffffffffffffffffffff1614155b1561407e576040517f5d6db4c200000000000000000000000000000000000000000000000000000000815260040160405180910390fd5b81355f036140b8576040517fd88194e100000000000000000000000000000000000000000000000000000000815260040160405180910390fd5b5f6140ca610100840160e085016148ba565b73ffffffffffffffffffffffffffffffffffffffff1603614117576040517fb10b947e00000000000000000000000000000000000000000000000000000000815260040160405180910390fd5b64ffffffffff610100830135111561415b576040517fd7c43e0f00000000000000000000000000000000000000000000000000000000815260040160405180910390fd5b5f826101200135118015614173575081610120013542115b156141aa576040517f076802fc00000000000000000000000000000000000000000000000000000000815260040160405180910390fd5b5f6141bd610160840161014085016148ba565b73ffffffffffffffffffffffffffffffffffffffff16146142925760065f6141ed610160850161014086016148ba565b73ffffffffffffffffffffffffffffffffffffffff16815260208101919091526040015f9081209061422761018085016101608601614741565b7fffffffff0000000000000000000000000000000000000000000000000000000016815260208101919091526040015f205460ff16614292576040517f8e792a0500000000000000000000000000000000000000000000000000000000815260040160405180910390fd5b6040517f9d6c6ae700000000000000000000000000000000000000000000000000000000815273__$4bbbaa6d90f42a60403c514cce5191a63a$__90639d6c6ae7906142e5906020860190600401615903565b5f6040518083038186803b1580156142fb575f5ffd5b505af41580156118dd573d5f5f3e3d5ffd5b5f5f5f61431a86866144d0565b91509150815f0361433e5783818161433457614334615911565b0492505050610d71565b81841161435557614355600385150260111861450b565b5f848688095f868103871696879004966002600389028118808a02820302808a02820302808a02820302808a02820302808a02820302808a02909103029181900381900460010185841190960395909502919093039390930492909217029150509392505050565b6040805160248101849052604480820184905282518083039091018152606490910182526020810180517bffffffffffffffffffffffffffffffffffffffffffffffffffffffff167fffffffff00000000000000000000000000000000000000000000000000000000871617905290515f90819073ffffffffffffffffffffffffffffffffffffffff88169061445490859061593e565b5f604051808303815f865af19150503d805f811461448d576040519150601f19603f3d011682016040523d82523d5f602084013e614492565b606091505b509150915081610bbb57806040517f30b9b6dd000000000000000000000000000000000000000000000000000000008152600401612bb39190615954565b5f807fffffffffffffffffffffffffffffffffffffffffffffffffffffffffffffffff83850993909202808410938190039390930393915050565b634e487b715f52806020526024601cfd5b6040518061018001604052805f81526020015f81526020015f6005811115614546576145466148d5565b81526020015f81526020015f73ffffffffffffffffffffffffffffffffffffffff1681526020015f73ffffffffffffffffffffffffffffffffffffffff1681526020015f73ffffffffffffffffffffffffffffffffffffffff1681526020015f73ffffffffffffffffffffffffffffffffffffffff1681526020015f81526020015f81526020016145f060405180604001604052805f61ffff1681526020015f61ffff1681525090565b815260200161462060405180608001604052805f81526020015f81526020015f61ffff1681526020015f81525090565b905290565b50805461463190615160565b5f825580601f10614640575050565b601f0160209004905f5260205f20908101906125c8919061467b565b604051806040016040528061466f614693565b81525f60209091015290565b5b8082111561468f575f815560010161467c565b5090565b6040518061016001604052805f81526020016146c860405180604001604052805f61ffff1681526020015f61ffff1681525090565b81525f60208201819052604082018190526060808301829052608083015260a0820181905260c0820181905260e0820181905261010082018190526101209091015290565b80357fffffffff000000000000000000000000000000000000000000000000000000008116811461473c575f5ffd5b919050565b5f60208284031215614751575f5ffd5b610d718261470d565b73ffffffffffffffffffffffffffffffffffffffff811681146125c8575f5ffd5b803561473c8161475a565b5f5f60408385031215614797575f5ffd5b82356147a28161475a565b91506147b06020840161470d565b90509250929050565b5f602082840312156147c9575f5ffd5b5035919050565b5f5f604083850312156147e1575f5ffd5b82356147ec8161475a565b946020939093013593505050565b5f5f5f6060848603121561480c575f5ffd5b83356148178161475a565b925060208401356148278161475a565b929592945050506040919091013590565b5f6101808284031215614849575f5ffd5b50919050565b5f5f60408385031215614860575f5ffd5b823567ffffffffffffffff811115614876575f5ffd5b61488285828601614838565b925050602083013567ffffffffffffffff81111561489e575f5ffd5b8301604081860312156148af575f5ffd5b809150509250929050565b5f602082840312156148ca575f5ffd5b8135610d718161475a565b7f4e487b71000000000000000000000000000000000000000000000000000000005f52602160045260245ffd5b60068110614912576149126148d5565b9052565b60038110614912576149126148d5565b5f610200820190508251825260208301516020830152604083015161494e6040840182614902565b5060608301516149616060840182614916565b506080830151614989608084018273ffffffffffffffffffffffffffffffffffffffff169052565b5060a08301516149b160a084018273ffffffffffffffffffffffffffffffffffffffff169052565b5060c08301516149d960c084018273ffffffffffffffffffffffffffffffffffffffff169052565b5060e0830151614a0160e084018273ffffffffffffffffffffffffffffffffffffffff169052565b50610100830151610100830152610120830151610120830152610140830151614a3f610140840182805161ffff908116835260209182015116910152565b506101609290920151805161018083015260208101516101a0830152604081015161ffff166101c0830152606001516101e09091015290565b61ffff811681146125c8575f5ffd5b5f60208284031215614a97575f5ffd5b8135610d7181614a78565b5f81518084528060208401602086015e5f6020828601015260207fffffffffffffffffffffffffffffffffffffffffffffffffffffffffffffffe0601f83011685010191505092915050565b602081525f825160406020840152805160608401526020810151614b266080850182805161ffff908116835260209182015116910152565b50604081015160c0840152606081015173ffffffffffffffffffffffffffffffffffffffff90811660e085015260808201511661010084015260a0810151610180610120850152614b7b6101e0850182614aa2565b905060c0820151614ba561014086018273ffffffffffffffffffffffffffffffffffffffff169052565b5060e082015161016085015261010082015161018085015261012082015173ffffffffffffffffffffffffffffffffffffffff166101a0850152610140909101517fffffffff00000000000000000000000000000000000000000000000000000000166101c08401526020840151801515604085015290949350505050565b5f5f60408385031215614c35575f5ffd5b50508035926020909101359150565b5f60208284031215614c54575f5ffd5b813567ffffffffffffffff811115614c6a575f5ffd5b61302f84828501614838565b80151581146125c8575f5ffd5b5f5f60408385031215614c94575f5ffd5b8235614c9f8161475a565b915060208301356148af81614c76565b7f4e487b71000000000000000000000000000000000000000000000000000000005f52604160045260245ffd5b604051610160810167ffffffffffffffff81118282101715614d0057614d00614caf565b60405290565b6040805190810167ffffffffffffffff81118282101715614d0057614d00614caf565b5f5f67ffffffffffffffff841115614d4357614d43614caf565b506040517fffffffffffffffffffffffffffffffffffffffffffffffffffffffffffffffe0601f85018116603f0116810181811067ffffffffffffffff82111715614d9057614d90614caf565b604052838152905080828401851015614da7575f5ffd5b838360208301375f60208583010152509392505050565b5f5f5f5f60808587031215614dd1575f5ffd5b8435614ddc8161475a565b93506020850135614dec8161475a565b925060408501359150606085013567ffffffffffffffff811115614e0e575f5ffd5b8501601f81018713614e1e575f5ffd5b614e2d87823560208401614d29565b91505092959194509250565b5f5f60408385031215614e4a575f5ffd5b8235915060208301356148af8161475a565b5f815160408452614e706040850182614aa2565b905060208301518482036020860152614e898282614aa2565b95945050505050565b602081525f610d716020830184614e5c565b5f5f60408385031215614eb5575f5ffd5b8235614ec08161475a565b915060208301356148af8161475a565b805161473c8161475a565b5f60208284031215614eeb575f5ffd5b8151610d718161475a565b80516006811061473c575f5ffd5b80516003811061473c575f5ffd5b5f610160828403128015614f24575f5ffd5b50614f2d614cdc565b82518152602080840151908201526040808401519082015260608084015190820152614f5b60808401614ed0565b6080820152614f6c60a08401614ed0565b60a0820152614f7d60c08401614ed0565b60c0820152614f8e60e08401614ed0565b60e0820152614fa06101008401614ed0565b610100820152614fb36101208401614ef6565b610120820152614fc66101408401614f04565b6101408201529392505050565b5f82601f830112614fe2575f5ffd5b610d7183833560208501614d29565b5f60408236031215615001575f5ffd5b615009614d06565b823567ffffffffffffffff81111561501f575f5ffd5b61502b36828601614fd3565b825250602083013567ffffffffffffffff811115615047575f5ffd5b61505336828601614fd3565b60208301525092915050565b7f4e487b71000000000000000000000000000000000000000000000000000000005f52601160045260245ffd5b818103818111156109a0576109a061505f565b8481526020808201859052835161ffff908116604084015290840151166060820152610100810182516080830152602083015160a0830152604083015161ffff1660c0830152606083015160e0830152614e89565b5f6080828403128015615105575f5ffd5b506040516080810167ffffffffffffffff8111828210171561512957615129614caf565b6040908152835182526020808501519083015283015161514881614a78565b60408201526060928301519281019290925250919050565b600181811c9082168061517457607f821691505b602082108103614849577f4e487b71000000000000000000000000000000000000000000000000000000005f52602260045260245ffd5b5f602082840312156151bb575f5ffd5b5051919050565b7f4e487b71000000000000000000000000000000000000000000000000000000005f52603260045260245ffd5b7f4e487b71000000000000000000000000000000000000000000000000000000005f52603160045260245ffd5b808201808211156109a0576109a061505f565b73ffffffffffffffffffffffffffffffffffffffff8616815273ffffffffffffffffffffffffffffffffffffffff8516602082015273ffffffffffffffffffffffffffffffffffffffff8416604082015282606082015260a060808201525f61529b60a0830184614aa2565b979650505050505050565b5f602082840312156152b6575f5ffd5b8151610d7181614c76565b5f7fffffffffffffffffffffffffffffffffffffffffffffffffffffffffffffffff82036152f1576152f161505f565b5060010190565b5f60408284031215615308575f5ffd5b615310614d06565b9050813561531d81614a78565b8152602082013561532d81614a78565b602082015292915050565b5f6101808236031215615349575f5ffd5b615351614cdc565b8235815261536236602085016152f8565b60208201526060830135604082015261537d6080840161477b565b606082015261538e60a0840161477b565b608082015260c083013567ffffffffffffffff8111156153ac575f5ffd5b6153b836828601614fd3565b60a0830152506153ca60e0840161477b565b60c08201526101008381013560e0830152610120840135908201526153f2610140840161477b565b610120820152615405610160840161470d565b61014082015292915050565b601f821115610bc057805f5260205f20601f840160051c810160208510156154365750805b601f840160051c820191505b81811015612733575f8155600101615442565b815167ffffffffffffffff81111561546f5761546f614caf565b6154838161547d8454615160565b84615411565b6020601f8211600181146154d4575f831561549e5750848201515b7fffffffffffffffffffffffffffffffffffffffffffffffffffffffffffffffff600385901b1c1916600184901b178455612733565b5f848152602081207fffffffffffffffffffffffffffffffffffffffffffffffffffffffffffffffe08516915b828110156155215787850151825560209485019460019092019101615501565b508482101561555d57868401517fffffffffffffffffffffffffffffffffffffffffffffffffffffffffffffffff600387901b60f8161c191681555b50505050600190811b01905550565b803561557781614a78565b61ffff168252602081013561558b81614a78565b61ffff81166020840152505050565b5f5f83357fffffffffffffffffffffffffffffffffffffffffffffffffffffffffffffffe18436030181126155cd575f5ffd5b830160208101925035905067ffffffffffffffff8111156155ec575f5ffd5b8036038213156155fa575f5ffd5b9250929050565b81835281816020850137505f602082840101525f60207fffffffffffffffffffffffffffffffffffffffffffffffffffffffffffffffe0601f840116840101905092915050565b60408082528335908201525f615664606083016020860161556c565b606084013560a083015261567a6080850161477b565b73ffffffffffffffffffffffffffffffffffffffff1660c08301526156a160a0850161477b565b73ffffffffffffffffffffffffffffffffffffffff1660e08301526156c960c085018561559a565b6101806101008501526156e16101c085018284615601565b9150506156f060e0860161477b565b73ffffffffffffffffffffffffffffffffffffffff8116610120850152506101008501356101408481019190915261012086013561016085015261573590860161477b565b73ffffffffffffffffffffffffffffffffffffffff1661018084015261575e610160860161470d565b7fffffffff00000000000000000000000000000000000000000000000000000000166101a08401528281036020840152614e898185614e5c565b61ffff81811683821601908111156109a0576109a061505f565b73ffffffffffffffffffffffffffffffffffffffff815116825273ffffffffffffffffffffffffffffffffffffffff6020820151166020830152604081015160408301525f60608201516101006060850152615812610100850182614aa2565b9050608083015161583b608086018273ffffffffffffffffffffffffffffffffffffffff169052565b5060a083015161584e60a0860182614916565b5060c083015160c085015260e083015160e08501528091505092915050565b73ffffffffffffffffffffffffffffffffffffffff84168152606060208201525f61589b60608301856157b2565b82810360408401526158ad8185614e5c565b9695505050505050565b73ffffffffffffffffffffffffffffffffffffffff83168152604060208201525f61302f60408301846157b2565b838152826020820152606060408201525f614e896060830184614e5c565b604081016109a0828461556c565b7f4e487b71000000000000000000000000000000000000000000000000000000005f52601260045260245ffd5b5f82518060208501845e5f920191825250919050565b602081525f610d716020830184614aa256fea2646970667358221220f2642dc7e1fd670d5255360ce9f906c9f84dd307f0bb39194b46f56252581f8164736f6c634300081e0033","linkReferences":{"src/libraries/CompoundInterestLib.sol":{"CompoundInterestLib":[{"start":5240,"length":20},{"start":18110,"length":20}]}}},"methodIdentifiers":{"_bullaClaim()":"2b538af5","acceptLoan(uint256)":"adfbe22f","acceptLoanWithReceiver(uint256,address)":"b9108c03","addToCallbackWhitelist(address,bytes4)":"307a8088","addToFeeTokenWhitelist(address)":"d4251f9e","admin()":"f851a440","approve(address,uint256)":"095ea7b3","balanceOf(address)":"70a08231","callbackWhitelist(address,bytes4)":"04dbf913","getApproved(uint256)":"081812fc","getLoan(uint256)":"504006ca","getLoanOffer(uint256)":"631f1a3c","getLoanOfferMetadata(uint256)":"db4e0899","getTotalAmountDue(uint256)":"1bc7cd3d","impairLoan(uint256)":"623fb7ce","isApprovedForAll(address,address)":"e985e9c5","isCallbackWhitelisted(address,bytes4)":"a64d6beb","loanOfferCount()":"150a6422","markLoanAsPaid(uint256)":"88046146","offerLoan((uint256,(uint16,uint16),uint256,address,address,string,address,uint256,uint256,address,bytes4))":"a15c24f3","offerLoanWithMetadata((uint256,(uint16,uint16),uint256,address,address,string,address,uint256,uint256,address,bytes4),(string,string))":"2d1982ff","owner()":"8da5cb5b","ownerOf(uint256)":"6352211e","payLoan(uint256,uint256)":"89306e61","processingFeeBPS()":"fce5f608","protocolFeeBPS()":"96daa322","protocolFeeTokenWhitelist(address)":"a5cc6a7f","protocolFeesByToken(address)":"39737e07","rejectLoanOffer(uint256)":"6208d89c","removeFromCallbackWhitelist(address,bytes4)":"520eb076","removeFromFeeTokenWhitelist(address)":"82459995","renounceOwnership()":"715018a6","safeTransferFrom(address,address,uint256)":"42842e0e","safeTransferFrom(address,address,uint256,bytes)":"b88d4fde","setApprovalForAll(address,bool)":"a22cb465","setProcessingFee(uint16)":"52331cf8","setProtocolFee(uint16)":"e4467f35","supportsInterface(bytes4)":"01ffc9a7","transferFrom(address,address,uint256)":"23b872dd","transferOwnership(address)":"f2fde38b","whitelistedProtocolFeeTokens(uint256)":"4be18e94","withdrawAllFees()":"af236af4"},"id":74}