{"abi":[{"type":"fallback","stateMutability":"nonpayable"},{"type":"function","name":"setFallbackHandler","inputs":[{"name":"handler","type":"address","internalType":"address"}],"outputs":[],"stateMutability":"nonpayable"},{"type":"event","name":"ChangedFallbackHandler","inputs":[{"name":"handler","type":"address","indexed":false,"internalType":"address"}],"anonymous":false}],"bytecode":{"object":"0x6080604052348015600e575f5ffd5b506101ec8061001c5f395ff3fe608060405234801561000f575f5ffd5b5060043610610029575f3560e01c8063f08a03231461007c575b7f6c9a6c4a39284e37ed1cf53d337577d14212a4870fb976a4366c693b939918d580548061005357005b365f5f373360601b36525f5f601436015f5f855af190503d5f5f3e80610077573d5ffd5b503d5ff35b61008f61008a36600461017c565b610091565b005b61009961010d565b6100c1817f6c9a6c4a39284e37ed1cf53d337577d14212a4870fb976a4366c693b939918d555565b60405173ffffffffffffffffffffffffffffffffffffffff821681527f5ac6c46c93c8d0e53714ba3b53db3e7c046da994313d7ed0d192028bc7c228b09060200160405180910390a150565b33301461017a576040517f08c379a000000000000000000000000000000000000000000000000000000000815260206004820152600560248201527f4753303331000000000000000000000000000000000000000000000000000000604482015260640160405180910390fd5b565b5f6020828403121561018c575f5ffd5b813573ffffffffffffffffffffffffffffffffffffffff811681146101af575f5ffd5b939250505056fea26469706673582212206061b9ce3518308e45258216d847db9b2fe490917db2d6eaea8f4db1d200cb5664736f6c634300081e0033","linkReferences":{}},"methodIdentifiers":{"setFallbackHandler(address)":"f08a0323"},"id":47}