{"abi":[{"type":"function","name":"isValidSignature","inputs":[{"name":"hash","type":"bytes32","internalType":"bytes32"},{"name":"","type":"bytes","internalType":"bytes"}],"outputs":[{"name":"magicValue","type":"bytes4","internalType":"bytes4"}],"stateMutability":"view"},{"type":"function","name":"sign","inputs":[{"name":"digest","type":"bytes32","internalType":"bytes32"}],"outputs":[],"stateMutability":"nonpayable"},{"type":"function","name":"signatures","inputs":[{"name":"","type":"bytes32","internalType":"bytes32"}],"outputs":[{"name":"","type":"bool","internalType":"bool"}],"stateMutability":"view"}],"bytecode":{"object":"0x6080604052348015600e575f5ffd5b506102be8061001c5f395ff3fe608060405234801561000f575f5ffd5b506004361061003f575f3560e01c80631626ba7e146100435780632422224e1461008c578063799cd333146100be575b5f5ffd5b610056610051366004610177565b610106565b6040517fffffffff0000000000000000000000000000000000000000000000000000000090911681526020015b60405180910390f35b6100ae61009a366004610271565b5f6020819052908152604090205460ff1681565b6040519015158152602001610083565b6101046100cc366004610271565b5f90815260208190526040902080547fffffffffffffffffffffffffffffffffffffffffffffffffffffffffffffff00166001179055565b005b5f8281526020819052604081205460ff16610121575f610143565b7f1626ba7e000000000000000000000000000000000000000000000000000000005b9392505050565b7f4e487b71000000000000000000000000000000000000000000000000000000005f52604160045260245ffd5b5f5f60408385031215610188575f5ffd5b82359150602083013567ffffffffffffffff8111156101a5575f5ffd5b8301601f810185136101b5575f5ffd5b803567ffffffffffffffff8111156101cf576101cf61014a565b6040517fffffffffffffffffffffffffffffffffffffffffffffffffffffffffffffffe0603f7fffffffffffffffffffffffffffffffffffffffffffffffffffffffffffffffe0601f8501160116810181811067ffffffffffffffff8211171561023b5761023b61014a565b604052818152828201602001871015610252575f5ffd5b816020840160208301375f602083830101528093505050509250929050565b5f60208284031215610281575f5ffd5b503591905056fea2646970667358221220c67d02f25c4929efc60d6890e0ef16acb404b3c3194926e4a601dd4fff65681b64736f6c634300081e0033","linkReferences":{}},"methodIdentifiers":{"isValidSignature(bytes32,bytes)":"1626ba7e","sign(bytes32)":"799cd333","signatures(bytes32)":"2422224e"},"id":94}