{"abi":[{"type":"function","name":"calculateCreateProxyWithNonceAddress","inputs":[{"name":"_singleton","type":"address","internalType":"address"},{"name":"initializer","type":"bytes","internalType":"bytes"},{"name":"saltNonce","type":"uint256","internalType":"uint256"}],"outputs":[{"name":"proxy","type":"address","internalType":"contract GnosisSafeProxy"}],"stateMutability":"nonpayable"},{"type":"function","name":"createProxy","inputs":[{"name":"singleton","type":"address","internalType":"address"},{"name":"data","type":"bytes","internalType":"bytes"}],"outputs":[{"name":"proxy","type":"address","internalType":"contract GnosisSafeProxy"}],"stateMutability":"nonpayable"},{"type":"function","name":"createProxyWithCallback","inputs":[{"name":"_singleton","type":"address","internalType":"address"},{"name":"initializer","type":"bytes","internalType":"bytes"},{"name":"saltNonce","type":"uint256","internalType":"uint256"},{"name":"callback","type":"address","internalType":"contract IProxyCreationCallback"}],"outputs":[{"name":"proxy","type":"address","internalType":"contract GnosisSafeProxy"}],"stateMutability":"nonpayable"},{"type":"function","name":"createProxyWithNonce","inputs":[{"name":"_singleton","type":"address","internalType":"address"},{"name":"initializer","type":"bytes","internalType":"bytes"},{"name":"saltNonce","type":"uint256","internalType":"uint256"}],"outputs":[{"name":"proxy","type":"address","internalType":"contract GnosisSafeProxy"}],"stateMutability":"nonpayable"},{"type":"function","name":"proxyCreationCode","inputs":[],"outputs":[{"name":"","type":"bytes","internalType":"bytes"}],"stateMutability":"pure"},{"type":"function","name":"proxyRuntimeCode","inputs":[],"outputs":[{"name":"","type":"bytes","internalType":"bytes"}],"stateMutability":"pure"},{"type":"event","name":"ProxyCreation","inputs":[{"name":"proxy","type":"address","indexed":false,"internalType":"contract GnosisSafeProxy"},{"name":"singleton","type":"address","indexed":false,"internalType":"address"}],"anonymous":false}],"bytecode":{"object":"0x6080604052348015600e575f5ffd5b50610bd48061001c5f395ff3fe608060405234801561000f575f5ffd5b506004361061006f575f3560e01c806361b69abd1161004d57806361b69abd146100d8578063addacc0f146100eb578063d18af54d146100f3575f5ffd5b80631688f0b9146100735780632500510e146100b057806353e5d935146100c3575b5f5ffd5b61008661008136600461070b565b610106565b60405173ffffffffffffffffffffffffffffffffffffffff90911681526020015b60405180910390f35b6100866100be366004610761565b610189565b6100cb610267565b6040516100a79190610834565b6100866100e636600461084d565b6102af565b6100cb61036a565b61008661010136600461089a565b61037c565b5f610112848484610491565b835190915015610132575f5f5f8551602087015f865af103610132575f5ffd5b6040805173ffffffffffffffffffffffffffffffffffffffff8084168252861660208201527f4f51faf6c4561ff95f067657e43439f0f856d97c04d9ec9070a6199ad418e235910160405180910390a19392505050565b5f6101cb8585858080601f0160208091040260200160405190810160405280939291908181526020018383808284375f92019190915250879250610491915050565b6040517fffffffffffffffffffffffffffffffffffffffff000000000000000000000000606083901b166020820152909150603401604080517fffffffffffffffffffffffffffffffffffffffffffffffffffffffffffffffe0818403018152908290527f08c379a000000000000000000000000000000000000000000000000000000000825261025e91600401610834565b60405180910390fd5b606060405180602001610279906105d9565b7fffffffffffffffffffffffffffffffffffffffffffffffffffffffffffffffe082820381018352601f90910116604052919050565b5f826040516102bd906105d9565b73ffffffffffffffffffffffffffffffffffffffff9091168152602001604051809103905ff0801580156102f3573d5f5f3e3d5ffd5b50825190915015610314575f5f5f8451602086015f865af103610314575f5ffd5b6040805173ffffffffffffffffffffffffffffffffffffffff8084168252851660208201527f4f51faf6c4561ff95f067657e43439f0f856d97c04d9ec9070a6199ad418e235910160405180910390a192915050565b606060405180602001610279906105e6565b5f5f83836040516020016103bf92919091825260601b7fffffffffffffffffffffffffffffffffffffffff00000000000000000000000016602082015260340190565b604051602081830303815290604052805190602001205f1c90506103e4868683610106565b915073ffffffffffffffffffffffffffffffffffffffff831615610488576040517f1e52b51800000000000000000000000000000000000000000000000000000000815273ffffffffffffffffffffffffffffffffffffffff841690631e52b5189061045a9085908a908a908a90600401610902565b5f604051808303815f87803b158015610471575f5ffd5b505af1158015610483573d5f5f3e3d5ffd5b505050505b50949350505050565b5f5f8380519060200120836040516020016104b6929190918252602082015260400190565b6040516020818303038152906040528051906020012090505f604051806020016104df906105d9565b7fffffffffffffffffffffffffffffffffffffffffffffffffffffffffffffffe082820381018352601f909101166040819052610537919073ffffffffffffffffffffffffffffffffffffffff89169060200161095d565b6040516020818303038152906040529050818151826020015ff5925073ffffffffffffffffffffffffffffffffffffffff83166105d0576040517f08c379a000000000000000000000000000000000000000000000000000000000815260206004820152601360248201527f437265617465322063616c6c206661696c656400000000000000000000000000604482015260640161025e565b50509392505050565b6101888061097883390190565b609f80610b0083390190565b73ffffffffffffffffffffffffffffffffffffffff81168114610613575f5ffd5b50565b7f4e487b71000000000000000000000000000000000000000000000000000000005f52604160045260245ffd5b5f82601f830112610652575f5ffd5b813567ffffffffffffffff81111561066c5761066c610616565b6040517fffffffffffffffffffffffffffffffffffffffffffffffffffffffffffffffe0603f7fffffffffffffffffffffffffffffffffffffffffffffffffffffffffffffffe0601f8501160116810181811067ffffffffffffffff821117156106d8576106d8610616565b6040528181528382016020018510156106ef575f5ffd5b816020850160208301375f918101602001919091529392505050565b5f5f5f6060848603121561071d575f5ffd5b8335610728816105f2565b9250602084013567ffffffffffffffff811115610743575f5ffd5b61074f86828701610643565b93969395505050506040919091013590565b5f5f5f5f60608587031215610774575f5ffd5b843561077f816105f2565b9350602085013567ffffffffffffffff81111561079a575f5ffd5b8501601f810187136107aa575f5ffd5b803567ffffffffffffffff8111156107c0575f5ffd5b8760208284010111156107d1575f5ffd5b949760209190910196509394604001359392505050565b5f81518084528060208401602086015e5f6020828601015260207fffffffffffffffffffffffffffffffffffffffffffffffffffffffffffffffe0601f83011685010191505092915050565b602081525f61084660208301846107e8565b9392505050565b5f5f6040838503121561085e575f5ffd5b8235610869816105f2565b9150602083013567ffffffffffffffff811115610884575f5ffd5b61089085828601610643565b9150509250929050565b5f5f5f5f608085870312156108ad575f5ffd5b84356108b8816105f2565b9350602085013567ffffffffffffffff8111156108d3575f5ffd5b6108df87828801610643565b9350506040850135915060608501356108f7816105f2565b939692955090935050565b73ffffffffffffffffffffffffffffffffffffffff8516815273ffffffffffffffffffffffffffffffffffffffff84166020820152608060408201525f61094c60808301856107e8565b905082606083015295945050505050565b5f83518060208601845e919091019182525060200191905056fe6080604052348015600e575f5ffd5b50604051610188380380610188833981016040819052602b9160b2565b6001600160a01b038116608f5760405162461bcd60e51b815260206004820152602260248201527f496e76616c69642073696e676c65746f6e20616464726573732070726f766964604482015261195960f21b606482015260840160405180910390fd5b5f80546001600160a01b0319166001600160a01b039290921691909117905560dd565b5f6020828403121560c1575f5ffd5b81516001600160a01b038116811460d6575f5ffd5b9392505050565b609f806100e95f395ff3fe608060405273ffffffffffffffffffffffffffffffffffffffff5f54167fa619486e000000000000000000000000000000000000000000000000000000005f3503604b57805f5260205ff35b365f5f375f5f365f845af490503d5f5f3e806064573d5ffd5b503d5ff3fea2646970667358221220e88491e80d7111422d18d50faab727ec7551b3269f499d751f6f138e396fe51464736f6c634300081e0033608060405273ffffffffffffffffffffffffffffffffffffffff5f54167fa619486e000000000000000000000000000000000000000000000000000000005f3503604b57805f5260205ff35b365f5f375f5f365f845af490503d5f5f3e806064573d5ffd5b503d5ff3fea2646970667358221220e88491e80d7111422d18d50faab727ec7551b3269f499d751f6f138e396fe51464736f6c634300081e0033a26469706673582212201d320fbbfced1b0f6a81e073139cdb6fdca344b9efc4b62b940fa34557f7bafe64736f6c634300081e0033","linkReferences":{}},"methodIdentifiers":{"calculateCreateProxyWithNonceAddress(address,bytes,uint256)":"2500510e","createProxy(address,bytes)":"61b69abd","createProxyWithCallback(address,bytes,uint256,address)":"d18af54d","createProxyWithNonce(address,bytes,uint256)":"1688f0b9","proxyCreationCode()":"53e5d935","proxyRuntimeCode()":"addacc0f"},"id":66}