{"abi":[{"type":"constructor","inputs":[],"stateMutability":"nonpayable"},{"type":"function","name":"build","inputs":[],"outputs":[{"name":"","type":"tuple","internalType":"struct CreateClaimParams","components":[{"name":"creditor","type":"address","internalType":"address"},{"name":"debtor","type":"address","internalType":"address"},{"name":"claimAmount","type":"uint256","internalType":"uint256"},{"name":"description","type":"string","internalType":"string"},{"name":"token","type":"address","internalType":"address"},{"name":"binding","type":"uint8","internalType":"enum ClaimBinding"},{"name":"dueBy","type":"uint256","internalType":"uint256"},{"name":"impairmentGracePeriod","type":"uint256","internalType":"uint256"}]}],"stateMutability":"view"},{"type":"function","name":"withBinding","inputs":[{"name":"binding","type":"uint8","internalType":"enum ClaimBinding"}],"outputs":[{"name":"","type":"address","internalType":"contract CreateClaimParamsBuilder"}],"stateMutability":"nonpayable"},{"type":"function","name":"withClaimAmount","inputs":[{"name":"claimAmount","type":"uint256","internalType":"uint256"}],"outputs":[{"name":"","type":"address","internalType":"contract CreateClaimParamsBuilder"}],"stateMutability":"nonpayable"},{"type":"function","name":"withCreditor","inputs":[{"name":"creditor","type":"address","internalType":"address"}],"outputs":[{"name":"","type":"address","internalType":"contract CreateClaimParamsBuilder"}],"stateMutability":"nonpayable"},{"type":"function","name":"withDebtor","inputs":[{"name":"debtor","type":"address","internalType":"address"}],"outputs":[{"name":"","type":"address","internalType":"contract CreateClaimParamsBuilder"}],"stateMutability":"nonpayable"},{"type":"function","name":"withDescription","inputs":[{"name":"description","type":"string","internalType":"string"}],"outputs":[{"name":"","type":"address","internalType":"contract CreateClaimParamsBuilder"}],"stateMutability":"nonpayable"},{"type":"function","name":"withDueBy","inputs":[{"name":"dueBy","type":"uint256","internalType":"uint256"}],"outputs":[{"name":"","type":"address","internalType":"contract CreateClaimParamsBuilder"}],"stateMutability":"nonpayable"},{"type":"function","name":"withImpairmentGracePeriod","inputs":[{"name":"impairmentGracePeriod","type":"uint256","internalType":"uint256"}],"outputs":[{"name":"","type":"address","internalType":"contract CreateClaimParamsBuilder"}],"stateMutability":"nonpayable"},{"type":"function","name":"withToken","inputs":[{"name":"token","type":"address","internalType":"address"}],"outputs":[{"name":"","type":"address","internalType":"contract CreateClaimParamsBuilder"}],"stateMutability":"nonpayable"}],"bytecode":{"object":"0x608060405234801561000f575f5ffd5b505f80546001600160a01b0319908116909155600180549091169055670de0b6b3a764000060025560408051808201909152600a8152695465737420436c61696d60b01b6020820152600390610065908261011e565b50600480546001600160a81b03191690555f60055562093a806006556101d8565b634e487b7160e01b5f52604160045260245ffd5b600181811c908216806100ae57607f821691505b6020821081036100cc57634e487b7160e01b5f52602260045260245ffd5b50919050565b601f82111561011957805f5260205f20601f840160051c810160208510156100f75750805b601f840160051c820191505b81811015610116575f8155600101610103565b50505b505050565b81516001600160401b0381111561013757610137610086565b61014b81610145845461009a565b846100d2565b6020601f82116001811461017d575f83156101665750848201515b5f19600385901b1c1916600184901b178455610116565b5f84815260208120601f198516915b828110156101ac578785015182556020948501946001909201910161018c565b50848210156101c957868401515f19600387901b60f8161c191681555b50505050600190811b01905550565b610922806101e55f395ff3fe608060405234801561000f575f5ffd5b506004361061009f575f3560e01c80636669047e11610072578063810911191161005857806381091119146101ca5780638e1a55fc146101df578063d3ecc750146101f4575f5ffd5b80636669047e1461015f5780636ce10a61146101b5575f5ffd5b806306622b4f146100a357806326ea81ae146100e25780635523fceb146100f55780635ed4e8c71461014c575b5f5ffd5b6100b86100b1366004610437565b6002553090565b60405173ffffffffffffffffffffffffffffffffffffffff90911681526020015b60405180910390f35b6100b86100f036600461047b565b61024b565b6100b861010336600461056b565b600480547fffffffffffffffffffffffff00000000000000000000000000000000000000001673ffffffffffffffffffffffffffffffffffffffff929092169190911790553090565b6100b861015a3660046105a5565b610260565b6100b861016d36600461056b565b5f80547fffffffffffffffffffffffff00000000000000000000000000000000000000001673ffffffffffffffffffffffffffffffffffffffff929092169190911790553090565b6100b86101c3366004610437565b6005553090565b6100b86101d8366004610437565b6006553090565b6101e76102be565b6040516100d99190610675565b6100b861020236600461056b565b600180547fffffffffffffffffffffffff00000000000000000000000000000000000000001673ffffffffffffffffffffffffffffffffffffffff929092169190911790553090565b5f600361025883826107d5565b503092915050565b600480545f9183917fffffffffffffffffffffff00ffffffffffffffffffffffffffffffffffffffff16740100000000000000000000000000000000000000008360028111156102b2576102b261060f565b02179055503092915050565b61030260408051610100810182525f80825260208201819052918101829052606080820152608081018290529060a082019081526020015f81526020015f81525090565b60408051610100810182525f5473ffffffffffffffffffffffffffffffffffffffff9081168252600154166020820152600254918101919091526003805460608301919061034f90610738565b80601f016020809104026020016040519081016040528092919081815260200182805461037b90610738565b80156103c65780601f1061039d576101008083540402835291602001916103c6565b820191905f5260205f20905b8154815290600101906020018083116103a957829003601f168201915b505050918352505060045473ffffffffffffffffffffffffffffffffffffffff8116602083015260409091019074010000000000000000000000000000000000000000900460ff16600281111561041f5761041f61060f565b81526020016005548152602001600654815250905090565b5f60208284031215610447575f5ffd5b5035919050565b7f4e487b71000000000000000000000000000000000000000000000000000000005f52604160045260245ffd5b5f6020828403121561048b575f5ffd5b813567ffffffffffffffff8111156104a1575f5ffd5b8201601f810184136104b1575f5ffd5b803567ffffffffffffffff8111156104cb576104cb61044e565b6040517fffffffffffffffffffffffffffffffffffffffffffffffffffffffffffffffe0603f7fffffffffffffffffffffffffffffffffffffffffffffffffffffffffffffffe0601f8501160116810181811067ffffffffffffffff821117156105375761053761044e565b60405281815282820160200186101561054e575f5ffd5b816020840160208301375f91810160200191909152949350505050565b5f6020828403121561057b575f5ffd5b813573ffffffffffffffffffffffffffffffffffffffff8116811461059e575f5ffd5b9392505050565b5f602082840312156105b5575f5ffd5b81356003811061059e575f5ffd5b5f81518084528060208401602086015e5f6020828601015260207fffffffffffffffffffffffffffffffffffffffffffffffffffffffffffffffe0601f83011685010191505092915050565b7f4e487b71000000000000000000000000000000000000000000000000000000005f52602160045260245ffd5b60038110610671577f4e487b71000000000000000000000000000000000000000000000000000000005f52602160045260245ffd5b9052565b6020815273ffffffffffffffffffffffffffffffffffffffff825116602082015273ffffffffffffffffffffffffffffffffffffffff6020830151166040820152604082015160608201525f606083015161010060808401526106dc6101208401826105c3565b9050608084015161070560a085018273ffffffffffffffffffffffffffffffffffffffff169052565b5060a084015161071860c085018261063c565b5060c084015160e084015260e08401516101008401528091505092915050565b600181811c9082168061074c57607f821691505b602082108103610783577f4e487b71000000000000000000000000000000000000000000000000000000005f52602260045260245ffd5b50919050565b601f8211156107d057805f5260205f20601f840160051c810160208510156107ae5750805b601f840160051c820191505b818110156107cd575f81556001016107ba565b50505b505050565b815167ffffffffffffffff8111156107ef576107ef61044e565b610803816107fd8454610738565b84610789565b6020601f821160018114610854575f831561081e5750848201515b7fffffffffffffffffffffffffffffffffffffffffffffffffffffffffffffffff600385901b1c1916600184901b1784556107cd565b5f848152602081207fffffffffffffffffffffffffffffffffffffffffffffffffffffffffffffffe08516915b828110156108a15787850151825560209485019460019092019101610881565b50848210156108dd57868401517fffffffffffffffffffffffffffffffffffffffffffffffffffffffffffffffff600387901b60f8161c191681555b50505050600190811b0190555056fea2646970667358221220363c2e0e26c7fad7a597a1137d88794eee1c73619069d40d846744d4a172309c64736f6c634300081e0033","linkReferences":{}},"methodIdentifiers":{"build()":"8e1a55fc","withBinding(uint8)":"5ed4e8c7","withClaimAmount(uint256)":"06622b4f","withCreditor(address)":"6669047e","withDebtor(address)":"d3ecc750","withDescription(string)":"26ea81ae","withDueBy(uint256)":"6ce10a61","withImpairmentGracePeriod(uint256)":"81091119","withToken(address)":"5523fceb"},"id":125}