{"abi":[{"type":"function","name":"getMessageHash","inputs":[{"name":"message","type":"bytes","internalType":"bytes"}],"outputs":[{"name":"","type":"bytes32","internalType":"bytes32"}],"stateMutability":"view"},{"type":"function","name":"signMessage","inputs":[{"name":"_data","type":"bytes","internalType":"bytes"}],"outputs":[],"stateMutability":"nonpayable"},{"type":"event","name":"SignMsg","inputs":[{"name":"msgHash","type":"bytes32","indexed":true,"internalType":"bytes32"}],"anonymous":false}],"bytecode":{"object":"0x6080604052348015600e575f5ffd5b5061045f8061001c5f395ff3fe608060405234801561000f575f5ffd5b5060043610610034575f3560e01c80630a1028c41461003857806385a5affe1461005d575b5f5ffd5b61004b6100463660046102b4565b610072565b60405190815260200160405180910390f35b61007061006b3660046103a4565b610207565b005b5f5f7f60b3cbf8b4a223d68d641b3b6ddf9a298e7f33710cf3d3a9d1146b5a6150fbca5f1b83805190602001206040516020016100b9929190918252602082015260400190565b604080517fffffffffffffffffffffffffffffffffffffffffffffffffffffffffffffffe081840301815282825280516020918201207ff698da2500000000000000000000000000000000000000000000000000000000845291519193507f1900000000000000000000000000000000000000000000000000000000000000927f010000000000000000000000000000000000000000000000000000000000000092309263f698da2592600480820193918290030181865afa158015610181573d5f5f3e3d5ffd5b505050506040513d601f19601f820116820180604052508101906101a59190610412565b6040517fff00000000000000000000000000000000000000000000000000000000000000938416602082015292909116602183015260228201526042810182905260620160405160208183030381529060405280519060200120915050919050565b5f61024683838080601f0160208091040260200160405190810160405280939291908181526020018383808284375f9201919091525061007292505050565b5f81815260076020526040808220600190555191925082917fe7f4675038f4f6034dfcbbb24c4dc08e4ebf10eb9d257d3d02c0f38d122ac6e49190a2505050565b7f4e487b71000000000000000000000000000000000000000000000000000000005f52604160045260245ffd5b5f602082840312156102c4575f5ffd5b813567ffffffffffffffff8111156102da575f5ffd5b8201601f810184136102ea575f5ffd5b803567ffffffffffffffff81111561030457610304610287565b6040517fffffffffffffffffffffffffffffffffffffffffffffffffffffffffffffffe0603f7fffffffffffffffffffffffffffffffffffffffffffffffffffffffffffffffe0601f8501160116810181811067ffffffffffffffff8211171561037057610370610287565b604052818152828201602001861015610387575f5ffd5b816020840160208301375f91810160200191909152949350505050565b5f5f602083850312156103b5575f5ffd5b823567ffffffffffffffff8111156103cb575f5ffd5b8301601f810185136103db575f5ffd5b803567ffffffffffffffff8111156103f1575f5ffd5b856020828401011115610402575f5ffd5b6020919091019590945092505050565b5f60208284031215610422575f5ffd5b505191905056fea26469706673582212204e9d10487afa80d116cf8b79b06c45d170816754b93e5b04b6662ffa525dc27564736f6c634300081e0033","linkReferences":{}},"methodIdentifiers":{"getMessageHash(bytes)":"0a1028c4","signMessage(bytes)":"85a5affe"},"id":64}