{"abi":[{"type":"function","name":"tokenURI","inputs":[{"name":"claim","type":"tuple","internalType":"struct Claim","components":[{"name":"claimAmount","type":"uint256","internalType":"uint256"},{"name":"paidAmount","type":"uint256","internalType":"uint256"},{"name":"dueBy","type":"uint256","internalType":"uint256"},{"name":"impairmentGracePeriod","type":"uint256","internalType":"uint256"},{"name":"originalCreditor","type":"address","internalType":"address"},{"name":"debtor","type":"address","internalType":"address"},{"name":"creditor","type":"address","internalType":"address"},{"name":"token","type":"address","internalType":"address"},{"name":"controller","type":"address","internalType":"address"},{"name":"status","type":"uint8","internalType":"enum Status"},{"name":"binding","type":"uint8","internalType":"enum ClaimBinding"}]},{"name":"claimId","type":"uint256","internalType":"uint256"},{"name":"creditor","type":"address","internalType":"address"}],"outputs":[{"name":"","type":"string","internalType":"string"}],"stateMutability":"pure"}],"bytecode":{"object":"0x6080604052348015600e575f5ffd5b50610d978061001c5f395ff3fe608060405234801561000f575f5ffd5b5060043610610029575f3560e01c8063d993031e1461002d575b5f5ffd5b61004061003b3660046105a0565b610056565b60405161004d919061068a565b60405180910390f35b60605f61006c6100678686866100c9565b61010b565b90506100a084848760a001518460405160200161008c94939291906106f4565b60405160208183030381529060405261010b565b6040516020016100b0919061086f565b6040516020818303038152906040529150509392505050565b606082828560a001516100e08761012001516102e0565b6040516020016100f394939291906108a7565b60405160208183030381529060405290509392505050565b606081515f0361012857505060408051602081019091525f815290565b5f604051806060016040528060408152602001610d226040913990505f6003845160026101559190610c8c565b61015f9190610ca5565b61016a906004610cdd565b90505f610178826020610c8c565b67ffffffffffffffff811115610190576101906104e5565b6040519080825280601f01601f1916602001820160405280156101ba576020820181803683370190505b509050818152600183018586518101602084015b818310156102285760039283018051603f601282901c811687015160f890811b8552600c83901c8216880151811b6001860152600683901c8216880151811b60028601529116860151901b938201939093526004016101ce565b600389510660018114610242576002811461028c576102d2565b7f3d3d0000000000000000000000000000000000000000000000000000000000007ffffffffffffffffffffffffffffffffffffffffffffffffffffffffffffffffe8301526102d2565b7f3d000000000000000000000000000000000000000000000000000000000000007fffffffffffffffffffffffffffffffffffffffffffffffffffffffffffffffff8301525b509398975050505050505050565b60605f8260058111156102f5576102f5610cf4565b0361033357505060408051808201909152600781527f50656e64696e6700000000000000000000000000000000000000000000000000602082015290565b600182600581111561034757610347610cf4565b0361038557505060408051808201909152600881527f5265706179696e67000000000000000000000000000000000000000000000000602082015290565b600282600581111561039957610399610cf4565b036103d757505060408051808201909152600481527f5061696400000000000000000000000000000000000000000000000000000000602082015290565b60038260058111156103eb576103eb610cf4565b0361042957505060408051808201909152600881527f52656a6563746564000000000000000000000000000000000000000000000000602082015290565b600482600581111561043d5761043d610cf4565b0361047b57505060408051808201909152600981527f52657363696e6465640000000000000000000000000000000000000000000000602082015290565b600582600581111561048f5761048f610cf4565b036104cd57505060408051808201909152600881527f496d706169726564000000000000000000000000000000000000000000000000602082015290565b505060408051602081019091525f815290565b919050565b7f4e487b71000000000000000000000000000000000000000000000000000000005f52604160045260245ffd5b604051610160810167ffffffffffffffff8111828210171561055b577f4e487b71000000000000000000000000000000000000000000000000000000005f52604160045260245ffd5b60405290565b803573ffffffffffffffffffffffffffffffffffffffff811681146104e0575f5ffd5b8035600681106104e0575f5ffd5b8035600381106104e0575f5ffd5b5f5f5f8385036101a08112156105b4575f5ffd5b6101608112156105c2575f5ffd5b506105cb610512565b843581526020808601359082015260408086013590820152606080860135908201526105f960808601610561565b608082015261060a60a08601610561565b60a082015261061b60c08601610561565b60c082015261062c60e08601610561565b60e082015261063e6101008601610561565b6101008201526106516101208601610584565b6101208201526106646101408601610592565b610140820152925061016084013591506106816101808501610561565b90509250925092565b602081525f82518060208401528060208501604085015e5f6040828501015260407fffffffffffffffffffffffffffffffffffffffffffffffffffffffffffffffe0601f83011684010191505092915050565b5f81518060208401855e5f93019283525090919050565b7f7b226e616d65223a2242756c6c6120436c61696d20230000000000000000000081528460168201527f222c20226465736372697074696f6e223a224120636c61696d2062657477656560368201527f6e0000000000000000000000000000000000000000000000000000000000000060568201527fffffffffffffffffffffffffffffffffffffffff0000000000000000000000008460601b1660578201527f20616e6420000000000000000000000000000000000000000000000000000000606b8201527fffffffffffffffffffffffffffffffffffffffff0000000000000000000000008360601b1660708201527f222c2022696d616765223a20220000000000000000000000000000000000000060848201527f646174613a696d6167652f7376672b786d6c3b6261736536342c00000000000060918201525f61083f60ab8301846106dd565b7f227d00000000000000000000000000000000000000000000000000000000000081526002019695505050505050565b7f646174613a6170706c69636174696f6e2f6a736f6e3b6261736536342c00000081525f6108a0601d8301846106dd565b9392505050565b7f3c73766720636c6173733d22737667426f64792277696474683d22333030226881527f65696768743d223330302276696577426f783d2230203020333030203330302260208201527f786d6c6e733d22687474703a2f2f7777772e77332e6f72672f323030302f737660408201527f67223e000000000000000000000000000000000000000000000000000000000060608201527f3c7465787420783d2231352220793d2231352220636c6173733d226d6564697560638201527f6d223e42554c4c4120434c41494d20230000000000000000000000000000000060838201528460938201527f3c2f746578743e0000000000000000000000000000000000000000000000000060b38201525f610a0b60ba83017f3c7465787420783d2231352220793d2234352220636c6173733d226d6564697581527f6d223e4372656469746f723a20000000000000000000000000000000000000006020820152602d0190565b610a39818760601b7fffffffffffffffffffffffffffffffffffffffff000000000000000000000000169052565b7f3c2f746578743e0000000000000000000000000000000000000000000000000060148201527f3c7465787420783d2231352220793d2237352220636c6173733d226d65646975601b8201527f6d223e446562746f723a20000000000000000000000000000000000000000000603b820152604681019050610adf818660601b7fffffffffffffffffffffffffffffffffffffffff000000000000000000000000169052565b7f3c2f746578743e0000000000000000000000000000000000000000000000000060148201527f3c7465787420783d2231352220793d223133352220636c6173733d226d656469601b8201527f756d223e53746174757320000000000000000000000000000000000000000000603b820152610c54610c2b610b90610b6760468501886106dd565b7f3c2f746578743e00000000000000000000000000000000000000000000000000815260070190565b7f3c7374796c653e2e737667426f6479207b666f6e742d66616d696c793a20224381527f6f7572696572204e6577223b7d2e74696e79207b666f6e742d73697a653a203660208201527f70783b7d2e736d616c6c207b666f6e742d73697a653a20313270783b7d2e6d6560408201527f6469756d207b666f6e742d73697a653a20313870783b7d3c2f7374796c653e006060820152607f0190565b7f3c2f7376673e0000000000000000000000000000000000000000000000000000815260060190565b979650505050505050565b7f4e487b71000000000000000000000000000000000000000000000000000000005f52601160045260245ffd5b80820180821115610c9f57610c9f610c5f565b92915050565b5f82610cd8577f4e487b71000000000000000000000000000000000000000000000000000000005f52601260045260245ffd5b500490565b8082028115828204841417610c9f57610c9f610c5f565b7f4e487b71000000000000000000000000000000000000000000000000000000005f52602160045260245ffdfe4142434445464748494a4b4c4d4e4f505152535455565758595a6162636465666768696a6b6c6d6e6f707172737475767778797a303132333435363738392b2fa2646970667358221220f39bd1f54445303fc7631950847df43958a76d7b167b2d97a70cb66fbcf42bd764736f6c634300081e0033","linkReferences":{}},"methodIdentifiers":{"tokenURI((uint256,uint256,uint256,uint256,address,address,address,address,address,uint8,uint8),uint256,address)":"d993031e"},"id":76}