{"abi":[{"type":"constructor","inputs":[{"name":"_bullaClaimAddress","type":"address","internalType":"address"}],"stateMutability":"nonpayable"},{"type":"function","name":"_bullaClaim","inputs":[],"outputs":[{"name":"","type":"address","internalType":"contract IBullaClaimV2"}],"stateMutability":"view"},{"type":"function","name":"_dueByByClaimId","inputs":[{"name":"","type":"uint256","internalType":"uint256"}],"outputs":[{"name":"","type":"uint256","internalType":"uint256"}],"stateMutability":"view"},{"type":"function","name":"acceptClaim","inputs":[{"name":"claimId","type":"uint256","internalType":"uint256"}],"outputs":[],"stateMutability":"nonpayable"},{"type":"function","name":"approve","inputs":[{"name":"to","type":"address","internalType":"address"},{"name":"tokenId","type":"uint256","internalType":"uint256"}],"outputs":[],"stateMutability":"nonpayable"},{"type":"function","name":"balanceOf","inputs":[{"name":"owner","type":"address","internalType":"address"}],"outputs":[{"name":"","type":"uint256","internalType":"uint256"}],"stateMutability":"view"},{"type":"function","name":"cancelClaim","inputs":[{"name":"claimId","type":"uint256","internalType":"uint256"},{"name":"note","type":"string","internalType":"string"}],"outputs":[],"stateMutability":"nonpayable"},{"type":"function","name":"createClaim","inputs":[{"name":"claimParams","type":"tuple","internalType":"struct CreateClaimParams","components":[{"name":"creditor","type":"address","internalType":"address"},{"name":"debtor","type":"address","internalType":"address"},{"name":"claimAmount","type":"uint256","internalType":"uint256"},{"name":"description","type":"string","internalType":"string"},{"name":"token","type":"address","internalType":"address"},{"name":"binding","type":"uint8","internalType":"enum ClaimBinding"},{"name":"dueBy","type":"uint256","internalType":"uint256"},{"name":"impairmentGracePeriod","type":"uint256","internalType":"uint256"}]}],"outputs":[{"name":"","type":"uint256","internalType":"uint256"}],"stateMutability":"nonpayable"},{"type":"function","name":"getApproved","inputs":[{"name":"tokenId","type":"uint256","internalType":"uint256"}],"outputs":[{"name":"","type":"address","internalType":"address"}],"stateMutability":"view"},{"type":"function","name":"isApprovedForAll","inputs":[{"name":"owner","type":"address","internalType":"address"},{"name":"operator","type":"address","internalType":"address"}],"outputs":[{"name":"","type":"bool","internalType":"bool"}],"stateMutability":"view"},{"type":"function","name":"ownerOf","inputs":[{"name":"tokenId","type":"uint256","internalType":"uint256"}],"outputs":[{"name":"","type":"address","internalType":"address"}],"stateMutability":"view"},{"type":"function","name":"payClaim","inputs":[{"name":"claimId","type":"uint256","internalType":"uint256"},{"name":"amount","type":"uint256","internalType":"uint256"}],"outputs":[],"stateMutability":"payable"},{"type":"function","name":"safeTransferFrom","inputs":[{"name":"from","type":"address","internalType":"address"},{"name":"to","type":"address","internalType":"address"},{"name":"tokenId","type":"uint256","internalType":"uint256"}],"outputs":[],"stateMutability":"nonpayable"},{"type":"function","name":"safeTransferFrom","inputs":[{"name":"from","type":"address","internalType":"address"},{"name":"to","type":"address","internalType":"address"},{"name":"tokenId","type":"uint256","internalType":"uint256"},{"name":"data","type":"bytes","internalType":"bytes"}],"outputs":[],"stateMutability":"nonpayable"},{"type":"function","name":"setApprovalForAll","inputs":[{"name":"operator","type":"address","internalType":"address"},{"name":"approved","type":"bool","internalType":"bool"}],"outputs":[],"stateMutability":"nonpayable"},{"type":"function","name":"supportsInterface","inputs":[{"name":"interfaceId","type":"bytes4","internalType":"bytes4"}],"outputs":[{"name":"","type":"bool","internalType":"bool"}],"stateMutability":"view"},{"type":"function","name":"transferFrom","inputs":[{"name":"from","type":"address","internalType":"address"},{"name":"to","type":"address","internalType":"address"},{"name":"tokenId","type":"uint256","internalType":"uint256"}],"outputs":[],"stateMutability":"nonpayable"},{"type":"event","name":"Approval","inputs":[{"name":"owner","type":"address","indexed":true,"internalType":"address"},{"name":"approved","type":"address","indexed":true,"internalType":"address"},{"name":"tokenId","type":"uint256","indexed":true,"internalType":"uint256"}],"anonymous":false},{"type":"event","name":"ApprovalForAll","inputs":[{"name":"owner","type":"address","indexed":true,"internalType":"address"},{"name":"operator","type":"address","indexed":true,"internalType":"address"},{"name":"approved","type":"bool","indexed":false,"internalType":"bool"}],"anonymous":false},{"type":"event","name":"Transfer","inputs":[{"name":"from","type":"address","indexed":true,"internalType":"address"},{"name":"to","type":"address","indexed":true,"internalType":"address"},{"name":"tokenId","type":"uint256","indexed":true,"internalType":"uint256"}],"anonymous":false},{"type":"error","name":"NotController","inputs":[{"name":"sender","type":"address","internalType":"address"}]}],"bytecode":{"object":"0x60a06040526101f45f55348015610014575f5ffd5b50604051611e02380380611e0283398101604081905261003391610044565b6001600160a01b0316608052610071565b5f60208284031215610054575f5ffd5b81516001600160a01b038116811461006a575f5ffd5b9392505050565b608051611ced6101155f395f81816101e9015281816103dd01528181610492015281816105420152818161062301528181610684015281816107710152818161085a015281816109030152818161098e01528181610a2a01528181610af601528181610bae01528181610c0e01528181610cda01528181610d7d01528181610e4901528181610eb501528181610fef015281816110e601526111c50152611ced5ff3fe6080604052600436106100ef575f3560e01c80636352211e11610087578063b88d4fde11610057578063b88d4fde146102d1578063c07cae88146102f0578063c99c44481461030f578063e985e9c514610322575f5ffd5b80636352211e1461025557806370a0823114610274578063974e527a14610293578063a22cb465146102b2575f5ffd5b806323b872dd116100c257806323b872dd146101b95780632b538af5146101d857806342842e0e1461020b5780634389d48e1461022a575f5ffd5b806301ffc9a7146100f3578063081812fc14610127578063095ea7b31461016b578063185a34f21461018c575b5f5ffd5b3480156100fe575f5ffd5b5061011261010d3660046113bd565b610341565b60405190151581526020015b60405180910390f35b348015610132575f5ffd5b506101466101413660046113fc565b610461565b60405173ffffffffffffffffffffffffffffffffffffffff909116815260200161011e565b348015610176575f5ffd5b5061018a610185366004611444565b610511565b005b348015610197575f5ffd5b506101ab6101a636600461146e565b610680565b60405190815260200161011e565b3480156101c4575f5ffd5b5061018a6101d33660046114a6565b610740565b3480156101e3575f5ffd5b506101467f000000000000000000000000000000000000000000000000000000000000000081565b348015610216575f5ffd5b5061018a6102253660046114a6565b6108b8565b348015610235575f5ffd5b506101ab6102443660046113fc565b60016020525f908152604090205481565b348015610260575f5ffd5b5061014661026f3660046113fc565b6108d2565b34801561027f575f5ffd5b506101ab61028e3660046114e4565b610947565b34801561029e575f5ffd5b5061018a6102ad3660046113fc565b6109f9565b3480156102bd575f5ffd5b5061018a6102cc36600461150c565b610b61565b3480156102dc575f5ffd5b5061018a6102eb3660046115e9565b610bdd565b3480156102fb575f5ffd5b5061018a61030a3660046116c9565b610d4c565b61018a61031d366004611740565b610e84565b34801561032d575f5ffd5b5061011261033c366004611760565b611176565b5f7f80ac58cd000000000000000000000000000000000000000000000000000000007fffffffff000000000000000000000000000000000000000000000000000000008316148061045b57506040517f01ffc9a70000000000000000000000000000000000000000000000000000000081527fffffffff00000000000000000000000000000000000000000000000000000000831660048201527f000000000000000000000000000000000000000000000000000000000000000073ffffffffffffffffffffffffffffffffffffffff16906301ffc9a790602401602060405180830381865afa158015610437573d5f5f3e3d5ffd5b505050506040513d601f19601f8201168201806040525081019061045b919061178c565b92915050565b6040517f081812fc000000000000000000000000000000000000000000000000000000008152600481018290525f907f000000000000000000000000000000000000000000000000000000000000000073ffffffffffffffffffffffffffffffffffffffff169063081812fc906024015b602060405180830381865afa1580156104ed573d5f5f3e3d5ffd5b505050506040513d601f19601f8201168201806040525081019061045b91906117b2565b6040517f5aef2447000000000000000000000000000000000000000000000000000000008152600481018290525f907f000000000000000000000000000000000000000000000000000000000000000073ffffffffffffffffffffffffffffffffffffffff1690635aef24479060240161016060405180830381865afa15801561059d573d5f5f3e3d5ffd5b505050506040513d601f19601f820116820180604052508101906105c191906117f2565b90506105d1816101000151611237565b6040517f52ec852900000000000000000000000000000000000000000000000000000000815233600482015273ffffffffffffffffffffffffffffffffffffffff8481166024830152604482018490527f000000000000000000000000000000000000000000000000000000000000000016906352ec8529906064015f604051808303815f87803b158015610664575f5ffd5b505af1158015610676573d5f5f3e3d5ffd5b505050505b505050565b5f5f7f000000000000000000000000000000000000000000000000000000000000000073ffffffffffffffffffffffffffffffffffffffff16631461f12633856040518363ffffffff1660e01b81526004016106dd9291906119d2565b6020604051808303815f875af11580156106f9573d5f5f3e3d5ffd5b505050506040513d601f19601f8201168201806040525081019061071d9190611ad5565b905061072c4262015180611b19565b5f8281526001602052604090205592915050565b6040517f5aef2447000000000000000000000000000000000000000000000000000000008152600481018290525f907f000000000000000000000000000000000000000000000000000000000000000073ffffffffffffffffffffffffffffffffffffffff1690635aef24479060240161016060405180830381865afa1580156107cc573d5f5f3e3d5ffd5b505050506040513d601f19601f820116820180604052508101906107f091906117f2565b9050610800816101000151611237565b6040517faf9fe4de00000000000000000000000000000000000000000000000000000000815233600482015273ffffffffffffffffffffffffffffffffffffffff85811660248301528481166044830152606482018490527f0000000000000000000000000000000000000000000000000000000000000000169063af9fe4de906084015b5f604051808303815f87803b15801561089c575f5ffd5b505af11580156108ae573d5f5f3e3d5ffd5b5050505050505050565b61067b83838360405180602001604052805f815250610bdd565b6040517f6352211e000000000000000000000000000000000000000000000000000000008152600481018290525f907f000000000000000000000000000000000000000000000000000000000000000073ffffffffffffffffffffffffffffffffffffffff1690636352211e906024016104d2565b6040517f70a0823100000000000000000000000000000000000000000000000000000000815273ffffffffffffffffffffffffffffffffffffffff82811660048301525f917f0000000000000000000000000000000000000000000000000000000000000000909116906370a0823190602401602060405180830381865afa1580156109d5573d5f5f3e3d5ffd5b505050506040513d601f19601f8201168201806040525081019061045b9190611ad5565b6040517f5aef2447000000000000000000000000000000000000000000000000000000008152600481018290525f907f000000000000000000000000000000000000000000000000000000000000000073ffffffffffffffffffffffffffffffffffffffff1690635aef24479060240161016060405180830381865afa158015610a85573d5f5f3e3d5ffd5b505050506040513d601f19601f82011682018060405250810190610aa991906117f2565b9050610ab9816101000151611237565b6040517f6418bde900000000000000000000000000000000000000000000000000000000815273ffffffffffffffffffffffffffffffffffffffff7f00000000000000000000000000000000000000000000000000000000000000001690636418bde990610b309033908690600290600401611b2c565b5f604051808303815f87803b158015610b47575f5ffd5b505af1158015610b59573d5f5f3e3d5ffd5b505050505050565b6040517fa22cb46500000000000000000000000000000000000000000000000000000000815273ffffffffffffffffffffffffffffffffffffffff838116600483015282151560248301527f0000000000000000000000000000000000000000000000000000000000000000169063a22cb46590604401610b30565b6040517f5aef2447000000000000000000000000000000000000000000000000000000008152600481018390525f907f000000000000000000000000000000000000000000000000000000000000000073ffffffffffffffffffffffffffffffffffffffff1690635aef24479060240161016060405180830381865afa158015610c69573d5f5f3e3d5ffd5b505050506040513d601f19601f82011682018060405250810190610c8d91906117f2565b9050610c9d816101000151611237565b6040517ffcf391e000000000000000000000000000000000000000000000000000000000815273ffffffffffffffffffffffffffffffffffffffff7f0000000000000000000000000000000000000000000000000000000000000000169063fcf391e090610d179033908990899089908990600401611b65565b5f604051808303815f87803b158015610d2e575f5ffd5b505af1158015610d40573d5f5f3e3d5ffd5b505050505b5050505050565b6040517f5aef2447000000000000000000000000000000000000000000000000000000008152600481018490525f907f000000000000000000000000000000000000000000000000000000000000000073ffffffffffffffffffffffffffffffffffffffff1690635aef24479060240161016060405180830381865afa158015610dd8573d5f5f3e3d5ffd5b505050506040513d601f19601f82011682018060405250810190610dfc91906117f2565b9050610e0c816101000151611237565b6040517f708cf83200000000000000000000000000000000000000000000000000000000815273ffffffffffffffffffffffffffffffffffffffff7f0000000000000000000000000000000000000000000000000000000000000000169063708cf83290610885903390889088908890600401611c16565b6040517f5aef2447000000000000000000000000000000000000000000000000000000008152600481018390525f907f000000000000000000000000000000000000000000000000000000000000000073ffffffffffffffffffffffffffffffffffffffff1690635aef24479060240161016060405180830381865afa158015610f10573d5f5f3e3d5ffd5b505050506040513d601f19601f82011682018060405250810190610f3491906117f2565b9050610f44816101000151611237565b8160028261014001516002811115610f5e57610f5e61196c565b148015610f7757505f8481526001602052604090205442115b156110ca575f612710835f01515f54610f909190611c55565b610f9a9190611c6c565b9050610fa68183611ca4565b6040517f6352211e000000000000000000000000000000000000000000000000000000008152600481018790529092505f9073ffffffffffffffffffffffffffffffffffffffff7f00000000000000000000000000000000000000000000000000000000000000001690636352211e90602401602060405180830381865afa158015611034573d5f5f3e3d5ffd5b505050506040513d601f19601f8201168201806040525081019061105891906117b2565b60e085015190915073ffffffffffffffffffffffffffffffffffffffff16156110a75760e08401516110a29073ffffffffffffffffffffffffffffffffffffffff16338385611290565b6110c7565b6110c773ffffffffffffffffffffffffffffffffffffffff82168361134b565b50505b60e082015173ffffffffffffffffffffffffffffffffffffffff7f000000000000000000000000000000000000000000000000000000000000000081169163ba9a809491161561111a575f61111c565b825b6040517fffffffff0000000000000000000000000000000000000000000000000000000060e084901b16815233600482015260248101889052604481018590526064015f604051808303818588803b158015610d2e575f5ffd5b6040517fe985e9c500000000000000000000000000000000000000000000000000000000815273ffffffffffffffffffffffffffffffffffffffff838116600483015282811660248301525f917f00000000000000000000000000000000000000000000000000000000000000009091169063e985e9c590604401602060405180830381865afa15801561120c573d5f5f3e3d5ffd5b505050506040513d601f19601f82011682018060405250810190611230919061178c565b9392505050565b73ffffffffffffffffffffffffffffffffffffffff8116301461128d576040517f66719b7a0000000000000000000000000000000000000000000000000000000081523360048201526024015b60405180910390fd5b50565b5f6040517f23b872dd00000000000000000000000000000000000000000000000000000000815284600482015283602482015282604482015260205f6064835f8a5af13d15601f3d1160015f511416171691505080610d45576040517f08c379a000000000000000000000000000000000000000000000000000000000815260206004820152601460248201527f5452414e534645525f46524f4d5f4641494c45440000000000000000000000006044820152606401611284565b5f5f5f5f5f85875af190508061067b576040517f08c379a000000000000000000000000000000000000000000000000000000000815260206004820152601360248201527f4554485f5452414e534645525f4641494c4544000000000000000000000000006044820152606401611284565b5f602082840312156113cd575f5ffd5b81357fffffffff0000000000000000000000000000000000000000000000000000000081168114611230575f5ffd5b5f6020828403121561140c575f5ffd5b5035919050565b73ffffffffffffffffffffffffffffffffffffffff8116811461128d575f5ffd5b803561143f81611413565b919050565b5f5f60408385031215611455575f5ffd5b823561146081611413565b946020939093013593505050565b5f6020828403121561147e575f5ffd5b813567ffffffffffffffff811115611494575f5ffd5b82016101008185031215611230575f5ffd5b5f5f5f606084860312156114b8575f5ffd5b83356114c381611413565b925060208401356114d381611413565b929592945050506040919091013590565b5f602082840312156114f4575f5ffd5b813561123081611413565b801515811461128d575f5ffd5b5f5f6040838503121561151d575f5ffd5b823561152881611413565b91506020830135611538816114ff565b809150509250929050565b7f4e487b71000000000000000000000000000000000000000000000000000000005f52604160045260245ffd5b604051610160810167ffffffffffffffff8111828210171561159457611594611543565b60405290565b604051601f82017fffffffffffffffffffffffffffffffffffffffffffffffffffffffffffffffe016810167ffffffffffffffff811182821017156115e1576115e1611543565b604052919050565b5f5f5f5f608085870312156115fc575f5ffd5b843561160781611413565b9350602085013561161781611413565b925060408501359150606085013567ffffffffffffffff811115611639575f5ffd5b8501601f81018713611649575f5ffd5b803567ffffffffffffffff81111561166357611663611543565b61169460207fffffffffffffffffffffffffffffffffffffffffffffffffffffffffffffffe0601f8401160161159a565b8181528860208385010111156116a8575f5ffd5b816020840160208301375f6020838301015280935050505092959194509250565b5f5f5f604084860312156116db575f5ffd5b83359250602084013567ffffffffffffffff8111156116f8575f5ffd5b8401601f81018613611708575f5ffd5b803567ffffffffffffffff81111561171e575f5ffd5b86602082840101111561172f575f5ffd5b939660209190910195509293505050565b5f5f60408385031215611751575f5ffd5b50508035926020909101359150565b5f5f60408385031215611771575f5ffd5b823561177c81611413565b9150602083013561153881611413565b5f6020828403121561179c575f5ffd5b8151611230816114ff565b805161143f81611413565b5f602082840312156117c2575f5ffd5b815161123081611413565b80516006811061143f575f5ffd5b6003811061128d575f5ffd5b805161143f816117db565b5f610160828403128015611804575f5ffd5b5061180d611570565b8251815260208084015190820152604080840151908201526060808401519082015261183b608084016117a7565b608082015261184c60a084016117a7565b60a082015261185d60c084016117a7565b60c082015261186e60e084016117a7565b60e082015261188061010084016117a7565b61010082015261189361012084016117cd565b6101208201526118a661014084016117e7565b6101408201529392505050565b5f5f83357fffffffffffffffffffffffffffffffffffffffffffffffffffffffffffffffe18436030181126118e6575f5ffd5b830160208101925035905067ffffffffffffffff811115611905575f5ffd5b803603821315611913575f5ffd5b9250929050565b81835281816020850137505f602082840101525f60207fffffffffffffffffffffffffffffffffffffffffffffffffffffffffffffffe0601f840116840101905092915050565b803561143f816117db565b7f4e487b71000000000000000000000000000000000000000000000000000000005f52602160045260245ffd5b600381106119ce577f4e487b71000000000000000000000000000000000000000000000000000000005f52602160045260245ffd5b9052565b73ffffffffffffffffffffffffffffffffffffffff83168152604060208201525f82356119fe81611413565b73ffffffffffffffffffffffffffffffffffffffff166040830152611a2560208401611434565b73ffffffffffffffffffffffffffffffffffffffff811660608401525060408301356080830152611a5960608401846118b3565b61010060a0850152611a706101408501828461191a565b915050611a7f60808501611434565b73ffffffffffffffffffffffffffffffffffffffff1660c0840152611aa660a08501611961565b611ab360e0850182611999565b5060c084013561010084015260e0909301356101209092019190915250919050565b5f60208284031215611ae5575f5ffd5b5051919050565b7f4e487b71000000000000000000000000000000000000000000000000000000005f52601160045260245ffd5b8082018082111561045b5761045b611aec565b73ffffffffffffffffffffffffffffffffffffffff841681526020810183905260608101611b5d6040830184611999565b949350505050565b73ffffffffffffffffffffffffffffffffffffffff8616815273ffffffffffffffffffffffffffffffffffffffff8516602082015273ffffffffffffffffffffffffffffffffffffffff8416604082015282606082015260a060808201525f82518060a0840152806020850160c085015e5f60c0828501015260c07fffffffffffffffffffffffffffffffffffffffffffffffffffffffffffffffe0601f8301168401019150509695505050505050565b73ffffffffffffffffffffffffffffffffffffffff85168152836020820152606060408201525f611c4b60608301848661191a565b9695505050505050565b808202811582820484141761045b5761045b611aec565b5f82611c9f577f4e487b71000000000000000000000000000000000000000000000000000000005f52601260045260245ffd5b500490565b8181038181111561045b5761045b611aec56fea2646970667358221220a24520876705c659200eb79d4460c594aa0046cfcab765df8eaa307b19b694d164736f6c634300081e0033","linkReferences":{}},"methodIdentifiers":{"_bullaClaim()":"2b538af5","_dueByByClaimId(uint256)":"4389d48e","acceptClaim(uint256)":"974e527a","approve(address,uint256)":"095ea7b3","balanceOf(address)":"70a08231","cancelClaim(uint256,string)":"c07cae88","createClaim((address,address,uint256,string,address,uint8,uint256,uint256))":"185a34f2","getApproved(uint256)":"081812fc","isApprovedForAll(address,address)":"e985e9c5","ownerOf(uint256)":"6352211e","payClaim(uint256,uint256)":"c99c4448","safeTransferFrom(address,address,uint256)":"42842e0e","safeTransferFrom(address,address,uint256,bytes)":"b88d4fde","setApprovalForAll(address,bool)":"a22cb465","supportsInterface(bytes4)":"01ffc9a7","transferFrom(address,address,uint256)":"23b872dd"},"id":100}