{"abi":[{"type":"constructor","inputs":[],"stateMutability":"nonpayable"},{"type":"function","name":"build","inputs":[],"outputs":[{"name":"","type":"tuple","internalType":"struct CreateInvoiceParams","components":[{"name":"debtor","type":"address","internalType":"address"},{"name":"creditor","type":"address","internalType":"address"},{"name":"claimAmount","type":"uint256","internalType":"uint256"},{"name":"dueBy","type":"uint256","internalType":"uint256"},{"name":"deliveryDate","type":"uint256","internalType":"uint256"},{"name":"description","type":"string","internalType":"string"},{"name":"token","type":"address","internalType":"address"},{"name":"binding","type":"uint8","internalType":"enum ClaimBinding"},{"name":"lateFeeConfig","type":"tuple","internalType":"struct InterestConfig","components":[{"name":"interestRateBps","type":"uint16","internalType":"uint16"},{"name":"numberOfPeriodsPerYear","type":"uint16","internalType":"uint16"}]},{"name":"impairmentGracePeriod","type":"uint256","internalType":"uint256"},{"name":"depositAmount","type":"uint256","internalType":"uint256"}]}],"stateMutability":"view"},{"type":"function","name":"withBinding","inputs":[{"name":"binding","type":"uint8","internalType":"enum ClaimBinding"}],"outputs":[{"name":"","type":"address","internalType":"contract CreateInvoiceParamsBuilder"}],"stateMutability":"nonpayable"},{"type":"function","name":"withClaimAmount","inputs":[{"name":"claimAmount","type":"uint256","internalType":"uint256"}],"outputs":[{"name":"","type":"address","internalType":"contract CreateInvoiceParamsBuilder"}],"stateMutability":"nonpayable"},{"type":"function","name":"withCreditor","inputs":[{"name":"creditor","type":"address","internalType":"address"}],"outputs":[{"name":"","type":"address","internalType":"contract CreateInvoiceParamsBuilder"}],"stateMutability":"nonpayable"},{"type":"function","name":"withDebtor","inputs":[{"name":"debtor","type":"address","internalType":"address"}],"outputs":[{"name":"","type":"address","internalType":"contract CreateInvoiceParamsBuilder"}],"stateMutability":"nonpayable"},{"type":"function","name":"withDeliveryDate","inputs":[{"name":"deliveryDate","type":"uint256","internalType":"uint256"}],"outputs":[{"name":"","type":"address","internalType":"contract CreateInvoiceParamsBuilder"}],"stateMutability":"nonpayable"},{"type":"function","name":"withDepositAmount","inputs":[{"name":"depositAmount","type":"uint256","internalType":"uint256"}],"outputs":[{"name":"","type":"address","internalType":"contract CreateInvoiceParamsBuilder"}],"stateMutability":"nonpayable"},{"type":"function","name":"withDescription","inputs":[{"name":"description","type":"string","internalType":"string"}],"outputs":[{"name":"","type":"address","internalType":"contract CreateInvoiceParamsBuilder"}],"stateMutability":"nonpayable"},{"type":"function","name":"withDueBy","inputs":[{"name":"dueBy","type":"uint256","internalType":"uint256"}],"outputs":[{"name":"","type":"address","internalType":"contract CreateInvoiceParamsBuilder"}],"stateMutability":"nonpayable"},{"type":"function","name":"withImpairmentGracePeriod","inputs":[{"name":"impairmentGracePeriod","type":"uint256","internalType":"uint256"}],"outputs":[{"name":"","type":"address","internalType":"contract CreateInvoiceParamsBuilder"}],"stateMutability":"nonpayable"},{"type":"function","name":"withLateFeeConfig","inputs":[{"name":"lateFeeConfig","type":"tuple","internalType":"struct InterestConfig","components":[{"name":"interestRateBps","type":"uint16","internalType":"uint16"},{"name":"numberOfPeriodsPerYear","type":"uint16","internalType":"uint16"}]}],"outputs":[{"name":"","type":"address","internalType":"contract CreateInvoiceParamsBuilder"}],"stateMutability":"nonpayable"},{"type":"function","name":"withToken","inputs":[{"name":"token","type":"address","internalType":"address"}],"outputs":[{"name":"","type":"address","internalType":"contract CreateInvoiceParamsBuilder"}],"stateMutability":"nonpayable"}],"bytecode":{"object":"0x608060405234801561000f575f5ffd5b505f80546001600160a01b0319908116909155600180549091169055670de0b6b3a76400006002556100444262278d006100c4565b6003555f60045560408051808201909152600c81526b5465737420496e766f69636560a01b602082015260059061007b9082610181565b50600680546001600160a81b031916600160a01b179055604080518082019091525f80825260209091018190526007805463ffffffff1916905562093a8060085560095561023b565b808201808211156100e357634e487b7160e01b5f52601160045260245ffd5b92915050565b634e487b7160e01b5f52604160045260245ffd5b600181811c9082168061011157607f821691505b60208210810361012f57634e487b7160e01b5f52602260045260245ffd5b50919050565b601f82111561017c57805f5260205f20601f840160051c8101602085101561015a5750805b601f840160051c820191505b81811015610179575f8155600101610166565b50505b505050565b81516001600160401b0381111561019a5761019a6100e9565b6101ae816101a884546100fd565b84610135565b6020601f8211600181146101e0575f83156101c95750848201515b5f19600385901b1c1916600184901b178455610179565b5f84815260208120601f198516915b8281101561020f57878501518255602094850194600190920191016101ef565b508482101561022c57868401515f19600387901b60f8161c191681555b50505050600190811b01905550565b610af9806102485f395ff3fe608060405234801561000f575f5ffd5b50600436106100cf575f3560e01c8063810911191161007d578063bcfe9b7211610058578063bcfe9b721461023a578063d3ecc7501461024f578063e3bed5a7146102a5575f5ffd5b806381091119146101fb57806381cdb080146102105780638e1a55fc14610225575f5ffd5b80635ed4e8c7116100ad5780635ed4e8c71461017c5780636669047e1461018f5780636ce10a61146101e6575f5ffd5b806306622b4f146100d357806326ea81ae146101125780635523fceb14610125575b5f5ffd5b6100e86100e1366004610546565b6002553090565b60405173ffffffffffffffffffffffffffffffffffffffff90911681526020015b60405180910390f35b6100e86101203660046105d9565b6102fe565b6100e861013336600461068b565b600680547fffffffffffffffffffffffff00000000000000000000000000000000000000001673ffffffffffffffffffffffffffffffffffffffff929092169190911790553090565b6100e861018a3660046106c5565b610313565b6100e861019d36600461068b565b600180547fffffffffffffffffffffffff00000000000000000000000000000000000000001673ffffffffffffffffffffffffffffffffffffffff929092169190911790553090565b6100e86101f4366004610546565b6003553090565b6100e8610209366004610546565b6008553090565b6100e861021e366004610546565b6004553090565b61022d610371565b6040516101099190610795565b6100e8610248366004610546565b6009553090565b6100e861025d36600461068b565b5f80547fffffffffffffffffffffffff00000000000000000000000000000000000000001673ffffffffffffffffffffffffffffffffffffffff929092169190911790553090565b6100e86102b33660046108b4565b80516007805460209093015161ffff90811662010000027fffffffffffffffffffffffffffffffffffffffffffffffffffffffff000000009094169216919091179190911790553090565b5f600561030b83826109ac565b503092915050565b600680545f9183917fffffffffffffffffffffff00ffffffffffffffffffffffffffffffffffffffff16740100000000000000000000000000000000000000008360028111156103655761036561072f565b02179055503092915050565b6103da60408051610160810182525f808252602080830182905282840182905260608084018390526080840183905260a084015260c0830182905260e0830182905283518085019094528184528301529061010082019081526020015f81526020015f81525090565b60408051610160810182525f5473ffffffffffffffffffffffffffffffffffffffff908116825260015416602082015260025491810191909152600354606082015260045460808201526005805460a0830191906104379061090f565b80601f01602080910402602001604051908101604052809291908181526020018280546104639061090f565b80156104ae5780601f10610485576101008083540402835291602001916104ae565b820191905f5260205f20905b81548152906001019060200180831161049157829003601f168201915b505050918352505060065473ffffffffffffffffffffffffffffffffffffffff8116602083015260409091019074010000000000000000000000000000000000000000900460ff1660028111156105075761050761072f565b815260408051808201825260075461ffff8082168352620100009091041660208281019190915283015260085490820152600954606090910152919050565b5f60208284031215610556575f5ffd5b5035919050565b7f4e487b71000000000000000000000000000000000000000000000000000000005f52604160045260245ffd5b604051601f82017fffffffffffffffffffffffffffffffffffffffffffffffffffffffffffffffe016810167ffffffffffffffff811182821017156105d1576105d161055d565b604052919050565b5f602082840312156105e9575f5ffd5b813567ffffffffffffffff8111156105ff575f5ffd5b8201601f8101841361060f575f5ffd5b803567ffffffffffffffff8111156106295761062961055d565b61065a60207fffffffffffffffffffffffffffffffffffffffffffffffffffffffffffffffe0601f8401160161058a565b81815285602083850101111561066e575f5ffd5b816020840160208301375f91810160200191909152949350505050565b5f6020828403121561069b575f5ffd5b813573ffffffffffffffffffffffffffffffffffffffff811681146106be575f5ffd5b9392505050565b5f602082840312156106d5575f5ffd5b8135600381106106be575f5ffd5b5f81518084528060208401602086015e5f6020828601015260207fffffffffffffffffffffffffffffffffffffffffffffffffffffffffffffffe0601f83011685010191505092915050565b7f4e487b71000000000000000000000000000000000000000000000000000000005f52602160045260245ffd5b60038110610791577f4e487b71000000000000000000000000000000000000000000000000000000005f52602160045260245ffd5b9052565b602081526107bc60208201835173ffffffffffffffffffffffffffffffffffffffff169052565b5f60208301516107e4604084018273ffffffffffffffffffffffffffffffffffffffff169052565b506040830151606083015260608301516080830152608083015160a083015260a083015161018060c084015261081e6101a08401826106e3565b905060c084015161084760e085018273ffffffffffffffffffffffffffffffffffffffff169052565b5060e084015161085b61010085018261075c565b50610100840151805161ffff9081166101208601526020820151166101408501525061012084015161016084015261014090930151610180909201919091525090565b803561ffff811681146108af575f5ffd5b919050565b5f60408284031280156108c5575f5ffd5b506040805190810167ffffffffffffffff811182821017156108e9576108e961055d565b6040526108f58361089e565b81526109036020840161089e565b60208201529392505050565b600181811c9082168061092357607f821691505b60208210810361095a577f4e487b71000000000000000000000000000000000000000000000000000000005f52602260045260245ffd5b50919050565b601f8211156109a757805f5260205f20601f840160051c810160208510156109855750805b601f840160051c820191505b818110156109a4575f8155600101610991565b50505b505050565b815167ffffffffffffffff8111156109c6576109c661055d565b6109da816109d4845461090f565b84610960565b6020601f821160018114610a2b575f83156109f55750848201515b7fffffffffffffffffffffffffffffffffffffffffffffffffffffffffffffffff600385901b1c1916600184901b1784556109a4565b5f848152602081207fffffffffffffffffffffffffffffffffffffffffffffffffffffffffffffffe08516915b82811015610a785787850151825560209485019460019092019101610a58565b5084821015610ab457868401517fffffffffffffffffffffffffffffffffffffffffffffffffffffffffffffffff600387901b60f8161c191681555b50505050600190811b0190555056fea26469706673582212202abc013ccebe5908f8d8062a929d9e903f03d5a6b04836d7758a1dd0f461afc164736f6c634300081e0033","linkReferences":{}},"methodIdentifiers":{"build()":"8e1a55fc","withBinding(uint8)":"5ed4e8c7","withClaimAmount(uint256)":"06622b4f","withCreditor(address)":"6669047e","withDebtor(address)":"d3ecc750","withDeliveryDate(uint256)":"81cdb080","withDepositAmount(uint256)":"bcfe9b72","withDescription(string)":"26ea81ae","withDueBy(uint256)":"6ce10a61","withImpairmentGracePeriod(uint256)":"81091119","withLateFeeConfig((uint16,uint16))":"e3bed5a7","withToken(address)":"5523fceb"},"id":163}