{"abi":[{"type":"function","name":"NAME","inputs":[],"outputs":[{"name":"","type":"string","internalType":"string"}],"stateMutability":"view"},{"type":"function","name":"VERSION","inputs":[],"outputs":[{"name":"","type":"string","internalType":"string"}],"stateMutability":"view"},{"type":"function","name":"onERC1155BatchReceived","inputs":[{"name":"","type":"address","internalType":"address"},{"name":"","type":"address","internalType":"address"},{"name":"","type":"uint256[]","internalType":"uint256[]"},{"name":"","type":"uint256[]","internalType":"uint256[]"},{"name":"","type":"bytes","internalType":"bytes"}],"outputs":[{"name":"","type":"bytes4","internalType":"bytes4"}],"stateMutability":"pure"},{"type":"function","name":"onERC1155Received","inputs":[{"name":"","type":"address","internalType":"address"},{"name":"","type":"address","internalType":"address"},{"name":"","type":"uint256","internalType":"uint256"},{"name":"","type":"uint256","internalType":"uint256"},{"name":"","type":"bytes","internalType":"bytes"}],"outputs":[{"name":"","type":"bytes4","internalType":"bytes4"}],"stateMutability":"pure"},{"type":"function","name":"onERC721Received","inputs":[{"name":"","type":"address","internalType":"address"},{"name":"","type":"address","internalType":"address"},{"name":"","type":"uint256","internalType":"uint256"},{"name":"","type":"bytes","internalType":"bytes"}],"outputs":[{"name":"","type":"bytes4","internalType":"bytes4"}],"stateMutability":"pure"},{"type":"function","name":"supportsInterface","inputs":[{"name":"interfaceId","type":"bytes4","internalType":"bytes4"}],"outputs":[{"name":"","type":"bool","internalType":"bool"}],"stateMutability":"view"},{"type":"function","name":"tokensReceived","inputs":[{"name":"","type":"address","internalType":"address"},{"name":"","type":"address","internalType":"address"},{"name":"","type":"address","internalType":"address"},{"name":"","type":"uint256","internalType":"uint256"},{"name":"","type":"bytes","internalType":"bytes"},{"name":"","type":"bytes","internalType":"bytes"}],"outputs":[],"stateMutability":"pure"}],"bytecode":{"object":"0x6080604052348015600e575f5ffd5b506106a78061001c5f395ff3fe608060405234801561000f575f5ffd5b5060043610610079575f3560e01c8063a3f4df7e11610058578063a3f4df7e14610128578063bc197c8114610171578063f23a6e61146101ac578063ffa1ad74146101e5575f5ffd5b806223de291461007d57806301ffc9a714610097578063150b7a02146100bf575b5f5ffd5b61009561008b366004610372565b5050505050505050565b005b6100aa6100a536600461041b565b610221565b60405190151581526020015b60405180910390f35b6100f76100cd366004610461565b7f150b7a020000000000000000000000000000000000000000000000000000000095945050505050565b6040517fffffffff0000000000000000000000000000000000000000000000000000000090911681526020016100b6565b6101646040518060400160405280601881526020017f44656661756c742043616c6c6261636b2048616e646c6572000000000000000081525081565b6040516100b691906104cb565b6100f761017f36600461055f565b7fbc197c810000000000000000000000000000000000000000000000000000000098975050505050505050565b6100f76101ba3660046105fe565b7ff23a6e61000000000000000000000000000000000000000000000000000000009695505050505050565b6101646040518060400160405280600581526020017f312e302e3000000000000000000000000000000000000000000000000000000081525081565b5f7fffffffff0000000000000000000000000000000000000000000000000000000082167f4e2312e00000000000000000000000000000000000000000000000000000000014806102b357507fffffffff0000000000000000000000000000000000000000000000000000000082167f150b7a0200000000000000000000000000000000000000000000000000000000145b806102ff57507fffffffff0000000000000000000000000000000000000000000000000000000082167f01ffc9a700000000000000000000000000000000000000000000000000000000145b92915050565b803573ffffffffffffffffffffffffffffffffffffffff81168114610328575f5ffd5b919050565b5f5f83601f84011261033d575f5ffd5b50813567ffffffffffffffff811115610354575f5ffd5b60208301915083602082850101111561036b575f5ffd5b9250929050565b5f5f5f5f5f5f5f5f60c0898b031215610389575f5ffd5b61039289610305565b97506103a060208a01610305565b96506103ae60408a01610305565b955060608901359450608089013567ffffffffffffffff8111156103d0575f5ffd5b6103dc8b828c0161032d565b90955093505060a089013567ffffffffffffffff8111156103fb575f5ffd5b6104078b828c0161032d565b999c989b5096995094979396929594505050565b5f6020828403121561042b575f5ffd5b81357fffffffff000000000000000000000000000000000000000000000000000000008116811461045a575f5ffd5b9392505050565b5f5f5f5f5f60808688031215610475575f5ffd5b61047e86610305565b945061048c60208701610305565b935060408601359250606086013567ffffffffffffffff8111156104ae575f5ffd5b6104ba8882890161032d565b969995985093965092949392505050565b602081525f82518060208401528060208501604085015e5f6040828501015260407fffffffffffffffffffffffffffffffffffffffffffffffffffffffffffffffe0601f83011684010191505092915050565b5f5f83601f84011261052e575f5ffd5b50813567ffffffffffffffff811115610545575f5ffd5b6020830191508360208260051b850101111561036b575f5ffd5b5f5f5f5f5f5f5f5f60a0898b031215610576575f5ffd5b61057f89610305565b975061058d60208a01610305565b9650604089013567ffffffffffffffff8111156105a8575f5ffd5b6105b48b828c0161051e565b909750955050606089013567ffffffffffffffff8111156105d3575f5ffd5b6105df8b828c0161051e565b909550935050608089013567ffffffffffffffff8111156103fb575f5ffd5b5f5f5f5f5f5f60a08789031215610613575f5ffd5b61061c87610305565b955061062a60208801610305565b94506040870135935060608701359250608087013567ffffffffffffffff811115610653575f5ffd5b61065f89828a0161032d565b979a969950949750929593949250505056fea2646970667358221220bea4bbda62a6c4b4efa4ec54fd0fd5336e37fff7126cac8ce3abbd505871be5364736f6c634300081e0033","linkReferences":{}},"methodIdentifiers":{"NAME()":"a3f4df7e","VERSION()":"ffa1ad74","onERC1155BatchReceived(address,address,uint256[],uint256[],bytes)":"bc197c81","onERC1155Received(address,address,uint256,uint256,bytes)":"f23a6e61","onERC721Received(address,address,uint256,bytes)":"150b7a02","supportsInterface(bytes4)":"01ffc9a7","tokensReceived(address,address,address,uint256,bytes,bytes)":"0023de29"},"id":59}