{"abi":[{"type":"constructor","inputs":[{"name":"_approvalRegistry","type":"address","internalType":"address"},{"name":"_lockState","type":"uint8","internalType":"enum LockState"},{"name":"_coreProtocolFee","type":"uint256","internalType":"uint256"},{"name":"_feeExemptions","type":"address","internalType":"address"}],"stateMutability":"nonpayable"},{"type":"function","name":"CORE_PROTOCOL_FEE","inputs":[],"outputs":[{"name":"","type":"uint256","internalType":"uint256"}],"stateMutability":"view"},{"type":"function","name":"addToPaidCallbackWhitelist","inputs":[{"name":"callbackContract","type":"address","internalType":"address"},{"name":"selector","type":"bytes4","internalType":"bytes4"}],"outputs":[],"stateMutability":"nonpayable"},{"type":"function","name":"approvalRegistry","inputs":[],"outputs":[{"name":"","type":"address","internalType":"contract IBullaApprovalRegistry"}],"stateMutability":"view"},{"type":"function","name":"approve","inputs":[{"name":"to","type":"address","internalType":"address"},{"name":"claimId","type":"uint256","internalType":"uint256"}],"outputs":[],"stateMutability":"nonpayable"},{"type":"function","name":"approveFrom","inputs":[{"name":"from","type":"address","internalType":"address"},{"name":"to","type":"address","internalType":"address"},{"name":"claimId","type":"uint256","internalType":"uint256"}],"outputs":[],"stateMutability":"nonpayable"},{"type":"function","name":"balanceOf","inputs":[{"name":"owner","type":"address","internalType":"address"}],"outputs":[{"name":"","type":"uint256","internalType":"uint256"}],"stateMutability":"view"},{"type":"function","name":"cancelClaim","inputs":[{"name":"claimId","type":"uint256","internalType":"uint256"},{"name":"note","type":"string","internalType":"string"}],"outputs":[],"stateMutability":"nonpayable"},{"type":"function","name":"cancelClaimFrom","inputs":[{"name":"from","type":"address","internalType":"address"},{"name":"claimId","type":"uint256","internalType":"uint256"},{"name":"note","type":"string","internalType":"string"}],"outputs":[],"stateMutability":"nonpayable"},{"type":"function","name":"claimMetadata","inputs":[{"name":"","type":"uint256","internalType":"uint256"}],"outputs":[{"name":"tokenURI","type":"string","internalType":"string"},{"name":"attachmentURI","type":"string","internalType":"string"}],"stateMutability":"view"},{"type":"function","name":"claimMetadataGenerator","inputs":[],"outputs":[{"name":"","type":"address","internalType":"contract IClaimMetadataGenerator"}],"stateMutability":"view"},{"type":"function","name":"createClaim","inputs":[{"name":"params","type":"tuple","internalType":"struct CreateClaimParams","components":[{"name":"creditor","type":"address","internalType":"address"},{"name":"debtor","type":"address","internalType":"address"},{"name":"claimAmount","type":"uint256","internalType":"uint256"},{"name":"description","type":"string","internalType":"string"},{"name":"token","type":"address","internalType":"address"},{"name":"binding","type":"uint8","internalType":"enum ClaimBinding"},{"name":"dueBy","type":"uint256","internalType":"uint256"},{"name":"impairmentGracePeriod","type":"uint256","internalType":"uint256"}]}],"outputs":[{"name":"","type":"uint256","internalType":"uint256"}],"stateMutability":"payable"},{"type":"function","name":"createClaimFrom","inputs":[{"name":"from","type":"address","internalType":"address"},{"name":"params","type":"tuple","internalType":"struct CreateClaimParams","components":[{"name":"creditor","type":"address","internalType":"address"},{"name":"debtor","type":"address","internalType":"address"},{"name":"claimAmount","type":"uint256","internalType":"uint256"},{"name":"description","type":"string","internalType":"string"},{"name":"token","type":"address","internalType":"address"},{"name":"binding","type":"uint8","internalType":"enum ClaimBinding"},{"name":"dueBy","type":"uint256","internalType":"uint256"},{"name":"impairmentGracePeriod","type":"uint256","internalType":"uint256"}]}],"outputs":[{"name":"","type":"uint256","internalType":"uint256"}],"stateMutability":"payable"},{"type":"function","name":"createClaimWithMetadata","inputs":[{"name":"params","type":"tuple","internalType":"struct CreateClaimParams","components":[{"name":"creditor","type":"address","internalType":"address"},{"name":"debtor","type":"address","internalType":"address"},{"name":"claimAmount","type":"uint256","internalType":"uint256"},{"name":"description","type":"string","internalType":"string"},{"name":"token","type":"address","internalType":"address"},{"name":"binding","type":"uint8","internalType":"enum ClaimBinding"},{"name":"dueBy","type":"uint256","internalType":"uint256"},{"name":"impairmentGracePeriod","type":"uint256","internalType":"uint256"}]},{"name":"metadata","type":"tuple","internalType":"struct ClaimMetadata","components":[{"name":"tokenURI","type":"string","internalType":"string"},{"name":"attachmentURI","type":"string","internalType":"string"}]}],"outputs":[{"name":"","type":"uint256","internalType":"uint256"}],"stateMutability":"payable"},{"type":"function","name":"createClaimWithMetadataFrom","inputs":[{"name":"from","type":"address","internalType":"address"},{"name":"params","type":"tuple","internalType":"struct CreateClaimParams","components":[{"name":"creditor","type":"address","internalType":"address"},{"name":"debtor","type":"address","internalType":"address"},{"name":"claimAmount","type":"uint256","internalType":"uint256"},{"name":"description","type":"string","internalType":"string"},{"name":"token","type":"address","internalType":"address"},{"name":"binding","type":"uint8","internalType":"enum ClaimBinding"},{"name":"dueBy","type":"uint256","internalType":"uint256"},{"name":"impairmentGracePeriod","type":"uint256","internalType":"uint256"}]},{"name":"metadata","type":"tuple","internalType":"struct ClaimMetadata","components":[{"name":"tokenURI","type":"string","internalType":"string"},{"name":"attachmentURI","type":"string","internalType":"string"}]}],"outputs":[{"name":"","type":"uint256","internalType":"uint256"}],"stateMutability":"payable"},{"type":"function","name":"currentClaimId","inputs":[],"outputs":[{"name":"","type":"uint256","internalType":"uint256"}],"stateMutability":"view"},{"type":"function","name":"feeExemptions","inputs":[],"outputs":[{"name":"","type":"address","internalType":"contract IPermissions"}],"stateMutability":"view"},{"type":"function","name":"getApproved","inputs":[{"name":"tokenId","type":"uint256","internalType":"uint256"}],"outputs":[{"name":"","type":"address","internalType":"address"}],"stateMutability":"view"},{"type":"function","name":"getClaim","inputs":[{"name":"claimId","type":"uint256","internalType":"uint256"}],"outputs":[{"name":"claim","type":"tuple","internalType":"struct Claim","components":[{"name":"claimAmount","type":"uint256","internalType":"uint256"},{"name":"paidAmount","type":"uint256","internalType":"uint256"},{"name":"dueBy","type":"uint256","internalType":"uint256"},{"name":"impairmentGracePeriod","type":"uint256","internalType":"uint256"},{"name":"originalCreditor","type":"address","internalType":"address"},{"name":"debtor","type":"address","internalType":"address"},{"name":"creditor","type":"address","internalType":"address"},{"name":"token","type":"address","internalType":"address"},{"name":"controller","type":"address","internalType":"address"},{"name":"status","type":"uint8","internalType":"enum Status"},{"name":"binding","type":"uint8","internalType":"enum ClaimBinding"}]}],"stateMutability":"view"},{"type":"function","name":"getPaidClaimCallback","inputs":[{"name":"claimId","type":"uint256","internalType":"uint256"}],"outputs":[{"name":"","type":"tuple","internalType":"struct PaidClaimCallback","components":[{"name":"callbackContract","type":"address","internalType":"address"},{"name":"callbackSelector","type":"bytes4","internalType":"bytes4"}]}],"stateMutability":"view"},{"type":"function","name":"impairClaim","inputs":[{"name":"claimId","type":"uint256","internalType":"uint256"}],"outputs":[],"stateMutability":"nonpayable"},{"type":"function","name":"impairClaimFrom","inputs":[{"name":"from","type":"address","internalType":"address"},{"name":"claimId","type":"uint256","internalType":"uint256"}],"outputs":[],"stateMutability":"nonpayable"},{"type":"function","name":"isApprovedForAll","inputs":[{"name":"owner","type":"address","internalType":"address"},{"name":"operator","type":"address","internalType":"address"}],"outputs":[{"name":"","type":"bool","internalType":"bool"}],"stateMutability":"view"},{"type":"function","name":"isPaidCallbackWhitelisted","inputs":[{"name":"callbackContract","type":"address","internalType":"address"},{"name":"selector","type":"bytes4","internalType":"bytes4"}],"outputs":[{"name":"","type":"bool","internalType":"bool"}],"stateMutability":"view"},{"type":"function","name":"lockState","inputs":[],"outputs":[{"name":"","type":"uint8","internalType":"enum LockState"}],"stateMutability":"view"},{"type":"function","name":"markClaimAsPaid","inputs":[{"name":"claimId","type":"uint256","internalType":"uint256"}],"outputs":[],"stateMutability":"nonpayable"},{"type":"function","name":"markClaimAsPaidFrom","inputs":[{"name":"from","type":"address","internalType":"address"},{"name":"claimId","type":"uint256","internalType":"uint256"}],"outputs":[],"stateMutability":"nonpayable"},{"type":"function","name":"name","inputs":[],"outputs":[{"name":"","type":"string","internalType":"string"}],"stateMutability":"view"},{"type":"function","name":"owner","inputs":[],"outputs":[{"name":"","type":"address","internalType":"address"}],"stateMutability":"view"},{"type":"function","name":"ownerOf","inputs":[{"name":"claimId","type":"uint256","internalType":"uint256"}],"outputs":[{"name":"","type":"address","internalType":"address"}],"stateMutability":"view"},{"type":"function","name":"paidCallbackWhitelist","inputs":[{"name":"","type":"address","internalType":"address"},{"name":"","type":"bytes4","internalType":"bytes4"}],"outputs":[{"name":"","type":"bool","internalType":"bool"}],"stateMutability":"view"},{"type":"function","name":"payClaim","inputs":[{"name":"claimId","type":"uint256","internalType":"uint256"},{"name":"amount","type":"uint256","internalType":"uint256"}],"outputs":[],"stateMutability":"payable"},{"type":"function","name":"payClaimFrom","inputs":[{"name":"from","type":"address","internalType":"address"},{"name":"claimId","type":"uint256","internalType":"uint256"},{"name":"amount","type":"uint256","internalType":"uint256"}],"outputs":[],"stateMutability":"payable"},{"type":"function","name":"payClaimFromControllerWithoutTransfer","inputs":[{"name":"from","type":"address","internalType":"address"},{"name":"claimId","type":"uint256","internalType":"uint256"},{"name":"amount","type":"uint256","internalType":"uint256"}],"outputs":[{"name":"claimPaid","type":"bool","internalType":"bool"}],"stateMutability":"nonpayable"},{"type":"function","name":"removeFromPaidCallbackWhitelist","inputs":[{"name":"callbackContract","type":"address","internalType":"address"},{"name":"selector","type":"bytes4","internalType":"bytes4"}],"outputs":[],"stateMutability":"nonpayable"},{"type":"function","name":"renounceOwnership","inputs":[],"outputs":[],"stateMutability":"nonpayable"},{"type":"function","name":"safeTransferFrom","inputs":[{"name":"from","type":"address","internalType":"address"},{"name":"to","type":"address","internalType":"address"},{"name":"tokenId","type":"uint256","internalType":"uint256"}],"outputs":[],"stateMutability":"nonpayable"},{"type":"function","name":"safeTransferFrom","inputs":[{"name":"from","type":"address","internalType":"address"},{"name":"to","type":"address","internalType":"address"},{"name":"claimId","type":"uint256","internalType":"uint256"},{"name":"data","type":"bytes","internalType":"bytes"}],"outputs":[],"stateMutability":"nonpayable"},{"type":"function","name":"safeTransferFromFrom","inputs":[{"name":"fromAkaOriginalMsgSender","type":"address","internalType":"address"},{"name":"fromAkaNftOwner","type":"address","internalType":"address"},{"name":"to","type":"address","internalType":"address"},{"name":"claimId","type":"uint256","internalType":"uint256"},{"name":"data","type":"bytes","internalType":"bytes"}],"outputs":[],"stateMutability":"nonpayable"},{"type":"function","name":"setApprovalForAll","inputs":[{"name":"","type":"address","internalType":"address"},{"name":"","type":"bool","internalType":"bool"}],"outputs":[],"stateMutability":"pure"},{"type":"function","name":"setClaimMetadataGenerator","inputs":[{"name":"_metadataGenerator","type":"address","internalType":"address"}],"outputs":[],"stateMutability":"nonpayable"},{"type":"function","name":"setCoreProtocolFee","inputs":[{"name":"_coreProtocolFee","type":"uint256","internalType":"uint256"}],"outputs":[],"stateMutability":"nonpayable"},{"type":"function","name":"setFeeExemptions","inputs":[{"name":"_feeExemptions","type":"address","internalType":"address"}],"outputs":[],"stateMutability":"nonpayable"},{"type":"function","name":"setLockState","inputs":[{"name":"_lockState","type":"uint8","internalType":"enum LockState"}],"outputs":[],"stateMutability":"nonpayable"},{"type":"function","name":"setPaidClaimCallback","inputs":[{"name":"claimId","type":"uint256","internalType":"uint256"},{"name":"callbackContract","type":"address","internalType":"address"},{"name":"callbackSelector","type":"bytes4","internalType":"bytes4"}],"outputs":[],"stateMutability":"nonpayable"},{"type":"function","name":"setPaidClaimCallbackFrom","inputs":[{"name":"from","type":"address","internalType":"address"},{"name":"claimId","type":"uint256","internalType":"uint256"},{"name":"callbackContract","type":"address","internalType":"address"},{"name":"callbackSelector","type":"bytes4","internalType":"bytes4"}],"outputs":[],"stateMutability":"nonpayable"},{"type":"function","name":"supportsInterface","inputs":[{"name":"interfaceId","type":"bytes4","internalType":"bytes4"}],"outputs":[{"name":"","type":"bool","internalType":"bool"}],"stateMutability":"view"},{"type":"function","name":"symbol","inputs":[],"outputs":[{"name":"","type":"string","internalType":"string"}],"stateMutability":"view"},{"type":"function","name":"tokenURI","inputs":[{"name":"claimId","type":"uint256","internalType":"uint256"}],"outputs":[{"name":"","type":"string","internalType":"string"}],"stateMutability":"view"},{"type":"function","name":"transferFrom","inputs":[{"name":"from","type":"address","internalType":"address"},{"name":"to","type":"address","internalType":"address"},{"name":"claimId","type":"uint256","internalType":"uint256"}],"outputs":[],"stateMutability":"nonpayable"},{"type":"function","name":"transferFromFrom","inputs":[{"name":"fromAkaOriginalMsgSender","type":"address","internalType":"address"},{"name":"fromAkaNftOwner","type":"address","internalType":"address"},{"name":"to","type":"address","internalType":"address"},{"name":"claimId","type":"uint256","internalType":"uint256"}],"outputs":[],"stateMutability":"nonpayable"},{"type":"function","name":"transferOwnership","inputs":[{"name":"newOwner","type":"address","internalType":"address"}],"outputs":[],"stateMutability":"nonpayable"},{"type":"function","name":"updateBinding","inputs":[{"name":"claimId","type":"uint256","internalType":"uint256"},{"name":"binding","type":"uint8","internalType":"enum ClaimBinding"}],"outputs":[],"stateMutability":"nonpayable"},{"type":"function","name":"updateBindingFrom","inputs":[{"name":"from","type":"address","internalType":"address"},{"name":"claimId","type":"uint256","internalType":"uint256"},{"name":"binding","type":"uint8","internalType":"enum ClaimBinding"}],"outputs":[],"stateMutability":"nonpayable"},{"type":"function","name":"withdrawAllFees","inputs":[],"outputs":[],"stateMutability":"nonpayable"},{"type":"event","name":"Approval","inputs":[{"name":"owner","type":"address","indexed":true,"internalType":"address"},{"name":"approved","type":"address","indexed":true,"internalType":"address"},{"name":"tokenId","type":"uint256","indexed":true,"internalType":"uint256"}],"anonymous":false},{"type":"event","name":"ApprovalForAll","inputs":[{"name":"owner","type":"address","indexed":true,"internalType":"address"},{"name":"operator","type":"address","indexed":true,"internalType":"address"},{"name":"approved","type":"bool","indexed":false,"internalType":"bool"}],"anonymous":false},{"type":"event","name":"BindingUpdated","inputs":[{"name":"claimId","type":"uint256","indexed":true,"internalType":"uint256"},{"name":"from","type":"address","indexed":true,"internalType":"address"},{"name":"binding","type":"uint8","indexed":true,"internalType":"enum ClaimBinding"}],"anonymous":false},{"type":"event","name":"CallbackRemovedFromWhitelist","inputs":[{"name":"callbackContract","type":"address","indexed":true,"internalType":"address"},{"name":"selector","type":"bytes4","indexed":true,"internalType":"bytes4"}],"anonymous":false},{"type":"event","name":"CallbackWhitelisted","inputs":[{"name":"callbackContract","type":"address","indexed":true,"internalType":"address"},{"name":"selector","type":"bytes4","indexed":true,"internalType":"bytes4"}],"anonymous":false},{"type":"event","name":"ClaimCreated","inputs":[{"name":"claimId","type":"uint256","indexed":true,"internalType":"uint256"},{"name":"from","type":"address","indexed":false,"internalType":"address"},{"name":"creditor","type":"address","indexed":true,"internalType":"address"},{"name":"debtor","type":"address","indexed":true,"internalType":"address"},{"name":"claimAmount","type":"uint256","indexed":false,"internalType":"uint256"},{"name":"dueBy","type":"uint256","indexed":false,"internalType":"uint256"},{"name":"description","type":"string","indexed":false,"internalType":"string"},{"name":"token","type":"address","indexed":false,"internalType":"address"},{"name":"controller","type":"address","indexed":false,"internalType":"address"},{"name":"binding","type":"uint8","indexed":false,"internalType":"enum ClaimBinding"}],"anonymous":false},{"type":"event","name":"ClaimImpaired","inputs":[{"name":"claimId","type":"uint256","indexed":true,"internalType":"uint256"}],"anonymous":false},{"type":"event","name":"ClaimMarkedAsPaid","inputs":[{"name":"claimId","type":"uint256","indexed":true,"internalType":"uint256"}],"anonymous":false},{"type":"event","name":"ClaimPayment","inputs":[{"name":"claimId","type":"uint256","indexed":true,"internalType":"uint256"},{"name":"paidBy","type":"address","indexed":true,"internalType":"address"},{"name":"paymentAmount","type":"uint256","indexed":false,"internalType":"uint256"},{"name":"totalPaidAmount","type":"uint256","indexed":false,"internalType":"uint256"}],"anonymous":false},{"type":"event","name":"ClaimRejected","inputs":[{"name":"claimId","type":"uint256","indexed":true,"internalType":"uint256"},{"name":"from","type":"address","indexed":true,"internalType":"address"},{"name":"note","type":"string","indexed":false,"internalType":"string"}],"anonymous":false},{"type":"event","name":"ClaimRescinded","inputs":[{"name":"claimId","type":"uint256","indexed":true,"internalType":"uint256"},{"name":"from","type":"address","indexed":true,"internalType":"address"},{"name":"note","type":"string","indexed":false,"internalType":"string"}],"anonymous":false},{"type":"event","name":"FeeWithdrawn","inputs":[{"name":"owner","type":"address","indexed":true,"internalType":"address"},{"name":"amount","type":"uint256","indexed":false,"internalType":"uint256"}],"anonymous":false},{"type":"event","name":"MetadataAdded","inputs":[{"name":"claimId","type":"uint256","indexed":true,"internalType":"uint256"},{"name":"tokenURI","type":"string","indexed":false,"internalType":"string"},{"name":"attachmentURI","type":"string","indexed":false,"internalType":"string"}],"anonymous":false},{"type":"event","name":"OwnershipTransferred","inputs":[{"name":"previousOwner","type":"address","indexed":true,"internalType":"address"},{"name":"newOwner","type":"address","indexed":true,"internalType":"address"}],"anonymous":false},{"type":"event","name":"PaidClaimCallbackSet","inputs":[{"name":"claimId","type":"uint256","indexed":true,"internalType":"uint256"},{"name":"callbackContract","type":"address","indexed":true,"internalType":"address"},{"name":"selector","type":"bytes4","indexed":false,"internalType":"bytes4"}],"anonymous":false},{"type":"event","name":"Transfer","inputs":[{"name":"from","type":"address","indexed":true,"internalType":"address"},{"name":"to","type":"address","indexed":true,"internalType":"address"},{"name":"tokenId","type":"uint256","indexed":true,"internalType":"uint256"}],"anonymous":false},{"type":"error","name":"ApprovalExpired","inputs":[]},{"type":"error","name":"CallbackFailed","inputs":[{"name":"data","type":"bytes","internalType":"bytes"}]},{"type":"error","name":"CallbackNotWhitelisted","inputs":[]},{"type":"error","name":"CannotBindClaim","inputs":[]},{"type":"error","name":"ClaimBound","inputs":[]},{"type":"error","name":"ClaimNotPending","inputs":[]},{"type":"error","name":"ClaimPending","inputs":[]},{"type":"error","name":"ERC721IncorrectOwner","inputs":[{"name":"sender","type":"address","internalType":"address"},{"name":"tokenId","type":"uint256","internalType":"uint256"},{"name":"owner","type":"address","internalType":"address"}]},{"type":"error","name":"ERC721InsufficientApproval","inputs":[{"name":"operator","type":"address","internalType":"address"},{"name":"tokenId","type":"uint256","internalType":"uint256"}]},{"type":"error","name":"ERC721InvalidApprover","inputs":[{"name":"approver","type":"address","internalType":"address"}]},{"type":"error","name":"ERC721InvalidOperator","inputs":[{"name":"operator","type":"address","internalType":"address"}]},{"type":"error","name":"ERC721InvalidOwner","inputs":[{"name":"owner","type":"address","internalType":"address"}]},{"type":"error","name":"ERC721InvalidReceiver","inputs":[{"name":"receiver","type":"address","internalType":"address"}]},{"type":"error","name":"ERC721InvalidSender","inputs":[{"name":"sender","type":"address","internalType":"address"}]},{"type":"error","name":"ERC721NonexistentToken","inputs":[{"name":"tokenId","type":"uint256","internalType":"uint256"}]},{"type":"error","name":"IncorrectFee","inputs":[]},{"type":"error","name":"IncorrectMsgValue","inputs":[]},{"type":"error","name":"InvalidInterface","inputs":[]},{"type":"error","name":"Locked","inputs":[]},{"type":"error","name":"MustBeControlledClaim","inputs":[]},{"type":"error","name":"NotApproved","inputs":[]},{"type":"error","name":"NotController","inputs":[{"name":"sender","type":"address","internalType":"address"}]},{"type":"error","name":"NotCreditor","inputs":[]},{"type":"error","name":"NotCreditorOrDebtor","inputs":[]},{"type":"error","name":"NotMinted","inputs":[]},{"type":"error","name":"NotOwner","inputs":[]},{"type":"error","name":"NotSupported","inputs":[]},{"type":"error","name":"OverPaying","inputs":[{"name":"paymentAmount","type":"uint256","internalType":"uint256"}]},{"type":"error","name":"OwnableInvalidOwner","inputs":[{"name":"owner","type":"address","internalType":"address"}]},{"type":"error","name":"OwnableUnauthorizedAccount","inputs":[{"name":"account","type":"address","internalType":"address"}]},{"type":"error","name":"PastApprovalDeadline","inputs":[]},{"type":"error","name":"PayingZero","inputs":[]},{"type":"error","name":"PaymentUnderApproved","inputs":[]},{"type":"error","name":"WithdrawalFailed","inputs":[]}],"bytecode":{"object":"0x608060405234801561000f575f5ffd5b5060405161570338038061570383398101604081905261002e9161019f565b336040518060400160405280600c81526020016b213ab63630a1b630b4b6ab1960a11b81525060405180604001604052806005815260200164434c41494d60d81b815250815f90816100809190610287565b50600161008d8282610287565b5050506001600160a01b0381166100bd57604051631e4fbdf760e01b81525f600482015260240160405180910390fd5b6100c681610133565b50600b80546001600160a01b0319166001600160a01b0386161790556009805484919060ff1916600183600281111561010157610101610341565b0217905550600d91909155600e80546001600160a01b0319166001600160a01b03909216919091179055506103559050565b600680546001600160a01b038381166001600160a01b0319831681179093556040519116919082907f8be0079c531659141344cd1fd0a4f28419497f9722a3daafe3b4186f6b6457e0905f90a35050565b80516001600160a01b038116811461019a575f5ffd5b919050565b5f5f5f5f608085870312156101b2575f5ffd5b6101bb85610184565b93506020850151600381106101ce575f5ffd5b604086015190935091506101e460608601610184565b905092959194509250565b634e487b7160e01b5f52604160045260245ffd5b600181811c9082168061021757607f821691505b60208210810361023557634e487b7160e01b5f52602260045260245ffd5b50919050565b601f82111561028257805f5260205f20601f840160051c810160208510156102605750805b601f840160051c820191505b8181101561027f575f815560010161026c565b50505b505050565b81516001600160401b038111156102a0576102a06101ef565b6102b4816102ae8454610203565b8461023b565b6020601f8211600181146102e6575f83156102cf5750848201515b5f19600385901b1c1916600184901b17845561027f565b5f84815260208120601f198516915b8281101561031557878501518255602094850194600190920191016102f5565b508482101561033257868401515f19600387901b60f8161c191681555b50505050600190811b01905550565b634e487b7160e01b5f52602160045260245ffd5b6153a1806103625f395ff3fe608060405260043610610343575f3560e01c8063708cf832116101b2578063b8f34269116100f2578063d3e3975011610092578063e9c1d0c01161006d578063e9c1d0c014610ac6578063ea73e11f14610ae5578063f2fde38b14610b1e578063fcf391e014610b3d575f5ffd5b8063d3e397501461095b578063d6700bef1461097a578063e985e9c514610a72575f5ffd5b8063c1e04045116100cd578063c1e04045146108f7578063c87b56dd1461090a578063c99c444814610929578063cbe5a9af1461093c575f5ffd5b8063b8f3426914610899578063ba9a8094146108c5578063c07cae88146108d8575f5ffd5b80638da5cb5b1161015d578063a94c68df11610138578063a94c68df14610828578063af236af414610847578063af9fe4de1461085b578063b88d4fde1461087a575f5ffd5b80638da5cb5b146107e157806395d89b41146107f5578063a22cb46514610809575f5ffd5b806372806c5a1161018d57806372806c5a146107425780637649d6de146107575780638204c627146107cc575f5ffd5b8063708cf832146106f057806370a082311461070f578063715018a61461072e575f5ffd5b806328f60a7c1161028857806352ec8529116102285780636352211e116102035780636352211e146106595780636418bde91461067857806364af6692146106975780636d928375146106c3575f5ffd5b806352ec8529146105ef5780635aef24471461060e5780635edc84eb1461063a575f5ffd5b80633cc92b99116102635780633cc92b991461056c57806342842e0e1461058b57806343d073bb146105aa57806346be9c48146105c9575f5ffd5b806328f60a7c1461050f5780632a982aeb1461052e5780633081ed8a1461054d575f5ffd5b8063083c8182116102f3578063185a34f2116102ce578063185a34f21461049f5780631cecb254146104b257806320d436d3146104d157806323b872dd146104f0575f5ffd5b8063083c81821461044c578063095ea7b31461046d5780631461f1261461048c575f5ffd5b806301ffc9a71161032357806301ffc9a7146103ed57806306fdde031461040c578063081812fc1461042d575f5ffd5b80624b3829146103475780628c10751461036d57806301a2cae81461039c575b5f5ffd5b61035a6103553660046141a7565b610b5c565b6040519081526020015b60405180910390f35b348015610378575f5ffd5b5061038c61038736600461421b565b610c0b565b6040519015158152602001610364565b3480156103a7575f5ffd5b50600e546103c89073ffffffffffffffffffffffffffffffffffffffff1681565b60405173ffffffffffffffffffffffffffffffffffffffff9091168152602001610364565b3480156103f8575f5ffd5b5061038c610407366004614278565b610cdb565b348015610417575f5ffd5b50610420610ceb565b60405161036491906142df565b348015610438575f5ffd5b506103c86104473660046142f1565b610d7a565b348015610457575f5ffd5b5061046b610466366004614308565b610dae565b005b348015610478575f5ffd5b5061046b610487366004614321565b610dfd565b61035a61049a366004614349565b610e0c565b61035a6104ad366004614394565b610eb9565b3480156104bd575f5ffd5b5061046b6104cc3660046142f1565b610ec4565b3480156104dc575f5ffd5b5061046b6104eb3660046142f1565b610ed1565b3480156104fb575f5ffd5b5061046b61050a3660046143c6565b610ede565b34801561051a575f5ffd5b5061046b6105293660046142f1565b610eef565b348015610539575f5ffd5b5061046b610548366004614321565b610ef9565b348015610558575f5ffd5b5061046b610567366004614321565b610f5f565b348015610577575f5ffd5b5061046b610586366004614400565b610fc5565b348015610596575f5ffd5b5061046b6105a53660046143c6565b611070565b3480156105b5575f5ffd5b5061046b6105c436600461444c565b61108a565b3480156105d4575f5ffd5b506009546105e29060ff1681565b60405161036491906144a4565b3480156105fa575f5ffd5b5061046b6106093660046143c6565b6110d7565b348015610619575f5ffd5b5061062d6106283660046142f1565b611147565b60405161036491906145e9565b348015610645575f5ffd5b5061046b6106543660046145f8565b61148a565b348015610664575f5ffd5b506103c86106733660046142f1565b611495565b348015610683575f5ffd5b5061046b61069236600461461b565b6114be565b3480156106a2575f5ffd5b50600b546103c89073ffffffffffffffffffffffffffffffffffffffff1681565b3480156106ce575f5ffd5b506106e26106dd3660046142f1565b611525565b604051610364929190614658565b3480156106fb575f5ffd5b5061046b61070a3660046146c1565b61164c565b34801561071a575f5ffd5b5061035a610729366004614308565b6116b4565b348015610739575f5ffd5b5061046b61172c565b34801561074d575f5ffd5b5061035a600a5481565b348015610762575f5ffd5b5061038c610771366004614400565b73ffffffffffffffffffffffffffffffffffffffff82165f908152600f602090815260408083207fffffffff000000000000000000000000000000000000000000000000000000008516845290915290205460ff1692915050565b3480156107d7575f5ffd5b5061035a600d5481565b3480156107ec575f5ffd5b506103c861173f565b348015610800575f5ffd5b50610420611764565b348015610814575f5ffd5b5061046b610823366004614724565b611773565b348015610833575f5ffd5b5061046b61084236600461474e565b6117a5565b348015610852575f5ffd5b5061046b6117b1565b348015610866575f5ffd5b5061046b610875366004614780565b6118b8565b348015610885575f5ffd5b5061046b6108943660046148db565b61192a565b3480156108a4575f5ffd5b50600c546103c89073ffffffffffffffffffffffffffffffffffffffff1681565b61046b6108d336600461421b565b611937565b3480156108e3575f5ffd5b5061046b6108f236600461493f565b6119a2565b61035a610905366004614987565b6119ae565b348015610915575f5ffd5b506104206109243660046142f1565b6119ba565b61046b6109373660046149e2565b611b56565b348015610947575f5ffd5b5061046b610956366004614400565b611b6e565b348015610966575f5ffd5b5061046b610975366004614308565b611c63565b348015610985575f5ffd5b50610a1f6109943660046142f1565b604080518082019091525f8082526020820152505f9081526010602090815260409182902082518084019093525473ffffffffffffffffffffffffffffffffffffffff8116835274010000000000000000000000000000000000000000900460e01b7fffffffff00000000000000000000000000000000000000000000000000000000169082015290565b60408051825173ffffffffffffffffffffffffffffffffffffffff1681526020928301517fffffffff00000000000000000000000000000000000000000000000000000000169281019290925201610364565b348015610a7d575f5ffd5b5061038c610a8c366004614a02565b73ffffffffffffffffffffffffffffffffffffffff9182165f90815260056020908152604080832093909416825291909152205460ff1690565b348015610ad1575f5ffd5b5061046b610ae0366004614a33565b611cb2565b348015610af0575f5ffd5b5061038c610aff366004614400565b600f60209081525f928352604080842090915290825290205460ff1681565b348015610b29575f5ffd5b5061046b610b38366004614308565b611d73565b348015610b48575f5ffd5b5061046b610b57366004614a7f565b611dd3565b600b545f9073ffffffffffffffffffffffffffffffffffffffff1663e5a39c928533610b8b6020880188614308565b610b9b6040890160208a01614308565b610bab60c08a0160a08b0161444c565b6040518663ffffffff1660e01b8152600401610bcb959493929190614af3565b5f604051808303815f87803b158015610be2575f5ffd5b505af1158015610bf4573d5f5f3e3d5ffd5b50505050610c03848484611e47565b949350505050565b5f5f610c1684611147565b61010081015190915073ffffffffffffffffffffffffffffffffffffffff16610c6b576040517f0e92b2c600000000000000000000000000000000000000000000000000000000815260040160405180910390fd5b61010081015173ffffffffffffffffffffffffffffffffffffffff163314610cc6576040517f66719b7a0000000000000000000000000000000000000000000000000000000081523360048201526024015b60405180910390fd5b610cd285858386611ecb565b95945050505050565b5f610ce582612055565b92915050565b60605f8054610cf990614b41565b80601f0160208091040260200160405190810160405280929190818152602001828054610d2590614b41565b8015610d705780601f10610d4757610100808354040283529160200191610d70565b820191905f5260205f20905b815481529060010190602001808311610d5357829003601f168201915b5050505050905090565b5f610d8482612137565b505f8281526004602052604090205473ffffffffffffffffffffffffffffffffffffffff16610ce5565b610db6612195565b600e80547fffffffffffffffffffffffff00000000000000000000000000000000000000001673ffffffffffffffffffffffffffffffffffffffff92909216919091179055565b610e083383836121ed565b5050565b600b545f9073ffffffffffffffffffffffffffffffffffffffff1663e5a39c928433610e3b6020870187614308565b610e4b6040880160208901614308565b610e5b60c0890160a08a0161444c565b6040518663ffffffff1660e01b8152600401610e7b959493929190614af3565b5f604051808303815f87803b158015610e92575f5ffd5b505af1158015610ea4573d5f5f3e3d5ffd5b50505050610eb28383612299565b9392505050565b5f610ce53383612299565b610ece33826127e2565b50565b610ed9612195565b600d55565b610eea33848484612a22565b505050565b610ece3382612bac565b5f610f0382611147565b610100015173ffffffffffffffffffffffffffffffffffffffff1603610f55576040517f0e92b2c600000000000000000000000000000000000000000000000000000000815260040160405180910390fd5b610e0882826127e2565b5f610f6982611147565b610100015173ffffffffffffffffffffffffffffffffffffffff1603610fbb576040517f0e92b2c600000000000000000000000000000000000000000000000000000000815260040160405180910390fd5b610e088282612bac565b610fcd612195565b73ffffffffffffffffffffffffffffffffffffffff82165f818152600f602090815260408083207fffffffff000000000000000000000000000000000000000000000000000000008616808552925280832080547fffffffffffffffffffffffffffffffffffffffffffffffffffffffffffffff00169055519092917f36112db5f88f36037ce600104320a87f5636f34183686bbc76a66ec5588fccc991a35050565b610eea83838360405180602001604052805f81525061192a565b611092612195565b600980548291907fffffffffffffffffffffffffffffffffffffffffffffffffffffffffffffff001660018360028111156110cf576110cf614467565b021790555050565b5f6110e182611147565b61010081015190915073ffffffffffffffffffffffffffffffffffffffff16611136576040517f0e92b2c600000000000000000000000000000000000000000000000000000000815260040160405180910390fd5b6111418484846121ed565b50505050565b6111a360408051610160810182525f80825260208201819052918101829052606081018290526080810182905260a0810182905260c0810182905260e0810182905261010081018290529061012082019081526020015f905290565b600a5482106111de576040517f4d5e5fb300000000000000000000000000000000000000000000000000000000815260040160405180910390fd5b5f82815260076020908152604080832081516101408101835281546fffffffffffffffffffffffffffffffff80821683527001000000000000000000000000000000009091041693810193909352600181015473ffffffffffffffffffffffffffffffffffffffff90811692840192909252600281015482166060840152600381015482166080840152600481015491821660a08401529060c083019074010000000000000000000000000000000000000000900460ff1660058111156112a7576112a7614467565b60058111156112b8576112b8614467565b81526020016004820160159054906101000a900460ff1660028111156112e0576112e0614467565b60028111156112f1576112f1614467565b81526004919091015464ffffffffff760100000000000000000000000000000000000000000000820481166020808501919091527b01000000000000000000000000000000000000000000000000000000909204811660409384015282516101608101845284516fffffffffffffffffffffffffffffffff9081168252858401511692810192909252610100840151811682840152610120840151166060808301919091529183015173ffffffffffffffffffffffffffffffffffffffff90811660808301529183015190911660a082015290915060c081016113f5855f9081526002602052604090205473ffffffffffffffffffffffffffffffffffffffff1690565b73ffffffffffffffffffffffffffffffffffffffff168152602001826080015173ffffffffffffffffffffffffffffffffffffffff1681526020018260a0015173ffffffffffffffffffffffffffffffffffffffff1681526020018260c00151600581111561146657611466614467565b81526020018260e00151600281111561148157611481614467565b90529392505050565b610e08338383612d62565b5f8181526002602052604081205473ffffffffffffffffffffffffffffffffffffffff16610ce5565b5f6114c883611147565b610100015173ffffffffffffffffffffffffffffffffffffffff160361151a576040517f0e92b2c600000000000000000000000000000000000000000000000000000000815260040160405180910390fd5b610eea838383612d62565b60086020525f908152604090208054819061153f90614b41565b80601f016020809104026020016040519081016040528092919081815260200182805461156b90614b41565b80156115b65780601f1061158d576101008083540402835291602001916115b6565b820191905f5260205f20905b81548152906001019060200180831161159957829003601f168201915b5050505050908060010180546115cb90614b41565b80601f01602080910402602001604051908101604052809291908181526020018280546115f790614b41565b80156116425780601f1061161957610100808354040283529160200191611642565b820191905f5260205f20905b81548152906001019060200180831161162557829003601f168201915b5050505050905082565b5f61165684611147565b610100015173ffffffffffffffffffffffffffffffffffffffff16036116a8576040517f0e92b2c600000000000000000000000000000000000000000000000000000000815260040160405180910390fd5b61114184848484612f5e565b5f73ffffffffffffffffffffffffffffffffffffffff8216611704576040517f89c62b640000000000000000000000000000000000000000000000000000000081525f6004820152602401610cbd565b5073ffffffffffffffffffffffffffffffffffffffff165f9081526003602052604090205490565b611734612195565b61173d5f613225565b565b5f61175f60065473ffffffffffffffffffffffffffffffffffffffff1690565b905090565b606060018054610cf990614b41565b6040517fa038794000000000000000000000000000000000000000000000000000000000815260040160405180910390fd5b610eea3384848461329b565b6117b9612195565b478015610ece575f6117c961173f565b73ffffffffffffffffffffffffffffffffffffffff16826040515f6040518083038185875af1925050503d805f811461181d576040519150601f19603f3d011682016040523d82523d5f602084013e611822565b606091505b505090508061185d576040517f27fcd9d100000000000000000000000000000000000000000000000000000000815260040160405180910390fd5b61186561173f565b73ffffffffffffffffffffffffffffffffffffffff167f78473f3f373f7673597f4f0fa5873cb4d375fea6d4339ad6b56dbd411513cb3f836040516118ac91815260200190565b60405180910390a25050565b5f6118c282611147565b61010081015190915073ffffffffffffffffffffffffffffffffffffffff16611917576040517f0e92b2c600000000000000000000000000000000000000000000000000000000815260040160405180910390fd5b61192385858585612a22565b5050505050565b61114133858585856134c2565b5f61194183611147565b61010081015190915073ffffffffffffffffffffffffffffffffffffffff16611996576040517f0e92b2c600000000000000000000000000000000000000000000000000000000815260040160405180910390fd5b611141848483856134db565b610eea33848484612f5e565b5f610eb2338484611e47565b5f818152600860205260408120805460609291906119d790614b41565b80601f0160208091040260200160405190810160405280929190818152602001828054611a0390614b41565b8015611a4e5780601f10611a2557610100808354040283529160200191611a4e565b820191905f5260205f20905b815481529060010190602001808311611a3157829003601f168201915b505050505090505f81511115611a645792915050565b5f611a6e84611147565b5f858152600260205260408120549192509073ffffffffffffffffffffffffffffffffffffffff16600c546040517fd993031e00000000000000000000000000000000000000000000000000000000815291925073ffffffffffffffffffffffffffffffffffffffff169063d993031e90611af190859089908690600401614b8c565b5f60405180830381865afa158015611b0b573d5f5f3e3d5ffd5b505050506040513d5f823e601f3d9081017fffffffffffffffffffffffffffffffffffffffffffffffffffffffffffffffe0168201604052610cd29190810190614bc7565b50919050565b5f611b6083611147565b9050610eea338483856134db565b611b76612195565b73ffffffffffffffffffffffffffffffffffffffff82161580611bb957507fffffffff000000000000000000000000000000000000000000000000000000008116155b610e085773ffffffffffffffffffffffffffffffffffffffff82165f818152600f602090815260408083207fffffffff000000000000000000000000000000000000000000000000000000008616808552925280832080547fffffffffffffffffffffffffffffffffffffffffffffffffffffffffffffff00166001179055519092917f177c467a5dec0610cb3afa435a1f7efa9cd39bf81ff2273f06ae7668a00e310b91a35050565b611c6b612195565b600c80547fffffffffffffffffffffffff00000000000000000000000000000000000000001673ffffffffffffffffffffffffffffffffffffffff92909216919091179055565b5f611cbc84611147565b61010081015190915073ffffffffffffffffffffffffffffffffffffffff16611d11576040517f0e92b2c600000000000000000000000000000000000000000000000000000000815260040160405180910390fd5b61010081015173ffffffffffffffffffffffffffffffffffffffff163314611d67576040517f66719b7a000000000000000000000000000000000000000000000000000000008152336004820152602401610cbd565b6119238585858561329b565b611d7b612195565b73ffffffffffffffffffffffffffffffffffffffff8116611dca576040517f1e4fbdf70000000000000000000000000000000000000000000000000000000081525f6004820152602401610cbd565b610ece81613225565b5f611ddd83611147565b61010081015190915073ffffffffffffffffffffffffffffffffffffffff16611e32576040517f0e92b2c600000000000000000000000000000000000000000000000000000000815260040160405180910390fd5b611e3f86868686866134c2565b505050505050565b5f5f611e538585612299565b5f8181526008602052604090209091508390611e6f8282614df7565b508190507f0762a30b2ec82141bc9ec23425f643036567b2e3a0971ed4850a968e10e5e804611e9e8580614c3c565b611eab6020880188614c3c565b604051611ebb9493929190614f77565b60405180910390a2949350505050565b5f611ed46136ec565b5f5f73__$05a947d0c9e5506efad2f4be513ad6e054$__63cc11e50b8887876040518463ffffffff1660e01b8152600401611f1193929190614fa8565b6040805180830381865af4158015611f2b573d5f5f3e3d5ffd5b505050506040513d601f19601f82011682018060405250810190611f4f9190614fe2565b5f88815260076020526040902080546fffffffffffffffffffffffffffffffff80851670010000000000000000000000000000000002911617815590945090925083915081611f9f576001611fa2565b60025b6004820180547fffffffffffffffffffffff00ffffffffffffffffffffffffffffffffffffffff1674010000000000000000000000000000000000000000836005811115611ff257611ff2614467565b0217905550604080518681526020810185905273ffffffffffffffffffffffffffffffffffffffff8a169189917feb324fb7fa5e3c4895f81135dee55dabe780ab78ada3c673cd8d79969a509ac5910160405180910390a3505050949350505050565b5f7fffffffff0000000000000000000000000000000000000000000000000000000082167f80ac58cd0000000000000000000000000000000000000000000000000000000014806120e757507fffffffff0000000000000000000000000000000000000000000000000000000082167f5b5e139f00000000000000000000000000000000000000000000000000000000145b80610ce557507f01ffc9a7000000000000000000000000000000000000000000000000000000007fffffffff00000000000000000000000000000000000000000000000000000000831614610ce5565b5f8181526002602052604081205473ffffffffffffffffffffffffffffffffffffffff1680610ce5576040517f7e27328900000000000000000000000000000000000000000000000000000000815260048101849052602401610cbd565b3361219e61173f565b73ffffffffffffffffffffffffffffffffffffffff161461173d576040517f118cdaa7000000000000000000000000000000000000000000000000000000008152336004820152602401610cbd565b5f6121f782611147565b61010081015190915073ffffffffffffffffffffffffffffffffffffffff1615801590612255575080610100015173ffffffffffffffffffffffffffffffffffffffff163373ffffffffffffffffffffffffffffffffffffffff1614155b1561228e576040517f66719b7a000000000000000000000000000000000000000000000000000000008152336004820152602401610cbd565b61114183838661373c565b5f8060095460ff1660028111156122b2576122b2614467565b146122e9576040517f0f2e5b6c00000000000000000000000000000000000000000000000000000000815260040160405180910390fd5b600e54600d546040517f6bc7636f00000000000000000000000000000000000000000000000000000000815273__$05a947d0c9e5506efad2f4be513ad6e054$__92636bc7636f9261235c928892889273ffffffffffffffffffffffffffffffffffffffff909116913490600401615065565b5f6040518083038186803b158015612372575f5ffd5b505af4158015612384573d5f5f3e3d5ffd5b505050505f5f8473ffffffffffffffffffffffffffffffffffffffff163373ffffffffffffffffffffffffffffffffffffffff16146123c357336123c5565b5f5b600a8054600181019091555f8181526007602052604090819020919450919250906123f290860135613749565b81547fffffffffffffffffffffffffffffffff00000000000000000000000000000000166fffffffffffffffffffffffffffffffff9190911617815561243e6040860160208701614308565b6002820180547fffffffffffffffffffffffff00000000000000000000000000000000000000001673ffffffffffffffffffffffffffffffffffffffff929092169190911790556124926020860186614308565b6001820180547fffffffffffffffffffffffff00000000000000000000000000000000000000001673ffffffffffffffffffffffffffffffffffffffff929092169190911790555f6124ea60a0870160808801614308565b73ffffffffffffffffffffffffffffffffffffffff161461255d5761251560a0860160808701614308565b6003820180547fffffffffffffffffffffffff00000000000000000000000000000000000000001673ffffffffffffffffffffffffffffffffffffffff929092169190911790555b73ffffffffffffffffffffffffffffffffffffffff8216156125bc576004810180547fffffffffffffffffffffffff00000000000000000000000000000000000000001673ffffffffffffffffffffffffffffffffffffffff84161790555b5f6125cd60c0870160a0880161444c565b60028111156125de576125de614467565b1461264a576125f360c0860160a0870161444c565b6004820180547fffffffffffffffffffff00ffffffffffffffffffffffffffffffffffffffffff16750100000000000000000000000000000000000000000083600281111561264457612644614467565b02179055505b60c0850135156126a5576004810180547fffffffffff0000000000ffffffffffffffffffffffffffffffffffffffffffff1676010000000000000000000000000000000000000000000060c088013564ffffffffff16021790555b60e085013515612700576004810180547affffffffffffffffffffffffffffffffffffffffffffffffffffff167b0100000000000000000000000000000000000000000000000000000060e088013564ffffffffff16021790555b506127116040850160208601614308565b73ffffffffffffffffffffffffffffffffffffffff166127346020860186614308565b73ffffffffffffffffffffffffffffffffffffffff16837f4a3269cbd2349d90096f8883573394f1da2aee3f8c0e5c4b29fbcab5c87efb4388604089013560c08a013561278460608c018c614c3c565b61279460a08e0160808f01614308565b8a8e60a00160208101906127a8919061444c565b6040516127bc98979695949392919061518b565b60405180910390a46127da6127d46020860186614308565b8361376a565b509392505050565b6127ea6136ec565b5f6127f482611147565b5f8381526002602052604090205461010082015191925073ffffffffffffffffffffffffffffffffffffffff908116911615801590612864575081610100015173ffffffffffffffffffffffffffffffffffffffff163373ffffffffffffffffffffffffffffffffffffffff1614155b1561289d576040517f66719b7a000000000000000000000000000000000000000000000000000000008152336004820152602401610cbd565b6040517f3b5d591600000000000000000000000000000000000000000000000000000000815273__$05a947d0c9e5506efad2f4be513ad6e054$__90633b5d5916906128f19087908690869060040161521c565b5f6040518083038186803b158015612907575f5ffd5b505af4158015612919573d5f5f3e3d5ffd5b5050505f8481526007602052604080822060040180547fffffffffffffffffffffff00ffffffffffffffffffffffffffffffffffffffff1674020000000000000000000000000000000000000000179055518592507f9aef63ece5ceaa834c5017ecc62c1f130ae015e898d014a9e508cdf8d84848049190a25f8381526010602090815260409182902082518084019093525473ffffffffffffffffffffffffffffffffffffffff81168084527401000000000000000000000000000000000000000090910460e01b7fffffffff0000000000000000000000000000000000000000000000000000000016918301919091521561192357611923815f0151826020015186613817565b5f612a2c82611147565b61010081015190915073ffffffffffffffffffffffffffffffffffffffff1615801590612a8a575080610100015173ffffffffffffffffffffffffffffffffffffffff163373ffffffffffffffffffffffffffffffffffffffff1614155b15612ac3576040517f66719b7a000000000000000000000000000000000000000000000000000000008152336004820152602401610cbd565b73ffffffffffffffffffffffffffffffffffffffff8316612b12576040517f64a0ae920000000000000000000000000000000000000000000000000000000081525f6004820152602401610cbd565b5f612b1e84848861392e565b90508473ffffffffffffffffffffffffffffffffffffffff168173ffffffffffffffffffffffffffffffffffffffff1614611e3f576040517f64283d7b00000000000000000000000000000000000000000000000000000000815273ffffffffffffffffffffffffffffffffffffffff80871660048301526024820185905282166044820152606401610cbd565b612bb46136ec565b5f612bbe82611147565b5f8381526002602052604090205461010082015191925073ffffffffffffffffffffffffffffffffffffffff908116911615801590612c2e575081610100015173ffffffffffffffffffffffffffffffffffffffff163373ffffffffffffffffffffffffffffffffffffffff1614155b15612c67576040517f66719b7a000000000000000000000000000000000000000000000000000000008152336004820152602401610cbd565b6040517f490080a600000000000000000000000000000000000000000000000000000000815273__$05a947d0c9e5506efad2f4be513ad6e054$__9063490080a690612cbb9087908690869060040161521c565b5f6040518083038186803b158015612cd1575f5ffd5b505af4158015612ce3573d5f5f3e3d5ffd5b5050505f8481526007602052604080822060040180547fffffffffffffffffffffff00ffffffffffffffffffffffffffffffffffffffff1674050000000000000000000000000000000000000000179055518592507fbeff20e87296f95eda2707b98ff344c0c9c1dc3900f20dde29098241703286149190a250505050565b612d6a6136ec565b5f612d7483611147565b5f8481526002602052604090205461010082015191925073ffffffffffffffffffffffffffffffffffffffff908116911615801590612de4575081610100015173ffffffffffffffffffffffffffffffffffffffff163373ffffffffffffffffffffffffffffffffffffffff1614155b15612e1d576040517f66719b7a000000000000000000000000000000000000000000000000000000008152336004820152602401610cbd565b6040517f81f0780e00000000000000000000000000000000000000000000000000000000815273__$05a947d0c9e5506efad2f4be513ad6e054$__906381f0780e90612e7390889086908690899060040161526c565b5f6040518083038186803b158015612e89575f5ffd5b505af4158015612e9b573d5f5f3e3d5ffd5b5050505f85815260076020526040902060040180548592507fffffffffffffffffffff00ffffffffffffffffffffffffffffffffffffffffff167501000000000000000000000000000000000000000000836002811115612efe57612efe614467565b0217905550826002811115612f1557612f15614467565b60405173ffffffffffffffffffffffffffffffffffffffff87169086907f3b17ddcb4df9a7a621005f492ba347528e1021e3ff0eb4d2b3040ad0354609c9905f90a45050505050565b612f666136ec565b5f612f7084611147565b5f8581526002602052604090205461010082015191925073ffffffffffffffffffffffffffffffffffffffff908116911615801590612fe0575081610100015173ffffffffffffffffffffffffffffffffffffffff163373ffffffffffffffffffffffffffffffffffffffff1614155b15613019576040517f66719b7a000000000000000000000000000000000000000000000000000000008152336004820152602401610cbd565b6040517f20727a0d00000000000000000000000000000000000000000000000000000000815273__$05a947d0c9e5506efad2f4be513ad6e054$__906320727a0d9061306d9089908690869060040161521c565b5f6040518083038186803b158015613083575f5ffd5b505af4158015613095573d5f5f3e3d5ffd5b505050508160a0015173ffffffffffffffffffffffffffffffffffffffff168673ffffffffffffffffffffffffffffffffffffffff160361317a575f8581526007602052604090206004018054600391907fffffffffffffffffffffff00ffffffffffffffffffffffffffffffffffffffff16740100000000000000000000000000000000000000008302179055508573ffffffffffffffffffffffffffffffffffffffff16857f4682ef87b3db3f66192d1dc1efd5d2a314cdd9c61e14219f671c03e6f507823a868660405161316d9291906152cd565b60405180910390a3611e3f565b5f858152600760205260409020600490810180547fffffffffffffffffffffff00ffffffffffffffffffffffffffffffffffffffff16740100000000000000000000000000000000000000008302179055508573ffffffffffffffffffffffffffffffffffffffff16857f84993de43f7886c435a01bf9d72095e6a0a03bad77d5ed2478d043e566e2c77c86866040516132159291906152cd565b60405180910390a3505050505050565b6006805473ffffffffffffffffffffffffffffffffffffffff8381167fffffffffffffffffffffffff0000000000000000000000000000000000000000831681179093556040519116919082907f8be0079c531659141344cd1fd0a4f28419497f9722a3daafe3b4186f6b6457e0905f90a35050565b600a5483106132d6576040517f4d5e5fb300000000000000000000000000000000000000000000000000000000815260040160405180910390fd5b5f8381526002602052604090205473ffffffffffffffffffffffffffffffffffffffff9081169085168114613337576040517fe16e54be00000000000000000000000000000000000000000000000000000000815260040160405180910390fd5b73ffffffffffffffffffffffffffffffffffffffff8316156133de5773ffffffffffffffffffffffffffffffffffffffff83165f908152600f602090815260408083207fffffffff000000000000000000000000000000000000000000000000000000008616845290915290205460ff166133de576040517f8e792a0500000000000000000000000000000000000000000000000000000000815260040160405180910390fd5b60408051808201825273ffffffffffffffffffffffffffffffffffffffff8581168083527fffffffff00000000000000000000000000000000000000000000000000000000861660208085018281525f8b81526010835287902095518654915160e01c74010000000000000000000000000000000000000000027fffffffffffffffff00000000000000000000000000000000000000000000000090921695169490941793909317909355925191825286917f68ec99f8f4655bc1315c275c4d9ee0a7477311d84607b6ad984ea1246ec38754910160405180910390a35050505050565b6134ce85858585612a22565b6119238585858585613994565b61010082015173ffffffffffffffffffffffffffffffffffffffff1615801590613536575081610100015173ffffffffffffffffffffffffffffffffffffffff163373ffffffffffffffffffffffffffffffffffffffff1614155b1561356f576040517f66719b7a000000000000000000000000000000000000000000000000000000008152336004820152602401610cbd565b60e082015173ffffffffffffffffffffffffffffffffffffffff166135c7578034146135c7576040517f26ea953d00000000000000000000000000000000000000000000000000000000815260040160405180910390fd5b5f6135d485858585611ecb565b60e084015190915073ffffffffffffffffffffffffffffffffffffffff16156136315761362c858460c00151848660e0015173ffffffffffffffffffffffffffffffffffffffff16613b81909392919063ffffffff16565b613656565b60c08301516136569073ffffffffffffffffffffffffffffffffffffffff1683613c3c565b8015611923575f8481526010602090815260409182902082518084019093525473ffffffffffffffffffffffffffffffffffffffff81168084527401000000000000000000000000000000000000000090910460e01b7fffffffff00000000000000000000000000000000000000000000000000000000169183019190915215611e3f57611e3f815f0151826020015187613817565b600260095460ff16600281111561370557613705614467565b0361173d576040517f0f2e5b6c00000000000000000000000000000000000000000000000000000000815260040160405180910390fd5b610eea8383836001613cae565b5f7001000000000000000000000000000000008210613766575f5ffd5b5090565b73ffffffffffffffffffffffffffffffffffffffff82166137b9576040517f64a0ae920000000000000000000000000000000000000000000000000000000081525f6004820152602401610cbd565b5f6137c583835f61392e565b905073ffffffffffffffffffffffffffffffffffffffff811615610eea576040517f73c6ac6e0000000000000000000000000000000000000000000000000000000081525f6004820152602401610cbd565b5f828260405160240161382c91815260200190565b604051602081830303815290604052907bffffffffffffffffffffffffffffffffffffffffffffffffffffffff19166020820180517bffffffffffffffffffffffffffffffffffffffffffffffffffffffff838183161783525050505090505f5f8573ffffffffffffffffffffffffffffffffffffffff16836040516138b291906152e0565b5f604051808303815f865af19150503d805f81146138eb576040519150601f19603f3d011682016040523d82523d5f602084013e6138f0565b606091505b509150915081611e3f57806040517f30b9b6dd000000000000000000000000000000000000000000000000000000008152600401610cbd91906142df565b5f5f61393b858585613e76565b905073ffffffffffffffffffffffffffffffffffffffff811615610c03575f84815260106020526040902080547fffffffffffffffff000000000000000000000000000000000000000000000000169055949350505050565b73ffffffffffffffffffffffffffffffffffffffff83163b15611923576040517f150b7a0200000000000000000000000000000000000000000000000000000000815273ffffffffffffffffffffffffffffffffffffffff84169063150b7a0290613a099088908890879087906004016152f6565b6020604051808303815f875af1925050508015613a61575060408051601f3d9081017fffffffffffffffffffffffffffffffffffffffffffffffffffffffffffffffe0168201909252613a5e91810190615350565b60015b613aee573d808015613a8e576040519150601f19603f3d011682016040523d82523d5f602084013e613a93565b606091505b5080515f03613ae6576040517f64a0ae9200000000000000000000000000000000000000000000000000000000815273ffffffffffffffffffffffffffffffffffffffff85166004820152602401610cbd565b805181602001fd5b7fffffffff0000000000000000000000000000000000000000000000000000000081167f150b7a020000000000000000000000000000000000000000000000000000000014611e3f576040517f64a0ae9200000000000000000000000000000000000000000000000000000000815273ffffffffffffffffffffffffffffffffffffffff85166004820152602401610cbd565b5f6040517f23b872dd00000000000000000000000000000000000000000000000000000000815284600482015283602482015282604482015260205f6064835f8a5af13d15601f3d1160015f511416171691505080611923576040517f08c379a000000000000000000000000000000000000000000000000000000000815260206004820152601460248201527f5452414e534645525f46524f4d5f4641494c45440000000000000000000000006044820152606401610cbd565b5f5f5f5f5f85875af1905080610eea576040517f08c379a000000000000000000000000000000000000000000000000000000000815260206004820152601360248201527f4554485f5452414e534645525f4641494c4544000000000000000000000000006044820152606401610cbd565b8080613ccf575073ffffffffffffffffffffffffffffffffffffffff821615155b15613e22575f613cde84612137565b905073ffffffffffffffffffffffffffffffffffffffff831615801590613d3157508273ffffffffffffffffffffffffffffffffffffffff168173ffffffffffffffffffffffffffffffffffffffff1614155b8015613d6f575073ffffffffffffffffffffffffffffffffffffffff8082165f9081526005602090815260408083209387168352929052205460ff16155b15613dbe576040517fa9fbf51f00000000000000000000000000000000000000000000000000000000815273ffffffffffffffffffffffffffffffffffffffff84166004820152602401610cbd565b8115613e2057838573ffffffffffffffffffffffffffffffffffffffff168273ffffffffffffffffffffffffffffffffffffffff167f8c5be1e5ebec7d5bd14f71427d1e84f3dd0314c0f7b2291e5b200ac8c7c3b92560405160405180910390a45b505b50505f90815260046020526040902080547fffffffffffffffffffffffff00000000000000000000000000000000000000001673ffffffffffffffffffffffffffffffffffffffff92909216919091179055565b5f8281526002602052604081205473ffffffffffffffffffffffffffffffffffffffff90811690831615613eaf57613eaf818486613fed565b73ffffffffffffffffffffffffffffffffffffffff811615613f2257613ed75f855f5f613cae565b73ffffffffffffffffffffffffffffffffffffffff81165f90815260036020526040902080547fffffffffffffffffffffffffffffffffffffffffffffffffffffffffffffffff0190555b73ffffffffffffffffffffffffffffffffffffffff851615613f6a5773ffffffffffffffffffffffffffffffffffffffff85165f908152600360205260409020805460010190555b5f8481526002602052604080822080547fffffffffffffffffffffffff00000000000000000000000000000000000000001673ffffffffffffffffffffffffffffffffffffffff89811691821790925591518793918516917fddf252ad1be2c89b69c2b068fc378daa952ba7f163c4a11628f55a4df523b3ef91a4949350505050565b613ff883838361409d565b610eea5773ffffffffffffffffffffffffffffffffffffffff831661404c576040517f7e27328900000000000000000000000000000000000000000000000000000000815260048101829052602401610cbd565b6040517f177e802f00000000000000000000000000000000000000000000000000000000815273ffffffffffffffffffffffffffffffffffffffff8316600482015260248101829052604401610cbd565b5f73ffffffffffffffffffffffffffffffffffffffff831615801590610c0357508273ffffffffffffffffffffffffffffffffffffffff168473ffffffffffffffffffffffffffffffffffffffff161480614129575073ffffffffffffffffffffffffffffffffffffffff8085165f9081526005602090815260408083209387168352929052205460ff165b80610c035750505f9081526004602052604090205473ffffffffffffffffffffffffffffffffffffffff908116911614919050565b803573ffffffffffffffffffffffffffffffffffffffff81168114614181575f5ffd5b919050565b5f6101008284031215611b50575f5ffd5b5f60408284031215611b50575f5ffd5b5f5f5f606084860312156141b9575f5ffd5b6141c28461415e565b9250602084013567ffffffffffffffff8111156141dd575f5ffd5b6141e986828701614186565b925050604084013567ffffffffffffffff811115614205575f5ffd5b61421186828701614197565b9150509250925092565b5f5f5f6060848603121561422d575f5ffd5b6142368461415e565b95602085013595506040909401359392505050565b7fffffffff0000000000000000000000000000000000000000000000000000000081168114610ece575f5ffd5b5f60208284031215614288575f5ffd5b8135610eb28161424b565b5f81518084528060208401602086015e5f6020828601015260207fffffffffffffffffffffffffffffffffffffffffffffffffffffffffffffffe0601f83011685010191505092915050565b602081525f610eb26020830184614293565b5f60208284031215614301575f5ffd5b5035919050565b5f60208284031215614318575f5ffd5b610eb28261415e565b5f5f60408385031215614332575f5ffd5b61433b8361415e565b946020939093013593505050565b5f5f6040838503121561435a575f5ffd5b6143638361415e565b9150602083013567ffffffffffffffff81111561437e575f5ffd5b61438a85828601614186565b9150509250929050565b5f602082840312156143a4575f5ffd5b813567ffffffffffffffff8111156143ba575f5ffd5b610c0384828501614186565b5f5f5f606084860312156143d8575f5ffd5b6143e18461415e565b92506143ef6020850161415e565b929592945050506040919091013590565b5f5f60408385031215614411575f5ffd5b61441a8361415e565b9150602083013561442a8161424b565b809150509250929050565b60038110610ece575f5ffd5b803561418181614435565b5f6020828403121561445c575f5ffd5b8135610eb281614435565b7f4e487b71000000000000000000000000000000000000000000000000000000005f52602160045260245ffd5b60038110610ece57610ece614467565b602081016144b183614494565b91905290565b600681106144c7576144c7614467565b9052565b6144c781614494565b80518252602081015160208301526040810151604083015260608101516060830152608081015161451d608084018273ffffffffffffffffffffffffffffffffffffffff169052565b5060a081015161454560a084018273ffffffffffffffffffffffffffffffffffffffff169052565b5060c081015161456d60c084018273ffffffffffffffffffffffffffffffffffffffff169052565b5060e081015161459560e084018273ffffffffffffffffffffffffffffffffffffffff169052565b506101008101516145bf61010084018273ffffffffffffffffffffffffffffffffffffffff169052565b506101208101516145d46101208401826144b7565b50610140810151610eea6101408401826144cb565b6101608101610ce582846144d4565b5f5f60408385031215614609575f5ffd5b82359150602083013561442a81614435565b5f5f5f6060848603121561462d575f5ffd5b6146368461415e565b925060208401359150604084013561464d81614435565b809150509250925092565b604081525f61466a6040830185614293565b8281036020840152610cd28185614293565b5f5f83601f84011261468c575f5ffd5b50813567ffffffffffffffff8111156146a3575f5ffd5b6020830191508360208285010111156146ba575f5ffd5b9250929050565b5f5f5f5f606085870312156146d4575f5ffd5b6146dd8561415e565b935060208501359250604085013567ffffffffffffffff8111156146ff575f5ffd5b61470b8782880161467c565b95989497509550505050565b8015158114610ece575f5ffd5b5f5f60408385031215614735575f5ffd5b61473e8361415e565b9150602083013561442a81614717565b5f5f5f60608486031215614760575f5ffd5b833592506147706020850161415e565b9150604084013561464d8161424b565b5f5f5f5f60808587031215614793575f5ffd5b61479c8561415e565b93506147aa6020860161415e565b92506147b86040860161415e565b9396929550929360600135925050565b7f4e487b71000000000000000000000000000000000000000000000000000000005f52604160045260245ffd5b604051601f82017fffffffffffffffffffffffffffffffffffffffffffffffffffffffffffffffe016810167ffffffffffffffff8111828210171561483c5761483c6147c8565b604052919050565b5f67ffffffffffffffff82111561485d5761485d6147c8565b50601f017fffffffffffffffffffffffffffffffffffffffffffffffffffffffffffffffe01660200190565b5f82601f830112614898575f5ffd5b81356148ab6148a682614844565b6147f5565b8181528460208386010111156148bf575f5ffd5b816020850160208301375f918101602001919091529392505050565b5f5f5f5f608085870312156148ee575f5ffd5b6148f78561415e565b93506149056020860161415e565b925060408501359150606085013567ffffffffffffffff811115614927575f5ffd5b61493387828801614889565b91505092959194509250565b5f5f5f60408486031215614951575f5ffd5b83359250602084013567ffffffffffffffff81111561496e575f5ffd5b61497a8682870161467c565b9497909650939450505050565b5f5f60408385031215614998575f5ffd5b823567ffffffffffffffff8111156149ae575f5ffd5b6149ba85828601614186565b925050602083013567ffffffffffffffff8111156149d6575f5ffd5b61438a85828601614197565b5f5f604083850312156149f3575f5ffd5b50508035926020909101359150565b5f5f60408385031215614a13575f5ffd5b614a1c8361415e565b9150614a2a6020840161415e565b90509250929050565b5f5f5f5f60808587031215614a46575f5ffd5b614a4f8561415e565b935060208501359250614a646040860161415e565b91506060850135614a748161424b565b939692955090935050565b5f5f5f5f5f60a08688031215614a93575f5ffd5b614a9c8661415e565b9450614aaa6020870161415e565b9350614ab86040870161415e565b925060608601359150608086013567ffffffffffffffff811115614ada575f5ffd5b614ae688828901614889565b9150509295509295909350565b73ffffffffffffffffffffffffffffffffffffffff8681168252858116602083015284811660408301528316606082015260a08101614b3183614494565b8260808301529695505050505050565b600181811c90821680614b5557607f821691505b602082108103611b50577f4e487b71000000000000000000000000000000000000000000000000000000005f52602260045260245ffd5b6101a08101614b9b82866144d4565b8361016083015273ffffffffffffffffffffffffffffffffffffffff8316610180830152949350505050565b5f60208284031215614bd7575f5ffd5b815167ffffffffffffffff811115614bed575f5ffd5b8201601f81018413614bfd575f5ffd5b8051614c0b6148a682614844565b818152856020838501011115614c1f575f5ffd5b8160208401602083015e5f91810160200191909152949350505050565b5f5f83357fffffffffffffffffffffffffffffffffffffffffffffffffffffffffffffffe1843603018112614c6f575f5ffd5b83018035915067ffffffffffffffff821115614c89575f5ffd5b6020019150368190038213156146ba575f5ffd5b601f821115610eea57805f5260205f20601f840160051c81016020851015614cc25750805b601f840160051c820191505b81811015611923575f8155600101614cce565b67ffffffffffffffff831115614cf957614cf96147c8565b614d0d83614d078354614b41565b83614c9d565b5f601f841160018114614d5d575f8515614d275750838201355b7fffffffffffffffffffffffffffffffffffffffffffffffffffffffffffffffff600387901b1c1916600186901b178355611923565b5f838152602081207fffffffffffffffffffffffffffffffffffffffffffffffffffffffffffffffe08716915b82811015614daa5786850135825560209485019460019092019101614d8a565b5086821015614de5577fffffffffffffffffffffffffffffffffffffffffffffffffffffffffffffffff60f88860031b161c19848701351681555b505060018560011b0183555050505050565b614e018283614c3c565b67ffffffffffffffff811115614e1957614e196147c8565b614e2d81614e278554614b41565b85614c9d565b5f601f821160018114614e7d575f8315614e475750838201355b7fffffffffffffffffffffffffffffffffffffffffffffffffffffffffffffffff600385901b1c1916600184901b178555614f11565b5f858152602081207fffffffffffffffffffffffffffffffffffffffffffffffffffffffffffffffe08516915b82811015614eca5786850135825560209485019460019092019101614eaa565b5084821015614f05577fffffffffffffffffffffffffffffffffffffffffffffffffffffffffffffffff60f88660031b161c19848701351681555b505060018360011b0185555b50505050614f226020830183614c3c565b611141818360018601614ce1565b81835281816020850137505f602082840101525f60207fffffffffffffffffffffffffffffffffffffffffffffffffffffffffffffffe0601f840116840101905092915050565b604081525f614f8a604083018688614f30565b8281036020840152614f9d818587614f30565b979650505050505050565b73ffffffffffffffffffffffffffffffffffffffff841681526101a08101614fd360208301856144d4565b82610180830152949350505050565b5f5f60408385031215614ff3575f5ffd5b82519150602083015161442a81614717565b5f5f83357fffffffffffffffffffffffffffffffffffffffffffffffffffffffffffffffe1843603018112615038575f5ffd5b830160208101925035905067ffffffffffffffff811115615057575f5ffd5b8036038213156146ba575f5ffd5b73ffffffffffffffffffffffffffffffffffffffff8616815260a0602082015273ffffffffffffffffffffffffffffffffffffffff6150a38661415e565b1660a082015273ffffffffffffffffffffffffffffffffffffffff6150ca6020870161415e565b1660c0820152604085013560e08201525f6150e86060870187615005565b610100808501526150fe6101a085018284614f30565b91505061510d6080880161415e565b73ffffffffffffffffffffffffffffffffffffffff1661012084015261513560a08801614441565b6151436101408501826144cb565b5060c087013561016084015260e087013561018084015273ffffffffffffffffffffffffffffffffffffffff8616604084015290506060820193909352608001529392505050565b73ffffffffffffffffffffffffffffffffffffffff8916815287602082015286604082015260e060608201525f6151c660e083018789614f30565b905073ffffffffffffffffffffffffffffffffffffffff8516608083015273ffffffffffffffffffffffffffffffffffffffff841660a083015261520983614494565b8260c08301529998505050505050505050565b73ffffffffffffffffffffffffffffffffffffffff841681526101a0810161524760208301856144d4565b73ffffffffffffffffffffffffffffffffffffffff8316610180830152949350505050565b73ffffffffffffffffffffffffffffffffffffffff851681526101c0810161529760208301866144d4565b73ffffffffffffffffffffffffffffffffffffffff84166101808301526152bd83614494565b826101a083015295945050505050565b602081525f610c03602083018486614f30565b5f82518060208501845e5f920191825250919050565b73ffffffffffffffffffffffffffffffffffffffff8516815273ffffffffffffffffffffffffffffffffffffffff84166020820152826040820152608060608201525f6153466080830184614293565b9695505050505050565b5f60208284031215615360575f5ffd5b8151610eb28161424b56fea2646970667358221220891089994339f502d8e488c5ba22853cd8f7e2149707e91ae03f4ec481336dc964736f6c634300081e0033","linkReferences":{"src/libraries/BullaClaimValidationLib.sol":{"BullaClaimValidationLib":[{"start":8762,"length":20},{"start":9849,"length":20},{"start":11303,"length":20},{"start":12273,"length":20},{"start":12711,"length":20},{"start":13219,"length":20}]}}},"methodIdentifiers":{"CORE_PROTOCOL_FEE()":"8204c627","addToPaidCallbackWhitelist(address,bytes4)":"cbe5a9af","approvalRegistry()":"64af6692","approve(address,uint256)":"095ea7b3","approveFrom(address,address,uint256)":"52ec8529","balanceOf(address)":"70a08231","cancelClaim(uint256,string)":"c07cae88","cancelClaimFrom(address,uint256,string)":"708cf832","claimMetadata(uint256)":"6d928375","claimMetadataGenerator()":"b8f34269","createClaim((address,address,uint256,string,address,uint8,uint256,uint256))":"185a34f2","createClaimFrom(address,(address,address,uint256,string,address,uint8,uint256,uint256))":"1461f126","createClaimWithMetadata((address,address,uint256,string,address,uint8,uint256,uint256),(string,string))":"c1e04045","createClaimWithMetadataFrom(address,(address,address,uint256,string,address,uint8,uint256,uint256),(string,string))":"004b3829","currentClaimId()":"72806c5a","feeExemptions()":"01a2cae8","getApproved(uint256)":"081812fc","getClaim(uint256)":"5aef2447","getPaidClaimCallback(uint256)":"d6700bef","impairClaim(uint256)":"28f60a7c","impairClaimFrom(address,uint256)":"3081ed8a","isApprovedForAll(address,address)":"e985e9c5","isPaidCallbackWhitelisted(address,bytes4)":"7649d6de","lockState()":"46be9c48","markClaimAsPaid(uint256)":"1cecb254","markClaimAsPaidFrom(address,uint256)":"2a982aeb","name()":"06fdde03","owner()":"8da5cb5b","ownerOf(uint256)":"6352211e","paidCallbackWhitelist(address,bytes4)":"ea73e11f","payClaim(uint256,uint256)":"c99c4448","payClaimFrom(address,uint256,uint256)":"ba9a8094","payClaimFromControllerWithoutTransfer(address,uint256,uint256)":"008c1075","removeFromPaidCallbackWhitelist(address,bytes4)":"3cc92b99","renounceOwnership()":"715018a6","safeTransferFrom(address,address,uint256)":"42842e0e","safeTransferFrom(address,address,uint256,bytes)":"b88d4fde","safeTransferFromFrom(address,address,address,uint256,bytes)":"fcf391e0","setApprovalForAll(address,bool)":"a22cb465","setClaimMetadataGenerator(address)":"d3e39750","setCoreProtocolFee(uint256)":"20d436d3","setFeeExemptions(address)":"083c8182","setLockState(uint8)":"43d073bb","setPaidClaimCallback(uint256,address,bytes4)":"a94c68df","setPaidClaimCallbackFrom(address,uint256,address,bytes4)":"e9c1d0c0","supportsInterface(bytes4)":"01ffc9a7","symbol()":"95d89b41","tokenURI(uint256)":"c87b56dd","transferFrom(address,address,uint256)":"23b872dd","transferFromFrom(address,address,address,uint256)":"af9fe4de","transferOwnership(address)":"f2fde38b","updateBinding(uint256,uint8)":"5edc84eb","updateBindingFrom(address,uint256,uint8)":"6418bde9","withdrawAllFees()":"af236af4"},"id":87}