{"abi":[{"type":"constructor","inputs":[{"name":"_bullaClaim","type":"address","internalType":"address"}],"stateMutability":"nonpayable"},{"type":"function","name":"bullaClaim","inputs":[],"outputs":[{"name":"","type":"address","internalType":"contract IBullaClaimV2"}],"stateMutability":"view"},{"type":"function","name":"cancelClaim","inputs":[{"name":"claimId","type":"uint256","internalType":"uint256"},{"name":"note","type":"string","internalType":"string"}],"outputs":[],"stateMutability":"nonpayable"},{"type":"function","name":"createClaim","inputs":[{"name":"params","type":"tuple","internalType":"struct CreateClaimParams","components":[{"name":"creditor","type":"address","internalType":"address"},{"name":"debtor","type":"address","internalType":"address"},{"name":"claimAmount","type":"uint256","internalType":"uint256"},{"name":"description","type":"string","internalType":"string"},{"name":"token","type":"address","internalType":"address"},{"name":"binding","type":"uint8","internalType":"enum ClaimBinding"},{"name":"dueBy","type":"uint256","internalType":"uint256"},{"name":"impairmentGracePeriod","type":"uint256","internalType":"uint256"}]}],"outputs":[{"name":"","type":"uint256","internalType":"uint256"}],"stateMutability":"payable"},{"type":"function","name":"currentUser","inputs":[],"outputs":[{"name":"","type":"address","internalType":"address"}],"stateMutability":"view"},{"type":"function","name":"impairClaim","inputs":[{"name":"claimId","type":"uint256","internalType":"uint256"}],"outputs":[],"stateMutability":"nonpayable"},{"type":"function","name":"markClaimAsPaid","inputs":[{"name":"claimId","type":"uint256","internalType":"uint256"}],"outputs":[],"stateMutability":"nonpayable"},{"type":"function","name":"payClaim","inputs":[{"name":"claimId","type":"uint256","internalType":"uint256"},{"name":"amount","type":"uint256","internalType":"uint256"}],"outputs":[],"stateMutability":"payable"},{"type":"function","name":"setCurrentUser","inputs":[{"name":"user","type":"address","internalType":"address"}],"outputs":[],"stateMutability":"nonpayable"},{"type":"function","name":"updateBinding","inputs":[{"name":"claimId","type":"uint256","internalType":"uint256"},{"name":"binding","type":"uint8","internalType":"enum ClaimBinding"}],"outputs":[],"stateMutability":"nonpayable"}],"bytecode":{"object":"0x6080604052348015600e575f5ffd5b506040516109f33803806109f3833981016040819052602b91604e565b5f80546001600160a01b0319166001600160a01b03929092169190911790556079565b5f60208284031215605d575f5ffd5b81516001600160a01b03811681146072575f5ffd5b9392505050565b61096d806100865f395ff3fe608060405260043610610093575f3560e01c80635edc84eb11610066578063a666cab91161004c578063a666cab9146101ce578063c07cae88146101f9578063c99c444814610218575f5ffd5b80635edc84eb1461015e57806392ee03341461017d575f5ffd5b80630b06868914610097578063185a34f2146100fa5780631cecb2541461012057806328f60a7c1461013f575b5f5ffd5b3480156100a2575f5ffd5b506100f86100b136600461057f565b600180547fffffffffffffffffffffffff00000000000000000000000000000000000000001673ffffffffffffffffffffffffffffffffffffffff92909216919091179055565b005b61010d61010836600461059f565b61022b565b6040519081526020015b60405180910390f35b34801561012b575f5ffd5b506100f861013a3660046105d7565b6102d1565b34801561014a575f5ffd5b506100f86101593660046105d7565b61035d565b348015610169575f5ffd5b506100f86101783660046105fc565b6103bd565b348015610188575f5ffd5b506001546101a99073ffffffffffffffffffffffffffffffffffffffff1681565b60405173ffffffffffffffffffffffffffffffffffffffff9091168152602001610117565b3480156101d9575f5ffd5b505f546101a99073ffffffffffffffffffffffffffffffffffffffff1681565b348015610204575f5ffd5b506100f8610213366004610626565b61044b565b6100f861022636600461069d565b6104dc565b5f80546001546040517f1461f12600000000000000000000000000000000000000000000000000000000815273ffffffffffffffffffffffffffffffffffffffff92831692631461f12692349261028a929091169087906004016107a4565b60206040518083038185885af11580156102a6573d5f5f3e3d5ffd5b50505050506040513d601f19601f820116820180604052508101906102cb91906108a8565b92915050565b5f546001546040517f2a982aeb00000000000000000000000000000000000000000000000000000000815273ffffffffffffffffffffffffffffffffffffffff918216600482015260248101849052911690632a982aeb906044015b5f604051808303815f87803b158015610344575f5ffd5b505af1158015610356573d5f5f3e3d5ffd5b5050505050565b5f546001546040517f3081ed8a00000000000000000000000000000000000000000000000000000000815273ffffffffffffffffffffffffffffffffffffffff918216600482015260248101849052911690633081ed8a9060440161032d565b5f546001546040517f6418bde900000000000000000000000000000000000000000000000000000000815273ffffffffffffffffffffffffffffffffffffffff92831692636418bde99261041a92911690869086906004016108bf565b5f604051808303815f87803b158015610431575f5ffd5b505af1158015610443573d5f5f3e3d5ffd5b505050505050565b5f546001546040517f708cf83200000000000000000000000000000000000000000000000000000000815273ffffffffffffffffffffffffffffffffffffffff9283169263708cf832926104aa929116908790879087906004016108f8565b5f604051808303815f87803b1580156104c1575f5ffd5b505af11580156104d3573d5f5f3e3d5ffd5b50505050505050565b5f546001546040517fba9a809400000000000000000000000000000000000000000000000000000000815273ffffffffffffffffffffffffffffffffffffffff9182166004820152602481018590526044810184905291169063ba9a80949034906064015f604051808303818588803b1580156104c1575f5ffd5b803573ffffffffffffffffffffffffffffffffffffffff8116811461057a575f5ffd5b919050565b5f6020828403121561058f575f5ffd5b61059882610557565b9392505050565b5f602082840312156105af575f5ffd5b813567ffffffffffffffff8111156105c5575f5ffd5b82016101008185031215610598575f5ffd5b5f602082840312156105e7575f5ffd5b5035919050565b80356003811061057a575f5ffd5b5f5f6040838503121561060d575f5ffd5b8235915061061d602084016105ee565b90509250929050565b5f5f5f60408486031215610638575f5ffd5b83359250602084013567ffffffffffffffff811115610655575f5ffd5b8401601f81018613610665575f5ffd5b803567ffffffffffffffff81111561067b575f5ffd5b86602082840101111561068c575f5ffd5b939660209190910195509293505050565b5f5f604083850312156106ae575f5ffd5b50508035926020909101359150565b5f5f83357fffffffffffffffffffffffffffffffffffffffffffffffffffffffffffffffe18436030181126106f0575f5ffd5b830160208101925035905067ffffffffffffffff81111561070f575f5ffd5b80360382131561071d575f5ffd5b9250929050565b81835281816020850137505f602082840101525f60207fffffffffffffffffffffffffffffffffffffffffffffffffffffffffffffffe0601f840116840101905092915050565b600381106107a0577f4e487b71000000000000000000000000000000000000000000000000000000005f52602160045260245ffd5b9052565b73ffffffffffffffffffffffffffffffffffffffff831681526040602082015273ffffffffffffffffffffffffffffffffffffffff6107e283610557565b16604082015273ffffffffffffffffffffffffffffffffffffffff61080960208401610557565b1660608201525f5f604084013590508060808401525061082c60608401846106bd565b61010060a085015261084361014085018284610724565b91505061085260808501610557565b73ffffffffffffffffffffffffffffffffffffffff1660c084015261087960a085016105ee565b61088660e085018261076b565b5060c084013561010084015260e0909301356101209092019190915250919050565b5f602082840312156108b8575f5ffd5b5051919050565b73ffffffffffffffffffffffffffffffffffffffff8416815260208101839052606081016108f0604083018461076b565b949350505050565b73ffffffffffffffffffffffffffffffffffffffff85168152836020820152606060408201525f61092d606083018486610724565b969550505050505056fea26469706673582212205dc0e0115ba94e3012227c3ab99729feee06aa4a025e65015973590d90f1f94c64736f6c634300081e0033","linkReferences":{}},"methodIdentifiers":{"bullaClaim()":"a666cab9","cancelClaim(uint256,string)":"c07cae88","createClaim((address,address,uint256,string,address,uint8,uint256,uint256))":"185a34f2","currentUser()":"92ee0334","impairClaim(uint256)":"28f60a7c","markClaimAsPaid(uint256)":"1cecb254","payClaim(uint256,uint256)":"c99c4448","setCurrentUser(address)":"0b068689","updateBinding(uint256,uint8)":"5edc84eb"},"id":98}