{"abi":[{"type":"function","name":"addOwnerWithThreshold","inputs":[{"name":"owner","type":"address","internalType":"address"},{"name":"_threshold","type":"uint256","internalType":"uint256"}],"outputs":[],"stateMutability":"nonpayable"},{"type":"function","name":"changeThreshold","inputs":[{"name":"_threshold","type":"uint256","internalType":"uint256"}],"outputs":[],"stateMutability":"nonpayable"},{"type":"function","name":"getOwners","inputs":[],"outputs":[{"name":"","type":"address[]","internalType":"address[]"}],"stateMutability":"view"},{"type":"function","name":"getThreshold","inputs":[],"outputs":[{"name":"","type":"uint256","internalType":"uint256"}],"stateMutability":"view"},{"type":"function","name":"isOwner","inputs":[{"name":"owner","type":"address","internalType":"address"}],"outputs":[{"name":"","type":"bool","internalType":"bool"}],"stateMutability":"view"},{"type":"function","name":"removeOwner","inputs":[{"name":"prevOwner","type":"address","internalType":"address"},{"name":"owner","type":"address","internalType":"address"},{"name":"_threshold","type":"uint256","internalType":"uint256"}],"outputs":[],"stateMutability":"nonpayable"},{"type":"function","name":"swapOwner","inputs":[{"name":"prevOwner","type":"address","internalType":"address"},{"name":"oldOwner","type":"address","internalType":"address"},{"name":"newOwner","type":"address","internalType":"address"}],"outputs":[],"stateMutability":"nonpayable"},{"type":"event","name":"AddedOwner","inputs":[{"name":"owner","type":"address","indexed":false,"internalType":"address"}],"anonymous":false},{"type":"event","name":"ChangedThreshold","inputs":[{"name":"threshold","type":"uint256","indexed":false,"internalType":"uint256"}],"anonymous":false},{"type":"event","name":"RemovedOwner","inputs":[{"name":"owner","type":"address","indexed":false,"internalType":"address"}],"anonymous":false}],"bytecode":{"object":"0x6080604052348015600e575f5ffd5b50610f058061001c5f395ff3fe608060405234801561000f575f5ffd5b506004361061007a575f3560e01c8063a0e67e2b11610058578063a0e67e2b146100ce578063e318b52b146100e3578063e75235b8146100f6578063f8dc5dd914610107575f5ffd5b80630d582f131461007e5780632f54bf6e14610093578063694e80c3146100bb575b5f5ffd5b61009161008c366004610c99565b61011a565b005b6100a66100a1366004610cc1565b61036f565b60405190151581526020015b60405180910390f35b6100916100c9366004610ce1565b6103c2565b6100d66104dc565b6040516100b29190610cf8565b6100916100f1366004610d50565b6105f0565b6002546040519081526020016100b2565b610091610115366004610d90565b610977565b610122610c06565b73ffffffffffffffffffffffffffffffffffffffff82161580159061015e575073ffffffffffffffffffffffffffffffffffffffff8216600114155b8015610180575073ffffffffffffffffffffffffffffffffffffffff82163014155b6101eb576040517f08c379a000000000000000000000000000000000000000000000000000000000815260206004820152600560248201527f475332303300000000000000000000000000000000000000000000000000000060448201526064015b60405180910390fd5b73ffffffffffffffffffffffffffffffffffffffff8281165f908152602081905260409020541615610279576040517f08c379a000000000000000000000000000000000000000000000000000000000815260206004820152600560248201527f475332303400000000000000000000000000000000000000000000000000000060448201526064016101e2565b5f60208190527fada5013122d395ba3c54772283fb069b10426056ef8ca54750cb9bb552a59e7d805473ffffffffffffffffffffffffffffffffffffffff858116808552604085208054929093167fffffffffffffffffffffffff0000000000000000000000000000000000000000928316179092556001808552835490911690911790915580549161030b83610df7565b909155505060405173ffffffffffffffffffffffffffffffffffffffff831681527f9465fa0c962cc76958e6373a993326400c1c94f8be2fe3a952adfa7f60b2ea269060200160405180910390a1806002541461036b5761036b816103c2565b5050565b5f73ffffffffffffffffffffffffffffffffffffffff82166001148015906103bc575073ffffffffffffffffffffffffffffffffffffffff8281165f908152602081905260409020541615155b92915050565b6103ca610c06565b600154811115610436576040517f08c379a000000000000000000000000000000000000000000000000000000000815260206004820152600560248201527f475332303100000000000000000000000000000000000000000000000000000060448201526064016101e2565b60018110156104a1576040517f08c379a000000000000000000000000000000000000000000000000000000000815260206004820152600560248201527f475332303200000000000000000000000000000000000000000000000000000060448201526064016101e2565b60028190556040518181527f610f7ff2b304ae8903c3de74c60c6ab1f7d6226b3f52c5161905bb5ad4039c939060200160405180910390a150565b60605f60015467ffffffffffffffff8111156104fa576104fa610e2e565b604051908082528060200260200182016040528015610523578160200160208202803683370190505b5060015f90815260208190527fada5013122d395ba3c54772283fb069b10426056ef8ca54750cb9bb552a59e7d549192509073ffffffffffffffffffffffffffffffffffffffff165b73ffffffffffffffffffffffffffffffffffffffff81166001146105e8578083838151811061059d5761059d610e5b565b73ffffffffffffffffffffffffffffffffffffffff9283166020918202929092018101919091529181165f9081529182905260409091205416816105e081610df7565b92505061056c565b509092915050565b6105f8610c06565b73ffffffffffffffffffffffffffffffffffffffff811615801590610634575073ffffffffffffffffffffffffffffffffffffffff8116600114155b8015610656575073ffffffffffffffffffffffffffffffffffffffff81163014155b6106bc576040517f08c379a000000000000000000000000000000000000000000000000000000000815260206004820152600560248201527f475332303300000000000000000000000000000000000000000000000000000060448201526064016101e2565b73ffffffffffffffffffffffffffffffffffffffff8181165f90815260208190526040902054161561074a576040517f08c379a000000000000000000000000000000000000000000000000000000000815260206004820152600560248201527f475332303400000000000000000000000000000000000000000000000000000060448201526064016101e2565b73ffffffffffffffffffffffffffffffffffffffff821615801590610786575073ffffffffffffffffffffffffffffffffffffffff8216600114155b6107ec576040517f08c379a000000000000000000000000000000000000000000000000000000000815260206004820152600560248201527f475332303300000000000000000000000000000000000000000000000000000060448201526064016101e2565b73ffffffffffffffffffffffffffffffffffffffff8381165f9081526020819052604090205481169083161461087e576040517f08c379a000000000000000000000000000000000000000000000000000000000815260206004820152600560248201527f475332303500000000000000000000000000000000000000000000000000000060448201526064016101e2565b73ffffffffffffffffffffffffffffffffffffffff8281165f81815260208181526040808320805487871680865283862080549289167fffffffffffffffffffffffff0000000000000000000000000000000000000000938416179055968a1685528285208054821690971790965592849052825490941690915591519081527ff8d49fc529812e9a7c5c50e69c20f0dccc0db8fa95c98bc58cc9a4f1c1299eaf910160405180910390a160405173ffffffffffffffffffffffffffffffffffffffff821681527f9465fa0c962cc76958e6373a993326400c1c94f8be2fe3a952adfa7f60b2ea269060200160405180910390a1505050565b61097f610c06565b806001805461098e9190610e88565b10156109f6576040517f08c379a000000000000000000000000000000000000000000000000000000000815260206004820152600560248201527f475332303100000000000000000000000000000000000000000000000000000060448201526064016101e2565b73ffffffffffffffffffffffffffffffffffffffff821615801590610a32575073ffffffffffffffffffffffffffffffffffffffff8216600114155b610a98576040517f08c379a000000000000000000000000000000000000000000000000000000000815260206004820152600560248201527f475332303300000000000000000000000000000000000000000000000000000060448201526064016101e2565b73ffffffffffffffffffffffffffffffffffffffff8381165f90815260208190526040902054811690831614610b2a576040517f08c379a000000000000000000000000000000000000000000000000000000000815260206004820152600560248201527f475332303500000000000000000000000000000000000000000000000000000060448201526064016101e2565b73ffffffffffffffffffffffffffffffffffffffff8281165f81815260208190526040808220805488861684529183208054929095167fffffffffffffffffffffffff00000000000000000000000000000000000000009283161790945591815282549091169091556001805491610ba183610e9b565b909155505060405173ffffffffffffffffffffffffffffffffffffffff831681527ff8d49fc529812e9a7c5c50e69c20f0dccc0db8fa95c98bc58cc9a4f1c1299eaf9060200160405180910390a18060025414610c0157610c01816103c2565b505050565b333014610c6f576040517f08c379a000000000000000000000000000000000000000000000000000000000815260206004820152600560248201527f475330333100000000000000000000000000000000000000000000000000000060448201526064016101e2565b565b803573ffffffffffffffffffffffffffffffffffffffff81168114610c94575f5ffd5b919050565b5f5f60408385031215610caa575f5ffd5b610cb383610c71565b946020939093013593505050565b5f60208284031215610cd1575f5ffd5b610cda82610c71565b9392505050565b5f60208284031215610cf1575f5ffd5b5035919050565b602080825282518282018190525f918401906040840190835b81811015610d4557835173ffffffffffffffffffffffffffffffffffffffff16835260209384019390920191600101610d11565b509095945050505050565b5f5f5f60608486031215610d62575f5ffd5b610d6b84610c71565b9250610d7960208501610c71565b9150610d8760408501610c71565b90509250925092565b5f5f5f60608486031215610da2575f5ffd5b610dab84610c71565b9250610db960208501610c71565b929592945050506040919091013590565b7f4e487b71000000000000000000000000000000000000000000000000000000005f52601160045260245ffd5b5f7fffffffffffffffffffffffffffffffffffffffffffffffffffffffffffffffff8203610e2757610e27610dca565b5060010190565b7f4e487b71000000000000000000000000000000000000000000000000000000005f52604160045260245ffd5b7f4e487b71000000000000000000000000000000000000000000000000000000005f52603260045260245ffd5b818103818111156103bc576103bc610dca565b5f81610ea957610ea9610dca565b507fffffffffffffffffffffffffffffffffffffffffffffffffffffffffffffffff019056fea26469706673582212200806ab2eb315b0bc184280e21ee0695b5a6ad19446e2b8076dc6dbbac434157964736f6c634300081e0033","linkReferences":{}},"methodIdentifiers":{"addOwnerWithThreshold(address,uint256)":"0d582f13","changeThreshold(uint256)":"694e80c3","getOwners()":"a0e67e2b","getThreshold()":"e75235b8","isOwner(address)":"2f54bf6e","removeOwner(address,address,uint256)":"f8dc5dd9","swapOwner(address,address,address)":"e318b52b"},"id":50}