{"abi":[{"type":"constructor","inputs":[],"stateMutability":"nonpayable"},{"type":"function","name":"DEFAULT_CONTROLLER_NAME","inputs":[],"outputs":[{"name":"","type":"string","internalType":"string"}],"stateMutability":"view"},{"type":"function","name":"getControllerName","inputs":[{"name":"_controllerAddress","type":"address","internalType":"address"}],"outputs":[{"name":"","type":"string","internalType":"string"}],"stateMutability":"view"},{"type":"function","name":"owner","inputs":[],"outputs":[{"name":"","type":"address","internalType":"address"}],"stateMutability":"view"},{"type":"function","name":"setControllerName","inputs":[{"name":"controller","type":"address","internalType":"address"},{"name":"name","type":"string","internalType":"string"}],"outputs":[],"stateMutability":"nonpayable"},{"type":"function","name":"setOwner","inputs":[{"name":"newOwner","type":"address","internalType":"address"}],"outputs":[],"stateMutability":"nonpayable"},{"type":"event","name":"OwnerUpdated","inputs":[{"name":"user","type":"address","indexed":true,"internalType":"address"},{"name":"newOwner","type":"address","indexed":true,"internalType":"address"}],"anonymous":false}],"bytecode":{"object":"0x6080604052348015600e575f5ffd5b505f80546001600160a01b031916339081178255604051909182917f8292fce18fa69edf4db7b94ea2e58241df0ae57f97e0a6c9b29067028bf92d76908290a3506107038061005c5f395ff3fe608060405234801561000f575f5ffd5b5060043610610064575f3560e01c8063ad63d7f61161004d578063ad63d7f6146100c6578063da84f0811461010f578063f51438fc14610122575f5ffd5b806313af4035146100685780638da5cb5b1461007d575b5f5ffd5b61007b6100763660046103fc565b610135565b005b5f5461009c9073ffffffffffffffffffffffffffffffffffffffff1681565b60405173ffffffffffffffffffffffffffffffffffffffff90911681526020015b60405180910390f35b6101026040518060400160405280601981526020017f5741524e494e473a20434f4e545241435420554e4b4e4f574e0000000000000081525081565b6040516100bd919061041c565b61010261011d3660046103fc565b610229565b61007b61013036600461046f565b61031f565b5f5473ffffffffffffffffffffffffffffffffffffffff1633146101ba576040517f08c379a000000000000000000000000000000000000000000000000000000000815260206004820152600c60248201527f554e415554484f52495a4544000000000000000000000000000000000000000060448201526064015b60405180910390fd5b5f80547fffffffffffffffffffffffff00000000000000000000000000000000000000001673ffffffffffffffffffffffffffffffffffffffff83169081178255604051909133917f8292fce18fa69edf4db7b94ea2e58241df0ae57f97e0a6c9b29067028bf92d769190a350565b73ffffffffffffffffffffffffffffffffffffffff81165f9081526001602052604081208054606092919061025d906104ed565b80601f0160208091040260200160405190810160405280929190818152602001828054610289906104ed565b80156102d45780601f106102ab576101008083540402835291602001916102d4565b820191905f5260205f20905b8154815290600101906020018083116102b757829003601f168201915b5050505050905080515f03610319575060408051808201909152601981527f5741524e494e473a20434f4e545241435420554e4b4e4f574e0000000000000060208201525b92915050565b5f5473ffffffffffffffffffffffffffffffffffffffff16331461039f576040517f08c379a000000000000000000000000000000000000000000000000000000000815260206004820152600c60248201527f554e415554484f52495a4544000000000000000000000000000000000000000060448201526064016101b1565b73ffffffffffffffffffffffffffffffffffffffff83165f9081526001602052604090206103ce8284836105b7565b50505050565b803573ffffffffffffffffffffffffffffffffffffffff811681146103f7575f5ffd5b919050565b5f6020828403121561040c575f5ffd5b610415826103d4565b9392505050565b602081525f82518060208401528060208501604085015e5f6040828501015260407fffffffffffffffffffffffffffffffffffffffffffffffffffffffffffffffe0601f83011684010191505092915050565b5f5f5f60408486031215610481575f5ffd5b61048a846103d4565b9250602084013567ffffffffffffffff8111156104a5575f5ffd5b8401601f810186136104b5575f5ffd5b803567ffffffffffffffff8111156104cb575f5ffd5b8660208284010111156104dc575f5ffd5b939660209190910195509293505050565b600181811c9082168061050157607f821691505b602082108103610538577f4e487b71000000000000000000000000000000000000000000000000000000005f52602260045260245ffd5b50919050565b7f4e487b71000000000000000000000000000000000000000000000000000000005f52604160045260245ffd5b601f8211156105b257805f5260205f20601f840160051c810160208510156105905750805b601f840160051c820191505b818110156105af575f815560010161059c565b50505b505050565b67ffffffffffffffff8311156105cf576105cf61053e565b6105e3836105dd83546104ed565b8361056b565b5f601f841160018114610633575f85156105fd5750838201355b7fffffffffffffffffffffffffffffffffffffffffffffffffffffffffffffffff600387901b1c1916600186901b1783556105af565b5f838152602081207fffffffffffffffffffffffffffffffffffffffffffffffffffffffffffffffe08716915b828110156106805786850135825560209485019460019092019101610660565b50868210156106bb577fffffffffffffffffffffffffffffffffffffffffffffffffffffffffffffffff60f88860031b161c19848701351681555b505060018560011b018355505050505056fea2646970667358221220e65b9c18509759e29017ca3c977954b0415eabbd789e247b8eae0a8059a3cb2664736f6c634300081e0033","linkReferences":{}},"methodIdentifiers":{"DEFAULT_CONTROLLER_NAME()":"ad63d7f6","getControllerName(address)":"da84f081","owner()":"8da5cb5b","setControllerName(address,string)":"f51438fc","setOwner(address)":"13af4035"},"id":91}