{"abi":[{"type":"function","name":"validateAndCalculatePayment","inputs":[{"name":"from","type":"address","internalType":"address"},{"name":"claim","type":"tuple","internalType":"struct Claim","components":[{"name":"claimAmount","type":"uint256","internalType":"uint256"},{"name":"paidAmount","type":"uint256","internalType":"uint256"},{"name":"dueBy","type":"uint256","internalType":"uint256"},{"name":"impairmentGracePeriod","type":"uint256","internalType":"uint256"},{"name":"originalCreditor","type":"address","internalType":"address"},{"name":"debtor","type":"address","internalType":"address"},{"name":"creditor","type":"address","internalType":"address"},{"name":"token","type":"address","internalType":"address"},{"name":"controller","type":"address","internalType":"address"},{"name":"status","type":"Status","internalType":"enum Status"},{"name":"binding","type":"ClaimBinding","internalType":"enum ClaimBinding"}]},{"name":"paymentAmount","type":"uint256","internalType":"uint256"}],"outputs":[{"name":"totalPaidAmount","type":"uint256","internalType":"uint256"},{"name":"claimPaid","type":"bool","internalType":"bool"}],"stateMutability":"pure"},{"type":"function","name":"validateBindingUpdate","inputs":[{"name":"from","type":"address","internalType":"address"},{"name":"claim","type":"tuple","internalType":"struct Claim","components":[{"name":"claimAmount","type":"uint256","internalType":"uint256"},{"name":"paidAmount","type":"uint256","internalType":"uint256"},{"name":"dueBy","type":"uint256","internalType":"uint256"},{"name":"impairmentGracePeriod","type":"uint256","internalType":"uint256"},{"name":"originalCreditor","type":"address","internalType":"address"},{"name":"debtor","type":"address","internalType":"address"},{"name":"creditor","type":"address","internalType":"address"},{"name":"token","type":"address","internalType":"address"},{"name":"controller","type":"address","internalType":"address"},{"name":"status","type":"Status","internalType":"enum Status"},{"name":"binding","type":"ClaimBinding","internalType":"enum ClaimBinding"}]},{"name":"creditor","type":"address","internalType":"address"},{"name":"binding","type":"ClaimBinding","internalType":"enum ClaimBinding"}],"outputs":[],"stateMutability":"pure"},{"type":"function","name":"validateClaimCancellation","inputs":[{"name":"from","type":"address","internalType":"address"},{"name":"claim","type":"tuple","internalType":"struct Claim","components":[{"name":"claimAmount","type":"uint256","internalType":"uint256"},{"name":"paidAmount","type":"uint256","internalType":"uint256"},{"name":"dueBy","type":"uint256","internalType":"uint256"},{"name":"impairmentGracePeriod","type":"uint256","internalType":"uint256"},{"name":"originalCreditor","type":"address","internalType":"address"},{"name":"debtor","type":"address","internalType":"address"},{"name":"creditor","type":"address","internalType":"address"},{"name":"token","type":"address","internalType":"address"},{"name":"controller","type":"address","internalType":"address"},{"name":"status","type":"Status","internalType":"enum Status"},{"name":"binding","type":"ClaimBinding","internalType":"enum ClaimBinding"}]},{"name":"creditor","type":"address","internalType":"address"}],"outputs":[],"stateMutability":"pure"},{"type":"function","name":"validateClaimImpairment","inputs":[{"name":"from","type":"address","internalType":"address"},{"name":"claim","type":"tuple","internalType":"struct Claim","components":[{"name":"claimAmount","type":"uint256","internalType":"uint256"},{"name":"paidAmount","type":"uint256","internalType":"uint256"},{"name":"dueBy","type":"uint256","internalType":"uint256"},{"name":"impairmentGracePeriod","type":"uint256","internalType":"uint256"},{"name":"originalCreditor","type":"address","internalType":"address"},{"name":"debtor","type":"address","internalType":"address"},{"name":"creditor","type":"address","internalType":"address"},{"name":"token","type":"address","internalType":"address"},{"name":"controller","type":"address","internalType":"address"},{"name":"status","type":"Status","internalType":"enum Status"},{"name":"binding","type":"ClaimBinding","internalType":"enum ClaimBinding"}]},{"name":"creditor","type":"address","internalType":"address"}],"outputs":[],"stateMutability":"view"},{"type":"function","name":"validateCreateClaimApproval","inputs":[{"name":"approval","type":"tuple","internalType":"struct CreateClaimApproval","components":[{"name":"isBindingAllowed","type":"bool","internalType":"bool"},{"name":"approvalType","type":"CreateClaimApprovalType","internalType":"enum CreateClaimApprovalType"},{"name":"approvalCount","type":"uint64","internalType":"uint64"},{"name":"nonce","type":"uint64","internalType":"uint64"}]},{"name":"from","type":"address","internalType":"address"},{"name":"creditor","type":"address","internalType":"address"},{"name":"debtor","type":"address","internalType":"address"},{"name":"binding","type":"ClaimBinding","internalType":"enum ClaimBinding"}],"outputs":[],"stateMutability":"pure"},{"type":"function","name":"validateCreateClaimParams","inputs":[{"name":"from","type":"address","internalType":"address"},{"name":"params","type":"tuple","internalType":"struct CreateClaimParams","components":[{"name":"creditor","type":"address","internalType":"address"},{"name":"debtor","type":"address","internalType":"address"},{"name":"claimAmount","type":"uint256","internalType":"uint256"},{"name":"description","type":"string","internalType":"string"},{"name":"token","type":"address","internalType":"address"},{"name":"binding","type":"ClaimBinding","internalType":"enum ClaimBinding"},{"name":"dueBy","type":"uint256","internalType":"uint256"},{"name":"impairmentGracePeriod","type":"uint256","internalType":"uint256"}]},{"name":"feeExemptions","type":"IPermissions","internalType":"contract IPermissions"},{"name":"CORE_PROTOCOL_FEE","type":"uint256","internalType":"uint256"},{"name":"_msgValue","type":"uint256","internalType":"uint256"}],"outputs":[],"stateMutability":"view"},{"type":"function","name":"validateMarkAsPaid","inputs":[{"name":"from","type":"address","internalType":"address"},{"name":"claim","type":"tuple","internalType":"struct Claim","components":[{"name":"claimAmount","type":"uint256","internalType":"uint256"},{"name":"paidAmount","type":"uint256","internalType":"uint256"},{"name":"dueBy","type":"uint256","internalType":"uint256"},{"name":"impairmentGracePeriod","type":"uint256","internalType":"uint256"},{"name":"originalCreditor","type":"address","internalType":"address"},{"name":"debtor","type":"address","internalType":"address"},{"name":"creditor","type":"address","internalType":"address"},{"name":"token","type":"address","internalType":"address"},{"name":"controller","type":"address","internalType":"address"},{"name":"status","type":"Status","internalType":"enum Status"},{"name":"binding","type":"ClaimBinding","internalType":"enum ClaimBinding"}]},{"name":"creditor","type":"address","internalType":"address"}],"outputs":[],"stateMutability":"pure"},{"type":"error","name":"CannotBindClaim","inputs":[]},{"type":"error","name":"ClaimBound","inputs":[]},{"type":"error","name":"ClaimNotPending","inputs":[]},{"type":"error","name":"IncorrectFee","inputs":[]},{"type":"error","name":"InvalidDueBy","inputs":[]},{"type":"error","name":"NoDueBy","inputs":[]},{"type":"error","name":"NotApproved","inputs":[]},{"type":"error","name":"NotCreditor","inputs":[]},{"type":"error","name":"NotCreditorOrDebtor","inputs":[]},{"type":"error","name":"NotDebtor","inputs":[]},{"type":"error","name":"OverPaying","inputs":[{"name":"paymentAmount","type":"uint256","internalType":"uint256"}]},{"type":"error","name":"PastApprovalDeadline","inputs":[]},{"type":"error","name":"PayingZero","inputs":[]},{"type":"error","name":"PaymentUnderApproved","inputs":[]},{"type":"error","name":"StillInGracePeriod","inputs":[]},{"type":"error","name":"ZeroAmount","inputs":[]}],"bytecode":{"object":"0x611339610034600b8282823980515f1a607314602857634e487b7160e01b5f525f60045260245ffd5b305f52607381538281f3fe7300000000000000000000000000000000000000003014608060405260043610610085575f3560e01c80636bc7636f116100635780636bc7636f146100c457806381f0780e146100d7578063a7e4e161146100ea578063cc11e50b146100fd575f5ffd5b806320727a0d146100895780633b5d59161461009e578063490080a6146100b1575b5f5ffd5b61009c610097366004611014565b610129565b005b61009c6100ac366004611014565b6102ac565b61009c6100bf366004611014565b6103a8565b61009c6100d236600461105d565b61050a565b61009c6100e53660046110d1565b610904565b61009c6100f836600461114e565b610b53565b61011061010b366004611203565b610cd0565b6040805192835290151560208301520160405180910390f35b6002826101400151600281111561014257610142611242565b14801561017e57508273ffffffffffffffffffffffffffffffffffffffff168260a0015173ffffffffffffffffffffffffffffffffffffffff16145b156101b5576040517fab9d400300000000000000000000000000000000000000000000000000000000815260040160405180910390fd5b5f82610120015160058111156101cd576101cd611242565b14610204576040517f48f8d3b100000000000000000000000000000000000000000000000000000000815260040160405180910390fd5b8160a0015173ffffffffffffffffffffffffffffffffffffffff168373ffffffffffffffffffffffffffffffffffffffff161415801561027057508073ffffffffffffffffffffffffffffffffffffffff168373ffffffffffffffffffffffffffffffffffffffff1614155b156102a7576040517f5d6db4c200000000000000000000000000000000000000000000000000000000815260040160405180910390fd5b505050565b5f82610120015160058111156102c4576102c4611242565b141580156102e95750600182610120015160058111156102e6576102e6611242565b14155b801561030c57506005826101200151600581111561030957610309611242565b14155b15610343576040517f48f8d3b100000000000000000000000000000000000000000000000000000000815260040160405180910390fd5b8073ffffffffffffffffffffffffffffffffffffffff168373ffffffffffffffffffffffffffffffffffffffff16146102a7576040517fe16e54be00000000000000000000000000000000000000000000000000000000815260040160405180910390fd5b5f82610120015160058111156103c0576103c0611242565b141580156103e55750600182610120015160058111156103e2576103e2611242565b14155b1561041c576040517f48f8d3b100000000000000000000000000000000000000000000000000000000815260040160405180910390fd5b8073ffffffffffffffffffffffffffffffffffffffff168373ffffffffffffffffffffffffffffffffffffffff1614610481576040517fe16e54be00000000000000000000000000000000000000000000000000000000815260040160405180910390fd5b81604001515f036104be576040517f1636f45600000000000000000000000000000000000000000000000000000000815260040160405180910390fd5b816060015182604001516104d2919061126f565b42116102a7576040517f7f8de3c100000000000000000000000000000000000000000000000000000000815260040160405180910390fd5b73ffffffffffffffffffffffffffffffffffffffff831663babcc53961053660408701602088016112ad565b6040517fffffffff0000000000000000000000000000000000000000000000000000000060e084901b16815273ffffffffffffffffffffffffffffffffffffffff9091166004820152602401602060405180830381865afa15801561059d573d5f5f3e3d5ffd5b505050506040513d601f19601f820116820180604052508101906105c191906112cf565b15801561067f575073ffffffffffffffffffffffffffffffffffffffff831663babcc5396105f260208701876112ad565b6040517fffffffff0000000000000000000000000000000000000000000000000000000060e084901b16815273ffffffffffffffffffffffffffffffffffffffff9091166004820152602401602060405180830381865afa158015610659573d5f5f3e3d5ffd5b505050506040513d601f19601f8201168201806040525081019061067d91906112cf565b155b801561068b5750818114155b156106c2576040517fcd3cb2bb00000000000000000000000000000000000000000000000000000000815260040160405180910390fd5b6106d260408501602086016112ad565b73ffffffffffffffffffffffffffffffffffffffff168573ffffffffffffffffffffffffffffffffffffffff1614158015610745575061071560208501856112ad565b73ffffffffffffffffffffffffffffffffffffffff168573ffffffffffffffffffffffffffffffffffffffff1614155b1561077c576040517f5d6db4c200000000000000000000000000000000000000000000000000000000815260040160405180910390fd5b60c0840135158015906107a45750428460c0013510806107a4575064ffffffffff60c0850135115b156107db576040517f1380485600000000000000000000000000000000000000000000000000000000815260040160405180910390fd5b64ffffffffff60e0850135111561081e576040517f1380485600000000000000000000000000000000000000000000000000000000815260040160405180910390fd5b600261083060c0860160a087016112ea565b600281111561084157610841611242565b148015610889575061085960408501602086016112ad565b73ffffffffffffffffffffffffffffffffffffffff168573ffffffffffffffffffffffffffffffffffffffff1614155b156108c0576040517fdd8f07cb00000000000000000000000000000000000000000000000000000000815260040160405180910390fd5b83604001355f036108fd576040517f1f2a200500000000000000000000000000000000000000000000000000000000815260040160405180910390fd5b5050505050565b5f836101200151600581111561091c5761091c611242565b1415801561094157506001836101200151600581111561093e5761093e611242565b14155b801561096457506005836101200151600581111561096157610961611242565b14155b1561099b576040517f48f8d3b100000000000000000000000000000000000000000000000000000000815260040160405180910390fd5b8173ffffffffffffffffffffffffffffffffffffffff168473ffffffffffffffffffffffffffffffffffffffff1614158015610a0757508260a0015173ffffffffffffffffffffffffffffffffffffffff168473ffffffffffffffffffffffffffffffffffffffff1614155b15610a3e576040517f5d6db4c200000000000000000000000000000000000000000000000000000000815260040160405180910390fd5b8173ffffffffffffffffffffffffffffffffffffffff168473ffffffffffffffffffffffffffffffffffffffff16148015610a8a57506002816002811115610a8857610a88611242565b145b15610ac1576040517fdd8f07cb00000000000000000000000000000000000000000000000000000000815260040160405180910390fd5b8260a0015173ffffffffffffffffffffffffffffffffffffffff168473ffffffffffffffffffffffffffffffffffffffff16148015610b16575060028361014001516002811115610b1457610b14611242565b145b15610b4d576040517fab9d400300000000000000000000000000000000000000000000000000000000815260040160405180910390fd5b50505050565b846040015167ffffffffffffffff165f03610b9a576040517fc19f17a900000000000000000000000000000000000000000000000000000000815260040160405180910390fd5b6002816002811115610bae57610bae611242565b148015610bba57508451155b15610bf1576040517fdd8f07cb00000000000000000000000000000000000000000000000000000000815260040160405180910390fd5b600185602001516003811115610c0957610c09611242565b148015610c4257508273ffffffffffffffffffffffffffffffffffffffff168473ffffffffffffffffffffffffffffffffffffffff1614155b80610c995750600285602001516003811115610c6057610c60611242565b148015610c9957508173ffffffffffffffffffffffffffffffffffffffff168473ffffffffffffffffffffffffffffffffffffffff1614155b156108fd576040517fc19f17a900000000000000000000000000000000000000000000000000000000815260040160405180910390fd5b5f5f825f03610d0b576040517f924614c700000000000000000000000000000000000000000000000000000000815260040160405180910390fd5b5f8461012001516005811115610d2357610d23611242565b14158015610d48575060018461012001516005811115610d4557610d45611242565b14155b8015610d6b575060058461012001516005811115610d6857610d68611242565b14155b15610da2576040517f48f8d3b100000000000000000000000000000000000000000000000000000000815260040160405180910390fd5b8360a0015173ffffffffffffffffffffffffffffffffffffffff168573ffffffffffffffffffffffffffffffffffffffff1614610e0b576040517f2e15fb7c00000000000000000000000000000000000000000000000000000000815260040160405180910390fd5b828460200151610e1b919061126f565b84519092508083149150821115610e65576040517f866309750000000000000000000000000000000000000000000000000000000081526004810184905260240160405180910390fd5b935093915050565b73ffffffffffffffffffffffffffffffffffffffff81168114610e8e575f5ffd5b50565b8035610e9c81610e6d565b919050565b604051610160810167ffffffffffffffff81118282101715610eea577f4e487b71000000000000000000000000000000000000000000000000000000005f52604160045260245ffd5b60405290565b6040516080810167ffffffffffffffff81118282101715610eea577f4e487b71000000000000000000000000000000000000000000000000000000005f52604160045260245ffd5b803560068110610e9c575f5ffd5b803560038110610e9c575f5ffd5b5f6101608284031215610f65575f5ffd5b610f6d610ea1565b823581526020808401359082015260408084013590820152606080840135908201529050610f9d60808301610e91565b6080820152610fae60a08301610e91565b60a0820152610fbf60c08301610e91565b60c0820152610fd060e08301610e91565b60e0820152610fe26101008301610e91565b610100820152610ff56101208301610f38565b6101208201526110086101408301610f46565b61014082015292915050565b5f5f5f6101a08486031215611027575f5ffd5b833561103281610e6d565b92506110418560208601610f54565b915061018084013561105281610e6d565b809150509250925092565b5f5f5f5f5f60a08688031215611071575f5ffd5b853561107c81610e6d565b9450602086013567ffffffffffffffff811115611097575f5ffd5b860161010081890312156110a9575f5ffd5b935060408601356110b981610e6d565b94979396509394606081013594506080013592915050565b5f5f5f5f6101c085870312156110e5575f5ffd5b84356110f081610e6d565b93506110ff8660208701610f54565b925061018085013561111081610e6d565b915061111f6101a08601610f46565b905092959194509250565b8015158114610e8e575f5ffd5b803567ffffffffffffffff81168114610e9c575f5ffd5b5f5f5f5f5f858703610100811215611164575f5ffd5b6080811215611171575f5ffd5b5061117a610ef0565b86356111858161112a565b8152602087013560048110611198575f5ffd5b60208201526111a960408801611137565b60408201526111ba60608801611137565b606082015294506111cd60808701610e91565b93506111db60a08701610e91565b92506111e960c08701610e91565b91506111f760e08701610f46565b90509295509295909350565b5f5f5f6101a08486031215611216575f5ffd5b833561122181610e6d565b92506112308560208601610f54565b92959294505050610180919091013590565b7f4e487b71000000000000000000000000000000000000000000000000000000005f52602160045260245ffd5b808201808211156112a7577f4e487b71000000000000000000000000000000000000000000000000000000005f52601160045260245ffd5b92915050565b5f602082840312156112bd575f5ffd5b81356112c881610e6d565b9392505050565b5f602082840312156112df575f5ffd5b81516112c88161112a565b5f602082840312156112fa575f5ffd5b6112c882610f4656fea2646970667358221220de50e718ecba104e2959d6c6e005c3ad11f4f23430e1ac29ad7a2afba45b454c64736f6c634300081e0033","linkReferences":{}},"methodIdentifiers":{"validateAndCalculatePayment(address,Claim,uint256)":"cc11e50b","validateBindingUpdate(address,Claim,address,ClaimBinding)":"81f0780e","validateClaimCancellation(address,Claim,address)":"20727a0d","validateClaimImpairment(address,Claim,address)":"490080a6","validateCreateClaimApproval(CreateClaimApproval,address,address,address,ClaimBinding)":"a7e4e161","validateCreateClaimParams(address,CreateClaimParams,IPermissions,uint256,uint256)":"6bc7636f","validateMarkAsPaid(address,Claim,address)":"3b5d5916"},"id":91}