{"abi":[{"type":"constructor","inputs":[],"stateMutability":"nonpayable"},{"type":"function","name":"allow","inputs":[{"name":"_address","type":"address","internalType":"address"}],"outputs":[],"stateMutability":"nonpayable"},{"type":"function","name":"disallow","inputs":[{"name":"_address","type":"address","internalType":"address"}],"outputs":[],"stateMutability":"nonpayable"},{"type":"function","name":"isAllowed","inputs":[{"name":"_address","type":"address","internalType":"address"}],"outputs":[{"name":"","type":"bool","internalType":"bool"}],"stateMutability":"view"},{"type":"function","name":"owner","inputs":[],"outputs":[{"name":"","type":"address","internalType":"address"}],"stateMutability":"view"},{"type":"function","name":"renounceOwnership","inputs":[],"outputs":[],"stateMutability":"nonpayable"},{"type":"function","name":"supportsInterface","inputs":[{"name":"interfaceId","type":"bytes4","internalType":"bytes4"}],"outputs":[{"name":"","type":"bool","internalType":"bool"}],"stateMutability":"view"},{"type":"function","name":"transferOwnership","inputs":[{"name":"newOwner","type":"address","internalType":"address"}],"outputs":[],"stateMutability":"nonpayable"},{"type":"event","name":"AccessGranted","inputs":[{"name":"_account","type":"address","indexed":true,"internalType":"address"}],"anonymous":false},{"type":"event","name":"AccessRevoked","inputs":[{"name":"_account","type":"address","indexed":true,"internalType":"address"}],"anonymous":false},{"type":"event","name":"OwnershipTransferred","inputs":[{"name":"previousOwner","type":"address","indexed":true,"internalType":"address"},{"name":"newOwner","type":"address","indexed":true,"internalType":"address"}],"anonymous":false},{"type":"error","name":"OwnableInvalidOwner","inputs":[{"name":"owner","type":"address","internalType":"address"}]},{"type":"error","name":"OwnableUnauthorizedAccount","inputs":[{"name":"account","type":"address","internalType":"address"}]}],"bytecode":{"object":"0x6080604052348015600e575f5ffd5b503380603357604051631e4fbdf760e01b81525f600482015260240160405180910390fd5b603a81603f565b50608e565b5f80546001600160a01b038381166001600160a01b0319831681178455604051919092169283917f8be0079c531659141344cd1fd0a4f28419497f9722a3daafe3b4186f6b6457e09190a35050565b6104da8061009b5f395ff3fe608060405234801561000f575f5ffd5b506004361061007a575f3560e01c8063a9ed9cb811610058578063a9ed9cb8146100d7578063babcc539146100ea578063f2fde38b14610122578063ff9913e814610135575f5ffd5b806301ffc9a71461007e578063715018a6146100a65780638da5cb5b146100b0575b5f5ffd5b61009161008c36600461042b565b610148565b60405190151581526020015b60405180910390f35b6100ae610158565b005b5f5460405173ffffffffffffffffffffffffffffffffffffffff909116815260200161009d565b6100ae6100e5366004610471565b61016b565b6100916100f8366004610471565b73ffffffffffffffffffffffffffffffffffffffff165f9081526001602052604090205460ff1690565b6100ae610130366004610471565b6101e6565b6100ae610143366004610471565b61024e565b5f610152826102cf565b92915050565b610160610365565b6101695f6103b7565b565b610173610365565b73ffffffffffffffffffffffffffffffffffffffff81165f8181526001602052604080822080547fffffffffffffffffffffffffffffffffffffffffffffffffffffffffffffff00169055517f1b9b72fde9da721e70e6aca3b0cf4cbe73e82765ef1f280157740376531bfdd89190a250565b6101ee610365565b73ffffffffffffffffffffffffffffffffffffffff8116610242576040517f1e4fbdf70000000000000000000000000000000000000000000000000000000081525f60048201526024015b60405180910390fd5b61024b816103b7565b50565b610256610365565b73ffffffffffffffffffffffffffffffffffffffff81165f81815260016020819052604080832080547fffffffffffffffffffffffffffffffffffffffffffffffffffffffffffffff0016909217909155517fdeb5c31899474fe8c086c95ff9344480d19365676a6a1d22d37bb8e3e7c0ef189190a250565b5f7fffffffff0000000000000000000000000000000000000000000000000000000082167fbabcc53900000000000000000000000000000000000000000000000000000000148061015257507f01ffc9a7000000000000000000000000000000000000000000000000000000007fffffffff00000000000000000000000000000000000000000000000000000000831614610152565b5f5473ffffffffffffffffffffffffffffffffffffffff163314610169576040517f118cdaa7000000000000000000000000000000000000000000000000000000008152336004820152602401610239565b5f805473ffffffffffffffffffffffffffffffffffffffff8381167fffffffffffffffffffffffff0000000000000000000000000000000000000000831681178455604051919092169283917f8be0079c531659141344cd1fd0a4f28419497f9722a3daafe3b4186f6b6457e09190a35050565b5f6020828403121561043b575f5ffd5b81357fffffffff000000000000000000000000000000000000000000000000000000008116811461046a575f5ffd5b9392505050565b5f60208284031215610481575f5ffd5b813573ffffffffffffffffffffffffffffffffffffffff8116811461046a575f5ffdfea2646970667358221220b83b1af867886deeac9320943b5863dafa5a87a39fa136032a1dddcc4c0d574564736f6c634300081e0033","linkReferences":{}},"methodIdentifiers":{"allow(address)":"ff9913e8","disallow(address)":"a9ed9cb8","isAllowed(address)":"babcc539","owner()":"8da5cb5b","renounceOwnership()":"715018a6","supportsInterface(bytes4)":"01ffc9a7","transferOwnership(address)":"f2fde38b"},"id":78}