{"abi":[{"type":"function","name":"NAME","inputs":[],"outputs":[{"name":"","type":"string","internalType":"string"}],"stateMutability":"view"},{"type":"function","name":"VERSION","inputs":[],"outputs":[{"name":"","type":"string","internalType":"string"}],"stateMutability":"view"},{"type":"function","name":"getMessageHash","inputs":[{"name":"message","type":"bytes","internalType":"bytes"}],"outputs":[{"name":"","type":"bytes32","internalType":"bytes32"}],"stateMutability":"view"},{"type":"function","name":"getMessageHashForSafe","inputs":[{"name":"safe","type":"address","internalType":"contract GnosisSafe"},{"name":"message","type":"bytes","internalType":"bytes"}],"outputs":[{"name":"","type":"bytes32","internalType":"bytes32"}],"stateMutability":"view"},{"type":"function","name":"getModules","inputs":[],"outputs":[{"name":"","type":"address[]","internalType":"address[]"}],"stateMutability":"view"},{"type":"function","name":"isValidSignature","inputs":[{"name":"_dataHash","type":"bytes32","internalType":"bytes32"},{"name":"_signature","type":"bytes","internalType":"bytes"}],"outputs":[{"name":"","type":"bytes4","internalType":"bytes4"}],"stateMutability":"view"},{"type":"function","name":"isValidSignature","inputs":[{"name":"_data","type":"bytes","internalType":"bytes"},{"name":"_signature","type":"bytes","internalType":"bytes"}],"outputs":[{"name":"","type":"bytes4","internalType":"bytes4"}],"stateMutability":"view"},{"type":"function","name":"onERC1155BatchReceived","inputs":[{"name":"","type":"address","internalType":"address"},{"name":"","type":"address","internalType":"address"},{"name":"","type":"uint256[]","internalType":"uint256[]"},{"name":"","type":"uint256[]","internalType":"uint256[]"},{"name":"","type":"bytes","internalType":"bytes"}],"outputs":[{"name":"","type":"bytes4","internalType":"bytes4"}],"stateMutability":"pure"},{"type":"function","name":"onERC1155Received","inputs":[{"name":"","type":"address","internalType":"address"},{"name":"","type":"address","internalType":"address"},{"name":"","type":"uint256","internalType":"uint256"},{"name":"","type":"uint256","internalType":"uint256"},{"name":"","type":"bytes","internalType":"bytes"}],"outputs":[{"name":"","type":"bytes4","internalType":"bytes4"}],"stateMutability":"pure"},{"type":"function","name":"onERC721Received","inputs":[{"name":"","type":"address","internalType":"address"},{"name":"","type":"address","internalType":"address"},{"name":"","type":"uint256","internalType":"uint256"},{"name":"","type":"bytes","internalType":"bytes"}],"outputs":[{"name":"","type":"bytes4","internalType":"bytes4"}],"stateMutability":"pure"},{"type":"function","name":"simulate","inputs":[{"name":"targetContract","type":"address","internalType":"address"},{"name":"calldataPayload","type":"bytes","internalType":"bytes"}],"outputs":[{"name":"response","type":"bytes","internalType":"bytes"}],"stateMutability":"nonpayable"},{"type":"function","name":"supportsInterface","inputs":[{"name":"interfaceId","type":"bytes4","internalType":"bytes4"}],"outputs":[{"name":"","type":"bool","internalType":"bool"}],"stateMutability":"view"},{"type":"function","name":"tokensReceived","inputs":[{"name":"","type":"address","internalType":"address"},{"name":"","type":"address","internalType":"address"},{"name":"","type":"address","internalType":"address"},{"name":"","type":"uint256","internalType":"uint256"},{"name":"","type":"bytes","internalType":"bytes"},{"name":"","type":"bytes","internalType":"bytes"}],"outputs":[],"stateMutability":"pure"}],"bytecode":{"object":"0x6080604052348015600e575f5ffd5b506111278061001c5f395ff3fe608060405234801561000f575f5ffd5b50600436106100d9575f3560e01c80636ac2478411610088578063bc197c8111610063578063bc197c8114610240578063bd61951d1461027b578063f23a6e611461028e578063ffa1ad74146102c7575f5ffd5b80636ac24784146101cf578063a3f4df7e146101e2578063b2494df31461022b575f5ffd5b8063150b7a02116100b8578063150b7a02146101405780631626ba7e146101a957806320c13b0b146101bc575f5ffd5b806223de29146100dd57806301ffc9a7146100f75780630a1028c41461011f575b5f5ffd5b6100f56100eb366004610980565b5050505050505050565b005b61010a610105366004610a5c565b610303565b60405190151581526020015b60405180910390f35b61013261012d366004610b7d565b6103e7565b604051908152602001610116565b61017861014e366004610bb7565b7f150b7a020000000000000000000000000000000000000000000000000000000095945050505050565b6040517fffffffff000000000000000000000000000000000000000000000000000000009091168152602001610116565b6101786101b7366004610c25565b6103f2565b6101786101ca366004610c6d565b61050f565b6101326101dd366004610cd2565b6106d1565b61021e6040518060400160405280601881526020017f44656661756c742043616c6c6261636b2048616e646c6572000000000000000081525081565b6040516101169190610d55565b61023361080a565b6040516101169190610d67565b61017861024e366004610e00565b7fbc197c810000000000000000000000000000000000000000000000000000000098975050505050505050565b61021e610289366004610ea3565b6108b7565b61017861029c366004610edb565b7ff23a6e61000000000000000000000000000000000000000000000000000000009695505050505050565b61021e6040518060400160405280600581526020017f312e302e3000000000000000000000000000000000000000000000000000000081525081565b5f7fffffffff0000000000000000000000000000000000000000000000000000000082167f4e2312e000000000000000000000000000000000000000000000000000000000148061039557507fffffffff0000000000000000000000000000000000000000000000000000000082167f150b7a0200000000000000000000000000000000000000000000000000000000145b806103e157507fffffffff0000000000000000000000000000000000000000000000000000000082167f01ffc9a700000000000000000000000000000000000000000000000000000000145b92915050565b5f6103e133836106d1565b60408051602080820186905282518083039091018152818301928390527f20c13b0b000000000000000000000000000000000000000000000000000000009092525f913391839183916320c13b0b916104519189908990604401610f52565b602060405180830381865afa15801561046c573d5f5f3e3d5ffd5b505050506040513d601f19601f820116820180604052508101906104909190610fb4565b90507fffffffff0000000000000000000000000000000000000000000000000000000081167f20c13b0b00000000000000000000000000000000000000000000000000000000146104e1575f610503565b7f1626ba7e000000000000000000000000000000000000000000000000000000005b925050505b9392505050565b5f338161051c82866106d1565b905083515f03610624576040517f5ae6bd370000000000000000000000000000000000000000000000000000000081526004810182905273ffffffffffffffffffffffffffffffffffffffff831690635ae6bd3790602401602060405180830381865afa15801561058f573d5f5f3e3d5ffd5b505050506040513d601f19601f820116820180604052508101906105b39190610fcf565b5f0361061f576040517f08c379a000000000000000000000000000000000000000000000000000000000815260206004820152601160248201527f48617368206e6f7420617070726f766564000000000000000000000000000000604482015260640160405180910390fd5b6106a7565b6040517f934f3a1100000000000000000000000000000000000000000000000000000000815273ffffffffffffffffffffffffffffffffffffffff83169063934f3a119061067a90849089908990600401610fe6565b5f6040518083038186803b158015610690575f5ffd5b505afa1580156106a2573d5f5f3e3d5ffd5b505050505b507f20c13b0b00000000000000000000000000000000000000000000000000000000949350505050565b5f5f7f60b3cbf8b4a223d68d641b3b6ddf9a298e7f33710cf3d3a9d1146b5a6150fbca5f1b8380519060200120604051602001610718929190918252602082015260400190565b604051602081830303815290604052805190602001209050601960f81b600160f81b8573ffffffffffffffffffffffffffffffffffffffff1663f698da256040518163ffffffff1660e01b8152600401602060405180830381865afa158015610783573d5f5f3e3d5ffd5b505050506040513d601f19601f820116820180604052508101906107a79190610fcf565b6040517fff0000000000000000000000000000000000000000000000000000000000000093841660208201529290911660218301526022820152604281018290526062016040516020818303038152906040528051906020012091505092915050565b6040517fcc2f845200000000000000000000000000000000000000000000000000000000815260016004820152600a602482015260609033905f90829063cc2f8452906044015f60405180830381865afa15801561086a573d5f5f3e3d5ffd5b505050506040513d5f823e601f3d9081017fffffffffffffffffffffffffffffffffffffffffffffffffffffffffffffffe01682016040526108af919081019061102a565b509392505050565b60606040517fb4faba090000000000000000000000000000000000000000000000000000000081526004360360048083013760205f36835f335af1505060203d036040519150808201604052806020833e505f5161050857805160208201fd5b73ffffffffffffffffffffffffffffffffffffffff81168114610938575f5ffd5b50565b5f5f83601f84011261094b575f5ffd5b50813567ffffffffffffffff811115610962575f5ffd5b602083019150836020828501011115610979575f5ffd5b9250929050565b5f5f5f5f5f5f5f5f60c0898b031215610997575f5ffd5b88356109a281610917565b975060208901356109b281610917565b965060408901356109c281610917565b955060608901359450608089013567ffffffffffffffff8111156109e4575f5ffd5b6109f08b828c0161093b565b90955093505060a089013567ffffffffffffffff811115610a0f575f5ffd5b610a1b8b828c0161093b565b999c989b5096995094979396929594505050565b7fffffffff0000000000000000000000000000000000000000000000000000000081168114610938575f5ffd5b5f60208284031215610a6c575f5ffd5b813561050881610a2f565b7f4e487b71000000000000000000000000000000000000000000000000000000005f52604160045260245ffd5b604051601f82017fffffffffffffffffffffffffffffffffffffffffffffffffffffffffffffffe016810167ffffffffffffffff81118282101715610aeb57610aeb610a77565b604052919050565b5f82601f830112610b02575f5ffd5b813567ffffffffffffffff811115610b1c57610b1c610a77565b610b4d60207fffffffffffffffffffffffffffffffffffffffffffffffffffffffffffffffe0601f84011601610aa4565b818152846020838601011115610b61575f5ffd5b816020850160208301375f918101602001919091529392505050565b5f60208284031215610b8d575f5ffd5b813567ffffffffffffffff811115610ba3575f5ffd5b610baf84828501610af3565b949350505050565b5f5f5f5f5f60808688031215610bcb575f5ffd5b8535610bd681610917565b94506020860135610be681610917565b935060408601359250606086013567ffffffffffffffff811115610c08575f5ffd5b610c148882890161093b565b969995985093965092949392505050565b5f5f5f60408486031215610c37575f5ffd5b83359250602084013567ffffffffffffffff811115610c54575f5ffd5b610c608682870161093b565b9497909650939450505050565b5f5f60408385031215610c7e575f5ffd5b823567ffffffffffffffff811115610c94575f5ffd5b610ca085828601610af3565b925050602083013567ffffffffffffffff811115610cbc575f5ffd5b610cc885828601610af3565b9150509250929050565b5f5f60408385031215610ce3575f5ffd5b8235610cee81610917565b9150602083013567ffffffffffffffff811115610cbc575f5ffd5b5f81518084528060208401602086015e5f6020828601015260207fffffffffffffffffffffffffffffffffffffffffffffffffffffffffffffffe0601f83011685010191505092915050565b602081525f6105086020830184610d09565b602080825282518282018190525f918401906040840190835b81811015610db457835173ffffffffffffffffffffffffffffffffffffffff16835260209384019390920191600101610d80565b509095945050505050565b5f5f83601f840112610dcf575f5ffd5b50813567ffffffffffffffff811115610de6575f5ffd5b6020830191508360208260051b8501011115610979575f5ffd5b5f5f5f5f5f5f5f5f60a0898b031215610e17575f5ffd5b8835610e2281610917565b97506020890135610e3281610917565b9650604089013567ffffffffffffffff811115610e4d575f5ffd5b610e598b828c01610dbf565b909750955050606089013567ffffffffffffffff811115610e78575f5ffd5b610e848b828c01610dbf565b909550935050608089013567ffffffffffffffff811115610a0f575f5ffd5b5f5f5f60408486031215610eb5575f5ffd5b8335610ec081610917565b9250602084013567ffffffffffffffff811115610c54575f5ffd5b5f5f5f5f5f5f60a08789031215610ef0575f5ffd5b8635610efb81610917565b95506020870135610f0b81610917565b94506040870135935060608701359250608087013567ffffffffffffffff811115610f34575f5ffd5b610f4089828a0161093b565b979a9699509497509295939492505050565b604081525f610f646040830186610d09565b8281036020840152838152838560208301375f6020858301015260207fffffffffffffffffffffffffffffffffffffffffffffffffffffffffffffffe0601f860116820101915050949350505050565b5f60208284031215610fc4575f5ffd5b815161050881610a2f565b5f60208284031215610fdf575f5ffd5b5051919050565b838152606060208201525f610ffe6060830185610d09565b82810360408401526110108185610d09565b9695505050505050565b805161102581610917565b919050565b5f5f6040838503121561103b575f5ffd5b825167ffffffffffffffff811115611051575f5ffd5b8301601f81018513611061575f5ffd5b805167ffffffffffffffff81111561107b5761107b610a77565b8060051b61108b60208201610aa4565b918252602081840181019290810190888411156110a6575f5ffd5b6020850194505b838510156110d457845192506110c283610917565b828252602094850194909101906110ad565b80965050505050506110e86020840161101a565b9050925092905056fea2646970667358221220f648260585cfd6424d3da58e07b9c8f83da25bd05595e006d8491e49ac7a0c2b64736f6c634300081e0033","linkReferences":{}},"methodIdentifiers":{"NAME()":"a3f4df7e","VERSION()":"ffa1ad74","getMessageHash(bytes)":"0a1028c4","getMessageHashForSafe(address,bytes)":"6ac24784","getModules()":"b2494df3","isValidSignature(bytes,bytes)":"20c13b0b","isValidSignature(bytes32,bytes)":"1626ba7e","onERC1155BatchReceived(address,address,uint256[],uint256[],bytes)":"bc197c81","onERC1155Received(address,address,uint256,uint256,bytes)":"f23a6e61","onERC721Received(address,address,uint256,bytes)":"150b7a02","simulate(address,bytes)":"bd61951d","supportsInterface(bytes4)":"01ffc9a7","tokensReceived(address,address,address,uint256,bytes,bytes)":"0023de29"},"id":103}