{"abi":[{"type":"constructor","inputs":[{"name":"_bullaClaim","type":"address","internalType":"address"}],"stateMutability":"nonpayable"},{"type":"function","name":"CREATE_CLAIM_TYPEHASH","inputs":[],"outputs":[{"name":"","type":"bytes32","internalType":"bytes32"}],"stateMutability":"view"},{"type":"function","name":"DOMAIN_SEPARATOR","inputs":[],"outputs":[{"name":"","type":"bytes32","internalType":"bytes32"}],"stateMutability":"view"},{"type":"function","name":"EIP712_NAME","inputs":[],"outputs":[{"name":"","type":"string","internalType":"string"}],"stateMutability":"view"},{"type":"function","name":"approvalRegistry","inputs":[],"outputs":[{"name":"","type":"address","internalType":"contract IBullaApprovalRegistry"}],"stateMutability":"view"},{"type":"function","name":"controllerRegistry","inputs":[],"outputs":[{"name":"","type":"address","internalType":"contract IBullaControllerRegistry"}],"stateMutability":"view"},{"type":"function","name":"getERC20PermitDigest","inputs":[{"name":"token","type":"address","internalType":"address"},{"name":"owner","type":"address","internalType":"address"},{"name":"spender","type":"address","internalType":"address"},{"name":"value","type":"uint256","internalType":"uint256"},{"name":"deadline","type":"uint256","internalType":"uint256"}],"outputs":[{"name":"","type":"bytes32","internalType":"bytes32"}],"stateMutability":"view"},{"type":"function","name":"getPermitCreateClaimDigest","inputs":[{"name":"user","type":"address","internalType":"address"},{"name":"controller","type":"address","internalType":"address"},{"name":"approvalType","type":"uint8","internalType":"enum CreateClaimApprovalType"},{"name":"approvalCount","type":"uint64","internalType":"uint64"},{"name":"isBindingAllowed","type":"bool","internalType":"bool"}],"outputs":[{"name":"","type":"bytes32","internalType":"bytes32"}],"stateMutability":"view"},{"type":"function","name":"signCreateClaimPermit","inputs":[{"name":"pk","type":"uint256","internalType":"uint256"},{"name":"user","type":"address","internalType":"address"},{"name":"controller","type":"address","internalType":"address"},{"name":"approvalType","type":"uint8","internalType":"enum CreateClaimApprovalType"},{"name":"approvalCount","type":"uint64","internalType":"uint64"},{"name":"isBindingAllowed","type":"bool","internalType":"bool"}],"outputs":[{"name":"","type":"bytes","internalType":"bytes"}],"stateMutability":"nonpayable"},{"type":"function","name":"signERC20Permit","inputs":[{"name":"pk","type":"uint256","internalType":"uint256"},{"name":"token","type":"address","internalType":"address"},{"name":"owner","type":"address","internalType":"address"},{"name":"spender","type":"address","internalType":"address"},{"name":"value","type":"uint256","internalType":"uint256"},{"name":"deadline","type":"uint256","internalType":"uint256"}],"outputs":[{"name":"","type":"bytes","internalType":"bytes"}],"stateMutability":"nonpayable"},{"type":"function","name":"signERC20PermitComponents","inputs":[{"name":"pk","type":"uint256","internalType":"uint256"},{"name":"token","type":"address","internalType":"address"},{"name":"owner","type":"address","internalType":"address"},{"name":"spender","type":"address","internalType":"address"},{"name":"value","type":"uint256","internalType":"uint256"},{"name":"deadline","type":"uint256","internalType":"uint256"}],"outputs":[{"name":"v","type":"uint8","internalType":"uint8"},{"name":"r","type":"bytes32","internalType":"bytes32"},{"name":"s","type":"bytes32","internalType":"bytes32"}],"stateMutability":"nonpayable"}],"bytecode":{"object":"0x608060405234801561000f575f5ffd5b506040516111d73803806111d783398101604081905261002e916101d1565b5f819050806001600160a01b03166364af66926040518163ffffffff1660e01b8152600401602060405180830381865afa15801561006e573d5f5f3e3d5ffd5b505050506040513d601f19601f8201168201806040525081019061009291906101d1565b5f80546001600160a01b0319166001600160a01b039290921691821790556040805163bbc4541b60e01b8152905163bbc4541b916004808201926020929091908290030181865afa1580156100e9573d5f5f3e3d5ffd5b505050506040513d601f19601f8201168201806040525081019061010d91906101d1565b600180546001600160a01b0319166001600160a01b039283161790555f5460408051633644e51560e01b815290519190921691633644e5159160048083019260209291908290030181865afa158015610168573d5f5f3e3d5ffd5b505050506040513d601f19601f8201168201806040525081019061018c91906101f3565b6003556040805160c08101909152609880825261113f602083013980516020909101206004555061020a9050565b6001600160a01b03811681146101ce575f5ffd5b50565b5f602082840312156101e1575f5ffd5b81516101ec816101ba565b9392505050565b5f60208284031215610203575f5ffd5b5051919050565b610f28806102175f395ff3fe608060405234801561000f575f5ffd5b50600436106100b9575f3560e01c806376baf2a311610072578063bbc4541b11610058578063bbc4541b14610174578063cda2dacf14610194578063d516f559146101c6575f5ffd5b806376baf2a31461014e578063992bc5b614610161575f5ffd5b8063394b4f6b116100a2578063394b4f6b146100e25780633b2fb7a8146100f557806364af66921461010a575f5ffd5b80632c9345f3146100bd5780633644e515146100d9575b5f5ffd5b6100c660045481565b6040519081526020015b60405180910390f35b6100c660035481565b6100c66100f036600461096a565b6101d9565b6100fd6104bd565b6040516100d09190610a07565b5f546101299073ffffffffffffffffffffffffffffffffffffffff1681565b60405173ffffffffffffffffffffffffffffffffffffffff90911681526020016100d0565b6100fd61015c366004610a20565b610549565b6100fd61016f366004610aac565b610655565b6001546101299073ffffffffffffffffffffffffffffffffffffffff1681565b6101a76101a2366004610a20565b610665565b6040805160ff90941684526020840192909252908201526060016100d0565b6100c66101d4366004610b1d565b61071e565b60405173ffffffffffffffffffffffffffffffffffffffff85811660248301525f917f6e71edae12b1b97f4d1f60370fef10105fa2faae0126114a169c64845d6126c991839182918291908b1690604401604080517fffffffffffffffffffffffffffffffffffffffffffffffffffffffffffffffe08184030181529181526020820180517bffffffffffffffffffffffffffffffffffffffffffffffffffffffff167f7ecebe0000000000000000000000000000000000000000000000000000000000179052516102ab9190610b86565b5f60405180830381855afa9150503d805f81146102e3576040519150601f19603f3d011682016040523d82523d5f602084013e6102e8565b606091505b50915091508180156102fc57506020815110155b1561031857808060200190518101906103159190610b9c565b92505b60408051600481526024810182526020810180517bffffffffffffffffffffffffffffffffffffffffffffffffffffffff167f3644e5150000000000000000000000000000000000000000000000000000000017905290515f9173ffffffffffffffffffffffffffffffffffffffff8d16916103949190610b86565b5f60405180830381855afa9150503d805f81146103cc576040519150601f19603f3d011682016040523d82523d5f602084013e6103d1565b606091505b5090935091508280156103e657506020825110155b1561040257818060200190518101906103ff9190610b9c565b90505b6040805160208082019790975273ffffffffffffffffffffffffffffffffffffffff9b8c168183015299909a1660608a01526080890197909752505060a086015260c0808601939093528551808603909301835260e0850186528251928101929092207f19010000000000000000000000000000000000000000000000000000000000006101008601526101028501939093525061012280840192909252835180840390920182526101429092019092528151910120919050565b600280546104ca90610bb3565b80601f01602080910402602001604051908101604052809291908181526020018280546104f690610bb3565b80156105415780601f1061051857610100808354040283529160200191610541565b820191905f5260205f20905b81548152906001019060200180831161052457829003601f168201915b505050505081565b60605f61055987878787876101d9565b6040517fe341eaa4000000000000000000000000000000000000000000000000000000008152600481018a9052602481018290529091505f9081908190737109709ecfa91a80626ff3989d68f67f5b1dd12d9063e341eaa490604401606060405180830381865afa1580156105d0573d5f5f3e3d5ffd5b505050506040513d601f19601f820116820180604052508101906105f49190610c04565b6040805160208101939093528281019190915260f89290921b7fff000000000000000000000000000000000000000000000000000000000000001660608201528151604181830301815260619091019091529b9a5050505050505050505050565b60605f610559878787878761071e565b5f5f5f5f61067689898989896101d9565b6040517fe341eaa4000000000000000000000000000000000000000000000000000000008152600481018c905260248101829052909150737109709ecfa91a80626ff3989d68f67f5b1dd12d9063e341eaa490604401606060405180830381865afa1580156106e7573d5f5f3e3d5ffd5b505050506040513d601f19601f8201168201806040525081019061070b9190610c04565b9350935093505096509650969350505050565b5f60035461072f8787878787610789565b6040517f190100000000000000000000000000000000000000000000000000000000000060208201526022810192909252604282015260620160405160208183030381529060405280519060200120905095945050505050565b5f80546040517f0ee174ec00000000000000000000000000000000000000000000000000000000815273ffffffffffffffffffffffffffffffffffffffff8881166004830152878116602483015283921690630ee174ec90604401608060405180830381865afa1580156107ff573d5f5f3e3d5ffd5b505050506040513d601f19601f820116820180604052508101906108239190610cb9565b600480546001546040517f4bec051c00000000000000000000000000000000000000000000000000000000815293945090928a928a9273__$fcfe7e8b8f2c2f7f344b6d742dbb8593a1$__92634bec051c9261089e9273ffffffffffffffffffffffffffffffffffffffff169186918e918e918e9101610d77565b5f60405180830381865af41580156108b8573d5f5f3e3d5ffd5b505050506040513d5f823e601f3d9081017fffffffffffffffffffffffffffffffffffffffffffffffffffffffffffffffe01682016040526108fd9190810190610dcb565b80516020918201206060860151604051610920969594938c928c928c9201610e7d565b6040516020818303038152906040528051906020012091505095945050505050565b803573ffffffffffffffffffffffffffffffffffffffff81168114610965575f5ffd5b919050565b5f5f5f5f5f60a0868803121561097e575f5ffd5b61098786610942565b945061099560208701610942565b93506109a360408701610942565b94979396509394606081013594506080013592915050565b5f81518084528060208401602086015e5f6020828601015260207fffffffffffffffffffffffffffffffffffffffffffffffffffffffffffffffe0601f83011685010191505092915050565b602081525f610a1960208301846109bb565b9392505050565b5f5f5f5f5f5f60c08789031215610a35575f5ffd5b86359550610a4560208801610942565b9450610a5360408801610942565b9350610a6160608801610942565b9598949750929560808101359460a0909101359350915050565b60048110610a87575f5ffd5b50565b67ffffffffffffffff81168114610a87575f5ffd5b8015158114610a87575f5ffd5b5f5f5f5f5f5f60c08789031215610ac1575f5ffd5b86359550610ad160208801610942565b9450610adf60408801610942565b93506060870135610aef81610a7b565b92506080870135610aff81610a8a565b915060a0870135610b0f81610a9f565b809150509295509295509295565b5f5f5f5f5f60a08688031215610b31575f5ffd5b610b3a86610942565b9450610b4860208701610942565b93506040860135610b5881610a7b565b92506060860135610b6881610a8a565b91506080860135610b7881610a9f565b809150509295509295909350565b5f82518060208501845e5f920191825250919050565b5f60208284031215610bac575f5ffd5b5051919050565b600181811c90821680610bc757607f821691505b602082108103610bfe577f4e487b71000000000000000000000000000000000000000000000000000000005f52602260045260245ffd5b50919050565b5f5f5f60608486031215610c16575f5ffd5b835160ff81168114610c26575f5ffd5b602085015160409095015190969495509392505050565b7f4e487b71000000000000000000000000000000000000000000000000000000005f52604160045260245ffd5b604051601f82017fffffffffffffffffffffffffffffffffffffffffffffffffffffffffffffffe016810167ffffffffffffffff81118282101715610cb157610cb1610c3d565b604052919050565b5f6080828403128015610cca575f5ffd5b506040516080810167ffffffffffffffff81118282101715610cee57610cee610c3d565b6040528251610cfc81610a9f565b81526020830151610d0c81610a7b565b60208201526040830151610d1f81610a8a565b60408201526060830151610d3281610a8a565b60608201529392505050565b60048110610d73577f4e487b71000000000000000000000000000000000000000000000000000000005f52602160045260245ffd5b9052565b73ffffffffffffffffffffffffffffffffffffffff86811682528516602082015260a08101610da96040830186610d3e565b67ffffffffffffffff8416606083015282151560808301529695505050505050565b5f60208284031215610ddb575f5ffd5b815167ffffffffffffffff811115610df1575f5ffd5b8201601f81018413610e01575f5ffd5b805167ffffffffffffffff811115610e1b57610e1b610c3d565b610e4c60207fffffffffffffffffffffffffffffffffffffffffffffffffffffffffffffffe0601f84011601610c6a565b818152856020838501011115610e60575f5ffd5b8160208401602083015e5f91810160200191909152949350505050565b88815273ffffffffffffffffffffffffffffffffffffffff888116602083015287166040820152606081018690526101008101610ebd6080830187610d3e565b67ffffffffffffffff851660a083015283151560c083015267ffffffffffffffff831660e0830152999850505050505050505056fea2646970667358221220ea894a7c08a59cbeb2e8517d3b4dd3811b59456c5910a9beab7ecf50e2965a9564736f6c634300081e0033417070726f7665437265617465436c61696d457874656e73696f6e286164647265737320757365722c6164647265737320636f6e74726f6c6c65722c737472696e67206d6573736167652c75696e743820617070726f76616c547970652c75696e7432353620617070726f76616c436f756e742c626f6f6c20697342696e64696e67416c6c6f7765642c75696e74323536206e6f6e636529","linkReferences":{"src/libraries/BullaClaimPermitLib.sol":{"BullaClaimPermitLib":[{"start":2674,"length":20}]}}},"methodIdentifiers":{"CREATE_CLAIM_TYPEHASH()":"2c9345f3","DOMAIN_SEPARATOR()":"3644e515","EIP712_NAME()":"3b2fb7a8","approvalRegistry()":"64af6692","controllerRegistry()":"bbc4541b","getERC20PermitDigest(address,address,address,uint256,uint256)":"394b4f6b","getPermitCreateClaimDigest(address,address,uint8,uint64,bool)":"d516f559","signCreateClaimPermit(uint256,address,address,uint8,uint64,bool)":"992bc5b6","signERC20Permit(uint256,address,address,address,uint256,uint256)":"76baf2a3","signERC20PermitComponents(uint256,address,address,address,uint256,uint256)":"cda2dacf"},"id":103}