{"abi":[{"type":"function","name":"computeInterest","inputs":[{"name":"remainingPrincipal","type":"uint256","internalType":"uint256"},{"name":"interestStartTimestamp","type":"uint256","internalType":"uint256"},{"name":"config","type":"tuple","internalType":"struct InterestConfig","components":[{"name":"interestRateBps","type":"uint16","internalType":"uint16"},{"name":"numberOfPeriodsPerYear","type":"uint16","internalType":"uint16"}]},{"name":"state","type":"tuple","internalType":"struct InterestComputationState","components":[{"name":"accruedInterest","type":"uint256","internalType":"uint256"},{"name":"latestPeriodNumber","type":"uint256","internalType":"uint256"},{"name":"protocolFeeBps","type":"uint16","internalType":"uint16"},{"name":"totalGrossInterestPaid","type":"uint256","internalType":"uint256"}]}],"outputs":[{"name":"","type":"tuple","internalType":"struct InterestComputationState","components":[{"name":"accruedInterest","type":"uint256","internalType":"uint256"},{"name":"latestPeriodNumber","type":"uint256","internalType":"uint256"},{"name":"protocolFeeBps","type":"uint16","internalType":"uint16"},{"name":"totalGrossInterestPaid","type":"uint256","internalType":"uint256"}]}],"stateMutability":"view"},{"type":"function","name":"validateInterestConfig","inputs":[{"name":"config","type":"tuple","internalType":"struct InterestConfig","components":[{"name":"interestRateBps","type":"uint16","internalType":"uint16"},{"name":"numberOfPeriodsPerYear","type":"uint16","internalType":"uint16"}]}],"outputs":[],"stateMutability":"pure"},{"type":"error","name":"InvalidPeriodsPerYear","inputs":[]}],"bytecode":{"object":"0x6107f3610034600b8282823980515f1a607314602857634e487b7160e01b5f525f60045260245ffd5b305f52607381538281f3fe730000000000000000000000000000000000000000301460806040526004361061003f575f3560e01c80639d6c6ae714610043578063ff7f444314610058575b5f5ffd5b6100566100513660046105e9565b6100ab565b005b61006b610066366004610603565b610105565b6040516100a29190815181526020808301519082015260408083015161ffff16908201526060918201519181019190915260800190565b60405180910390f35b805161ffff165f036100ba5750565b61016d61ffff16816020015161ffff161115610102576040517f33ae25aa00000000000000000000000000000000000000000000000000000000815260040160405180910390fd5b50565b61013060405180608001604052805f81526020015f81526020015f61ffff1681526020015f81525090565b8251429061ffff161580610151575061016d61ffff16846020015161ffff16115b8061015a575084155b806101655750808510155b8061016e575085155b1561017c57829150506102d5565b836020015161ffff165f036101a05761019886868686856102dd565b9150506102d5565b602084015161ffff165f6101b8826301e13380610740565b90505f8784116101c8575f6101dd565b816101d38986610753565b6101dd9190610740565b90505f866020015182116101f1575f610200565b60208701516102009083610753565b9050805f036102165786955050505050506102d5565b5f61024b88604001518a5f015161022d9190610766565b61ffff16670de0b6b3a764000061024661271089610780565b6103dc565b90505f61026961026383670de0b6b3a7640000610797565b8461048d565b90505f61028d8a5f01518e61027e9190610797565b83670de0b6b3a76400006103dc565b90505f61029a8e83610753565b905060405180608001604052808281526020018781526020018c6040015161ffff1681526020018c6060015181525099505050505050505050505b949350505050565b61030860405180608001604052805f81526020015f81526020015f61ffff1681526020015f81525090565b5f6103138684610753565b90505f6103236201518083610740565b9050805f036103365784925050506103d3565b5f61034c82670de0b6b3a764000061016d6103dc565b90505f61037a8760400151895f01516103659190610766565b61ffff16670de0b6b3a76400006127106103dc565b90505f6103a26103938c84670de0b6b3a76400006103dc565b84670de0b6b3a76400006103dc565b604080516080810182529182525f60208301528981015161ffff16908201526060808a015190820152955050505050505b95945050505050565b5f5f5f6103e98686610506565b91509150815f0361040d57838181610403576104036106e6565b0492505050610486565b818411610424576104246003851502601118610541565b5f848688095f868103871696879004966002600389028118808a02820302808a02820302808a02820302808a02820302808a02820302808a02909103029181900381900460010185841190960395909502919093039390930492909217029150505b9392505050565b670de0b6b3a76400005b8115610500576104a86002836107aa565b6001036104cf57670de0b6b3a76400006104c28483610780565b6104cc9190610740565b90505b670de0b6b3a76400006104e28480610780565b6104ec9190610740565b92506104f9600283610740565b9150610497565b92915050565b5f807fffffffffffffffffffffffffffffffffffffffffffffffffffffffffffffffff83850993909202808410938190039390930393915050565b634e487b715f52806020526024601cfd5b803561ffff81168114610563575f5ffd5b919050565b5f60408284031215610578575f5ffd5b6040805190810167ffffffffffffffff811182821017156105c0577f4e487b71000000000000000000000000000000000000000000000000000000005f52604160045260245ffd5b6040529050806105cf83610552565b81526105dd60208401610552565b60208201525092915050565b5f604082840312156105f9575f5ffd5b6104868383610568565b5f5f5f5f848603610100811215610618575f5ffd5b85359450602086013593506106308760408801610568565b925060807fffffffffffffffffffffffffffffffffffffffffffffffffffffffffffffff8082011215610661575f5ffd5b506040516080810167ffffffffffffffff811182821017156106aa577f4e487b71000000000000000000000000000000000000000000000000000000005f52604160045260245ffd5b6040526080860135815260a086013560208201526106ca60c08701610552565b604082015260e095909501356060860152509194909350909190565b7f4e487b71000000000000000000000000000000000000000000000000000000005f52601260045260245ffd5b7f4e487b71000000000000000000000000000000000000000000000000000000005f52601160045260245ffd5b5f8261074e5761074e6106e6565b500490565b8181038181111561050057610500610713565b61ffff818116838216019081111561050057610500610713565b808202811582820484141761050057610500610713565b8082018082111561050057610500610713565b5f826107b8576107b86106e6565b50069056fea2646970667358221220da8d1f7882d524b73c4bca5bd0d3b48b3ea3e9f7fe321a32d3794637067d8f5964736f6c634300081e0033","linkReferences":{}},"methodIdentifiers":{"computeInterest(uint256,uint256,InterestConfig,InterestComputationState)":"ff7f4443","validateInterestConfig(InterestConfig)":"9d6c6ae7"},"id":68}