{"abi":[{"type":"constructor","inputs":[{"name":"name","type":"string","internalType":"string"},{"name":"symbol","type":"string","internalType":"string"},{"name":"initialAccount","type":"address","internalType":"address"},{"name":"initialBalance","type":"uint256","internalType":"uint256"}],"stateMutability":"nonpayable"},{"type":"function","name":"DOMAIN_SEPARATOR","inputs":[],"outputs":[{"name":"","type":"bytes32","internalType":"bytes32"}],"stateMutability":"view"},{"type":"function","name":"allowance","inputs":[{"name":"owner","type":"address","internalType":"address"},{"name":"spender","type":"address","internalType":"address"}],"outputs":[{"name":"","type":"uint256","internalType":"uint256"}],"stateMutability":"view"},{"type":"function","name":"approve","inputs":[{"name":"spender","type":"address","internalType":"address"},{"name":"value","type":"uint256","internalType":"uint256"}],"outputs":[{"name":"","type":"bool","internalType":"bool"}],"stateMutability":"nonpayable"},{"type":"function","name":"balanceOf","inputs":[{"name":"account","type":"address","internalType":"address"}],"outputs":[{"name":"","type":"uint256","internalType":"uint256"}],"stateMutability":"view"},{"type":"function","name":"burn","inputs":[{"name":"account","type":"address","internalType":"address"},{"name":"amount","type":"uint256","internalType":"uint256"}],"outputs":[],"stateMutability":"nonpayable"},{"type":"function","name":"decimals","inputs":[],"outputs":[{"name":"","type":"uint8","internalType":"uint8"}],"stateMutability":"view"},{"type":"function","name":"eip712Domain","inputs":[],"outputs":[{"name":"fields","type":"bytes1","internalType":"bytes1"},{"name":"name","type":"string","internalType":"string"},{"name":"version","type":"string","internalType":"string"},{"name":"chainId","type":"uint256","internalType":"uint256"},{"name":"verifyingContract","type":"address","internalType":"address"},{"name":"salt","type":"bytes32","internalType":"bytes32"},{"name":"extensions","type":"uint256[]","internalType":"uint256[]"}],"stateMutability":"view"},{"type":"function","name":"mint","inputs":[{"name":"account","type":"address","internalType":"address"},{"name":"amount","type":"uint256","internalType":"uint256"}],"outputs":[],"stateMutability":"nonpayable"},{"type":"function","name":"name","inputs":[],"outputs":[{"name":"","type":"string","internalType":"string"}],"stateMutability":"view"},{"type":"function","name":"nonces","inputs":[{"name":"owner","type":"address","internalType":"address"}],"outputs":[{"name":"","type":"uint256","internalType":"uint256"}],"stateMutability":"view"},{"type":"function","name":"permit","inputs":[{"name":"owner","type":"address","internalType":"address"},{"name":"spender","type":"address","internalType":"address"},{"name":"value","type":"uint256","internalType":"uint256"},{"name":"deadline","type":"uint256","internalType":"uint256"},{"name":"v","type":"uint8","internalType":"uint8"},{"name":"r","type":"bytes32","internalType":"bytes32"},{"name":"s","type":"bytes32","internalType":"bytes32"}],"outputs":[],"stateMutability":"nonpayable"},{"type":"function","name":"symbol","inputs":[],"outputs":[{"name":"","type":"string","internalType":"string"}],"stateMutability":"view"},{"type":"function","name":"totalSupply","inputs":[],"outputs":[{"name":"","type":"uint256","internalType":"uint256"}],"stateMutability":"view"},{"type":"function","name":"transfer","inputs":[{"name":"to","type":"address","internalType":"address"},{"name":"value","type":"uint256","internalType":"uint256"}],"outputs":[{"name":"","type":"bool","internalType":"bool"}],"stateMutability":"nonpayable"},{"type":"function","name":"transferFrom","inputs":[{"name":"from","type":"address","internalType":"address"},{"name":"to","type":"address","internalType":"address"},{"name":"value","type":"uint256","internalType":"uint256"}],"outputs":[{"name":"","type":"bool","internalType":"bool"}],"stateMutability":"nonpayable"},{"type":"event","name":"Approval","inputs":[{"name":"owner","type":"address","indexed":true,"internalType":"address"},{"name":"spender","type":"address","indexed":true,"internalType":"address"},{"name":"value","type":"uint256","indexed":false,"internalType":"uint256"}],"anonymous":false},{"type":"event","name":"EIP712DomainChanged","inputs":[],"anonymous":false},{"type":"event","name":"Transfer","inputs":[{"name":"from","type":"address","indexed":true,"internalType":"address"},{"name":"to","type":"address","indexed":true,"internalType":"address"},{"name":"value","type":"uint256","indexed":false,"internalType":"uint256"}],"anonymous":false},{"type":"error","name":"ECDSAInvalidSignature","inputs":[]},{"type":"error","name":"ECDSAInvalidSignatureLength","inputs":[{"name":"length","type":"uint256","internalType":"uint256"}]},{"type":"error","name":"ECDSAInvalidSignatureS","inputs":[{"name":"s","type":"bytes32","internalType":"bytes32"}]},{"type":"error","name":"ERC20InsufficientAllowance","inputs":[{"name":"spender","type":"address","internalType":"address"},{"name":"allowance","type":"uint256","internalType":"uint256"},{"name":"needed","type":"uint256","internalType":"uint256"}]},{"type":"error","name":"ERC20InsufficientBalance","inputs":[{"name":"sender","type":"address","internalType":"address"},{"name":"balance","type":"uint256","internalType":"uint256"},{"name":"needed","type":"uint256","internalType":"uint256"}]},{"type":"error","name":"ERC20InvalidApprover","inputs":[{"name":"approver","type":"address","internalType":"address"}]},{"type":"error","name":"ERC20InvalidReceiver","inputs":[{"name":"receiver","type":"address","internalType":"address"}]},{"type":"error","name":"ERC20InvalidSender","inputs":[{"name":"sender","type":"address","internalType":"address"}]},{"type":"error","name":"ERC20InvalidSpender","inputs":[{"name":"spender","type":"address","internalType":"address"}]},{"type":"error","name":"ERC2612ExpiredSignature","inputs":[{"name":"deadline","type":"uint256","internalType":"uint256"}]},{"type":"error","name":"ERC2612InvalidSigner","inputs":[{"name":"signer","type":"address","internalType":"address"},{"name":"owner","type":"address","internalType":"address"}]},{"type":"error","name":"InvalidAccountNonce","inputs":[{"name":"account","type":"address","internalType":"address"},{"name":"currentNonce","type":"uint256","internalType":"uint256"}]},{"type":"error","name":"InvalidShortString","inputs":[]},{"type":"error","name":"StringTooLong","inputs":[{"name":"str","type":"string","internalType":"string"}]}],"bytecode":{"object":"0x610160604052348015610010575f5ffd5b5060405161197a38038061197a83398101604081905261002f9161039d565b6040805180820190915260018152603160f81b6020820152849081908186600361005983826104ac565b50600461006682826104ac565b506100769150839050600561012e565b6101205261008581600661012e565b61014052815160208084019190912060e052815190820120610100524660a05261011160e05161010051604080517f8b73c3c69bb8fe3d512ecc4cf759cc79239f7b179b0ffacaa9a75d522b39400f60208201529081019290925260608201524660808201523060a08201525f9060c00160405160208183030381529060405280519060200120905090565b60805250503060c052506101258282610160565b505050506105dd565b5f602083511015610149576101428361019d565b905061015a565b8161015484826104ac565b5060ff90505b92915050565b6001600160a01b03821661018e5760405163ec442f0560e01b81525f60048201526024015b60405180910390fd5b6101995f83836101da565b5050565b5f5f829050601f815111156101c7578260405163305a27a960e01b81526004016101859190610566565b80516101d28261059b565b179392505050565b6001600160a01b038316610204578060025f8282546101f991906105be565b909155506102749050565b6001600160a01b0383165f90815260208190526040902054818110156102565760405163391434e360e21b81526001600160a01b03851660048201526024810182905260448101839052606401610185565b6001600160a01b0384165f9081526020819052604090209082900390555b6001600160a01b038216610290576002805482900390556102ae565b6001600160a01b0382165f9081526020819052604090208054820190555b816001600160a01b0316836001600160a01b03167fddf252ad1be2c89b69c2b068fc378daa952ba7f163c4a11628f55a4df523b3ef836040516102f391815260200190565b60405180910390a3505050565b634e487b7160e01b5f52604160045260245ffd5b5f82601f830112610323575f5ffd5b81516001600160401b0381111561033c5761033c610300565b604051601f8201601f19908116603f011681016001600160401b038111828210171561036a5761036a610300565b604052818152838201602001851015610381575f5ffd5b8160208501602083015e5f918101602001919091529392505050565b5f5f5f5f608085870312156103b0575f5ffd5b84516001600160401b038111156103c5575f5ffd5b6103d187828801610314565b602087015190955090506001600160401b038111156103ee575f5ffd5b6103fa87828801610314565b604087015190945090506001600160a01b0381168114610418575f5ffd5b6060959095015193969295505050565b600181811c9082168061043c57607f821691505b60208210810361045a57634e487b7160e01b5f52602260045260245ffd5b50919050565b601f8211156104a757805f5260205f20601f840160051c810160208510156104855750805b601f840160051c820191505b818110156104a4575f8155600101610491565b50505b505050565b81516001600160401b038111156104c5576104c5610300565b6104d9816104d38454610428565b84610460565b6020601f82116001811461050b575f83156104f45750848201515b5f19600385901b1c1916600184901b1784556104a4565b5f84815260208120601f198516915b8281101561053a578785015182556020948501946001909201910161051a565b508482101561055757868401515f19600387901b60f8161c191681555b50505050600190811b01905550565b602081525f82518060208401528060208501604085015e5f604082850101526040601f19601f83011684010191505092915050565b8051602080830151919081101561045a575f1960209190910360031b1b16919050565b8082018082111561015a57634e487b7160e01b5f52601160045260245ffd5b60805160a05160c05160e05161010051610120516101405161134c61062e5f395f61090001525f6108d301525f61082201525f6107fa01525f61075501525f61077f01525f6107a9015261134c5ff3fe608060405234801561000f575f5ffd5b50600436106100f0575f3560e01c806370a08231116100935780639dc29fac116100635780639dc29fac146101f1578063a9059cbb14610204578063d505accf14610217578063dd62ed3e1461022a575f5ffd5b806370a08231146101865780637ecebe00146101bb57806384b0196e146101ce57806395d89b41146101e9575f5ffd5b806323b872dd116100ce57806323b872dd14610147578063313ce5671461015a5780633644e5151461016957806340c10f1914610171575f5ffd5b806306fdde03146100f4578063095ea7b31461011257806318160ddd14610135575b5f5ffd5b6100fc61026f565b6040516101099190611047565b60405180910390f35b610125610120366004611088565b6102ff565b6040519015158152602001610109565b6002545b604051908152602001610109565b6101256101553660046110b0565b610318565b60405160128152602001610109565b61013961033b565b61018461017f366004611088565b610349565b005b6101396101943660046110ea565b73ffffffffffffffffffffffffffffffffffffffff165f9081526020819052604090205490565b6101396101c93660046110ea565b610357565b6101d6610381565b6040516101099796959493929190611103565b6100fc6103df565b6101846101ff366004611088565b6103ee565b610125610212366004611088565b6103f8565b6101846102253660046111c2565b610405565b61013961023836600461122f565b73ffffffffffffffffffffffffffffffffffffffff9182165f90815260016020908152604080832093909416825291909152205490565b60606003805461027e90611260565b80601f01602080910402602001604051908101604052809291908181526020018280546102aa90611260565b80156102f55780601f106102cc576101008083540402835291602001916102f5565b820191905f5260205f20905b8154815290600101906020018083116102d857829003601f168201915b5050505050905090565b5f3361030c8185856105b3565b60019150505b92915050565b5f336103258582856105c5565b610330858585610693565b506001949350505050565b5f61034461073c565b905090565b6103538282610872565b5050565b73ffffffffffffffffffffffffffffffffffffffff81165f90815260076020526040812054610312565b5f6060805f5f5f60606103926108cc565b61039a6108f9565b604080515f808252602082019092527f0f000000000000000000000000000000000000000000000000000000000000009b939a50919850469750309650945092509050565b60606004805461027e90611260565b6103538282610926565b5f3361030c818585610693565b83421115610447576040517f62791302000000000000000000000000000000000000000000000000000000008152600481018590526024015b60405180910390fd5b5f7f6e71edae12b1b97f4d1f60370fef10105fa2faae0126114a169c64845d6126c988888861049f8c73ffffffffffffffffffffffffffffffffffffffff165f90815260076020526040902080546001810190915590565b60408051602081019690965273ffffffffffffffffffffffffffffffffffffffff94851690860152929091166060840152608083015260a082015260c0810186905260e0016040516020818303038152906040528051906020012090505f61050682610980565b90505f610515828787876109c7565b90508973ffffffffffffffffffffffffffffffffffffffff168173ffffffffffffffffffffffffffffffffffffffff161461059c576040517f4b800e4600000000000000000000000000000000000000000000000000000000815273ffffffffffffffffffffffffffffffffffffffff80831660048301528b16602482015260440161043e565b6105a78a8a8a6105b3565b50505050505050505050565b6105c083838360016109f3565b505050565b73ffffffffffffffffffffffffffffffffffffffff8381165f908152600160209081526040808320938616835292905220547fffffffffffffffffffffffffffffffffffffffffffffffffffffffffffffffff81101561068d578181101561067f576040517ffb8f41b200000000000000000000000000000000000000000000000000000000815273ffffffffffffffffffffffffffffffffffffffff84166004820152602481018290526044810183905260640161043e565b61068d84848484035f6109f3565b50505050565b73ffffffffffffffffffffffffffffffffffffffff83166106e2576040517f96c6fd1e0000000000000000000000000000000000000000000000000000000081525f600482015260240161043e565b73ffffffffffffffffffffffffffffffffffffffff8216610731576040517fec442f050000000000000000000000000000000000000000000000000000000081525f600482015260240161043e565b6105c0838383610b38565b5f3073ffffffffffffffffffffffffffffffffffffffff7f0000000000000000000000000000000000000000000000000000000000000000161480156107a157507f000000000000000000000000000000000000000000000000000000000000000046145b156107cb57507f000000000000000000000000000000000000000000000000000000000000000090565b610344604080517f8b73c3c69bb8fe3d512ecc4cf759cc79239f7b179b0ffacaa9a75d522b39400f60208201527f0000000000000000000000000000000000000000000000000000000000000000918101919091527f000000000000000000000000000000000000000000000000000000000000000060608201524660808201523060a08201525f9060c00160405160208183030381529060405280519060200120905090565b73ffffffffffffffffffffffffffffffffffffffff82166108c1576040517fec442f050000000000000000000000000000000000000000000000000000000081525f600482015260240161043e565b6103535f8383610b38565b60606103447f00000000000000000000000000000000000000000000000000000000000000006005610cdf565b60606103447f00000000000000000000000000000000000000000000000000000000000000006006610cdf565b73ffffffffffffffffffffffffffffffffffffffff8216610975576040517f96c6fd1e0000000000000000000000000000000000000000000000000000000081525f600482015260240161043e565b610353825f83610b38565b5f61031261098c61073c565b836040517f19010000000000000000000000000000000000000000000000000000000000008152600281019290925260228201526042902090565b5f5f5f5f6109d788888888610d88565b9250925092506109e78282610e7b565b50909695505050505050565b73ffffffffffffffffffffffffffffffffffffffff8416610a42576040517fe602df050000000000000000000000000000000000000000000000000000000081525f600482015260240161043e565b73ffffffffffffffffffffffffffffffffffffffff8316610a91576040517f94280d620000000000000000000000000000000000000000000000000000000081525f600482015260240161043e565b73ffffffffffffffffffffffffffffffffffffffff8085165f908152600160209081526040808320938716835292905220829055801561068d578273ffffffffffffffffffffffffffffffffffffffff168473ffffffffffffffffffffffffffffffffffffffff167f8c5be1e5ebec7d5bd14f71427d1e84f3dd0314c0f7b2291e5b200ac8c7c3b92584604051610b2a91815260200190565b60405180910390a350505050565b73ffffffffffffffffffffffffffffffffffffffff8316610b6f578060025f828254610b6491906112b1565b90915550610c1f9050565b73ffffffffffffffffffffffffffffffffffffffff83165f9081526020819052604090205481811015610bf4576040517fe450d38c00000000000000000000000000000000000000000000000000000000815273ffffffffffffffffffffffffffffffffffffffff85166004820152602481018290526044810183905260640161043e565b73ffffffffffffffffffffffffffffffffffffffff84165f9081526020819052604090209082900390555b73ffffffffffffffffffffffffffffffffffffffff8216610c4857600280548290039055610c73565b73ffffffffffffffffffffffffffffffffffffffff82165f9081526020819052604090208054820190555b8173ffffffffffffffffffffffffffffffffffffffff168373ffffffffffffffffffffffffffffffffffffffff167fddf252ad1be2c89b69c2b068fc378daa952ba7f163c4a11628f55a4df523b3ef83604051610cd291815260200190565b60405180910390a3505050565b606060ff8314610cf957610cf283610f7e565b9050610312565b818054610d0590611260565b80601f0160208091040260200160405190810160405280929190818152602001828054610d3190611260565b8015610d7c5780601f10610d5357610100808354040283529160200191610d7c565b820191905f5260205f20905b815481529060010190602001808311610d5f57829003601f168201915b50505050509050610312565b5f80807f7fffffffffffffffffffffffffffffff5d576e7357a4501ddfe92f46681b20a0841115610dc157505f91506003905082610e71565b604080515f808252602082018084528a905260ff891692820192909252606081018790526080810186905260019060a0016020604051602081039080840390855afa158015610e12573d5f5f3e3d5ffd5b50506040517fffffffffffffffffffffffffffffffffffffffffffffffffffffffffffffffe0015191505073ffffffffffffffffffffffffffffffffffffffff8116610e6857505f925060019150829050610e71565b92505f91508190505b9450945094915050565b5f826003811115610e8e57610e8e6112e9565b03610e97575050565b6001826003811115610eab57610eab6112e9565b03610ee2576040517ff645eedf00000000000000000000000000000000000000000000000000000000815260040160405180910390fd5b6002826003811115610ef657610ef66112e9565b03610f30576040517ffce698f70000000000000000000000000000000000000000000000000000000081526004810182905260240161043e565b6003826003811115610f4457610f446112e9565b03610353576040517fd78bce0c0000000000000000000000000000000000000000000000000000000081526004810182905260240161043e565b60605f610f8a83610fbb565b6040805160208082528183019092529192505f91906020820181803683375050509182525060208101929092525090565b5f60ff8216601f811115610312576040517fb3512b0c00000000000000000000000000000000000000000000000000000000815260040160405180910390fd5b5f81518084528060208401602086015e5f6020828601015260207fffffffffffffffffffffffffffffffffffffffffffffffffffffffffffffffe0601f83011685010191505092915050565b602081525f6110596020830184610ffb565b9392505050565b803573ffffffffffffffffffffffffffffffffffffffff81168114611083575f5ffd5b919050565b5f5f60408385031215611099575f5ffd5b6110a283611060565b946020939093013593505050565b5f5f5f606084860312156110c2575f5ffd5b6110cb84611060565b92506110d960208501611060565b929592945050506040919091013590565b5f602082840312156110fa575f5ffd5b61105982611060565b7fff000000000000000000000000000000000000000000000000000000000000008816815260e060208201525f61113d60e0830189610ffb565b828103604084015261114f8189610ffb565b6060840188905273ffffffffffffffffffffffffffffffffffffffff8716608085015260a0840186905283810360c0850152845180825260208087019350909101905f5b818110156111b1578351835260209384019390920191600101611193565b50909b9a5050505050505050505050565b5f5f5f5f5f5f5f60e0888a0312156111d8575f5ffd5b6111e188611060565b96506111ef60208901611060565b95506040880135945060608801359350608088013560ff81168114611212575f5ffd5b9699959850939692959460a0840135945060c09093013592915050565b5f5f60408385031215611240575f5ffd5b61124983611060565b915061125760208401611060565b90509250929050565b600181811c9082168061127457607f821691505b6020821081036112ab577f4e487b71000000000000000000000000000000000000000000000000000000005f52602260045260245ffd5b50919050565b80820180821115610312577f4e487b71000000000000000000000000000000000000000000000000000000005f52601160045260245ffd5b7f4e487b71000000000000000000000000000000000000000000000000000000005f52602160045260245ffdfea2646970667358221220f62bada287139456387e287b9b71ea11f4f0d39d47f8c11405cc76e02ea6151a64736f6c634300081e0033","linkReferences":{}},"methodIdentifiers":{"DOMAIN_SEPARATOR()":"3644e515","allowance(address,address)":"dd62ed3e","approve(address,uint256)":"095ea7b3","balanceOf(address)":"70a08231","burn(address,uint256)":"9dc29fac","decimals()":"313ce567","eip712Domain()":"84b0196e","mint(address,uint256)":"40c10f19","name()":"06fdde03","nonces(address)":"7ecebe00","permit(address,address,uint256,uint256,uint8,bytes32,bytes32)":"d505accf","symbol()":"95d89b41","totalSupply()":"18160ddd","transfer(address,uint256)":"a9059cbb","transferFrom(address,address,uint256)":"23b872dd"},"id":96}