{"abi":[{"type":"function","name":"setGuard","inputs":[{"name":"guard","type":"address","internalType":"address"}],"outputs":[],"stateMutability":"nonpayable"},{"type":"event","name":"ChangedGuard","inputs":[{"name":"guard","type":"address","indexed":false,"internalType":"address"}],"anonymous":false}],"bytecode":{"object":"0x6080604052348015600e575f5ffd5b506102e88061001c5f395ff3fe608060405234801561000f575f5ffd5b5060043610610029575f3560e01c8063e19a9dd91461002d575b5f5ffd5b61004061003b366004610259565b610042565b005b61004a6101ee565b73ffffffffffffffffffffffffffffffffffffffff81161561017d576040517f01ffc9a70000000000000000000000000000000000000000000000000000000081527fe6d7a83a00000000000000000000000000000000000000000000000000000000600482015273ffffffffffffffffffffffffffffffffffffffff8216906301ffc9a790602401602060405180830381865afa1580156100ee573d5f5f3e3d5ffd5b505050506040513d601f19601f820116820180604052508101906101129190610293565b61017d576040517f08c379a000000000000000000000000000000000000000000000000000000000815260206004820152600560248201527f475333303000000000000000000000000000000000000000000000000000000060448201526064015b60405180910390fd5b7f4a204f620c8c5ccdca3fd54d003badd85ba500436a431f0cbda4f558c93c34c881815560405173ffffffffffffffffffffffffffffffffffffffff831681527f1151116914515bc0891ff9047a6cb32cf902546f83066499bcf8ba33d2353fa29060200160405180910390a15050565b333014610257576040517f08c379a000000000000000000000000000000000000000000000000000000000815260206004820152600560248201527f47533033310000000000000000000000000000000000000000000000000000006044820152606401610174565b565b5f60208284031215610269575f5ffd5b813573ffffffffffffffffffffffffffffffffffffffff8116811461028c575f5ffd5b9392505050565b5f602082840312156102a3575f5ffd5b8151801515811461028c575f5ffdfea2646970667358221220c7628711139a6d39b18559a5c3aee1cc7a86433855d12d6295fe3a223e47fdf564736f6c634300081e0033","linkReferences":{}},"methodIdentifiers":{"setGuard(address)":"e19a9dd9"},"id":48}