{"abi":[{"type":"constructor","inputs":[],"stateMutability":"nonpayable"},{"type":"function","name":"allowance","inputs":[{"name":"","type":"address","internalType":"address"},{"name":"","type":"address","internalType":"address"}],"outputs":[{"name":"","type":"uint256","internalType":"uint256"}],"stateMutability":"view"},{"type":"function","name":"approve","inputs":[{"name":"spender","type":"address","internalType":"address"},{"name":"amount","type":"uint256","internalType":"uint256"}],"outputs":[],"stateMutability":"nonpayable"},{"type":"function","name":"balanceOf","inputs":[{"name":"","type":"address","internalType":"address"}],"outputs":[{"name":"","type":"uint256","internalType":"uint256"}],"stateMutability":"view"},{"type":"function","name":"decimals","inputs":[],"outputs":[{"name":"","type":"uint8","internalType":"uint8"}],"stateMutability":"view"},{"type":"function","name":"name","inputs":[],"outputs":[{"name":"","type":"string","internalType":"string"}],"stateMutability":"view"},{"type":"function","name":"setGarbage","inputs":[{"name":"_garbage","type":"bytes","internalType":"bytes"}],"outputs":[],"stateMutability":"nonpayable"},{"type":"function","name":"symbol","inputs":[],"outputs":[{"name":"","type":"string","internalType":"string"}],"stateMutability":"view"},{"type":"function","name":"totalSupply","inputs":[],"outputs":[{"name":"","type":"uint256","internalType":"uint256"}],"stateMutability":"view"},{"type":"function","name":"transfer","inputs":[{"name":"to","type":"address","internalType":"address"},{"name":"amount","type":"uint256","internalType":"uint256"}],"outputs":[],"stateMutability":"nonpayable"},{"type":"function","name":"transferFrom","inputs":[{"name":"from","type":"address","internalType":"address"},{"name":"to","type":"address","internalType":"address"},{"name":"amount","type":"uint256","internalType":"uint256"}],"outputs":[],"stateMutability":"nonpayable"},{"type":"event","name":"Approval","inputs":[{"name":"owner","type":"address","indexed":true,"internalType":"address"},{"name":"spender","type":"address","indexed":true,"internalType":"address"},{"name":"amount","type":"uint256","indexed":false,"internalType":"uint256"}],"anonymous":false},{"type":"event","name":"Transfer","inputs":[{"name":"from","type":"address","indexed":true,"internalType":"address"},{"name":"to","type":"address","indexed":true,"internalType":"address"},{"name":"amount","type":"uint256","indexed":false,"internalType":"uint256"}],"anonymous":false}],"bytecode":{"object":"0x6080604052348015600e575f5ffd5b505f195f8181553381526001602052604090205561093f8061002f5f395ff3fe608060405234801561000f575f5ffd5b50600436106100b9575f3560e01c8063313ce5671161007257806395d89b411161005857806395d89b4114610199578063a9059cbb146101d5578063dd62ed3e146101e8575f5ffd5b8063313ce5671461016057806370a082311461017a575f5ffd5b806318160ddd116100a257806318160ddd1461012457806323b872dd1461013a5780632abbae0f1461014d575f5ffd5b806306fdde03146100bd578063095ea7b31461010f575b5f5ffd5b6100f96040518060400160405280601381526020017f52657475726e7347617262616765546f6b656e0000000000000000000000000081525081565b60405161010691906104cc565b60405180910390f35b61012261011d366004610547565b610212565b005b61012c5f5481565b604051908152602001610106565b61012261014836600461056f565b61030e565b61012261015b3660046105d6565b61043b565b610168601281565b60405160ff9091168152602001610106565b61012c6101883660046106c6565b60016020525f908152604090205481565b6100f96040518060400160405280600381526020017f524754000000000000000000000000000000000000000000000000000000000081525081565b6101226101e3366004610547565b61044b565b61012c6101f63660046106e6565b600260209081525f928352604080842090915290825290205481565b335f81815260026020908152604080832073ffffffffffffffffffffffffffffffffffffffff871680855290835292819020859055518481529192917f8c5be1e5ebec7d5bd14f71427d1e84f3dd0314c0f7b2291e5b200ac8c7c3b92591015b60405180910390a35f6003805461028890610717565b80601f01602080910402602001604051908101604052809291908181526020018280546102b490610717565b80156102ff5780601f106102d6576101008083540402835291602001916102ff565b820191905f5260205f20905b8154815290600101906020018083116102e257829003601f168201915b50505050509050805160208201f35b73ffffffffffffffffffffffffffffffffffffffff83165f9081526002602090815260408083203384529091529020547fffffffffffffffffffffffffffffffffffffffffffffffffffffffffffffffff81146103a05761036f8282610768565b73ffffffffffffffffffffffffffffffffffffffff85165f9081526002602090815260408083203384529091529020555b73ffffffffffffffffffffffffffffffffffffffff84165f90815260016020526040812080548492906103d4908490610768565b909155505073ffffffffffffffffffffffffffffffffffffffff8084165f81815260016020526040908190208054860190555190918616907fddf252ad1be2c89b69c2b068fc378daa952ba7f163c4a11628f55a4df523b3ef906102729086815260200190565b600361044782826107f2565b5050565b335f9081526001602052604081208054839290610469908490610768565b909155505073ffffffffffffffffffffffffffffffffffffffff82165f81815260016020526040908190208054840190555133907fddf252ad1be2c89b69c2b068fc378daa952ba7f163c4a11628f55a4df523b3ef906102729085815260200190565b602081525f82518060208401528060208501604085015e5f6040828501015260407fffffffffffffffffffffffffffffffffffffffffffffffffffffffffffffffe0601f83011684010191505092915050565b803573ffffffffffffffffffffffffffffffffffffffff81168114610542575f5ffd5b919050565b5f5f60408385031215610558575f5ffd5b6105618361051f565b946020939093013593505050565b5f5f5f60608486031215610581575f5ffd5b61058a8461051f565b92506105986020850161051f565b929592945050506040919091013590565b7f4e487b71000000000000000000000000000000000000000000000000000000005f52604160045260245ffd5b5f602082840312156105e6575f5ffd5b813567ffffffffffffffff8111156105fc575f5ffd5b8201601f8101841361060c575f5ffd5b803567ffffffffffffffff811115610626576106266105a9565b6040517fffffffffffffffffffffffffffffffffffffffffffffffffffffffffffffffe0603f7fffffffffffffffffffffffffffffffffffffffffffffffffffffffffffffffe0601f8501160116810181811067ffffffffffffffff82111715610692576106926105a9565b6040528181528282016020018610156106a9575f5ffd5b816020840160208301375f91810160200191909152949350505050565b5f602082840312156106d6575f5ffd5b6106df8261051f565b9392505050565b5f5f604083850312156106f7575f5ffd5b6107008361051f565b915061070e6020840161051f565b90509250929050565b600181811c9082168061072b57607f821691505b602082108103610762577f4e487b71000000000000000000000000000000000000000000000000000000005f52602260045260245ffd5b50919050565b818103818111156107a0577f4e487b71000000000000000000000000000000000000000000000000000000005f52601160045260245ffd5b92915050565b601f8211156107ed57805f5260205f20601f840160051c810160208510156107cb5750805b601f840160051c820191505b818110156107ea575f81556001016107d7565b50505b505050565b815167ffffffffffffffff81111561080c5761080c6105a9565b6108208161081a8454610717565b846107a6565b6020601f821160018114610871575f831561083b5750848201515b7fffffffffffffffffffffffffffffffffffffffffffffffffffffffffffffffff600385901b1c1916600184901b1784556107ea565b5f848152602081207fffffffffffffffffffffffffffffffffffffffffffffffffffffffffffffffe08516915b828110156108be578785015182556020948501946001909201910161089e565b50848210156108fa57868401517fffffffffffffffffffffffffffffffffffffffffffffffffffffffffffffffff600387901b60f8161c191681555b50505050600190811b0190555056fea26469706673582212201b484ba4e74557b1f513cfdc7de769729e5b05208a41ddfc318115c2fbe6fe9a64736f6c634300081e0033","linkReferences":{}},"methodIdentifiers":{"allowance(address,address)":"dd62ed3e","approve(address,uint256)":"095ea7b3","balanceOf(address)":"70a08231","decimals()":"313ce567","name()":"06fdde03","setGarbage(bytes)":"2abbae0f","symbol()":"95d89b41","totalSupply()":"18160ddd","transfer(address,uint256)":"a9059cbb","transferFrom(address,address,uint256)":"23b872dd"},"id":74}